:1000000000000110E500000075010000590100002A
:100010007501000075010000750100007501000008
:10002000750100007501000075010000192700002E
:1000300075010000750100001D2700002127000048
:1000400075470000754700007547000075470000C0
:1000500075470000754700007547000075470000B0
:1000600075470000754700007547000075470000A0
:100070007547000075470000754700007547000090
:100080007547000075470000754700007547000080
:100090007547000075470000754700007547000070
:1000A0007547000075470000754700007547000060
:1000B0007547000075470000754700007547000050
:1000C0007547000075470000754700007547000040
:1000D0007547000075470000754700007547000030
:1000E0007547000008B500F057F900F073F900F00B
:1000F0007BF900F09BF800F095F802F067F902F048
:1001000097F800F0BFF840B141F28734002502F0C3
:1001100089F98D4208BF8442F9D200F082F918B9FA
:100120000849094806F03CF80649084806F038F83E
:1001300002F04AFA064B07481B68D96804F0C6FF6C
:10014000FEE700BF3CA3000048A3000075A3000029
:100150005C0100108DA300001EF0040F0CBFEFF334
:100160000880EFF309808169004A1047D10100003F
:100170007047FFFF38B50F4C0F4B10481D782368B0
:10018000D96804F0A3FF23680D49D8682A4604F013
:10019000E5FE0F2D236807D80A4A0B4952F825209F
:1001A000D86804F0DBFEFEE7D968084804F08EFF4B
:1001B000F9E700BF5C01001004ED00E0C8A30000F7
:1001C000E2A30000D4A400001CA400003AA4000094
:1001D00010B5044600F04AF8236883606368C36082
:1001E000A3680361E3684361236943626369013B78
:1001F000C361A3698361E3690362BFF34F8F05495C
:10020000054BCA6802F4E0621343CB60BFF34F8F23
:1002100000BFFDE700ED00E00400FA05004870476C
:1002200000D8B8050048704700D8B8050E4B072223
:10023000C3F88420AA210122C3F88020C3F88C10BF
:100240005521C3F88C10C3F8A821D3F88820520593
:10025000FBD51A6822F4704242F480421A6040F2E0
:100260000112C3F80421704700C00F400248034A3E
:10027000034BC0E90023704700000020EFBEADDE55
:100280001041522138B5224C224B22689A423DD16E
:100290006268214B9A4239D1204D21482B68D96898
:1002A00004F014FF2B68A2691E49D86804F056FEBA
:1002B0002B68E2691C49D86804F050FE2B68226A5A
:1002C0001A49D86804F04AFE2B68A2681849D86811
:1002D00004F044FE2B68E2681649D86804F03EFE3C
:1002E0002B6822691449D86804F038FE2B686269CB
:1002F0001249D86804F032FE2B681148D96804F01E
:10030000E5FE01200023C4E9003338BD0020F9E7F1
:1003100000000020EFBEADDE104152215C01001054
:1003200014A5000067A5000076A5000085A50000C3
:1003300094A50000A3A50000B2A50000C1A500007F
:10034000D0A500000E4A136810B50E4C1918A14232
:10035000116002D30C4CA1420BD313600B4A0C4921
:1003600013681844884208D30A49884205D21060AD
:1003700001E0002BF2D0184610BD0023FBE700BFC0
:100380000000001028000020008000200400001061
:10039000880B001000000110094A0A4B0A498B42E1
:1003A00005D30A4B0A4A0021934205D3704712F83D
:1003B000010B03F8010BF2E703F8011BF4E700BFA0
:1003C000FCB80000000000103003001030030010E3
:1003D000880B0010034AD2F8883043F47003C2F847
:1003E0008830704700ED00E0044800232021C21847
:1003F0000133292B82F80013F9D1704700E100E0A6
:1004000008B52A2219233821022004F097F90D2279
:100410003821022004F064F9A0F12A03584258411F
:1004200008BDFFF7EDBF42884378007843EA022316
:1004300040EA032070470B0A017043700B0C090E51
:100440008370C170704710B5024410F8013B11F879
:10045000014B9042A3EB040301D0002BF5D01846CA
:1004600010BDC3690239023B8B4283BF4389006BD5
:1004700001FB030000207047024600F10B01002041
:10048000C30143EA500312F8010B50FA83F38A4286
:10049000D8B2F5D1704702684AB1134613F8011B70
:1004A0001F290BD93A29F9D1911C8B4202D04FF068
:1004B000FF3070471278302AF9D10360002070476E
:1004C00001380A4411F8013B00F8013F9142F9D18B
:1004D0007047CA7E8B7E032843EA022301BF487D12
:1004E0000A7D42EA002243EA024318467047C2F3FB
:1004F00007238A76CB760378032B01BF120C0A758B
:10050000120A4A75704770B500F13806426B04460E
:1005100001233146407801F0CCFA054688B9616B79
:10052000A36A226AE070CB1A934208D2A378022B06
:1005300005D10A4401233146607801F0BAFA284611
:1005400070BD0125FBE738B5436B8B4204460D4671
:1005500019D0C3788BB901232A4604F13801607899
:1005600001F093FA002818BF4FF0FF35034665638A
:100570000CBF03460123184638BDFFF7C4FF0346EE
:100580000028F8D1E7E70023F5E7FFFF38B500239F
:10059000C3704FF0FF3343630546FFF7D4FF0446B3
:1005A00018BB95F8372295F8363243EA02234AF60B
:1005B000552293421BD195F83830EB2B03D01833DA
:1005C000DBB2012B15D803220B4905F16E00FFF7B2
:1005D0003AFF40B10522094905F18A00FFF733FFD0
:1005E000002818BF0224204638BD0424FBE703245A
:1005F000F9E70224F7E700BF31A7000035A70000A4
:100600002DE9F043002385B00B600F461546FFF738
:1006100042FF061EC0F23981A44B53F82640002C3D
:1006200000F03581206901F095F9002800F0318152
:100630003C60237805F0FE056BB1607801F020FA8C
:10064000C10708D41DB110F0040500D00A252846C2
:1006500005B0BDE8F0830023F0B22370607001F0B4
:1006600001FAC20700F117810DB14307EED4002152
:100670002046FFF78BFF022840F0EE806F4604F51E
:10068000FF7104F23E263D4611F8040C10B10846F5
:10069000FFF7C9FE10318E4245F8040BF4D1002556
:1006A00057F8046B002E00F0CE8031462046FFF74D
:1006B0006DFF012800F2C88094F8442094F843307C
:1006C00043EA0223B3F5007F40F0CA8094F84F302C
:1006D00094F84E5055EA032504D104F15C00FFF76D
:1006E000A2FE054694F8481025624B1E012BA1700E
:1006F00000F2B68094F845901FFA89F36381002BCD
:1007000000F0AE8009F1FF3313EA090F40F0A88032
:1007100094F84A3094F8497047EA03273FB21FFA29
:1007200087F818F00F0FA4F8088040F0998094F82B
:100730004C3094F84B0050EA032003D104F15800E8
:10074000FFF771FE94F8472094F8463053EA0223ED
:1007500000F0868005FB01FC03EB18126244904216
:100760007ED3801A4845B0FBF9F179D350488142D5
:1007700076D84FF6F570814240F28F804FF0030932
:10078000023133443244B9F1030FE1616662A3627E
:10079000226369D194F8632094F8623043EA02231B
:1007A0001F433FB2002F5BD104F16400FFF73BFE13
:1007B000E062890001F2FF11B5EB512F50D34FF0E9
:1007C000FF33C4E90533B9F1030F4FF08003237100
:1007D0002FD194F8692094F8683043EA0223012B62
:1007E00027D1711C2046FFF7AEFE10BB94F83722CC
:1007F00094F83632207143EA02234AF65522934296
:1008000017D104F13800FFF70EFE2A4B984210D1A1
:1008100004F50770FFF707FE274B984209D104F54E
:100820000870FFF700FEA06104F50970FFF7FBFDFB
:100830006061224A84F80090138801339BB21380D0
:10084000E380002503E703200135042D7FF428AF62
:10085000042805D10125FAE60428FBD0012801D996
:100860000D25F4E6002627E7B8F1000FF8D0634421
:10087000B9F1020FE3624FEA41031BBF5B1801F0BD
:100880000101194601EB530194E70B25DFE60C2526
:10089000DDE60F25DBE60325D9E640F6F579494587
:1008A0008CBF4FF002094FF0010969E730030010D7
:1008B000F5FFFF0F52526141727241613403001023
:1008C00001292DE9F04705460C46174672D9C36940
:1008D0008B426FD90378022B3FD0032B50D0012BD2
:1008E00068D101EB5108816A01EB5821FFF72BFE1B
:1008F000064638BB05F1380908F1010AC8F30808B3
:1009000014F001041FBF19F8083003F00F023B0177
:1009100003F0F00314BF1343FBB209F80830A96ACF
:100920000123EB7001EB5A212846FFF70CFE064627
:1009300040B9CAF3080A44B1C7F3071709F80A70A7
:100940000123EB703046BDE8F08719F80A30C7F391
:10095000032723F00F031F43F0E7816A01EB142103
:10096000FFF7F1FD06460028ECD1640005F13803DD
:1009700004F4FF741A191F55C7F307275770DFE7F0
:10098000816A01EBD411FFF7DEFD06460028D9D1BC
:10099000A40005F1380304F4FE741C442046FFF75C
:1009A00042FD27F0704700F0704139432046FFF7C1
:1009B00042FDC5E70226C5E70129F8B505460C4604
:1009C00052D9C36999424FD20378022B29D0032B05
:1009D00038D0012B48D101EB5106816A01EB562139
:1009E000FFF7B1FD10B14FF0FF30F8BD771CA96AD9
:1009F000C6F308062E4401EB5721284696F83860C6
:100A0000FFF7A1FD0028EED1C7F308073D44E30737
:100A100095F8380046EA00204CBF0009C0F30B00EF
:100A2000E3E7816A01EB1421FFF78DFD0028DAD19D
:100A30006400383504F4FF742B19285D5B7840EAB4
:100A40000320D2E7816A01EBD411FFF77CFD002877
:100A5000C9D1A40005F1380004F4FE742044FFF766
:100A6000E2FC20F07040C0E70120BEE7B1F5001FB6
:100A7000F8B506460D4601D30220F8BDCA06FBD1E3
:100A8000826804683161CAB92378022B01D9E36A0C
:100A90009BB92389B3EB551FEED9E36AB361B36900
:100AA0007261002BE8D003EB55233834C5F30805F9
:100AB0002C44B361F4610020DFE71A4667897F02A6
:100AC000BD42114604D22046FFF7CBFCB061E6E7F9
:100AD0003068FFF771FF431C024606D00128CBD9CE
:100AE000E3698342C8D9ED1BEAE70120C5E72DE998
:100AF000F041804605680F4649B96E69C6B1EB6999
:100B0000B34298BF0126AB69A3B9002406E028468A
:100B1000FFF752FF0128044603D801242046BDE810
:100B2000F081421C51D0EB698342F7D83E46EAE798
:100B30000126E8E7BE4215D1EB69D8F80000741C25
:100B4000A34298BF02242146FFF736FF0128E4D0D4
:100B5000431C3AD0D8B16B69012B03D9EA6993429F
:100B600038BF1E463446EB690134A34202D8012E39
:100B7000CBD902242146D8F80000FFF71DFF40B171
:100B80000128CAD0013020D0B442ECD1BDE7002CFE
:100B9000E8D04FF0FF3221462846FFF791FE90B98A
:100BA00057B9D5E90632023A93426C6110D92B79D4
:100BB00043F001032B71B1E7224639462846FFF77F
:100BC0007FFE0028EDD00128A7D14FF0FF34A5E724
:100BD000013BAB61EBE7F8B50D46012D0746114629
:100BE00004682BD9E369AB4228D92AB14FF0FF3210
:100BF0002046FFF765FE30B929463868FFF7DCFE6E
:100C0000064608B90020F8BD012817D0431C17D0AC
:100C1000002229462046FFF753FE0028F3D1D4E9ED
:100C20000632911E8B4205D20133A361237943F032
:100C300001032371B2423546DED8E3E70220E2E742
:100C40000120E0E740B1A1F10B03012B04D90F29EA
:100C500002D0006900F087BE704738B50D460446E3
:100C6000F0B10368DBB11A78B2B18188DA889142B9
:100C700012D1186900F06EFE034698B123685878C7
:100C800000F0FEFE10F0010002D124682C6038BD97
:100C900000212068FFF7D6FF09200024F6E71C4654
:100CA0000920F3E70F201C46F0E7F8B5C3780446A7
:100CB0000D46C3B929462046FFF7D3FB04F1380699
:100CC0000746606304F50E723346002103F8011BEA
:100CD0009342FBD1002563899D420AD36089401B62
:100CE00018BF0120F8BDFFF70EFC0028E2D001205C
:100CF000F8E701237A193146607800F0DAFE00281F
:100D0000ECD10135E7E72DE9F8430769056820379D
:100D1000B7F5001F24BF0023836183690446894619
:100D200073B1C7F30808B8F1000F39D14169013335
:100D3000836139B92B89B3EB571F31D80023A361E5
:100D400004200BE06B89013B13EA572328D1284686
:100D5000FFF732FE0128064602D80220BDE8F883DC
:100D6000421C01D10120F9E7EB69834212D8B9F1A5
:100D7000000FE3D061692046FFF7B9FE0646A8B12F
:100D80000128EAD0431CEDD001462846FFF78DFF2D
:100D90000028E7D1666131462846FFF762FBA06173
:100DA000383545442761E5610020D7E70720D5E7BE
:100DB0002DE9F04F002185B00446D0F80080FFF700
:100DC00055FE8146002840F08C804FF0FF334FF0F5
:100DD000FF0AE36257460093A1694046FFF7B3FB61
:100DE000814600287DD1E5692E78002E7DD0EA7AF3
:100DF000E52E02F03F03A37103D0100704D50F2B9B
:100E000004D0009BE36252E00F2B57D194F82B30B3
:100E1000590642D4720648D5236995F80DA0E362BD
:100E200006F0BF066B7B534541D1EA7EAB7E53EAA9
:100E300002233CD12F78D8F80CB007F03F077B1E77
:100E40000D275F432A4B012113F8012BA81815F831
:100E50000290407849EA002959B37F2F039326D89E
:100E6000484600F0B9FD7A1C02903BF81700019249
:100E700000F0B2FD0299814219D1019A039B4946C3
:100E800017461C4A9A42DFD12B785B0603D511B175
:100E90003BF817305BB9013EF7B200212046FFF75F
:100EA00032FF8146002897D01BE0B742BAD0FF2717
:100EB000F3E74FF6FF729145E3D0F8E727B92846EC
:100EC000FFF7DAFA50450CD094F82B9019F001098D
:100ED00097D10B2204F120012846FFF7B4FA00282D
:100EE0008FD1484605B0BDE8F08F4FF00409F8E710
:100EF00024A7000031A700002DE9F04F85B003685A
:100F0000019306468A4611F8013B2F2BFAD05C2B41
:100F1000F8D00021B1609AF800301F2B00F2CD808C
:100F20008023304686F82B3005B0BDE8F04FFFF740
:100F30009DBD7F2807D8924A12F8013B1BB1984209
:100F4000FAD106204EE0802DFBD02BF8150001359C
:100F5000B7E033F8022D202A02D02E2A40F0D480A8
:100F6000013DCEE00246D7E0C84505D2AB4249D1AB
:100F7000B9F10B0F3ED102E0B9F10B0F35D144F0BE
:100F800003044FF00B0996F82030E52B04BF05232E
:100F900086F82030B9F1080F04BFBF00FFB207F098
:100FA0000C030C2B03D007F00303032B01D144F0F7
:100FB0000204A50707D4F80748BF44F010047907D6
:100FC00048BF44F0080486F82B403046FFF7F0FE97
:100FD00096F82B3000285FD0042803D113F0040FBB
:100FE00008BF052005B0BDE8F08FAB4202D044F049
:100FF0000304C8D8BF00FFB22B464FF00B094FF0D7
:101000000808B9E07F2812D944F0020240F2B51175
:101010000393029200F0ACFC10F0800FDDE9022394
:101020000FD000F07F005749085C144628B156499C
:1010300011F8012BF2B18242FAD144F003045F208F
:1010400011E0FF28F1D909F1FF31884503D344F0BD
:101050000304C84690E006EB0801040A81F820402A
:1010600008F10108144606EB080208F1010882F8AD
:10107000200081E0A0F1410292B2192A02D847F083
:101080000207F0E7A0F1610292B2192A9EBF203850
:1010900047F0010780B2E6E75A07A3D4B379DB062D
:1010A0006CD5019B03F138013369C3F3080319447C
:1010B000019B1878FFF70DFAB0603368D3F80CB0D5
:1010C00000251AF8010B68B140F2B51100F070FC70
:1010D00000283FF436AF1F2804D92F2802D05C28FF
:1010E0007FF427AF524613782F2B924602F101026C
:1010F000F9D05C2BF7D0202834BF042400240BEB5C
:101100004503002D7FF425AF00220BEB45032BF8A0
:101110001520002D3FF415AF3BF81210202902F1E5
:1011200001003FF41FAF0AB92E2901D144F0030496
:1011300033F8021D2E2901D0013DF9D106F120031B
:1011400006F12B01202003F8010B9942FBD14FF04F
:1011500000084FF0080947463BF81200531C0028CE
:101160003FF411AF202805D02E287FF4FDAEAB420E
:101170003FF4FEAE44F003041A46EDE7052031E7E4
:101180003BA70000A4A6000044A7000070B5C378E8
:101190000446002B45D12378032B39D12379012B29
:1011A00036D104F1380604F50E723346002503F8F3
:1011B000015B9342FBD1552384F83632AA2384F88D
:1011C000373252234122722184F8383084F8393082
:1011D000612384F83A3084F83B2084F81E2284F896
:1011E0001F3284F81C1284F81D1204F50870A169DE
:1011F000FFF721F9616904F50970FFF71CF9626ACC
:101200006078013262630123314600F052FC25719F
:1012100000221146607800F060FC003018BF012009
:1012200003E0FFF770F90028B5D070BD2DE9F04F4D
:1012300090F82B4014F0A00489B0054640F08F8050
:101240000668F26832F81430002B66D105F12007E9
:101250000C22394605A8FFF733F99DF81F30DB074C
:1012600040F186804023DFF8448285F82B304FF030
:10127000010A0B2205A93846D6F80C90FFF720F991
:10128000BAF1050F5AD9A9F10201534631F8022FDC
:10129000002A44D10DF11300072203F00F0C0CF1CA
:1012A0003001392988BF0CF137010F2B00F80119E3
:1012B00002F1FF324FEA131142D808AB13447E21EA
:1012C00003F8141C05F11F0108460023934206D0C1
:1012D00010F801CFBCF1200F03F1010E32D1072A23
:1012E0009CBF08A8801803F1010396BF10F8140CE6
:1012F00020200132072BC854F1D92846FFF758FDAA
:10130000814678BB0AF1010ABAF1640FB1D14FF0FE
:101310000709484609B0BDE8F08F013492E7102074
:1013200002F0010C0CEB430313F4803F18BF83EA77
:10133000080301384FEA5202F2D1A7E75346A9E762
:101340000B46AAE77346C1E7804601212846FFF70E
:10135000DAFC814610B3B9F1040FD8D0D9E74FF0C9
:101360000609D6E70428D4D19DF81F3085F82B3024
:101370009DF81F30D5F800A09B0748BF0C344FF0F4
:101380000001284649BF0D230124B4FBF3F40134C6
:10139000FFF76CFB81460028DDD18046A9695046E5
:1013A000FFF7D1F881460028D5D1EB691B78E52BF2
:1013B00001D0002BC8D108F101084445C5D1013C3A
:1013C00055D029692846A1EB4411FFF74FFB814610
:1013D00000289ED13846FFF74FF84FF6FF7801906E
:1013E000A9693046FFF7AFF88146002891D1EB6933
:1013F000019AD6F80CE05A73E1B24FF00F024FF0A9
:101400000D0CDA72DFF8A8A018734A1E0CFB02F26A
:101410009876D876844640451AF8019B18BF3EF866
:10142000120003F8090003EB090B0CF1010C18BFC3
:1014300001324FEA1029002808BF4046BCF10D0FC9
:101440008BF80190E7D1404502D03EF812200AB94E
:1014500041F0400119700123F37000212846FFF785
:1014600052FC814600287FF454AF013CB8D1A969F1
:101470003046FFF768F8814600287FF44AAFEB69F1
:10148000014603F1200203F8011B9342FBD10B221A
:101490003946E869FFF714F895F82B30EA6903F04C
:1014A000180313730123F37033E700BF2110010009
:1014B00024A70000F0B585B0CDE9001003A81446BC
:1014C0000391FEF7E8FF051E28DB154F57F825604E
:1014D0004EB1306900F039FA18B90224204605B03F
:1014E000F0BD00233370019979B9019B47F825308D
:1014F000002CF3D001A900226846FFF781F80446CA
:1015000001460198FFF79EFBE8E7002301F8103B36
:10151000E8B200F010FA0028E7D1DEE70B24DDE79F
:10152000300300102DE9F041D0B017460191044678
:10153000002800F0DB8002F03F052A4602A901A83E
:10154000FFF75EF8064600284BD1029B01990393F2
:101550000FAADA6003A8FFF7CFFC20B99DF9373056
:10156000002BB8BF062017F01C0F00F09F8000284A
:1015700042D0042835D103A8FFF758FE88BB45F0B8
:101580000805029BDDF8288018784146FEF7A1FF88
:10159000074600F0B4FA014608F10E00FEF74BFFD3
:1015A0000A9B02982022DA720A990022FEF79FFF16
:1015B0000A9B00221A775A779A77DA77029B0121E1
:1015C000D97017B3394603A8D3F83480FFF703FB6B
:1015D00038B941460298FEF7B6FF029B013F5F61B2
:1015E00098B100232360064631460298FFF72AFB94
:1015F000304650B0BDE8F0819DF8123013F0110F65
:101600005ED178076CD43907BBD4DDF808800A9F17
:10161000D8F834302362676298F800002907394609
:1016200048BF45F04005FEF754FFA06007F11C00DD
:10163000FEF7F9FEB8F80630A38004F1280700236E
:10164000E060C4F8008025746374E361636104F5AD
:101650000A713A4602F8013B9142FBD1AA06C3D572
:10166000E568002DC0D0B8F80A80A16865614FEA2E
:101670004828A84526D30020A1610028B1D1C5F390
:101680000803002BB0D0DDF808804046FEF7E9FEE5
:1016900050B300EB5522E2610123394698F801006E
:1016A00000F0F3F900289FD001209AE7002898D194
:1016B0009DF81230DA0615D4BF07A6D5D807A4D5F1
:1016C00007208EE72068FFF777F901280146A5EB90
:1016D000080503D9431CCCD10120CDE70220CBE77C
:1016E00008207EE704207CE702207AE709267FE7CE
:1016F0002DE9F04F9B4685B000238946CBF800309A
:1017000003A904461646FFF7A8FA054608B9657C02
:1017100025B129460398FFF795FA08E0257C15F0D6
:10172000010508D107210398FFF78CFA0725284601
:1017300005B0BDE8F08FE3686769DF1BB74204F1CD
:10174000280328BF374600932FB939460398FFF77F
:1017500079FA3D46EBE76269C2F30803002B76D1C4
:10176000039B5B89013B13EA522313D12AB9A0687A
:10177000012809D802256574CBE7A1692068019387
:10178000FFF71AF9019BF3E7421C02D101216174B2
:10179000C0E7A061DDF80CA0A16901935046FEF7F7
:1017A00060FE019B20B90225657429465046B2E7C8
:1017B000B7F5007F03EB00082BD37E0ABAF80A20A6
:1017C0009AF801009919914288BFD61A33464246C9
:1017D000494600F05AF90028D8D194F91030002B6E
:1017E0000BDAE069A0EB0800B04206D24FF40072B9
:1017F000009909EB4020FEF763FE7602DBF800302B
:101800003344CBF800306369BF1BB1441E446661AA
:101810009AE7E269424518D094F91030002B0BDAB0
:10182000012300999AF8010000F043F90028ADD196
:10183000237C03F07F0323740398009940780123ED
:10184000424600F022F90028A0D1C4F81C8061694A
:10185000009BC1F30801C1F50076BE4228BF3E4699
:10186000324619444846FEF72BFEC7E7F7B501A9F3
:101870000446FFF7F2F90546002843D1237C13F014
:1018800040053FD01B0614D50198E269407801233A
:1018900004F1280100F00DF938B101210198FFF79A
:1018A000D1F90125284603B0F0BD237C03F07F0366
:1018B000237400F024F9216A07460198FEF743FEDD
:1018C0000546F8B9666AF37A43F02003F372A2681A
:1018D00020683146FEF70BFEE16806F11C00FEF7BA
:1018E000AAFD394606F11600FEF7A5FD0198B5746C
:1018F0000123F574C370FFF749FC237C23F04003F8
:101900000546237429460198FFF79CF9CAE737B5C5
:101910000546FFF7ABFF044650B901A92846FFF77B
:101920009CF9044620B9286001460198FFF78AF91E
:10193000204603B030BD10B501200C4601F0F7FA87
:101940002060003018BF012010BD08B501F05EFD19
:10195000012008BD08B540F6B83101F049FC431E2E
:101960005842584108BD00231A46194601F01CBAD6
:101970007F2810B501D880B210BDB0F5803F13D2DA
:1019800040F2B51399420FD10849002231F8024BB9
:10199000844293B203D103F18000C0B2ECE701327C
:1019A000802AF3D11346F6E70020E5E7FAA9000004
:1019B0007F280DD940F2B513994208D1FF2806D8E7
:1019C00000F10040034B803833F8100070470020CE
:1019D000704700BFFAA90000B0F5803FF0B521D2F2
:1019E0001E4A1F4983B2B0F5805F28BF0A46141D06
:1019F00034F8042C2146A2B1934212D334F8025C8D
:101A00002E0AEDB2AF18B84222DA082E09D8DFE864
:101A100006F0050A10121416181A1C00801A34F861
:101A200010301846F0BD981A00F001001B1A9BB246
:101A3000F7E7103BFBE7203BF9E7303BF7E71A3BC2
:101A4000F5E70833F3E7503BF1E7A3F5E353EEE79F
:101A50000434002ECCD101EB4502C8E74CA70000AE
:101A60003EA9000010B5044600F072FC34B900F045
:101A70000FF9044600F086FC204610BD0424F9E767
:101A800008B900F0A3B904207047F8B507460C4622
:101A900015461E4600F05CFC4FB92046F2B22946BE
:101AA00000F09CF9044600F06DFC2046F8BD0424CB
:101AB000F9E7F8B507460C4615461E4600F048FC07
:101AC0004FB92046F2B2294600F0CEF9044600F0A4
:101AD00059FC2046F8BD0424F9E770B506460C46CB
:101AE000154600F035FC46B92046294600F010FAAC
:101AF000044600F047FC204670BD0424F9E70020AE
:101B0000704738B500F08EFC00F5FA75FF2002F042
:101B10000BFFFF2002F008FFFF28044603D000F06F
:101B200081FC8542F5D8204638BDFFFF08B502F09C
:101B3000A1FAFFF7E6FF02F0A5FA034A137843F093
:101B40000103137008BD00BF0800001038B505463A
:101B50000C46FFF7D6FFFF2821D1204602F0E4FE15
:101B6000FD2C1ED0AC1C05F2022514F8020C02F06C
:101B7000DBFE023414F8030C02F0D6FEAC42F4D1C2
:101B8000FF2002F0D1FEFF2002F0CEFEFF2002F087
:101B9000CBFE00F01F00431F5842584138BD0020C3
:101BA000FCE70120FAE737B5020604460D4607D5E3
:101BB00000217720FFF7F7FF012831D804F07F04D8
:101BC00002F060FA02F056FAFFF79BFFFF282BD1D4
:101BD000402C27D0482C0CBF872301232A0E8DF8D8
:101BE00001202A0C8DF8022006212A0A68468DF869
:101BF00000408DF803208DF804508DF8053002F078
:101C00009DFE4C2C02D1FF2002F08EFE0A24FF2004
:101C100002F08AFE030603D5013C14F0FF04F6D15E
:101C200003B030BD9523D9E7FF20F9E770B505462D
:101C300000F0F8FB00F16406FF2002F075FE044698
:101C400000F0F0FB864201D3FF2CF5D0FE2C0CD126
:101C50004FF40071284602F074FEFF2002F064FE8B
:101C6000FF2002F061FE012070BD0020FCE7FFFFB5
:101C700038B5064D2C78E4B202F00CFA18B104F035
:101C8000FD042C7038BD44F00304FAE7080000108E
:101C90002DE9F341FFF7ECFF4A4B1A7812F0020FDF
:101CA0001E4604D01878C0B202B0BDE8F081C8204A
:101CB00002F002FE0A25FF20013D02F035FE15F07C
:101CC000FF05F8D102F0D6F929464020FFF76BFF57
:101CD0000128044671D100F0A5FB4FF4D57100F541
:101CE0007A774820FFF75FFF012848D101ADA84669
:101CF0000424FF2002F018FE013C14F0FF0408F851
:101D0000010BF6D19DF80630012B56D19DF8073016
:101D1000AA2B52D100F086FB874206D94FF08041B2
:101D2000E920FFF740FF0028F4D100F07BFB874259
:101D300043D900217A20FFF736FF00283DD1042443
:101D4000FF2002F0F1FD013C14F0FF0405F8010B47
:101D5000F6D19DF8043013F0400F14BF0C24042476
:101D6000194B1C7002F08EF94CB3337845F6C05015
:101D700003F0FE03337002F09FFD307893E72946AD
:101D8000E920FFF710FF022836BFE925412502248C
:101D900000F048FB874205D900212846FFF703FFE2
:101DA0000028F5D100F03EFB874206D84FF40071C1
:101DB0005020FFF7F8FE0028D2D00024D0E7FFF72C
:101DC000B5FEDAE7080000103603001008B5FFF78B
:101DD0004FFF014B187808BD0800001070B514467D
:101DE00005460E46FFF744FF002C35D01C4B1B78F0
:101DF000DA0733D402F03EF91A4B1B781B0758BFA1
:101E00007602012C314611D15120FFF7CCFE38B9B2
:101E10004FF400712846FFF709FFB0FA80F4640917
:101E200002F030F9201C18BF012070BD5220FFF7CE
:101E3000BAFE0028F4D14FF400712846FFF7F6FEF1
:101E400028B1013C14F0FF0405F50075F3D1002121
:101E50004C20FFF7A8FEE3E70420E6E70320E4E7D1
:101E6000080000103603001070B5144605460E46F3
:101E7000FFF7FEFE002C41D0234B1A78D0073FD449
:101E80001B7859073ED402F0F5F8204B1B781A074F
:101E900058BF7602012C11D131465820FFF783FE3E
:101EA00050BBFE212846FFF751FEB0FA80F46409CA
:101EB00002F0E8F8201C18BF012070BD13F0060FD7
:101EC00003D02146D720FFF76EFE31465920FFF799
:101ED0006AFE0028ECD1FC212846FFF737FE28B126
:101EE000013C14F0FF0405F50075F4D1FD2100203C
:101EF000FFF72CFE0028DBD10124D9E70420DCE722
:101F00000320DAE70220D8E70800001036030010AB
:101F10007FB506460D46FFF7ABFE052E15D12C7892
:101F2000012C10D02CB1022C0AD00424204604B07D
:101F300070BD02F0AFF80028F8D0FFF7F7FDF5E725
:101F400002F0A8F868700024F0E76F4B1C7814F0DA
:101F5000010440F0D7800E2E00F2D280DFE806F0B8
:101F600008134E52D0D0D0D0D0D09DA1B0B3C40071
:101F700002F080F8FFF7C5FDB0F1FF0418BF01249F
:101F800002F080F8D2E700214920FFF70CFE04465A
:101F900008B10124F4E710216846FFF747FE002846
:101FA000F7D09DF800309DF808109B09012B9DF893
:101FB000093006D15A1C02EB012292B292022A6029
:101FC000DEE79DF807209DF80A00920002EB9112CF
:101FD0009DF80610890201F4406101320A449DF81F
:101FE00005105B0001F00F0101EBD01103F00603B7
:101FF0000B44073B02FA03F32B60C1E74FF4007375
:102000002B80BDE7414E317811F004011CD0002136
:10201000CD20FFF7C8FD0028BBD1FF2002F084FCD3
:1020200010216846FFF702FE0028B2D03024FF20BE
:10203000013C02F079FC14F0FF04F8D19DF80A305D
:102040001A0910239340D7E74920FFF7ACFD044657
:1020500000289ED110216846FFF7E8FD002898D09F
:1020600032789DF80A309DF80B1092070AD55B0074
:102070009DF80D2003F07E0303EBD1139209013389
:10208000013ADFE7CA0002F01802C3F3840302EB4F
:102090005112013302FB0333AEE71C4B1B782B704C
:1020A0006EE700214920FFF77EFD00287FF471AF25
:1020B00010212846FFF7BAFDB0FA80F464095FE703
:1020C00000214A20EFE700217A20FFF76CFD04464B
:1020D00000287FF45EAF2E1DFF2002F025FC05F8DE
:1020E000010BAE42F8D14BE70021CD20FFF75BFD9D
:1020F00000287FF44EAFFF2002F016FC4021D8E705
:1021000004243DE7032411E7080000103603001003
:1021100008B5064604F026FA00240546A54200DC70
:10212000FEE7315D002002F0F7FC0134F6E7FFFF27
:1021300002280CD9074B1B685A68824207D09A685C
:10214000824204D0DB681B1A584258417047012074
:10215000704700BF5C010010F8B504460E461546F6
:10216000FFF7E6FF48B3164B1B68DB68A34210D0AD
:10217000A31E5C425C4101F0CBFD0746002002F04B
:1021800089FC022F17D1B0B1ACB9A54203DC2846B7
:10219000F8BD0124EFE7315D4FF0FF32002002F07F
:1021A0001DFD0134F1E7315D002002F0B5FC013482
:1021B000A542F8DCEBE70024FAE70248FFF7A8FFA6
:1021C0005C0100102CAB000008B5FFF7B1FF18B19F
:1021D000002002F0D9FC08BD0148FFF799FF00BFBD
:1021E000FAAA0000F8B504460D4600F005F90619F4
:1021F00041EB050701F08CFD02280CD100234FF4C0
:102200007A72AB4208BFA24205D22046294602F0AC
:1022100023FD01F0EDFB00F0EFF8B94208BFB0423A
:10222000F9D3F8BD4FF47A73A0FB0301FFF7DABFCF
:1022300030B585B001F09CFE01F036FF8DF80C0042
:1022400001F038FF8DF80D0001F03AFF8DF80E0017
:1022500001F03CFF00248DF80F0004AA04F00303F2
:102260001344013413F8040C01F0FCFF3220FFF793
:10227000D9FF202CF1D1284B1868002319460222DF
:10228000406804F087F8FDF7CDFF002501464FF4C4
:102290001642002002F0BAFB0095204B204A012193
:1022A000204600F011FD1F4B009504461E4A0121F7
:1022B000802000F009FD22460146284602F0F4FB8A
:1022C00045F6C05002F00EFB012218491848FFF7EE
:1022D000F1F8184A184B1949A84208BF1346184A82
:1022E0001848194D03F05CFFFDF79CFF17490246A3
:1022F000022002F089F90224E1B2022002F012FA6F
:1023000018B12146284603F04BFF0234B4F5807F14
:10231000F2D105B030BD00BF5C01001058030010C1
:102320003703001060060010E005001039A400001B
:10233000A803001070AB00008EAB0000B5AB00002E
:102340005FAB000006AC000026AC0000801A06005F
:1023500010B50A4C236823B90949012000F0D2FDC9
:10236000206001F0D5FC022806D120684FF0FF3133
:10237000BDE8104000F03CBF10BD00BFB00600102B
:10238000B406001010B501F0C3FC022808D10548BE
:1023900000231A4619460068BDE8104000F004BD4D
:1023A00010BD00BFB0060010074A08B51368002131
:1023B00001330846136001F0AFFF00210846BDE875
:1023C000084001F095BF00BF0407001008B5074A98
:1023D0000749B0FBF1F10020013901F053FF002162
:1023E000044A0846BDE8084001F070BFA923000078
:1023F00040420F000087930370B5084E002001F0A3
:1024000083FF05460020346801F07EFF8542F5D841
:10241000034B0021E3FB040170BD00BF0407001063
:102420000087930308B5FFF7E7FF4FF47A720023A4
:1024300002F012FC08BD70B5054608460C4604F0D3
:1024400091F82618B44205D128460A21BDE870400B
:1024500002F062BB14F8011B284602F05DFBF1E7B5
:1024600000B589B020220021684602F073FE1F22C9
:102470000B49684604F090F80A4800231A4669465A
:10248000006800F091FC40B1074803F06BFF0020AA
:1024900001F030FB09B05DF804FB0448F5E700BF2C
:1024A0004DAC00000C07001056AC000065AC0000FD
:1024B00030B5ADF2344D01460024012282A80194CA
:1024C000FFF730F84FF400720546214602A802F0EB
:1024D00041FE35BB154C164D02A804F043F801AB84
:1024E000024602A982A8FFF703F9034640B111484A
:1024F00003F038FF82A8FFF70AFA0DF2344D30BD21
:102500004FF0FF3202A9206800F04EFC10B92846B7
:1025100003F028FF4FF40072002102A802F01AFE17
:10252000DAE702A9044803F03BFEE6E708070010DB
:10253000C1AC0000D8AC0000FBAC000000B589B015
:1025400020220021684602F005FE084D084C28684C
:1025500041F28832694600F0ADFD18B16846FFF7D8
:10256000A7FFF4E7204603F0FDFEF0E70C0700109C
:10257000A6AC000038B5451E00F2FF14A54200D1FC
:1025800038BD15F8010F03F06BFEF7E700B50C4DF1
:102590000C4CADF5017D4FF400720021684602F04D
:1025A000D9FD4FF0FF326946286800F083FD18B16D
:1025B0006846FFF7DFFFEEE7204603F0D3FEEAE7C9
:1025C0000807001016AD00001F4B37B51868002330
:1025D00019460222806803F0DDFE00224FF40071EC
:1025E000022000F0BBFB194B002218604FF4007171
:1025F000012000F0B3FB164B164918600024022599
:102600002346CDE900544FF48062134801F078F876
:102610002346CDE900544FF480621049104801F080
:102620006FF803234FF480620E4900930194234610
:102630000D4801F065F80D4803F094FE01F08EF8A6
:10264000204603B030BD00BF5C0100100807001039
:102650000C07001086AC0000612400008AAC00006A
:102660003D25000091AC00008D25000098AC0000D5
:102670000C460020044908B5FFF7DDFE2146002086
:10268000FFF7D9FEFEE700BF62AE000008B50249C1
:102690000020FFF7D0FEFEE728AE0000024B00222C
:1026A000C3F8C02030BF704700C00F4008B50C46CB
:1026B00000200A49FFF7BFFE09490020FFF7BBFED3
:1026C00008490020FFF7B7FE07490020FFF7B3FED7
:1026D00021460020FFF7AFFEFEE700BF30AD00004F
:1026E00082AD0000C5AD0000F9AD0000034B0360F2
:1026F000034B0B6064231360704700BFA8080010F1
:102700001807001008B5FFF777FE024B1B68C01AC8
:1027100008BD00BF1007001000F05AB800F0A0B8C4
:1027200000F0D0B808480068006880F308884FF0CF
:10273000000080F3148862B661B6BFF34F8FBFF319
:102740006F8F00DF00BF000008ED00E0DFF80C0035
:10275000016841F4700101607047000088ED00E0FD
:1027600007B5002301930B4B1B68013304D00A49C2
:10277000EF20FFF79BFFFEE74FF0180383F311886C
:10278000BFF36F8FBFF34F8F019B002BFCD003B0C3
:102790005DF804FB0C0900107FAE00004FF0807361
:1027A00040F8043C074B40F80C3C21F001016FF06D
:1027B000020340F8081C40F8202C40F8243C443820
:1027C000704700BF61270000FFFFFFFFFFFFFFFF13
:1027D000074B19680868B0E8F04F80F30988BFF329
:1027E0006F8F4FF0000080F311887047AFF30080C7
:1027F0001009001008B54FF0180383F31188BFF3D8
:102800006F8FBFF34F8F094A13680133012B136099
:102810000AD1074B1B6813F0FF0F05D0054940F2A2
:10282000AB10FFF743FFFEE708BD00BF0C09001027
:1028300004ED00E099AE0000074A08B513682BB913
:1028400006494FF4D970FFF731FFFEE7013B1360F3
:102850000BB983F3118808BD0C090010CEAE00003F
:10286000EFF30980BFF36F8F154B1A681EF0100F3E
:1028700008BF20ED108A20E9F04F10602DE9090013
:102880004FF0180080F31188BFF34F8FBFF36F8FA5
:1028900001F0D2F84FF0000080F3118809BC1968EC
:1028A0000868B0E8F04F1EF0100F08BFB0EC108AB7
:1028B00080F30988BFF36F8F704700BFAFF30080CC
:1028C0001009001008B54FF0180383F31188BFF307
:1028D0006F8FBFF34F8F00F083FF18B1034B4FF0A2
:1028E00080521A60002383F3118808BD04ED00E0D4
:1028F00010B5084A084C002323601360FDF78EFCD6
:102900004FF47A73B0FBF3F0044B013818600723DF
:10291000236010BD18E000E010E000E014E000E0EB
:10292000334B344A13B51968914205D132494FF4FB
:102930009A70FFF7BBFEFEE71A68304B9A4205D14A
:102940002F4940F23510FFF7B1FEFEE72D4B1A7804
:10295000D2B20192FF221A701B782B4ADBB28DF89B
:1029600003309DF8033003F018031370274A072340
:10297000136000219DF80300000603F1FF3409D421
:1029800011B1022B13600ED0214940F25D10FFF708
:102990008DFEFEE79DF803305B00DBB28DF803305F
:1029A00001212346E6E74FF400731360019B154AAB
:1029B000DBB21370174B1A6842F478021A601A6877
:1029C00042F078421A60FFF793FF134B00241C601B
:1029D000FFF7BCFE114A136843F040431360FFF752
:1029E000A1FE01F029F8FFF7BBFE204602B010BDA2
:1029F00000ED00E071C20F414CAF000070C20F410A
:102A00006FAF000000E400E00409001008090010A6
:102A100092AF000020ED00E00C09001034EF00E060
:102A200008B5EFF305830F2B0BD90D4A9B5C0D4ABC
:102A300012789A4205D90C4940F2FE20FFF736FE83
:102A4000FEE70A4B0A4A1B68126803F4E0639342EC
:102A500005D9084940F20E30FFF728FEFEE708BD11
:102A6000F0E300E004090010E0AE00000CED00E02F
:102A7000080900100AAF000010B5044600F0A8FED7
:102A8000204602F02FFB044600F03CFF0CB9FFF794
:102A9000FDFD204610BD10B5044640B100F098FE83
:102AA000204602F027FBBDE8104000F02BBF10BD10
:102AB00000F108034FF0FF324360C0E902230361D5
:102AC00000230360704700230361704743684B6035
:102AD0009A688A609A685160996003680861013356
:102AE000036070470A68531C30B50AD103695A68FD
:102AF0004A6091608B60596003680861013303602C
:102B000030BD00F108035C6825689542EFD8234684
:102B1000F9E7D0E9011203698A605160596881427E
:102B200008BF5A60002202611A68013A1A601868E8
:102B3000704710B50446FFF75DFEA46BFFF77CFEFF
:102B4000B4FA84F0400910BDF8B51546026C866BE6
:102B5000044652B9076847BB806801F03BF9A7609B
:102B600005460136A6632846F8BD65B9406802F0FF
:102B7000C9FA6368226C1344A26863609342F0D37D
:102B800023686360EDE7C06802F0BCFA236CE2687A
:102B900021685B421A448A42E2603EBFA2689B18E9
:102BA000E360022D01D116B1013E0025D9E735467B
:102BB000D7E7034610B41A6C084662B1D9689C681E
:102BC0001144A142D96024BF1968D960D9685DF861
:102BD000044B02F097BA5DF8044B704770B5044699
:102BE000FFF708FE94F8455004F124066DB2002D5D
:102BF00014DCFF2384F84530FFF71EFEFFF7FAFDD3
:102C000094F8445004F110066DB2002D12DCFF233D
:102C100084F84430BDE87040FFF70EBE636A002BB5
:102C2000E7D0304600F0E8FF08B101F06BF8013D55
:102C30006DB2DCE72369002BE9D0304600F0DCFF01
:102C400008B101F05FF8013D6DB2DEE738B50D4621
:102C5000044628B91A4940F20310FFF727FDFEE7A2
:102C6000FFF7C8FDD4E90F30226862604343D118F2
:102C70001B1A1344A160E3600021FF23A16384F8C1
:102C8000443084F8453095B9236963B104F11000EC
:102C900000F0B2FF38B10B4B4FF080521A60BFF317
:102CA0004F8FBFF36F8FFFF7C7FD012038BD04F1D1
:102CB0001000FFF7FDFE04F12400FFF7F9FEF2E734
:102CC00098B0000004ED00E013B51C4628B91E4979
:102CD0004FF49D70FFF7EAFCFEE72BB91B494FF458
:102CE0009F70FFF7E3FCFEE732B161B918494FF47A
:102CF000A170FFF7DBFCFEE729B1164940F2431053
:102D0000FFF7D4FCFEE750230193019B502B05D025
:102D1000114940F24B10FFF7C9FCFEE7002908BF3C
:102D20002246019B22600123C4E90F0184F846304A
:102D300019462046FFF78AFF9DF8103084F84C3082
:102D4000204602B010BD00BFD5AF0000F7AF0000B5
:102D50000DB0000045B000007DB00000F8B50D4694
:102D60001746064628B90F494FF4BB70FFF79EFC83
:102D7000FEE748435030FFF77FFE044670B1002362
:102D800080F8463065B100F150032360C4E90F6557
:102D900001212046FFF75AFF84F84C702046F8BD09
:102DA0000346F2E7D5AF00002DE9FF4788460192C0
:102DB0001F46044628B94E4940F2F120FFF776FC41
:102DC000FEE739B9036C2BB14A4940F2F220FFF714
:102DD0006DFCFEE7022F08D1E36B012B05D04649BD
:102DE00040F2F320FFF762FCFEE700F091FF064699
:102DF00038B9019B33B1414940F2F620FFF756FC48
:102E0000FEE700264FF00009DFF8F4A037E0019D4F
:102E10001DB9FFF711FD002050E016B902A800F01F
:102E20002BFFFFF709FD00F0D3FCFFF7E3FC94F85C
:102E30004430FF2B08BF84F8449094F84530FF2BB2
:102E400008BF84F84590FFF7F7FC01A902A800F03D
:102E50001FFF002846D1FFF7CDFCA26BE36B9A421F
:102E60002FD1FFF7E9FC019904F1100000F0ACFE4E
:102E70002046FFF7B3FE00F045FD50B30126FFF7F3
:102E8000B9FCA26BE36B9A4201D3022FBFD13A4641
:102E900041462046FFF758FE636A1BB104F1240047
:102EA00000F0AAFE38B1164B4FF080521A60BFF303
:102EB0004F8FBFF36F8FFFF7BFFC012004B0BDE859
:102EC000F087FFF7B9FC2046FFF788FE00F01AFDF7
:102ED000D4E74FF08053CAF80030BFF34F8FBFF3F1
:102EE0006F8FCBE72046FFF779FE00F00BFD92E7EE
:102EF00098B00000A0B00000F0B0000037B10000B2
:102F000004ED00E013B5002200900B4601201146AD
:102F1000FFF7DAFE044638B1002383600360C36024
:102F20001A461946FFF740FF204602B010BD10B503
:102F3000024600210120FFF711FF044638B10023AB
:102F400083600360C3601A461946FFF72DFF2046D1
:102F500010BDFFFF2DE9F843894690461F46044601
:102F600028B9284940F2C330FFF7A0FBFEE739B982
:102F7000036C2BB124494FF47170FFF797FBFEE708
:102F8000022F08D1E36B012B05D0204940F2C53058
:102F9000FFF78CFBFEE7FFF743FDEFF311864FF0E1
:102FA000180383F31188BFF36F8FBFF34F8FA26BAA
:102FB000E36B9A4201D3022F22D194F845503A464E
:102FC0006DB249462046FFF7BFFD6B1C13D1636A03
:102FD0000BB901200BE004F1240000F00DFE0028E5
:102FE000F7D0B8F1000FF4D00120C8F8000086F344
:102FF0001188BDE8F88301356DB284F84550E8E7E3
:103000000020F4E798B00000A0B00000F0B000008D
:1030100070B50D46044628B923494FF48C60FFF77C
:1030200045FBFEE7036C2BB1204940F26440FFF7FB
:103030003DFBFEE703683BB983682BB11C4940F2B6
:103040006940FFF733FBFEE7FFF7EAFCEFF3118679
:103050004FF0180383F31188BFF36F8FBFF34F8FC7
:10306000A26BE36B93421CD994F8453001325BB2FA
:10307000A2635A1C10D1636A0BB9012009E004F164
:10308000240000F0B9FD0028F7D0002DF5D0012074
:10309000286086F3118870BD01335BB284F8453037
:1030A000EBE70020F5E700BF98B000008DB100000D
:1030B000A6B100002DE9F04385B00F460192044609
:1030C00028B947494FF4A060FFF7F0FAFEE739B995
:1030D000036C2BB1434940F20450FFF7E7FAFEE7D7
:1030E00000F016FE064638B9019B33B13E4940F266
:1030F0000950FFF7DBFAFEE700264FF00008DFF883
:10310000EC903BE0019D1DB9FFF796FB002052E0DB
:1031100016B902A800F0B0FDFFF78EFB00F058FBD7
:10312000FFF768FB94F84430FF2B08BF84F8448015
:1031300094F84530FF2B08BF84F84580FFF77CFBEF
:1031400001A902A800F0A4FD00283DD12046FFF708
:10315000F0FC98B3019904F1240000F035FD2046FD
:10316000FFF73CFD00F0CEFB38B94FF08053C9F8B3
:103170000030BFF34F8FBFF36F8F0126FFF73AFB8D
:10318000A56B002DBED039462046013DFFF711FD4D
:10319000A563236963B104F1100000F02DFD38B17F
:1031A000124B4FF080521A60BFF34F8FBFF36F8FF7
:1031B000FFF742FB012005B0BDE8F0832046FFF792
:1031C0000DFD00F09FFBD8E72046FFF707FD00F05C
:1031D00099FB2046FFF7ADFC0028CED096E700BF54
:1031E0000DB2000019B2000037B1000004ED00E09C
:1031F0002DE9FF410446019128B9584940F2915008
:10320000FFF754FAFEE7056C2DB1554940F2955091
:10321000FFF74CFAFEE700F07BFD064638B9019B4C
:1032200053B1504940F29A50FFF740FAFEE72E465C
:103230000027DFF838814EE00546F9E7019B4BB9DE
:103240002DB1494940F2E150FFF730FAFEE7FFF7B0
:10325000F3FA5EE016B902A800F00EFDFFF7ECFAF3
:1032600000F0B6FAFFF7C6FA94F84430FF2B08BF17
:1032700084F8447094F84530FF2B08BF84F84570FB
:10328000FFF7DAFA01A902A800F002FD00284AD1EE
:103290002046FFF74EFC00283FD023683BB9FFF7DC
:1032A000A9FAA06800F044FD0546FFF7C5FA0199A8
:1032B00004F1240000F088FC2046FFF78FFC00F0AA
:1032C00021FB38B94FF08053C8F80030BFF34F8F5F
:1032D000BFF36F8F0126FFF78DFAA36B002BADD0E4
:1032E000013BA363236813B900F01AFEA0602369B1
:1032F00063B104F1100000F07FFC38B11B4B4FF0BC
:1033000080521A60BFF34F8FBFF36F8FFFF794FAAD
:103310000125284604B0BDE8F0812046FFF75EFC99
:1033200000F0F0FAD6E72046FFF758FC00F0EAFA82
:103330002046FFF7FEFB0028CCD0002DE9D0FFF798
:1033400059FA616A19B1236B1968C1F10A01A068C1
:1033500000F08EFD0025FFF76FFADAE70DB20000EE
:103360008DB1000037B10000B7B2000004ED00E0FD
:103370002DE9F84389469046054628B9214940F28F
:10338000FB60FFF793F9FEE739B9036C2BB11E49D7
:1033900040F2FC60FFF78AF9FEE7FFF741FBEFF32D
:1033A00011874FF0180383F31188BFF36F8FBFF3BA
:1033B0004F8FAC6B1CB395F84460494676B22846F3
:1033C000FFF7F7FB013C731CAC6313D12B690BB9FE
:1033D00001200BE005F1100000F00EFC0028F7D0F2
:1033E000B8F1000FF4D00120C8F8000087F311886D
:1033F000BDE8F883013676B285F84460E8E72046F8
:10340000F4E700BF98B000006CB2000008B528B91E
:10341000064940F2B770FFF749F9FEE790F84630E9
:103420001BB9BDE80840FFF736BB08BD98B00000E7
:103430002DE9F0410446FFF7DDF92D4B2D4D1A68BB
:103440002D4F01321A602E68002E46D12C601B6869
:10345000012B1CD1B84640460136FFF729FB0A2E46
:1034600008F11408F7D1DFF8B880244E4046FFF782
:103470001FFB3046FFF71CFB2148FFF719FB2148D3
:10348000FFF716FB204BC3F80080204B1E60204A3C
:1034900020491368086801331360E26A236401233A
:1034A0009340034314200B6000FB0270211DFFF7C3
:1034B0000DFBFFF7C1F9184B1B6863B12B68DA6A83
:1034C000E36A9A4207D2154B4FF080521A60BFF35D
:1034D0004F8FBFF36F8FBDE8F0810F4B1B68002B40
:1034E000D5D12B68DA6AE36A9A4298BF2C60CEE79E
:1034F000E8090010100900101C090010100A001043
:10350000300A0010480A00101409001018090010B1
:10351000F4090010F8090010440A001004ED00E05E
:10352000FC09001008B5074C074D4FF08056236882
:10353000012B04D92E60BFF34F8FBFF36F8FFFF7BE
:10354000ADF8F4E71C09001004ED00E0064A13682A
:103550001968064B19B94FF0FF321A6070471268AC
:10356000D268D2685268F8E714090010280A0010DF
:103570002DE9F047DDE909644FEA82094A4607462A
:103580000D46206BA521984601F0E4FD236BA9F1BF
:103590000409994429F007099DB36B1E04F1340214
:1035A0000B3513F8011F02F8011B09B1AB42F8D12A
:1035B000002384F83F30089D092D28BF09254FF0CE
:1035C000000AE562A564201DC4F84CA0FFF77BFA51
:1035D000C5F10A0504F11800FFF775FAC4F854A004
:1035E0002461A5616462C4F850A084F858A04246E2
:1035F00039464846FFF7D2F8206006B13460BDE88E
:10360000F08784F83450D6E7F8B51B4B1B4E1C6886
:103610000546306804300F46FFF77BFA334640B961
:103620003168174EC96A32680120884022EA0002D8
:1036300032606A1C07D137B1196812480431BDE8FD
:10364000F840FFF743BA1A686419546007D30E4A6A
:1036500010681968BDE8F8400431FFF743BA0B4A17
:10366000106819680431FFF73DFA094B1A68A24245
:1036700088BF1C60F8BD00BF5C0A00101009001074
:10368000F8090010480A0010180900101409001069
:10369000280A001070B586B0DDE90B542DB9154924
:1036A00040F24D20FFF702F8FEE72CB9124940F234
:1036B0004E20FEF7FBFFFEE75C260596059E5C2E7E
:1036C00005D00E4940F25620FEF7F0FFFEE72563D5
:1036D000022584F8595004AD01950A9D0294009585
:1036E000059EFFF745FF2046FFF7A2FE049806B0AF
:1036F00070BD00BFA2B30000B9B30000CEB300009C
:103700002DE9F043074685B0900088461646994655
:10371000FFF7B2F90546E8B15C20FFF7ADF90446C2
:10372000A8B1002380F859300D9B056301930C9BD1
:103730000290009332464B4641463846FFF718FF49
:103740002046FFF775FE012005B0BDE8F08328464E
:10375000FFF7A1F94FF0FF30F6E7FFFF10B588B093
:10376000002407AA06A905A8CDE90544FEF7BEFF77
:10377000059B0293069B079A0F491048CDE9004329
:103780002346FFF787FF0E4B186090B14FF01803E8
:1037900083F31188BFF36F8FBFF34F8F094B4FF047
:1037A000FF321A60084B01221A60084B1C60FFF7B9
:1037B000B7F808B010BD00BF48B3000025350000C1
:1037C000240A0010280A0010440A00105C0A0010A5
:1037D000024A136801331360704700BFF0090010FC
:1037E0002DE9F84F3B4B1B68002B6BD13A4B1C6803
:1037F00001341C60A4B9394B1A6812682AB13849DF
:1038000040F67F20FEF752FFFEE7364A196810683F
:1038100018601160344A136801331360FFF796FE95
:10382000324D334F2B68A3424FF0000B11D93A6849
:10383000304BD16A14224A439A58022A28BF4FF0CB
:10384000010B2D4A1268002A0CBF58460120BDE822
:10385000F88FDFF888A0DFF8A890DAF80020126867
:103860001AB94FF0FF322A60E1E7DAF80020D26897
:10387000D66871688C4201D22960D8E706F1040845
:103880004046FFF746F9B16A19B106F11800FFF793
:1038900040F9F06AD9F80030012202FA00F1194328
:1038A000144BC9F800104FF0140C41460CFB0030CB
:1038B000FFF70CF93868F16AC26A914228BF4FF0ED
:1038C000010BCAE70D4A1368013313604FF0000B78
:1038D000B7E700BFF00900105C0A001014090010DF
:1038E000E7B30000180900102C0A0010280A001085
:1038F000100900101C090010600A0010EC090010EB
:10390000F80900102DE9F8432F4C23682BB92F49F3
:1039100040F68500FEF7CAFEFEE7FEF76BFF236860
:10392000013B236024682CB10024FEF785FF20466C
:10393000BDE8F883264B1B68002BF5D0254D264E9D
:10394000DFF8A8801FE0EB68DC6804F1040904F1EB
:103950001800FFF7DEF84846FFF7DBF8E26A316847
:10396000012707FA02F314200B4300FB02804946AB
:103970003360FFF7ABF8194BE26A1B68DB6A9A42C7
:1039800001D3174B1F602B68002BDCD10CB1FFF764
:10399000DDFD144D2C6844B1114E0127FFF720FFC7
:1039A00000B13760013CF9D12C600D4B1B68002B36
:1039B000BAD00D4B4FF080521A60BFF34F8FBFF358
:1039C0006F8F0124B1E700BFF00900104CB4000074
:1039D000E8090010300A0010F80900101009001062
:1039E000600A0010EC09001004ED00E01C09001052
:1039F00008B540B90D4B4FF080521A60BFF34F8F9E
:103A0000BFF36F8F08BD0A4B196829B1094940F20D
:103A10003C50FEF74BFEFEE7FFF7DAFEFFF7F4FD42
:103A2000FFF770FF0028E5D0ECE700BF04ED00E0F1
:103A3000F009001002B3000038B5274B1A68274B75
:103A400012B101221A6038BD1A60FEF75BFE244AEB
:103A5000244C1568A84204D921680B6D5B1B0344F4
:103A60000B65236810601B6B1A68B2F1A53F0BD180
:103A70005A68B2F1A53F07D19A68B2F1A53F03D1C8
:103A8000DB68B3F1A53F04D0206821683431FEF72C
:103A9000EFFD154B1B68B3FA83F3DBB2C3F11F03D1
:103AA000142212495A4388188D582DB9104940F6EE
:103AB000B730FEF7FBFDFEE7456808326D684560EC
:103AC0000A44954204BF6A684260142202FB031351
:103AD0005B68DB682360B6E7F0090010600A00103D
:103AE000E409001010090010F80900101C0900106A
:103AF0004DB3000070B504462A4EFEF77BFE04B9B4
:103B00003468251D2846FFF704F860B9E06A264BA3
:103B1000142141435B5833B9244901220B68824088
:103B200023EA02030B60A36A1BB104F11800FEF73D
:103B3000F0FF29461E481F4DFEF7C8FF94F8583085
:103B4000012B04BF002384F85830FEF775FE2A6865
:103B50002AB1FEF74FFEFFF7F9FCFEF76DFE336862
:103B6000A34212D12B688BB1134B1B682BB11349A5
:103B700040F2E460FEF79AFDFEE7114B4FF08052F1
:103B80001A60BFF34F8FBFF36F8F70BD084A116883
:103B90000C4A1268914201D13360F6E7BDE87040EB
:103BA000FFF74ABF100900101C090010F8090010A7
:103BB000480A0010440A0010F009001002B3000087
:103BC00004ED00E0E809001010B50C4628B90849DA
:103BD00040F6CE30FEF76AFDFEE7064B1968183155
:103BE000FEF780FF20460121BDE81040FFF70CBD25
:103BF0001CB300001009001038B5C368DC682CB98C
:103C0000164940F62940FEF751FDFEE704F118057C
:103C10002846FEF77EFF124B1B68E3B9251D284698
:103C2000FEF777FF0F49E26A0868012393400343D8
:103C30000B600D4B1420294600FB0230FEF746FFB7
:103C40000A4BE26A1B68DB6A9A4283BF084B012079
:103C50001860002038BD29460648EFE73DB4000053
:103C6000F0090010F80900101C09001010090010DC
:103C7000600A0010300A0010034B1B680360034BFE
:103C80001B684360704700BF2C0A00105C0A0010DC
:103C900070B50C46054628B9164940F69440FEF723
:103CA00005FDFEE729B9144940F69540FEF7FEFCF4
:103CB000FEE7FEF79FFD114B196823685A1C10D0D0
:103CC0000F482E6800686A68864201D08A420FD980
:103CD000881A83420AD95B1A134423602846FFF7E7
:103CE000CBFF0024FEF7A8FD204670BD0023236013
:103CF0000124F7E73EB3000094B300005C0A001013
:103D00002C0A0010014B01221A607047600A001053
:103D1000054B1B6833B1054B1B68002B0CBF022001
:103D20000020704701207047440A0010F00900107D
:103D30002DE9F0410446002835D0234AC36A1168B2
:103D4000C96A8B42174636D28269204D002AA1BF2C
:103D50003A68D26AC2F10A0282611426426906FBFD
:103D600003539A4221D100F104084046FEF7D1FEE8
:103D7000174B48B9E06A4643AA592AB91A68012183
:103D8000814022EA01021A603A681968D26AE26246
:103D9000012404FA02F0084318601420414600FB95
:103DA0000250FEF793FE204603E03B68DB6AC362E5
:103DB0000120BDE8F0811368806CDC6AA0422CBF52
:103DC00000200120F5E700BF100900101C090010B9
:103DD000F8090010F8B5044608B90020F8BD1F4BDB
:103DE0001B68834205D01E4940F6D170FEF75EFC89
:103DF000FEE7DB6C2BB91B4940F6D270FEF756FC90
:103E0000FEE7C16A826C013B9142C364E5D0002B9E
:103E1000E3D1051D2846FEF77CFE134E134A50B928
:103E2000E76A1421794373582BB913680120B8400D
:103E300023EA00031360A36CE362C3F10A01A161EA
:103E40001168012404FA03F008431060142000FBF9
:103E500003602946FEF73AFE2046BFE7100900102E
:103E600012B4000028B400001C090010F80900106A
:103E7000F8B50446002847D0C26C2AB923494FF44C
:103E80008150FEF713FCFEE7836C994238BF194658
:103E9000C36A8B4238D0012A36D11D4A1268824249
:103EA00005D11C4941F23B00FEF700FCFEE78269A8
:103EB000194DC162002A4FF014064269A8BFC1F132
:103EC0000A0106FB0353A8BF81619A421CD1071D5A
:103ED0003846FEF71EFEE26A104C40B95643AB5915
:103EE0002BB923680121914023EA01032360216853
:103EF000012393400B4314202360394600FB0250FA
:103F0000BDE8F840FEF7E2BDF8BD00BF28B40000F0
:103F10001009001028B300001C090010F809001057
:103F2000044B1A681AB11968CA6C0132CA6418685D
:103F3000704700BF1009001010B5FEF7E3FB064BF9
:103F4000064A196829B1196814680B6D1B1B0344D4
:103F50000B65106010BD00BF10090010E4090010CF
:103F600008B5FEF7CFFB014B186008BDE40900104F
:103F700038B501220221002000F0C3F801220321FC
:103F8000002000F0BEF804220021012000F0B9F862
:103F900001210422084600F0B4F804221146012051
:103FA00000F0AFF80821012000F01AF9284B4FF477
:103FB00080729A610921012000F0EEF802220A21A4
:103FC000002000F09EF802220B210546002000F0A0
:103FD00098F80446284600F0A9F8204600F0A6F814
:103FE0000321022000F0FCF81A4B1B4D18701A2117
:103FF000012000F0F5F8194B194C18701821012018
:1040000000F0EEF8174B12211870012000F0E8F8CC
:10401000154B13211870012000F0BEF80F212870F5
:10402000012000F0B9F81E212070002000F0B4F843
:104030000E4B1D211870002000F0AEF80C4B1870CC
:10404000287800F083F82078BDE8384000F07EB88A
:1040500020800920640A0010680A0010650A001018
:10406000690A0010660A0010670A00106A0A001048
:104070006B0A0010024B4FF48072DA61704700BF88
:1040800020800920024B4FF480729A61704700BF74
:1040900020800920034B586980F40070C0F3402051
:1040A000704700BF20800920014B1878704700BF7F
:1040B000640A0010014B1878704700BF650A0010B1
:1040C000014B1878704700BF660A0010014B187842
:1040D000704700BF670A0010C0F3C40300F0070276
:1040E0009B0003EBC21303F1804303F5303301F06F
:1040F00007011A6822F007021A601A681143196052
:10410000704738B500F007054FF0000001F01F04BC
:1041100065F3020064F3C7001146FFF7DDFF4FF0BF
:10412000000065F3020064F3C70038BDC0F3C403A8
:1041300000F007029B0003EBC21303F1804303F579
:1041400030331A6842F480621A607047C0F3C403C7
:1041500000F007029B0003EBC21303F1804303F559
:1041600030331A6822F018021A601A6842F0080206
:104170001A60704700F00702064B53F82210C0F394
:10418000C4000B68012202FA00F023EA00030B606E
:10419000704700BF64B4000038B500F007054FF069
:1041A000000001F01F0465F3020064F3C700FFF78D
:1041B000E1FF4FF0000065F3020064F3C70038BD73
:1041C00000F00702054B53F82220C0F3C403116826
:1041D0000120984008431060704700BF64B400009D
:1041E00038B500F007054FF0000001F01F0465F33B
:1041F000020064F3C700FFF7E3FF4FF0000065F330
:10420000020064F3C70038BD00F00702064B53F804
:104210002230C0F3C4005A69012303FA00F01042AF
:1042200014BF18460020704764B4000000F0070275
:10423000044BC0F3C40053F82220012303FA00F01A
:104240009061704764B4000000F00702044BC0F3B3
:10425000C40053F82220012303FA00F0D061704714
:1042600064B4000008B50146FFF7CEFF20B1084650
:10427000BDE80840FFF7E8BF0846BDE80840FFF783
:10428000D5BFFFFF2DE9F8430F4F0C2444433E19DF
:10429000884635792846914600F086FA3C59002335
:1042A0003F2263604946A360284622606361B2688A
:1042B000A361E3612362636200F09AFA0123C4F808
:1042C0000C806360BDE8F8837CB400000C23584385
:1042D000064B1B5830B501205C6901EB4105A84035
:1042E00020435861183343F8212030BD7CB40000CE
:1042F0000C235843034B1A58012303FA01F11160B0
:10430000704700BF7CB400000C235843014B1B587E
:10431000986870477CB400000C235843014B1B582D
:10432000996070477CB400002DE9F047089F344E37
:1043300092461A1C18BF012298463B1C18BF012345
:104340009A4205460C4613D1002433682D48D9689B
:1043500000F0BCFE33682A7C2B49D86800F0FEFDD3
:1043600033680A20D96800F043FE2046BDE8F08794
:104370004FF0FF31C068FEF73BFF0028E4D0FFF7A5
:10438000C7FC00218146A868FEF732FF00232B748A
:10439000099BEB6133686C7485F812A0D9681948E1
:1043A000C5E9058700F092FE33681849D8682246AF
:1043B00000F0D4FD33680A20D96800F019FE2B689C
:1043C0002022B9F1020F1A6010D140F6B831A86866
:1043D000FEF70EFF88B12C7CB4FA84F46409002344
:1043E0001A461946E868FEF7DFFCAEE70021A86828
:1043F000FEF7FEFE0028F9D0EDE70446EFE700BF28
:104400005C010010E3B4000016B50000E8B4000041
:10441000F7B5704F04683B686668D96805466E4812
:1044200000F054FE3B686D49D868324600F096FDB6
:104430003B680A20D96800F0DBFD582E00F0AE8002
:104440001BD8282E7AD00CD8102E4FD0182E53D02F
:10445000082E40F0B2806B7C03F0FE03A360A661DF
:104460001CE0402E00F08380502E00F08980382E12
:1044700040F0A38063682B744AE0A82E17D00FD8B1
:10448000802E1ED0A02E25D0602E40F096800423D2
:1044900023600823A361012385F8213003B0F0BD18
:1044A000C02E17D0C82E15D0B82E40F0868095F8B3
:1044B0002000431C85F8203004F1080100F04AF97F
:1044C00008E095F8213043B1A36885F82030002337
:1044D00085F82130042323600CE095F82000431C6C
:1044E00085F82030A16800F03DF9F3E76B7C43F0DC
:1044F0000103A36008231FE0E9692022A2610823C9
:10450000C1B9A26110222260A3612368DE06FCD437
:10451000002301A9A8680193FEF77AFD019B002BF7
:10452000BCD02F4B4FF080521A60BFF34F8FBFF3B8
:104530006F8FB3E7AA7CA260A361AFE76B7CD8075B
:1045400001D52023C7E7EB694BB92023A3611023D2
:1045500023600823A3612368D906FCD4D8E7AA699D
:10456000013B12F8011BA160AA61EB61C2E72023A5
:10457000A361EB69012B4FF00403ACD8A361B9E749
:104580006B69A2681A706B6901336B61EB69013B5F
:10459000012BEB614FF004039DD1EFE76B69A2683B
:1045A0001A700023EB612023A361102323600823EA
:1045B000A3612368DA06FCD4AAE763682B7420237E
:1045C000A361102323600823A3612368DB06FCD4C6
:1045D0009EE700BF5C010010E3B40000D0B400000F
:1045E00004ED00E00148FFF713BF00BF54000010C6
:1045F0000148FFF70DBF00BF300000100148FFF772
:1046000007BF00BF0C0000102DE9F043274B064602
:104610001546894693E8070085B004AB03E9070017
:1046200040F60A33ADF800300C238DF80230242315
:1046300073431F4AD458D71804AB334403220021D4
:10464000012013F8108CFEF789FBB8600120FEF7FB
:104650006EFCF860404600F0A7F86C23A361154A91
:10466000154B914588BF99462823B5FBF9F25208AE
:10467000C8215343B3FBF1F323613C235A43002386
:10468000B2FBF1F26261A36263622362E3604023E2
:10469000236004AB03EB86067A6856F80C1C404690
:1046A00005B0BDE8F04300F0A3B800BFC4B40000FB
:1046B0000C00001040420F00A086010037B5069C98
:1046C000019400240094054C242541F0010105FBD0
:1046D0000040FFF729FE03B030BD00BF0C00001002
:1046E0001FB500238DF80F30012300930DF10F0348
:1046F000FFF7E4FF9DF80F0005B05DF804FBFFFF36
:1047000037B5069CCDE90034054C2425002301F083
:10471000FE0105FB0040FFF707FE03B030BD00BF00
:104720000C0000101FB5002200920DF10F038DF850
:104730000F20FFF7E5FF05B05DF804FB1FB58DF80E
:104740000F30012300930DF10F03FFF7D9FF05B0E0
:104750005DF804FB024B1B5C0B700120704700BF2F
:104760006C0A0010014B1954012070476C0A0010AC
:10477000FEE7FFFF08B5FFF7DFFB084B084A1B7891
:10478000103BDBB252F823309847064B00221A60E8
:104790001B68BDE80840FFF7E3BB00BF04ED00E085
:1047A000780000106C0B0010592809D8054B064AF8
:1047B000185CD2F8C410012383400B43C2F8C43004
:1047C000704700BF43B5000000C00F4059289FBF8D
:1047D000054B064AD3F8C430105C9ABF23FA00F0A8
:1047E00000F001000020704700C00F4043B50000FA
:1047F000592808BF1920084B43F8201043B2002B5A
:1048000008DB012200F01F0002FA00F05B09034AF6
:1048100042F82300704700BF7800001000E100E07C
:1048200073B54FF0FF33B1F5805F019336D21D4C65
:104830002369DE0734D41C4B1D69ED0730D41B4DB2
:104840000326AE602E611A4D1D6002B301AE5E609C
:1048500041F00046DE6041F20F061E61DAB12060D1
:1048600041F0806140F68112E16065602261114A89
:10487000516A41F003015162D868C0F30B0000286F
:10488000FAD1536A23F00303536202B070BD58603B
:1048900041F00846DEE701AA2260E3E70120F4E7E1
:1048A0000220F2E700010820200108200000082073
:1048B00008C00A4000C00A4010B50446FBF7AEFC31
:1048C0004FF47A73B0FBF3F00223B0FBF3F2A24291
:1048D00002D8034A136110BD0233DBB2F5E700BF13
:1048E00000C00A4010B504462420FFF75DFF0B4BC3
:1048F00007221A6002225A602046FFF7DDFF1A20C5
:10490000FFF752FF064B01221A631A6BD207FCD540
:10491000044A0023936042F8183C10BD00C00A40CE
:104920000000082020010820034BDA68D206FCD4DE
:104930009868C0B2704700BF00C00A400122FFF76C
:104940006FBF0022FFF76CBF02689368C3F3420396
:10495000022B73B5064623D0062B21D0012B34D170
:1049600000248DF803400194102501AA0DF10301E4
:10497000B068FEF7FDFC48B133689DF803201A705B
:10498000019B002B18BF0124013DEED10CB3124B4B
:104990004FF080521A60BFF34F8FBFF36F8F18E054
:1049A0000024019433681A7DD207EFD51B788DF867
:1049B000033001AA00230DF10301F068FEF7CAFAE3
:1049C000019B002B18BF0124ECE7137DDBB20193A0
:1049D000019B02B070BD00BF04ED00E00148FFF78D
:1049E000B3BF00BF4C0100100148FFF7ADBF00BFCF
:1049F0003C0100100148FFF7A7BF00BF2C010010C9
:104A00000148FFF7A1BF00BF1C010010154B70B596
:104A100016460546185C0C463601FFF7C5FEB4FB8A
:104A2000F6F307EE903AF8EE677AB6EE007A77EE94
:104A3000877A2D01FCEEE77A0B4A17EE903A52592D
:104A40009BB280211173190ADBB21171137010230C
:104A500082F8283001231372812313720323137306
:104A600070BD00BFC8B500001C010010074B10B599
:104A70000446185CFFF7AAFE30B12401044B1B5911
:104A8000187B003018BF012010BD00BFC8B5000062
:104A90001C010010034B03EB00108068003018BFAE
:104AA000012070471C0100102DE9F8430746894694
:104AB0009046FFF7DBFF064618B900263046BDE8F2
:104AC000F883124C3D016319DA6822B9B9F1000F7D
:104AD00001D0C3F80C9063199A6822B9B8F1000F9D
:104AE00001D0C3F808806319DA68002AE5D09A6813
:104AF000002AE2D05A68064B53F82710054BD85DC0
:104B0000FFF776FE635907225A60D7E71C010010B1
:104B1000B8B50000C8B5000038B5074A03010D4616
:104B2000D458FFF7A3FF30B1237D9A06FCD525703A
:104B3000237D9B06FCD538BD1C01001070B50446D2
:104B40000E461546FFF7E4F80E4B03EB0413DC6842
:104B5000B4B1022814D16B1C09D04FF47A70A5FBB4
:104B600000014FF47A72002300F076F805462A46D9
:104B700031462046FEF79EFA003018BF012070BD76
:104B80000020FCE71C0100102DE9F84305460E4605
:104B9000114CFFF7BDF82F01E31981462846D3F8E1
:104BA0000C80FFF763FF98B1B9F1020F0AD1B8F199
:104BB000000F07D0314628464FF0FF32BDE8F843DA
:104BC000FFF7BCBFE3591A7DD207FCD51B783370C1
:104BD0000020BDE8F88300BF1C010010F7B50546B2
:104BE0001C4E8DF807102D011746FFF791F8731929
:104BF0009C6854B302282BD1791C09D04FF47A70E9
:104C0000A7FB00014FF47A72002300F025F8074655
:104C100000233A460DF107012046FEF7C5F8041CB3
:104C200018BF0124FDF7E6FD731975592A7D520658
:104C300009D500220DF107019868FEF799FB10B124
:104C40009DF807302B70FDF7F7FD204603B0F0BD4F
:104C50000024FAE71C01001053B94AB9002908BF23
:104C600000281CBF4FF0FF314FF0FF3000F074B947
:104C7000ADF1080C6DE904CE00F006F8DDF804E0B3
:104C8000DDE9022304B070472DE9F047089E044691
:104C90008846002B40F085808A42154648D9B2FAF2
:104CA00082F24AB1C2F1200701FA02F320FA07F7B3
:104CB000954047EA030894404FEA154E230CB8FB91
:104CC000FEF71FFA85FC0EFB178843EA084307FB33
:104CD0000CF1994209D9EB1807F1FF3080F0E3801D
:104CE000994240F2E080023F2B445B1AA4B2B3FB2E
:104CF000FEF00EFB103344EA034400FB0CFCA44519
:104D000009D92C1900F1FF3380F0CB80A44540F283
:104D1000C88002382C4440EA0740A4EB0C0400276A
:104D20001EB1D4400023C6E900433946BDE8F087F0
:104D3000002A53D0B2FA82F2002A40F0B680491B12
:104D40004FEA154E1FFA85F80127B1FBFEFC230C34
:104D50000EFB1C1143EA014308FB0CF1994207D9F1
:104D6000EB180CF1FF3002D2994200F2EC8084463D
:104D7000591AA3B2B1FBFEF00EFB101443EA04442F
:104D800008FB00F8A04507D92C1900F1FF3302D227
:104D9000A04500F2DC801846A4EB080440EA0C4071
:104DA000BEE78B4208D9002E78D00027C6E9000163
:104DB00038463946BDE8F087B3FA83F77FB98B42AE
:104DC00002D3824200F2BD80841A61EB030301200A
:104DD0009846002EA9D0C6E90048A6E7FFDEC7F135
:104DE0002005BB4022FA05FC4CEA030C01FA07F44B
:104DF00020FA05F821FA05F34FEA1C4E48EA0404AC
:104E0000B3FBFEF9210C0EFB19331FFA8CF841EAB3
:104E1000034309FB08FA9A4502FA07F200FA07F180
:104E20000BD91CEB030309F1FF3080F088809A4511
:104E300040F28580A9F102096344A3EB0A03A4B2FE
:104E4000B3FBFEF00EFB103344EA034400FB08F80A
:104E5000A04508D91CEB040400F1FF336BD2A04538
:104E600069D90238644440EA0940A4EB0804A0FB75
:104E700002894C45C6464B4654D351D0002E69D0CA
:104E8000B1EB0E0264EB030404FA05F522FA07F312
:104E9000FC401D43C6E90054002746E7374630462C
:104EA00043E7184637E707461FE7C2F1200320FA19
:104EB00003F7954001FA02F021FA03F34FEA154E89
:104EC0003843010CB3FBFEF71FFA85F80EFB1733CE
:104ED00041EA034107FB08F38B4204FA02F407D9C5
:104EE000691807F1FF3C28D28B4226D9023F29449A
:104EF000CB1A81B2B3FBFEF00EFB103341EA034143
:104F000000FB08F38B4207D9691800F1FF3C10D26F
:104F10008B420ED902382944C91A40EA074714E7E0
:104F20004145ABD2B8EB020E69EB0C0201381346D7
:104F3000A4E76046F0E7184695E76746D8E781465C
:104F40007BE7384645E7ACF1020C2B4410E702380A
:104F50002C4421E73746E8E6704700BF0EB403B59E
:104F6000014603AB054853F8042B0068019300F099
:104F7000CBF902B05DF804EB03B070475C010010A0
:104F800070B50E461446054618B183690BB903F097
:104F90009FF9144B9C421AD16C68636ED80705D4F4
:104FA000A389990502D4A06D00F099F822462846FD
:104FB000314601F00DF9636EDA07054605D4A38981
:104FC0009B0502D4A06D00F08BF8284670BD064BFF
:104FD0009C4201D1AC68E0E7044B9C4208BFEC68FE
:104FE000DBE700BFA0B70000C0B7000080B700003B
:104FF000024B0A4601461868FFF7C2BF5C01001069
:1050000070B50E461446054618B183690BB903F016
:105010005FF92B4B9C421ED16C68636EDA0705D496
:10502000A3899B0502D4A06D00F059F8A389180745
:105030001BD52369CBB1013E16F8011F39BB656E44
:1050400015F0010539D1A389990502D4A06D00F0AE
:1050500047F8284670BD1B4B9C4201D1AC68DCE789
:10506000194B9C4208BFEC68D7E72146284602F05E
:1050700061F90028DFD0636EDA0705D4A3899B05A8
:1050800002D4A06D00F02CF84FF0FF35E1E7A368E3
:10509000013B002BA36004DAA269934206DB0A29D4
:1050A00004D023685A1C22601970C5E7224628469E
:1050B00002F0EEF80130BFD1DDE70D46C9E700BFD1
:1050C000A0B70000C0B7000080B70000024B0A463E
:1050D00001461868FFF794BF5C01001070477047E5
:1050E0007047FFFF024B0146186800F089B800BF07
:1050F0005C010010024B0146186800F033B800BF95
:105100005C0100100A44914200F1FF3300D1704766
:1051100010B511F8014B03F8014F9142F9D110BDC0
:10512000884210B501EB020302D983421C4607D81E
:10513000421E994208D011F8014B02F8014FF8E7DE
:1051400083189A1A9A4200D110BD14F8011D03F871
:10515000011DF7E702440346934200D1704703F86C
:10516000011BF9E738B50546002945D051F8043C44
:105170000C1F002BB8BFE41803F03AFD1F4A136858
:10518000104633B9636014602846BDE8384003F028
:1051900035BDA3420CD921686218934204BF1A6836
:1051A0005B68636004BF521822600460ECE713463A
:1051B0005A680AB1A242FAD919685818A0420BD10C
:1051C00020680144581882421960DDD11068526885
:1051D0005A6001441960D7E702D90C232B60D3E74A
:1051E000206821188A4204BF11685268626004BFB7
:1051F000091821605C60C7E738BD00BF700B001064
:10520000F8B5CD1C25F0030508350C2D38BF0C254D
:10521000002D064601DBA94203D90C233360002090
:10522000F8BD03F0E5FC21490A6814469CB9204FFB
:105230003B6823B92146304601F09CF83860294686
:10524000304601F097F8431C23D10C2333603046DD
:1052500003F0D4FCE3E723685B1B17D40B2B03D9C3
:1052600023601C44256004E06368A2420CBF0B600D
:105270005360304603F0C2FC04F10B00231D20F004
:105280000700C21ACCD01B1AA350C9E72246646893
:10529000CCE7C41C24F00304A042E3D0211A30461A
:1052A00001F068F80130DDD1CFE700BF700B0010CE
:1052B000740B00109368013B002B10B4936008DA64
:1052C0009469A34201DB0A2903D15DF8044B01F084
:1052D000DFBF1368581C1060197008465DF8044B56
:1052E0007047F8B506460F461446D518AC4201D1B2
:1052F000002007E03A4614F8011B3046FFF7DAFFBA
:10530000431CF3D1F8BDFFFF2DE9F04F0D469DB0D2
:1053100014461E46074618B183690BB902F0D8FF40
:10532000854B9D421BD17D686B6ED90705D4AB8937
:105330009A0502D4A86DFFF7D2FEAB891B0701D5F1
:105340002B69EBB92946384601F0F4FFC0B16B6E0A
:10535000D8070ED54FF0FF301DB0BDE8F08F774B6A
:105360009D4201D1BD68DFE7754B9D4208BFFD68D6
:10537000DAE7AB899905EDD4A86DFFF7B1FEE9E74F
:105380000023099320238DF82930DFF8B891039684
:1053900030238DF82A304FF0010A23461E4613F8B9
:1053A000012B0AB1252AF9D1B6EB040B0BD05B46D1
:1053B000224629463846FFF794FF013000F0A380CB
:1053C000099B5B4409933378002B00F09C800023F9
:1053D0004FF0FF32CDE905230136049307938DF892
:1053E00053301A933446052214F8011B554803F034
:1053F000AFFB049BC0B9DA0644BF20228DF85320CE
:10540000180744BF2B228DF8532032782A2A13D054
:10541000079A344600200A26214611F8013B303B0A
:10542000092B4BD970B914E0A0EB09000AFA00F07F
:10543000184304902646D5E7039A111D126803917C
:10544000002A01DB079204E0524243F00203079274
:10545000049323782E2B0CD163782A2B33D1039B12
:105460001A1D1B680392002BB8BF4FF0FF330234A4
:105470000593354E21780322304603F069FB38B19D
:105480004023801B03FA00F0049B03430134049380
:1054900014F8011B2D488DF82810062203F058FB44
:1054A00000283FD02A4B13BB039B073323F007038D
:1054B00008330393099B434409936EE706FB0232CA
:1054C00001200C46A8E700230134059319460A265B
:1054D000204610F8012B303A092A03D9002BC8D0F6
:1054E0000591C6E706FB012101230446F0E703AB63
:1054F00000932A46174B04A9384600F0BDF8B0F1D6
:10550000FF3F8046D6D16B6ED90705D4AB899A058B
:1055100002D4A86DFFF7E4FDAB895B063FF51AAF37
:10552000099819E703AB00932A460A4B04A93846A9
:1055300000F042FBE3E700BFA0B70000C0B70000E7
:1055400080B70000D4B60000DAB60000DEB6000076
:1055500079560000E35200002DE9FF4755EC104B4F
:10556000002D0E4691461946DDF830A04FF000029E
:1055700003DA05F100431D462D220D9F0A7027F026
:105580002007462F04D0452F00D10136022100E02C
:10559000032103AB019302AB00933246534645EC23
:1055A000104B01F0C1FF472F804602D119F0010FC7
:1055B00022D0462F08EB060911D198F80030302B85
:1055C0000AD1002200232046294604F089FD18B99B
:1055D000C6F10106CAF80060DAF8003099440022EA
:1055E00000232046294604F07BFD08B1CDF80C903D
:1055F0003022039B4B4508D3039B0E9AA3EB080371
:105600004046136004B0BDE8F087591C03911A703E
:10561000EFE7F7B50029BABF49422D232B2309290B
:105620000270437021DD0DF107031F460A2691FB2E
:10563000F6F206FB12143034632903F1FF3503F848
:10564000014C0ADC303205F8012C023B821CBB42C3
:10565000144605D3201A03B0F0BD2B461146E6E7E9
:1056600013F8011B02F8011BF1E730231944837082
:10567000041DC170EEE7FFFF2DE9F04F8DB00C4621
:10568000DDF8588016461F46054603F0E7F9036823
:105690000693184600F066FF00230A93D8F80030FE
:1056A0000790073323F0070303F1080294F818A0CA
:1056B000D4F800B0C8F80020D3E90023C4E91223CD
:1056C00094ED127B8DED047BDDE9048323F000492A
:1056D0004FF0FF32A64B4046494604F033FD70BB05
:1056E0004FF0FF32A24B4046494604F00DFD30BB5F
:1056F00000220023DDE9040104F0FCFC10B12D239D
:1057000084F843309B4A9C4BBAF1470F94BF9046B4
:10571000984603232BF00402236122604FF0000916
:10572000009733460BAA2146284600F0CFF90130F6
:1057300040F08C804FF0FF300DB0BDE8F08FDDE918
:1057400004231046194604F0FDFC40B1059B8B4A2A
:10575000002BBCBF2D2384F84330894BD4E763680A
:105760005A1C0AF0DF093ED106236360002303932D
:105770000AAB4BF48062CDE901A309AB00936168E9
:1057800022600DF123039DED040B2846FFF7E4FE94
:10579000B9F1470F8046099908D1C81C02DB63683C
:1057A000994241DDAAF1020A5FFA8AFABAF1650F5D
:1057B00020D80139524604F150000991FFF729FF22
:1057C0000A9A1318012A8146236102DC2268D20753
:1057D00001D5013323619DF82330002BA0D02D2368
:1057E00084F843309CE7B9F1470FBFD1002BBDD1FE
:1057F0000123BAE7BAF1660F18D1002963680BDDFF
:10580000216113B92268D00702D501330B4423610B
:10581000A1654FF00009DEE713B92268D20701D570
:105820000233F4E70123F2E74FF0670A0A9B99423B
:1058300005DB23682161D807EAD54B1CE7E700297F
:10584000D4BFC1F1020201221344E0E723685A05E4
:1058500007D42369424631462846B84701302BD148
:1058600068E7BAF1650F40F2DC8000220023D4E93A
:10587000120104F035FC002833D00123414A31469F
:105880002846B84701303FF455AFDDE909239A4275
:1058900002DB2368D8070FD5DDE906233146284609
:1058A000B84701303FF446AF4FF0000804F11A0941
:1058B0000A9B013B434509DC23689B0700F10181FA
:1058C000E0680B9B9842B8BF184635E701234A466B
:1058D00031462846B84701303FF42CAF08F10108A3
:1058E000E6E7099B002B2BDC0123264A314628469C
:1058F000B84701303FF41EAFDDE90923134302D15D
:105900002368D907D8D5DDE9062331462846B847AC
:1059100001303FF40FAF4FF0000904F11A0A099B60
:105920005B424B4501DC0A9B94E70123524631461A
:105930002846B84701303FF4FDAE09F10109EEE712
:105940000A9AA36D9A42A8BF1A46002A914607DD1B
:105950001346314642462846B84701303FF4EAAE86
:1059600004F11A034FF0000B29EAE979049315E0DA
:10597000FFFFEF7FE5B60000E9B60000EDB60000DE
:10598000F1B60000F5AF00000123049A3146284625
:10599000B84701303FF4CEAE0BF1010BD4F858A05C
:1059A000AAEB09035B45EFDCDDE909239A421BDB27
:1059B0002368DA0718D4DDE9092392451CDBA3EB41
:1059C0000A09B9F1000F08DD4B4608EB0A0231461F
:1059D0002846B84701303FF4ADAE4FF0000829EA41
:1059E000E97904F11A0A14E0DDE906233146284674
:1059F000B8470130DFD19DE6A3EB0209E1E70123BF
:105A0000524631462846B84701303FF493AE08F17C
:105A10000108DDE909239B1AA3EB09034345EEDCEA
:105A20004AE70A9A012A01DCDB0737D501234246FF
:105A300031462846B84701303FF47CAEDDE9062305
:105A400031462846B84701303FF474AE00220023A7
:105A5000D4E9120104F044FBD8B90A9B08F1010211
:105A6000013B31462846B84701300ED162E601239A
:105A7000524631462846B84701303FF45BAE08F144
:105A800001080A9B013B4345F1DC4B4604F15002FF
:105A9000E1E64FF0000804F11A0AF2E7012342465A
:105AA000DFE701234A4631462846B84701303FF434
:105AB00041AE08F10108E3680B9A9B1A4345F0DCFC
:105AC000FEE64FF0000804F11909F4E72DE9F0476C
:105AD00091461F468A680B69DDF820809342B8BF63
