:1000000000000110E5000000790100005D01000022
:1000100079010000790100007901000079010000F8
:10002000790100007901000079010000F925000044
:100030007901000079010000FD2500000126000083
:10004000BD580000BD580000BD580000BD5800005C
:10005000BD580000BD580000BD580000BD5800004C
:10006000BD580000BD580000BD580000BD5800003C
:10007000BD580000BD580000BD580000BD5800002C
:10008000BD580000BD580000BD580000BD5800001C
:10009000BD580000BD580000BD580000BD5800000C
:1000A000BD580000BD580000BD580000BD580000FC
:1000B000BD580000BD580000BD580000BD580000EC
:1000C000BD580000BD580000BD580000BD580000DC
:1000D000BD580000BD580000BD580000BD580000CC
:1000E000BD58000008B500F059F900F075F900F0AE
:1000F0007DF900F09DF800F097F802F087F90020F4
:1001000002F0DAFA02F0B0F800F0BEF840B141F2C5
:100110008734002502F0A6F98D4208BF8442F9D247
:1001200000F081F918B90849084807F059F906495B
:10013000074807F055F902F0D3F9064B06481B684B
:10014000D96806F0E3F8FEE79CB40000A8B400000C
:10015000D5B4000064010010EDB400001EF0040FDF
:100160000CBFEFF30880EFF309808169004A104764
:10017000D50100007047FFFF38B50F4C0F4B1048FA
:100180001D782368D96806F0C1F823680D49D8683E
:100190002A4606F043F80F2D236807D80A4A0B4970
:1001A00052F82520D86806F039F8FEE7D9680848E3
:1001B00006F0ACF8F9E700BF6401001004ED00E0C0
:1001C00028B5000042B5000034B600007CB5000040
:1001D0009AB5000010B5044600F04AF82368836021
:1001E0006368C360A3680361E36843612369436292
:1001F0006369013BC361A3698361E3690362BFF380
:100200004F8F0549054BCA6802F4E0621343CB6087
:10021000BFF34F8F00BFFDE700ED00E00400FA05DB
:100220000048704700D8B8050048704700D8B805A6
:100230000E4B0722C3F88420AA210122C3F8802094
:10024000C3F88C105521C3F88C10C3F8A821D3F83B
:1002500088205205FBD51A6822F4704242F480428D
:100260001A6040F20112C3F80421704700C00F4029
:100270000248034A034BC0E90023704700000020F6
:10028000EFBEADDE1041522138B5224C224B226820
:100290009A423DD16268214B9A4239D1204D214882
:1002A0002B68D96806F032F82B68A2691E49D86815
:1002B00005F0B4FF2B68E2691C49D86805F0AEFF71
:1002C0002B68226A1A49D86805F0A8FF2B68A26833
:1002D0001849D86805F0A2FF2B68E2681649D8686B
:1002E00005F09CFF2B6822691449D86805F096FF39
:1002F0002B6862691249D86805F090FF2B68114895
:10030000D96806F003F801200023C4E9003338BDA2
:100310000020F9E700000020EFBEADDE10415221C1
:100320006401001074B60000C7B60000D6B6000025
:10033000E5B60000F4B6000003B7000012B70000F5
:1003400021B7000030B700000E4A136810B50E4CFC
:100350001918A142116002D30C4CA1420BD31360B7
:100360000B4A0C4913681844884208D30A4988424A
:1003700005D2106001E0002BF2D0184610BD00231A
:10038000FBE700BF000000102800002000800020D4
:1003900004000010C813001000000110094A0A4BA5
:1003A0000A498B4205D30A4B0A4A0021934205D3DE
:1003B000704712F8010B03F8010BF2E703F8011B79
:1003C000F4E700BFD4CC0000000000103803001098
:1003D00038030010C8130010034AD2F8883043F4E1
:1003E0007003C2F88830704700ED00E00448002335
:1003F0002021C2180133292B82F80013F9D170474C
:1004000000E100E008B52A2219233821022005F076
:1004100047FA0D223821022005F0FEF9A0F12A0347
:100420005842584108BDFFF7EDBF42884378007835
:1004300043EA022340EA032070470B0A017043702D
:100440000B0C090E8370C170704710B5024410F890
:10045000013B11F8014B9042A3EB040301D0002BA8
:10046000F5D0184610BDC3690239023B8B4283BFE9
:100470004389006B01FB030000207047024600F136
:100480000B010020C30143EA500312F8010B50FA9C
:1004900083F38A42D8B2F5D1704702684AB1134655
:1004A00013F8011B1F290BD93A29F9D1911C8B4252
:1004B00002D04FF0FF3070471278302AF9D1036034
:1004C0000020704701380A4411F8013B00F8013F51
:1004D0009142F9D17047CA7E8B7E032843EA0223FA
:1004E00001BF487D0A7D42EA002243EA02431846E2
:1004F0007047C2F307238A76CB760378032B01BFBC
:10050000120C0A75120A4A75704770B500F1380668
:10051000426B044601233146407801F0E6FA054675
:1005200088B9616BA36A226AE070CB1A934208D241
:10053000A378022B05D10A4401233146607801F0EB
:10054000D4FA284670BD0125FBE738B5436B8B42D2
:1005500004460D4619D0C3788BB901232A4604F10D
:100560003801607801F0ADFA002818BF4FF0FF3570
:10057000034665630CBF03460123184638BDFFF7E9
:10058000C4FF03460028F8D1E7E70023F5E7FFFFA3
:1005900038B50023C3704FF0FF3343630546FFF7C0
:1005A000D4FF044618BB95F8372295F8363243EA53
:1005B00002234AF6552293421BD195F83830EB2B93
:1005C00003D01833DBB2012B15D803220B4905F1F8
:1005D0006E00FFF73AFF40B10522094905F18A0094
:1005E000FFF733FF002818BF0224204638BD04243B
:1005F000FBE70324F9E70224F7E700BF91B8000006
:1006000095B800002DE9F043002385B00B600F463C
:100610001546FFF742FF061EC0F23981A44B53F87E
:100620002640002C00F03581206901F0AEF9002849
:1006300000F031813C60237805F0FE056BB16078F5
:1006400001F03AFAC10708D41DB110F0040500D03A
:100650000A25284605B0BDE8F0830023F0B22370D8
:10066000607001F01BFAC20700F117810DB143075A
:10067000EED400212046FFF78BFF022840F0EE80E9
:100680006F4604F5FF7104F23E263D4611F8040C56
:1006900010B10846FFF7C9FE10318E4245F8040B31
:1006A000F4D1002557F8046B002E00F0CE803146BF
:1006B0002046FFF76DFF012800F2C88094F844201F
:1006C00094F8433043EA0223B3F5007F40F0CA8038
:1006D00094F84F3094F84E5055EA032504D104F1B4
:1006E0005C00FFF7A2FE054694F8481025624B1EF9
:1006F000012BA17000F2B68094F845901FFA89F39F
:100700006381002B00F0AE8009F1FF3313EA090F7B
:1007100040F0A88094F84A3094F8497047EA0327DB
:100720003FB21FFA87F818F00F0FA4F8088040F0C6
:10073000998094F84C3094F84B0050EA032003D190
:1007400004F15800FFF771FE94F8472094F8463002
:1007500053EA022300F0868005FB01FC03EB18122C
:10076000624490427ED3801A4845B0FBF9F179D3B8
:100770005048814276D84FF6F570814240F28F8022
:100780004FF00309023133443244B9F1030FE16100
:100790006662A362226369D194F8632094F86230A0
:1007A00043EA02231F433FB2002F5BD104F16400F0
:1007B000FFF73BFEE062890001F2FF11B5EB512F1C
:1007C00050D34FF0FF33C4E90533B9F1030F4FF0B5
:1007D000800323712FD194F8692094F8683043EA9C
:1007E0000223012B27D1711C2046FFF7AEFE10BB60
:1007F00094F8372294F83632207143EA02234AF6FD
:100800005522934217D104F13800FFF70EFE2A4B10
:10081000984210D104F50770FFF707FE274B984266
:1008200009D104F50870FFF700FEA06104F5097016
:10083000FFF7FBFD6061224A84F8009013880133C2
:100840009BB21380E380002503E703200135042DCC
:100850007FF428AF042805D10125FAE60428FBD04F
:10086000012801D90D25F4E6002627E7B8F1000F8D
:10087000F8D06344B9F1020FE3624FEA41031BBFB2
:100880005B1801F00101194601EB530194E70B25B8
:10089000DFE60C25DDE60F25DBE60325D9E640F68D
:1008A000F57949458CBF4FF002094FF0010969E71E
:1008B00038030010F5FFFF0F52526141727241611F
:1008C0003C03001001292DE9F04705460C46174668
:1008D00072D9C3698B426FD90378022B3FD0032BA7
:1008E00050D0012B68D101EB5108816A01EB5821EE
:1008F000FFF72BFE064638BB05F1380908F1010A5F
:10090000C8F3080814F001041FBF19F8083003F0F9
:100910000F023B0103F0F00314BF1343FBB209F8CD
:100920000830A96A0123EB7001EB5A212846FFF732
:100930000CFE064640B9CAF3080A44B1C7F30717CC
:1009400009F80A700123EB703046BDE8F08719F80A
:100950000A30C7F3032723F00F031F43F0E7816A30
:1009600001EB1421FFF7F1FD06460028ECD16400ED
:1009700005F1380304F4FF741A191F55C7F307274C
:100980005770DFE7816A01EBD411FFF7DEFD064601
:100990000028D9D1A40005F1380304F4FE741C44E6
:1009A0002046FFF742FD27F0704700F070413943C1
:1009B0002046FFF742FDC5E70226C5E70129F8B545
:1009C00005460C4652D9C36999424FD20378022B8F
:1009D00029D0032B38D0012B48D101EB5106816A75
:1009E00001EB5621FFF7B1FD10B14FF0FF30F8BD1C
:1009F000771CA96AC6F308062E4401EB5721284646
:100A000096F83860FFF7A1FD0028EED1C7F308077C
:100A10003D44E30795F8380046EA00204CBF000942
:100A2000C0F30B00E3E7816A01EB1421FFF78DFDB2
:100A30000028DAD16400383504F4FF742B19285DDE
:100A40005B7840EA0320D2E7816A01EBD411FFF71B
:100A50007CFD0028C9D1A40005F1380004F4FE741F
:100A60002044FFF7E2FC20F07040C0E70120BEE721
:100A7000B1F5001FF8B506460D4601D30220F8BDBA
:100A8000CA06FBD1826804683161CAB92378022B97
:100A900001D9E36A9BB92389B3EB551FEED9E36A09
:100AA000B361B3697261002BE8D003EB552338348E
:100AB000C5F308052C44B361F4610020DFE71A4652
:100AC00067897F02BD42114604D22046FFF7CBFC66
:100AD000B061E6E73068FFF771FF431C024606D0BD
:100AE0000128CBD9E3698342C8D9ED1BEAE701208D
:100AF000C5E72DE9F041804605680F4649B96E69A2
:100B0000C6B1EB69B34298BF0126AB69A3B9002413
:100B100006E02846FFF752FF0128044603D80124C7
:100B20002046BDE8F081421C51D0EB698342F7D8E2
:100B30003E46EAE70126E8E7BE4215D1EB69D8F860
:100B40000000741CA34298BF02242146FFF736FF21
:100B50000128E4D0431C3AD0D8B16B69012B03D9EA
:100B6000EA69934238BF1E463446EB690134A3421A
:100B700002D8012ECBD902242146D8F80000FFF775
:100B80001DFF40B10128CAD0013020D0B442ECD1C1
:100B9000BDE7002CE8D04FF0FF3221462846FFF792
:100BA00091FE90B957B9D5E90632023A93426C6189
:100BB00010D92B7943F001032B71B1E72246394656
:100BC0002846FFF77FFE0028EDD00128A7D14FF07F
:100BD000FF34A5E7013BAB61EBE7F8B50D46012D0E
:100BE0000746114604682BD9E369AB4228D92AB1DC
:100BF0004FF0FF322046FFF765FE30B929463868CE
:100C0000FFF7DCFE064608B90020F8BD012817D022
:100C1000431C17D0002229462046FFF753FE002828
:100C2000F3D1D4E90632911E8B4205D20133A36180
:100C3000237943F001032371B2423546DED8E3E75E
:100C40000220E2E70120E0E740B1A1F10B03012B14
:100C500004D90F2902D0006900F0A0BE704738B552
:100C60000D460446F0B10368DBB11A78B2B1818851
:100C7000DA88914212D1186900F087FE034698B1D4
:100C80002368587800F018FF10F0010002D12468A2
:100C90002C6038BD00212068FFF7D6FF0920002412
:100CA000F6E71C460920F3E70F201C46F0E7F8B5ED
:100CB000C37804460D46C3B929462046FFF7D3FB47
:100CC00004F138060746606304F50E7233460021CE
:100CD00003F8011B9342FBD1002563899D420AD38F
:100CE0006089401B18BF0120F8BDFFF70EFC0028EB
:100CF000E2D00120F8E701237A193146607800F04C
:100D0000F4FE0028ECD10135E7E72DE9F843076947
:100D100005682037B7F5001F24BF0023836183696E
:100D20000446894673B1C7F30808B8F1000F39D1FA
:100D300041690133836139B92B89B3EB571F31D82E
:100D40000023A36104200BE06B89013B13EA5723C6
:100D500028D12846FFF732FE0128064602D8022095
:100D6000BDE8F883421C01D10120F9E7EB69834219
:100D700012D8B9F1000FE3D061692046FFF7B9FE40
:100D80000646A8B10128EAD0431CEDD0014628460A
:100D9000FFF78DFF0028E7D1666131462846FFF74F
:100DA00062FBA061383545442761E5610020D7E743
:100DB0000720D5E72DE9F04F002185B00446D0F893
:100DC0000080FFF755FE8146002840F08C804FF0F0
:100DD000FF334FF0FF0AE36257460093A169404694
:100DE000FFF7B3FB814600287DD1E5692E78002E00
:100DF0007DD0EA7AE52E02F03F03A37103D01007FD
:100E000004D50F2B04D0009BE36252E00F2B57D187
:100E100094F82B30590642D4720648D5236995F8C8
:100E20000DA0E36206F0BF066B7B534541D1EA7E1D
:100E3000AB7E53EA02233CD12F78D8F80CB007F0F0
:100E40003F077B1E0D275F432A4B012113F8012B1F
:100E5000A81815F80290407849EA002959B37F2F65
:100E6000039326D8484600F0D3FD7A1C02903BF845
:100E70001700019200F0CCFD0299814219D1019A2C
:100E8000039B494617461C4A9A42DFD12B785B06E2
:100E900003D511B13BF817305BB9013EF7B2002121
:100EA0002046FFF732FF8146002897D01BE0B7426B
:100EB000BAD0FF27F3E74FF6FF729145E3D0F8E78A
:100EC00027B92846FFF7DAFA50450CD094F82B9052
:100ED00019F0010997D10B2204F120012846FFF7F0
:100EE000B4FA00288FD1484605B0BDE8F08F4FF026
:100EF0000409F8E784B8000091B800002DE9F04F2C
:100F000085B00368019306468A4611F8013B2F2BF2
:100F1000FAD05C2BF8D00021B1609AF800301F2B7A
:100F200000F2CD808023304686F82B3005B0BDE836
:100F3000F04FFFF79DBD7F2807D8924A12F8013B7A
:100F40001BB19842FAD106204EE0802DFBD02BF841
:100F500015000135B7E033F8022D202A02D02E2AE1
:100F600040F0D480013DCEE00246D7E0C84505D22E
:100F7000AB4249D1B9F10B0F3ED102E0B9F10B0FF1
:100F800035D144F003044FF00B0996F82030E52BDF
:100F900004BF052386F82030B9F1080F04BFBF0055
:100FA000FFB207F00C030C2B03D007F00303032B55
:100FB00001D144F00204A50707D4F80748BF44F064
:100FC0001004790748BF44F0080486F82B403046E7
:100FD000FFF7F0FE96F82B3000285FD0042803D1ED
:100FE00013F0040F08BF052005B0BDE8F08FAB4239
:100FF00002D044F00304C8D8BF00FFB22B464FF024
:101000000B094FF00808B9E07F2812D944F002021A
:1010100040F2B5110393029200F0C6FC10F0800F6D
:10102000DDE902230FD000F07F005749085C144629
:1010300028B1564911F8012BF2B18242FAD144F09D
:1010400003045F2011E0FF28F1D909F1FF31884541
:1010500003D344F00304C84690E006EB0801040AF9
:1010600081F8204008F10108144606EB080208F157
:10107000010882F8200081E0A0F1410292B2192A11
:1010800002D847F00207F0E7A0F1610292B2192AF4
:101090009EBF203847F0010780B2E6E75A07A3D485
:1010A000B379DB066CD5019B03F138013369C3F3D7
:1010B00008031944019B1878FFF70DFAB0603368F4
:1010C000D3F80CB000251AF8010B68B140F2B51145
:1010D00000F08AFC00283FF436AF1F2804D92F28DF
:1010E00002D05C287FF427AF524613782F2B92460C
:1010F00002F10102F9D05C2BF7D0202834BF042480
:1011000000240BEB4503002D7FF425AF00220BEBF1
:1011100045032BF81520002D3FF415AF3BF81210B6
:10112000202902F101003FF41FAF0AB92E2901D195
:1011300044F0030433F8021D2E2901D0013DF9D1FA
:1011400006F1200306F12B01202003F8010B994240
:10115000FBD14FF000084FF0080947463BF812005A
:10116000531C00283FF411AF202805D02E287FF40F
:10117000FDAEAB423FF4FEAE44F003041A46EDE789
:10118000052031E79BB8000004B80000A4B80000B7
:1011900070B5C3780446002B45D12378032B39D191
:1011A0002379012B36D104F1380604F50E7233464B
:1011B000002503F8015B9342FBD1552384F83632B6
:1011C000AA2384F8373252234122722184F838301E
:1011D00084F83930612384F83A3084F83B2084F86D
:1011E0001E2284F81F3284F81C1284F81D1204F5A4
:1011F0000870A169FFF721F9616904F50970FFF72B
:101200001CF9626A6078013262630123314600F0A2
:101210006CFC257100221146607800F07AFC0030E9
:1012200018BF012003E0FFF770F90028B5D070BDAA
:101230002DE9F04F90F82B4014F0A00489B005463A
:1012400040F08F800668F26832F81430002B66D1C7
:1012500005F120070C22394605A8FFF733F99DF860
:101260001F30DB0740F186804023DFF8448285F899
:101270002B304FF0010A0B2205A93846D6F80C9006
:10128000FFF720F9BAF1050F5AD9A9F10201534627
:1012900031F8022F002A44D10DF11300072203F088
:1012A0000F0C0CF13001392988BF0CF137010F2BDD
:1012B00000F8011902F1FF324FEA131142D808ABCE
:1012C00013447E2103F8141C05F11F010846002376
:1012D000934206D010F801CFBCF1200F03F1010EAC
:1012E00032D1072A9CBF08A8801803F1010396BFDA
:1012F00010F8140C20200132072BC854F1D92846CD
:10130000FFF758FD814678BB0AF1010ABAF1640F74
:10131000B1D14FF00709484609B0BDE8F08F01345C
:1013200092E7102002F0010C0CEB430313F4803F12
:1013300018BF83EA080301384FEA5202F2D1A7E747
:101340005346A9E70B46AAE77346C1E78046012149
:101350002846FFF7DAFC814610B3B9F1040FD8D064
:10136000D9E74FF00609D6E70428D4D19DF81F30FD
:1013700085F82B309DF81F30D5F800A09B0748BF9B
:101380000C344FF00001284649BF0D230124B4FB63
:10139000F3F40134FFF76CFB81460028DDD1804671
:1013A000A9695046FFF7D1F881460028D5D1EB69ED
:1013B0001B78E52B01D0002BC8D108F1010844456A
:1013C000C5D1013C55D029692846A1EB4411FFF74E
:1013D0004FFB814600289ED13846FFF74FF84FF665
:1013E000FF780190A9693046FFF7AFF881460028E1
:1013F00091D1EB69019AD6F80CE05A73E1B24FF043
:101400000F024FF00D0CDA72DFF8A8A018734A1E15
:101410000CFB02F29876D876844640451AF8019B78
:1014200018BF3EF8120003F8090003EB090B0CF19A
:10143000010C18BF01324FEA1029002808BF4046AE
:10144000BCF10D0F8BF80190E7D1404502D03EF87A
:1014500012200AB941F0400119700123F3700021F4
:101460002846FFF752FC814600287FF454AF013C28
:10147000B8D1A9693046FFF768F8814600287FF4A3
:101480004AAFEB69014603F1200203F8011B9342C6
:10149000FBD10B223946E869FFF714F895F82B3099
:1014A000EA6903F0180313730123F37033E700BFF5
:1014B0002110010084B80000F0B585B0CDE900101E
:1014C00003A814460391FEF7E8FF051E28DB154F1D
:1014D00057F825604EB1306900F052FA18B902246D
:1014E000204605B0F0BD00233370019979B9019B06
:1014F00047F82530002CF3D001A900226846FFF7F9
:1015000081F8044601460198FFF79EFBE8E70023B7
:1015100001F8103BE8B200F023FA0028E7D1DEE73B
:101520000B24DDE7380300102DE9F041D0B0174659
:1015300001910446002800F0DB8002F03F052A46B6
:1015400002A901A8FFF75EF8064600284BD1029BCE
:10155000019903930FAADA6003A8FFF7CFFC20B923
:101560009DF93730002BB8BF062017F01C0F00F094
:101570009F80002842D0042835D103A8FFF758FEE9
:1015800088BB45F00805029BDDF8288018784146A5
:10159000FEF7A1FF074600F0CEFA014608F10E0063
:1015A000FEF74BFF0A9B02982022DA720A9900226A
:1015B000FEF79FFF0A9B00221A775A779A77DA770D
:1015C000029B0121D97017B3394603A8D3F83480A0
:1015D000FFF703FB38B941460298FEF7B6FF029BBE
:1015E000013F5F6198B100232360064631460298AF
:1015F000FFF72AFB304650B0BDE8F0819DF812306D
:1016000013F0110F5ED178076CD43907BBD4DDF825
:1016100008800A9FD8F834302362676298F8000087
:101620002907394648BF45F04005FEF754FFA06042
:1016300007F11C00FEF7F9FEB8F80630A38004F1AC
:1016400028070023E060C4F8008025746374E36118
:10165000636104F50A713A4602F8013B9142FBD1FD
:10166000AA06C3D5E568002DC0D0B8F80A80A168E5
:1016700065614FEA4828A84526D30020A1610028CB
:10168000B1D1C5F30803002BB0D0DDF80880404687
:10169000FEF7E9FE50B300EB5522E2610123394623
:1016A00098F8010000F00DFA00289FD001209AE779
:1016B000002898D19DF81230DA0615D4BF07A6D5B8
:1016C000D807A4D507208EE72068FFF777F901280F
:1016D0000146A5EB080503D9431CCCD10120CDE779
:1016E0000220CBE708207EE704207CE702207AE78F
:1016F00009267FE72DE9F04F9B4685B000238946F8
:10170000CBF8003003A904461746FFF7A8FA0546B0
:1017100008B9657C0DB1294693E0237C9A0708D46B
:1017200007210398FFF790FA0725284605B0BDE882
:10173000F08F6369FB4200D3DF4304F12803009379
:1017400063E0A16973E0012802D102256574E2E734
:10175000431C01D10125F9E7A368A06103B9A0608A
:1017600094F91030002B0CDA0398E2690099407864
:10177000012300F0BAF90028ECD1237C03F07F03A9
:101780002374DDF80CA0A1695046FEF76CFE20B969
:10179000022565742946504654E0019BB7F5007F49
:1017A00003EB000851D3019ABAF80A309AF8010005
:1017B0007E0A32449A4284BF019A9E1A33464246B8
:1017C000494600F092F90028C4D1E169A1EB080173
:1017D000B1420AD24FF4007209EB41210098FEF7A2
:1017E00071FE237C03F07F0323747602DBF8003064
:1017F0003344CBF800306369BF1BB1441E44E36837
:101800006661B3422CBFE360E660AFB16369C3F3C6
:1018100008026ABB039A5289013A12EA53220192E2
:101820009ED1002B8DD1A06800288CD10146204686
:10183000FFF75FF9002886D1237C43F0400323742F
:1018400000210398FFF700FA6FE7E36943450DD0E5
:10185000E26863699A4209D90123424600999AF8DD
:10186000010000F02EF900287FF474AFC4F81C804A
:101870006069009BC0F30800C0F50076BE4228BF37
:101880003E46184432464946FEF71CFE237C63F070
:101890007F032374AAE7F7B501A90446FFF7DFF930
:1018A0000546002843D1237C13F040053FD01B069A
:1018B00014D50198E2694078012304F1280100F071
:1018C00014F938B101210198FFF7BEF90125284626
:1018D00003B0F0BD237C03F07F03237400F02BF9E9
:1018E000216A07460198FEF730FE0546F8B9666A98
:1018F000F37A43F02003F372A26820683146FEF7C2
:10190000F8FDE16806F11C00FEF797FD394606F187
:101910001600FEF792FD0198B5740123F574C370AB
:10192000FFF736FC237C23F0400305462374294649
:101930000198FFF789F9CAE737B50546FFF7ABFF0E
:10194000044650B901A92846FFF789F9044620B991
:10195000286001460198FFF777F9204603B030BDB3
:1019600010B501200C4602F006F90449206000F091
:10197000E7FE2068003018BF012010BDABB80000A2
:1019800008B502F061FD012008BD08B540F6B83188
:1019900002F05CFB431E5842584108BD00231A4622
:1019A000194601F0A1BFFFFF7F2810B501D880B212
:1019B00010BDB0F5803F13D240F2B51399420FD15C
:1019C0000849002231F8024B844293B203D103F15B
:1019D0008000C0B2ECE70132802AF3D11346F6E76B
:1019E0000020E5E760BB00007F280DD940F2B51369
:1019F000994208D1FF2806D800F10040034B8038F7
:101A000033F8100070470020704700BF60BB000033
:101A1000B0F5803FF0B521D21E4A1F4983B2B0F520
:101A2000805F28BF0A46141D34F8042C2146A2B159
:101A3000934212D334F8025C2E0AEDB2AF18B842CA
:101A400022DA082E09D8DFE806F0050A101214166B
:101A5000181A1C00801A34F810301846F0BD981A75
:101A600000F001001B1A9BB2F7E7103BFBE7203B9D
:101A7000F9E7303BF7E71A3BF5E70833F3E7503B6C
:101A8000F1E7A3F5E353EEE70434002ECCD101EBEC
:101A90004502C8E7B2B80000A4BA000010B5044679
:101AA00000F072FC34B900F00FF9044600F08AFC33
:101AB000204610BD0424F9E708B900F0A3B90420BA
:101AC0007047F8B507460C4615461E4600F05CFC0C
:101AD0004FB92046F2B2294600F09CF9044600F0C6
:101AE00071FC2046F8BD0424F9E7F8B507460C461A
:101AF00015461E4600F048FC4FB92046F2B2294672
:101B000000F0CEF9044600F05DFC2046F8BD042448
:101B1000F9E770B506460C46154600F035FC46B9A7
:101B20002046294600F010FA044600F04BFC2046FF
:101B300070BD0424F9E70020704738B500F092FC2E
:101B400000F5FA75FF2003F0A7FFFF2003F0A4FFC4
:101B5000FF28044603D000F085FC8542F5D82046D6
:101B600038BDFFFF08B503F09FFBFFF7E6FF03F06A
:101B7000A3FB034A137843F00103137008BD00BFB1
:101B80000800001038B505460C46FFF7D6FFFF28C1
:101B900021D1204603F080FFFD2C1ED0AC1C05F2A5
:101BA000022514F8020C03F077FF023414F8030C3A
:101BB00003F072FFAC42F4D1FF2003F06DFFFF2071
:101BC00003F06AFFFF2003F067FF00F01F00431FD0
:101BD0005842584138BD0020FCE70120FAE737B5EC
:101BE000020604460D4607D500217720FFF7F7FFD0
:101BF000012831D804F07F0403F05EFB03F054FBAE
:101C0000FFF79BFFFF282BD1402C27D0482C0CBF7F
:101C1000872301232A0E8DF801202A0C8DF802203B
:101C200006212A0A68468DF800408DF803208DF8B9
:101C300004508DF8053003F039FF4C2C02D1FF2001
:101C400003F02AFF0A24FF2003F026FF030603D532
:101C5000013C14F0FF04F6D103B030BD9523D9E761
:101C6000FF20F9E770B5054600F0FCFB00F16406C3
:101C7000FF2003F011FF044600F0F4FB864201D37D
:101C8000FF2CF5D0FE2C0CD14FF40071284603F048
:101C900010FFFF2003F000FFFF2003F0FDFE0120F6
:101CA00070BD0020FCE7FFFF38B5064D2C78E4B28C
:101CB00003F00AFB18B104F0FD042C7038BD44F0A9
:101CC0000304FAE7080000102DE9F341FFF7ECFFE9
:101CD0004A4B1A7812F0020F1E4604D01878C0B290
:101CE00002B0BDE8F081C82003F09EFE0A25FF2067
:101CF000013D03F0D1FE15F0FF05F8D103F0D4FA51
:101D000029464020FFF76BFF0128044671D100F0FF
:101D1000A9FB4FF4D57100F57A774820FFF75FFFF4
:101D2000012848D101ADA8460424FF2003F0B4FEE9
:101D3000013C14F0FF0408F8010BF6D19DF80630C1
:101D4000012B56D19DF80730AA2B52D100F08AFB07
:101D5000874206D94FF08041E920FFF740FF002875
:101D6000F4D100F07FFB874243D900217A20FFF7AE
:101D700036FF00283DD10424FF2003F08DFE013CF6
:101D800014F0FF0405F8010BF6D19DF8043013F0B0
:101D9000400F14BF0C240424194B1C7003F08CFA60
:101DA0004CB3337845F6C05003F0FE03337003F0B4
:101DB0003BFE307893E72946E920FFF710FF022821
:101DC00036BFE9254125022400F04CFB874205D9A6
:101DD00000212846FFF703FF0028F5D100F042FB61
:101DE000874206D84FF400715020FFF7F8FE002814
:101DF000D2D00024D0E7FFF7B5FEDAE708000010E4
:101E00003E03001008B5FFF74FFF014B187808BDDF
:101E10000800001070B5144605460E46FFF744FF53
:101E2000002C35D01C4B1B78DA0733D403F03CFA76
:101E30001A4B1B781B0758BF7602012C314611D173
:101E40005120FFF7CCFE38B94FF400712846FFF758
:101E500009FFB0FA80F4640903F02EFA201C18BFC1
:101E6000012070BD5220FFF7BAFE0028F4D14FF4D4
:101E700000712846FFF7F6FE28B1013C14F0FF047C
:101E800005F50075F3D100214C20FFF7A8FEE3E72C
:101E90000420E6E70320E4E7080000103E030010FA
:101EA00070B5144605460E46FFF7FEFE002C41D0E5
:101EB000234B1A78D0073FD41B7859073ED403F040
:101EC000F3F9204B1B781A0758BF7602012C11D169
:101ED00031465820FFF783FE50BBFE212846FFF70E
:101EE00051FEB0FA80F4640903F0E6F9201C18BF33
:101EF000012070BD13F0060F03D02146D720FFF755
:101F00006EFE31465920FFF76AFE0028ECD1FC2115
:101F10002846FFF737FE28B1013C14F0FF0405F511
:101F20000075F4D1FD210020FFF72CFE0028DBD145
:101F30000124D9E70420DCE70320DAE70220D8E710
:101F4000080000103E0300107FB506460D46FFF75F
:101F5000ABFE052E15D12C78012C10D02CB1022C03
:101F60000AD00424204604B070BD03F0ADF9002867
:101F7000F8D0FFF7F7FDF5E703F0A6F96870002445
:101F8000F0E76F4B1C7814F0010440F0D7800E2E60
:101F900000F2D280DFE806F008134E52D0D0D0D045
:101FA000D0D09DA1B0B3C40003F07EF9FFF7C5FD0A
:101FB000B0F1FF0418BF012403F07EF9D2E700213D
:101FC0004920FFF70CFE044608B10124F4E7102174
:101FD0006846FFF747FE0028F7D09DF800309DF8CF
:101FE00008109B09012B9DF8093006D15A1C02EB01
:101FF000012292B292022A60DEE79DF807209DF846
:102000000A00920002EB91129DF80610890201F479
:10201000406101320A449DF805105B0001F00F0198
:1020200001EBD01103F006030B44073B02FA03F364
:102030002B60C1E74FF400732B80BDE7414E317830
:1020400011F004011CD00021CD20FFF7C8FD0028AD
:10205000BBD1FF2003F020FD10216846FFF702FEF0
:102060000028B2D03024FF20013C03F015FD14F00D
:10207000FF04F8D19DF80A301A0910239340D7E7DE
:102080004920FFF7ACFD044600289ED11021684688
:10209000FFF7E8FD002898D032789DF80A309DF8C7
:1020A0000B1092070AD55B009DF80D2003F07E030C
:1020B00003EBD11392090133013ADFE7CA0002F0C2
:1020C0001802C3F3840302EB5112013302FB033302
:1020D000AEE71C4B1B782B706EE700214920FFF701
:1020E0007EFD00287FF471AF10212846FFF7BAFD6E
:1020F000B0FA80F464095FE700214A20EFE700218D
:102100007A20FFF76CFD044600287FF45EAF2E1D99
:10211000FF2003F0C1FC05F8010BAE42F8D14BE7FC
:102120000021CD20FFF75BFD00287FF44EAFFF209C
:1021300003F0B2FC4021D8E704243DE7032411E773
:10214000080000103E03001008B5064605F0CEFA60
:1021500000240546A54200DCFEE7315D002003F0C7
:10216000B9FD0134F6E7FFFF02280CD9074B1B68C5
:102170005A68824207D09A68824204D0DB681B1AF0
:102180005842584170470120704700BF6401001059
:10219000F8B504460E461546FFF7E6FF48B3164B62
:1021A0001B68DB68A34210D0A31E5C425C4102F0B6
:1021B00057FE0746002003F025FD022F17D1B0B1CE
:1021C000ACB9A54203DC2846F8BD0124EFE7315D38
:1021D0004FF0FF32002003F0DFFD0134F1E7315D05
:1021E000002003F077FD0134A542F8DCEBE7002482
:1021F000FAE70248FFF7A8FF6401001092BC000054
:1022000008B5FFF7B1FF18B1002003F09BFD08BD32
:102210000148FFF799FF00BF60BC0000F8B5044615
:102220000D4600F009F9061941EB050702F018FE0A
:1022300002280CD100234FF47A72AB4208BFA242AD
:1022400005D22046294603F067FE02F09DFC00F00F
:10225000F3F8B94208BFB042F9D3F8BD4FF47A732E
:10226000A0FB0301FFF7DABF30B585B002F09AFF9B
:1022700003F034F88DF80C0003F036F88DF80D00FB
:1022800003F038F88DF80E0003F03AF800248DF8CA
:102290000F0004AA04F003031344013413F8040CE0
:1022A00003F0FAF83220FFF7D9FF202CF1D1284BA8
:1022B0001868002319460222406805F02FF9FDF73F
:1022C000B3FF002501464FF4E132002003F056FC35
:1022D0000095204B204A0121204601F079FA1F4B3E
:1022E000009504461E4A0121802001F071FA224621
:1022F0000146284603F090FC45F6C05003F0AAFBC7
:10230000012218491848FFF7D7F8184A184B1949FD
:10231000A84208BF1346184A1848194D05F060F83E
:10232000FDF782FF17490246022003F0EDF902246F
:10233000E1B2022003F0A8FA18B12146284605F0C0
:102340004FF80234B4F5807FF2D105B030BD00BF44
:1023500064010010600300103F03001068060010C5
:10236000E805001099B50000B0030010D6BC0000CD
:10237000F4BC00001BBD0000C5BC00006CBD00002B
:102380008CBD0000801A060010B50B4C23683BB9C9
:102390000A49012001F0DAFB0949206000F0D0F978
:1023A00002F05EFD022806D120684FF0FF31BDE843
:1023B000104001F04BBE10BDB8060010BC06001066
:1023C000B3BD000010B502F04BFD022808D105484E
:1023D00000231A4619460068BDE8104001F084BA8F
:1023E00010BD00BFB8060010074A08B513680021E9
:1023F00001330846136003F0A9F800210846BDE840
:10240000084003F08FB800BF0C07001008B5074A5A
:102410000749B0FBF1F10020013903F04DF800212C
:10242000044A0846BDE8084003F06AB8E923000002
:1024300040420F000087930370B5084E002003F060
:102440007DF805460020346803F078F88542F5D819
:10245000034B0021E3FB040170BD00BF0C0700101B
:102460000087930308B5FFF7E7FF4FF47A72002364
:1024700003F052FD08BD70B5054608460C4605F050
:1024800035F92618B44205D128460A21BDE8704026
:1024900003F020BC14F8011B284603F01BFCF1E7F5
:1024A00008B54821012003F019FD4FF4FA7002F03D
:1024B0006BFBF6E707B5084D084C01A9012003F0B6
:1024C000EDFC2B68019AD868214603F0A7FE4FF473
:1024D000FA7002F059FBF0E764010010D7BD00006C
:1024E00013B5164805F002F84FF4E13260210120DF
:1024F00003F090FC02221C21042002F01CFF0222A7
:102500001D21042002F017FF00240223CDE900342E
:102510004FF4806223460A490A4802F075F9012304
:1025200000934FF48062234607490194074802F064
:102530006BF902F097F9204602B010BDBEBD000055
:10254000CCBD0000A1240000D2BD0000B5240000D5
:102550000C460020044908B5FFF78DFF21460020F6
:10256000FFF789FFFEE700BF1CBF000008B5024966
:102570000020FFF780FFFEE7E2BE0000024B0022D2
:10258000C3F8C02030BF704700C00F4008B50C46EC
:1025900000200A49FFF76FFF09490020FFF76BFF92
:1025A00008490020FFF767FF07490020FFF763FF96
:1025B00021460020FFF75FFFFEE700BFEABD0000F5
:1025C0003CBE00007FBE0000B3BE0000034B0360B2
:1025D000034B0B6064231360704700BFA808001012
:1025E0001807001008B5FFF727FF024B1B68C01A39
:1025F00008BD00BF1007001000F002BE00F048BE8A
:1026000000F078BEF8B5164C164D174E00F032FCAF
:1026100007460028FAD100F0FDF8E0B123681BB1AD
:10262000072000F0FDFA27602B6823B1092000F095
:10263000F7FA00232B6033680C2B04D9082000F034
:10264000EFFA00233360094F3B6823B10A2000F002
:10265000E7FA00233B600A2002F096FAD6E700BFB3
:10266000D40E0010D00E0010C80E0010CC0E0010BA
:1026700008B502F0E9FB000C08BD38B504460D466C
:1026800002F0E2FB80B240EA05412046BDE8384056
:1026900002F0DDBB08B501F015FF000C08BD38B530
:1026A00004460D4601F00EFF80B240EA0541204687
:1026B000BDE8384001F008BF70B5184D2E6886B0EF
:1026C0000446AEB9164800F036FA164B16491860A3
:1026D000164B0293164B019303230093C8223346F3
:1026E000144802F05BF8286010B9052000F0FEFBEA
:1026F000022C03D1104B1B685BB9FEE7012C0AD1F9
:1027000000F006FD40F2011304A8ADF8103000F00F
:10271000E5FB06B070BD00F0FBFCFAE70409001011
:1027200039BF0000AC1300103EBF00002C0C00109D
:102730000C09001005260000D80E001000F0EEB9BC
:1027400000F0ECB902F086BB034B1A6882421ABF54
:1027500018600120002070470809001008B502F039
:102760007FFBB0FA80F0400908BDFFFF10B50146BD
:1027700004460A220748FEF7D7FE40B90548FFF78E
:102780008AF805482146BDE8104004F029BE2146DC
:102790000248F8E7880C001063BF000090BF0000FB
:1027A00073B50C4601AB164600250A4601460A4899
:1027B0000195FEF79FFF034630B90748FFF76BF816
:1027C0000020346002B070BD044A054910682A46F2
:1027D000C06803F023FDF3E7880C001064010010CB
:1027E000C5BF000008B5044804F080FE0348BDE8FA
:1027F0000840FFF7A1B800BF45BF0000880C0010DB
:10280000034B1888003018BF01204042704700BFBA
:10281000B0130010014B1868704700BFD80E0010AD
:1028200070B5EFF31086012383F31088134D2A68E7
:10283000B2F5C07F1DD2124B940843F82400101D3E
:1028400018440023CC5CC45414B101330C2BF9D1CF
:10285000C85C40B90B490868834208D810322A6026
:1028600086F3108870BD802BF4D00133F0E70B6045
:10287000F4E7054A136801331360F1E7EC0E00102A
:10288000E40F0010C80E0010D40E001038B5014639
:10289000EFF31085012383F31088084B1B68B3F511
:1028A000C07F08D2064C1C442046FFF7B9FF85F3D1
:1028B0001088204638BD0024F9E700BFEC0E001058
:1028C000E40F0010F0B5EFF31087012383F31088B5
:1028D000154E16493468002294421BD9930851F8CA
:1028E0002350A8421DD1102CA4F1100015D982420A
:1028F00013D0850801EB8502141F01EB83030C3212
:1029000054F804CF43F804CB9442F9D1002341F8A2
:102910002530306087F31088F0BD002241F8232075
:10292000F7E71032D8E700BFEC0E0010E40F0010FC
:10293000F0B5EFF31087012383F31088114C124A8E
:1029400025680023AB4210D32B46EF2B14D89A08EE
:102950000D4E46F822000132AB4246F8221001D15A
:102960000833236087F31088F0BD9E0852F8266074
:10297000B042EAD00833E5E7044A13680133136034
:10298000F0E700BFE80E0010F40E0010D00E0010AB
:102990001F4AF8B513680133014616460AD1FFF7FE
:1029A0002FFF1060013005D11A4A136801331360FC
:1029B0000020F8BD184B3068184D194C03EBC002CD
:1029C00057887A1A002A1A460FDA2B684FF0020E3F
:1029D00022F830E02068DB1B834238BF23602B6085
:1029E000FFF70EFF30600130DED0336802EBC30327
:1029F000586842185A605A88521A5A802B6889B20D
:102A0000591A23682960994238BF2160D1E700BF75
:102A10001C000010B00E0010B013001014000010C5
:102A2000180000102DE9F74F1C1D48BFDC1D00EBFE
:102A3000A4040F2C814616461D460D9F4FEA8008C0
:102A400009DD274B0F3C1A68A400A24238BF1C6066
:102A5000C8F13C050F24EFF3108A012383F310889B
:102A6000204B1B6833B3204A01911368A01C03F16B
:102A7000010B8000C2F800B0FFF78AFFD0B10199C6
:102A80001A4BA0F802B041EA04311B680180436090
:102A900000F1080100234B4511DB08F1080318443D
:102AA00000239D4215DCC8F13C03AB42C2BF414448
:102AB00000234B558AF3108803B0BDE8F08F1EB198
:102AC00013B986600133E6E757F8042B41F8232059
:102AD000F8E70C9AD25C00F8012B0133E1E700BF64
:102AE000CC0E0010D80E0010E40E0010041000E010
:102AF0000CB41FB5069A0023D45C0CB1342B0BD157
:102B000007ACCDE9002400220394FFF78BFF04B04B
:102B1000BDE8104002B070470133EDE770B50546DF
:102B20000C46FFF77DFE2B46224603210120BDE81F
:102B30007040FFF7DDBF38B50546FFF7A7FE2A4610
:102B40000446034603210120FFF7D2FF204638BD8B
:102B500073B50D460646FFF799FE29460446FFF772
:102B6000E7FE00950346324607210220FFF7C0FF2B
:102B7000204602B070BDFFFF2DE9F84F064688469B
:102B8000154600242B5D0BB1342C3AD1B8F1000F5F
:102B900039D00136B6B20127EFF31089012383F350
:102BA00010881C4B1B6843B31B4A04F1040A1368CA
:102BB00007EBAA0A0AF1020003F1010B8000C2F838
:102BC00000B0FFF7E5FEC0B1144BA0F802B046EA32
:102BD0000A361B6806804360B8F1000F01D0C0F8C8
:102BE0000880BF00F91D00F108032A46084429198E
:102BF0008A420AD11C440023E35589F31088BDE8BA
:102C0000F88F0134BEE74746C6E712F8015B00F8CB
:102C1000015FEDE7D80E0010E40E0010041000E094
:102C200010B40C4C013801232168834013EA0102DF
:102C30000DD10B432360084B5DF8044B19680D2838
:102C40009CBF064B53F820209020FFF795BF5DF8FE
:102C5000044B7047B40E0010AC130010F4BF00001A
:102C6000074A1060EFF31081012383F31088054BAE
:102C700012685A604FF400121A6081F3108870478E
:102C8000B80E0010B01300102DE9F047654E336800
:102C90008342074600F0BE80EFF31088012585F3DC
:102CA0001088002800F0BB805F48604CFFF75EFD95
:102CB0005F48FFF7D5FF002323605E4BFF221A70A9
:102CC000EFF3108985F310881820FFF761FE0028C4
:102CD000FAD05949594BDFF88CC1C0E90013584B61
:102CE0001B68C360574B00258560C0E904C389F3A6
:102CF0001088EFF3108A012383F31088DFF86891BE
:102D00001020FFF745FE0028FAD0031F4A460C307A
:102D100052F8041B43F8041F9842F9D10435602D82
:102D200009F11009ECD18AF31088EFF3108A01231E
:102D300083F31088444D4FF000090820FFF728FE68
:102D40000028FAD02B68036009F102096B68436020
:102D5000B9F13C0F05F10805EFD18AF31088EFF3C4
:102D60001085012383F310880420FFF711FE00284B
:102D7000FAD0364B1B68036085F31088EFF3108997
:102D8000012383F31088324B1B68002B44D0FFF7DC
:102D9000D9FC82462568013525601420FFF7F8FD2F
:102DA0000028FAD045802B4D2B4A43F201030380C3
:102DB0002B684360294B1B68C0E9023A1368036122
:102DC000591C116089F31088254B1A689A461AB964
:102DD000FDF726FACAF80000236803F10109C4F8D8
:102DE00000901820FFF7D4FD0028FAD044F2020327
:102DF00003802B684360DAF8003083604FF47A7206
:102E00000123C0E903230023A0F802904361376047
:102E100088F31088BDE8F0874FF0020ABAE7FFF7A1
:102E2000E1FCF4E7D80E00102CC00000E40E001006
:102E30008C1300100E000010004653500600A11A1B
:102E40006811001008001E00F40E001010000010A1
:102E50006C110010041000E0DC0E00107011001066
:102E60006411001010001800E40F00100020FFF79C
:102E70000BBFFFFFF7B5164D2B880024022B0194E2
:102E80001ED16E88134FC6F12006386801AA311B87
:102E90002044FFF785FCA8B9019B1C44B442F4D13F
:102EA000EFF31081012383F310880B4A3B686B60BA
:102EB0004FF400132B6013682033136081F31088E4
:102EC000204602E0FFF7D2FF002003B0F0BD00BFB4
:102ED000B0130010B80E0010140000100378012B7E
:102EE00002D14078FFF7D0BE7047FFFF104B1A6841
:102EF00010B5E2B90F4918600C680138012383400E
:102F000023430D280B600C4C98BF0C4B216898BFD5
:102F100053F820209020FFF72FFE2168084A9020C8
:102F2000FFF72AFE0020BDE81040FFF7ADBE10BD40
:102F3000E00E0010B40E0010AC130010F4BF00003F
:102F400036C00000B0F5805FF8B505460F4604D3E3
:102F50000120BDE8F840FFF7C9BFEFF31086012359
:102F600083F310880A4B1B687BB10A4B1C680C204A
:102F700001341C60FFF70CFD38B1074B44801B681F
:102F8000C0E9013745F48055058086F31088F8BD07
:102F9000D80E0010E40E0010041000E010B5EFF39E
:102FA0001084012383F31088104B1A681043104AD1
:102FB000186092F90030002B03F1FF330ADDDBB219
:102FC00013700C4A52F823103420FFF7BBFF84F330
:102FD000108810BD137020B9FFF7B4FB01463620EE
:102FE000F3E7FFF7BBFB0028F6D1F0E7F00E001087
:102FF0000E000010BC0E001038B50146EFF310842F
:10300000012383F310880E4A92F90030581C0ED128
:103010000C480025056001335BB213700A4A332067
:1030200042F82310FFF78EFF84F3108838BD012B80
:10303000F1DD84F310880220BDE83840FFF756BF69
:103040000E000010F00E0010BC0E0010B0F5805FF6
:103050002DE9F04105468846174604D30120BDE816
:10306000F041FFF743BFEFF31086012383F310888D
:103070000B4B1B6883B10B4B1C68102001341C6088
:10308000FFF786FC40B1084B44801B68C760C0E96D
:10309000013845F40055058086F31088BDE8F081BD
:1030A000D80E0010E40E0010041000E0B0F5805FB0
:1030B0002DE9F8430546884691461F4604D3012072
:1030C000BDE8F843FFF712BFEFF31086012383F347
:1030D00010880C4B1B688BB10B48046801340460EA
:1030E0001420FFF755FC48B1084B44801B68C0E929
:1030F0000397C0E9013845F44055058086F31088F0
:10310000BDE8F883D80E0010E40E0010041000E0B3
:103110000E4B0F4A1A6003F54E434C331A6842F0C7
:1031200080721A601B6813B90320FFF7DFBE094ADB
:10313000136813F0007301D00420F6E706490B6012
:10314000136843F001031360704700BFB01F00E035
:1031500055CEACC5001000E0041000E0084800683F
:10316000006880F308884FF0000080F3148862B68E
:1031700061B6BFF34F8FBFF36F8F00DF00BF00005A
:1031800008ED00E0DFF80C00016841F47001016017
:103190007047000088ED00E007B5002301930B4B5A
:1031A0001B68013304D00A49EF20FFF7EFF9FEE76F
:1031B0004FF0180383F31188BFF36F8FBFF34F8F66
:1031C000019B002BFCD003B05DF804FB7C110010C8
:1031D000B6C200004FF0807340F8043C074B40F843
:1031E0000C3C21F001016FF0020340F8081C40F88C
:1031F000202C40F8243C4438704700BF993100002F
:10320000074B19680868B0E8F04F80F30988BFF3EE
:103210006F8F4FF0000080F311887047AFF300808C
:103220008011001008B54FF0180383F31188BFF325
:103230006F8FBFF34F8F094A13680133012B13605F
:103240000AD1074B1B6813F0FF0F05D0054940F268
:10325000AB10FFF79BF9FEE708BD00BF7C11001023
:1032600004ED00E0D0C20000074A08B513682BB98E
:1032700006494FF4D970FFF789F9FEE7013B136067
:103280000BB983F3118808BD7C11001005C3000041
:10329000EFF30980BFF36F8F154B1A681EF0100F04
:1032A00008BF20ED108A20E9F04F10602DE90900D9
:1032B0004FF0180080F31188BFF34F8FBFF36F8F6B
:1032C00001F096FC4FF0000080F3118809BC1968EA
:1032D0000868B0E8F04F1EF0100F08BFB0EC108A7D
:1032E00080F30988BFF36F8F704700BFAFF3008092
:1032F0008011001008B54FF0180383F31188BFF355
:103300006F8FBFF34F8F01F00BFB18B1034B4FF0E2
:1033100080521A60002383F3118808BD04ED00E099
:1033200010B5084A084C002323601360FCF778FFAF
:103330004FF47A73B0FBF3F0044B013818600723A5
:10334000236010BD18E000E010E000E014E000E0B1
:10335000334B344A13B51968914205D132494FF4C1
:103360009A70FFF713F9FEE71A68304B9A4205D1BD
:103370002F4940F23510FFF709F9FEE72D4B1A7877
:10338000D2B20192FF221A701B782B4ADBB28DF861
:1033900003309DF8033003F018031370274A072306
:1033A000136000219DF80300000603F1FF3409D4E7
:1033B00011B1022B13600ED0214940F25D10FFF7CE
:1033C000E5F8FEE79DF803305B00DBB28DF80330D3
:1033D00001212346E6E74FF400731360019B154A71
:1033E000DBB21370174B1A6842F478021A601A683D
:1033F00042F078421A60FFF793FF134B00241C60E1
:10340000FFF7C0FE114A136843F040431360FFF713
:10341000A5FE01F0EDFBFFF7BFFE204602B010BD98
:1034200000ED00E071C20F4183C3000070C20F4184
:10343000A6C3000000E400E0741100107811001031
:10344000C9C3000020ED00E07C11001034EF00E063
:1034500008B5EFF305830F2B0BD90D4A9B5C0D4A82
:1034600012789A4205D90C4940F2FE20FFF78EF8F7
:10347000FEE70A4B0A4A1B68126803F4E0639342B2
:1034800005D9084940F20E30FFF780F8FEE708BD85
:10349000F0E300E07411001017C300000CED00E031
:1034A0007811001041C3000038B5054601F030FA2C
:1034B000284602F037FF044618B10D4A13682B4422
:1034C0001360FFF73FF9FFF7D3F80A4B1B88184248
:1034D00005D02A4621464CB13820FFF7B7FD01F050
:1034E000CFFA0CB9FFF742F8204638BDE920F4E7DF
:1034F000681100100C00001010B50446A8B101F0CE
:1035000007FA204602F016FFFFF71CF9FFF7B0F8A4
:10351000064B1B88184204D0002221463920FFF7B1
:1035200095FDBDE8104001F0ABBA10BD0C000010D5
:1035300000F108034FF0FF324360C0E9022303614A
:1035400000230360704700230361704743684B60AA
:103550009A688A609A6851609960036808610133CB
:10356000036070470A68531C30B50AD103695A6872
:103570004A6091608B6059600368086101330360A1
:1035800030BD00F108035C6825689542EFD82346FA
:10359000F9E7D0E9011203698A60516059688142F4
:1035A00008BF5A60002202611A68013A1A6018685E
:1035B000704710B50446FFF735FEA46BFFF754FEC5
:1035C000B4FA84F0400910BDF8B51546026C866B5C
:1035D000044652B9076847BB806801F0CBFCA7607E
:1035E00005460136A6632846F8BD65B9406802F075
:1035F000A9FE6368226C1344A26863609342F0D30F
:1036000023686360EDE7C06802F09CFE236CE2680B
:1036100021685B421A448A42E2603EBFA2689B185E
:10362000E360022D01D116B1013E0025D9E73546F0
:10363000D7E7034610B41A6C084662B1D9689C6893
:103640001144A142D96024BF1968D960D9685DF8D6
:10365000044B02F077BE5DF8044B704770B504462A
:10366000FFF7E0FD94F8455004F124066DB2002DFB
:1036700014DCFF2384F84530FFF7F6FDFFF7D2FD99
:1036800094F8445004F110066DB2002D12DCFF23B3
:1036900084F84430BDE87040FFF7E6BD636A002B54
:1036A000E7D0304601F036FB08B101F0C7FB013D21
:1036B0006DB2DCE72369002BE9D0304601F02AFB2C
:1036C00008B101F0BBFB013D6DB2DEE738B50D4638
:1036D000044628B91A4940F20310FEF757FFFEE7E7
:1036E000FFF7A0FDD4E90F30226862604343D11890
:1036F0001B1A1344A160E3600021FF23A16384F837
:10370000443084F8453095B9236963B104F1100061
:1037100001F000FB38B10B4B4FF080521A60BFF341
:103720004F8FBFF36F8FFFF79FFD012038BD04F16E
:103730001000FFF7FDFE04F12400FFF7F9FEF2E7A9
:103740004FC5000004ED00E070B5049C002908BFDF
:1037500022462260C4E90F010546012120461E468B
:10376000FFF7B4FF184B84F84C601988174E2046B9
:10377000FEF795FFFEF7E6FFFEF77AFF3388184263
:1037800021D02046FEF786FF338818421BD094F8DC
:103790004C30042B17D8DFE803F00310160A13008F
:1037A0002A4621461120BDE87040FFF74FBC214654
:1037B0001220BDE87040FFF7C5BB21461320F8E793
:1037C00021461720F5E770BD0A0000100C0000101C
:1037D0001FB51C4628B919494FF49D70FEF7D6FE57
:1037E000FEE72BB916494FF49F70FEF7CFFEFEE7B8
:1037F00032B161B913494FF4A170FEF7C7FEFEE77D
:1038000029B1114940F24310FEF7C0FEFEE75023F4
:103810000393039B502B05D00C4940F24B10FEF74D
:10382000B5FEFEE7039B0094012384F846309DF823
:103830001830FFF789FF204604B010BD8CC400008B
:10384000AEC40000C4C40000FCC4000034C50000C5
:10385000F7B50F461646054628B921494FF4BB7007
:10386000FEF794FEFEE748435030FFF71DFE044686
:1038700068B1002380F8463000F1500200903346D2
:1038800039462846FFF760FF204603B0F0BDFEF73B
:1038900059FFFEF7EDFE134B1B881842F4D0042E9F
:1038A000F2D801A353F826F0BD380000D338000049
:1038B00089380000C9380000D93800002A460021A4
:1038C0004120FFF7C3FBDFE700214220FFF73AFB6F
:1038D000DAE700214320F9E700214720F6E700BF9F
:1038E0008CC400000C0000102DE9FF470E46019229
:1038F0001D46044628B98F4940F2F120FEF746FEE6
:10390000FEE739B9036C2BB18B4940F2F220FEF788
:103910003DFEFEE7022D08D1E36B012B05D0874960
:1039200040F2F320FEF732FEFEE701F099FA08B903
:10393000019B4BBB002D824FDFF80C920CBF4FF068
:10394000560A4FF0C20A4FF00008FFF76BFCA26B5B
:10395000E36B9A4201D3022D4AD1FEF7F3FE784F72
:10396000FEF786FE3B8818421ED02046FEF792FEE8
:103970003B88184218D094F84C30042B14D8DFE858
:1039800003F009322D2D32006E4940F2F620FEF789
:10399000FDFDFEE7A26B002D02F1010221460CBFE6
:1039A0005020C020FFF752FB2A4631462046FFF741
:1039B0000BFE636A1BB104F1240001F0ABF938B1CE
:1039C000614B4FF080521A60BFF34F8FBFF36F8F80
:1039D000FFF74AFC012004B0BDE8F087A26B214646
:1039E00001325120DEE721465220FFF7ABFADBE738
:1039F000019BF3B9FFF738FCFEF7A4FE504EFEF72B
:103A000037FE3388184212D02046FEF743FE338833
:103A100018420CD094F84C30042B08D8DFE803F09F
:103A20007C038585030021465520FFF78BFA002093
:103A3000D1E7B8F1000F02D102A801F0B9F9FFF700
:103A400013FC00F065FFFFF7EDFB94F84430FF2B0B
:103A500004BF002384F8443094F84530FF2B04BFA2
:103A6000002384F84530FFF7FFFB01A902A801F00D
:103A7000ABF900284AD1FFF7D5FBA26BE36B9A4262
:103A800017D1FFF7F1FBFEF75DFEFEF7F1FD3B8876
:103A900018421DD02046FEF7FDFD3B88184217D086
:103AA00094F84C30042B13D8DFE803F00D2B2727B4
:103AB0002B00FFF7D9FB2046FFF7D0FD00F0E0FF19
:103AC0004FF0010841E7A26B21465046FFF7BEFACE
:103AD000019904F1100001F005F92046FFF7BEFD41
:103AE00000F0CEFF0028EBD14FF08053C9F8003032
:103AF000BFF34F8FBFF36F8FE2E7A26B21465720D2
:103B0000E4E721465820FFF71DFAE1E72046FFF7DA
:103B1000A5FD00F0B5FF6FE7002DA26B21460CBF9D
:103B20005320C120FFF792FA81E7A26B214654206F
:103B3000F8E700BF4FC5000057C50000A7C500004B
:103B40000C000010EEC5000004ED00E013B50022EB
:103B500000900B4601201146FFF73AFE044638B1AB
:103B6000002383600360C3601A461946FFF7BCFE5A
:103B7000204602B010BD10B5024600210120FFF71B
:103B800067FE044638B1002383600360C3601A46B1
:103B90001946FFF7A9FE204610BDFFFF2DE9F047AB
:103BA000894690461F46044628B9444940F2C3302E
:103BB000FEF7ECFCFEE739B9036C2BB140494FF43A
:103BC0007170FEF7E3FCFEE7022F08D1E36B012BD7
:103BD00005D03C4940F2C530FEF7D8FCFEE7FFF7C0
:103BE00037FCEFF311864FF0180383F31188BFF30E
:103BF0006F8FBFF34F8FA26BE36BDFF8CCA09A42BD
:103C000001D3022F3ED1204694F84550FEF742FDE5
:103C1000BAF8003018426DB214D094F84C303BB171
:103C2000023B012B0ED8A26B214601325A2007E03D
:103C3000A26B002F02F1010221460CBF5920C320C4
:103C4000FFF704FA3A4649462046FFF7BDFC6B1CD5
:103C500013D1636A0BB901200BE004F1240001F0D9
:103C600059F80028F7D0B8F1000FF4D00120C8F8B7
:103C7000000086F31188BDE8F08701356DB284F845
:103C80004550E8E72046FEF705FDBAF80030184039
:103C9000EFD094F84C5035B1A81E01280BD8A26B78
:103CA00021465D2005E0002FA26B21460CBF5C2061
:103CB000C420FFF7CBF90020DBE700BF4FC50000B1
:103CC00057C50000A7C500000C0000102DE9F04703
:103CD00089469046044628B941494FF48C60FEF766
:103CE00055FCFEE7036C2BB13E4940F26440FEF701
:103CF0004DFCFEE703683BB983682BB13A4940F2BB
:103D00006940FEF743FCFEE7FFF7A2FBEFF31186E5
:103D10004FF0180383F31188BFF36F8FBFF34F8FFA
:103D2000A76BE36BDFF8C4A09F423CD2204694F817
:103D30004550FEF7AFFCBAF8003018426DB215D00E
:103D400094F84C303BB1023B012B0FD8A26B2146BB
:103D500001325A2008E0A26BB8F1000F02F1010213
:103D600021460CBF5920C320FFF770F901376B1CA7
:103D7000A76313D1636A0BB901200BE004F124009F
:103D800000F0C8FF0028F7D0B9F1000FF4D00120EF
:103D9000C9F8000086F31188BDE8F08701356DB2DF
:103DA00084F84550E8E72046FEF774FCBAF8003086
:103DB0001840EFD094F84C5035B1A81E01280CD80B
:103DC000A26B21465D2006E0B8F1000FA26B2146F0
:103DD0000CBF5C20C420FFF739F90020DAE700BFF0
:103DE0004FC500000CC4000025C400000C000010EA
:103DF0000022FFF76BBFFFFF2DE9F04385B00F46B0
:103E00000192044628B98C494FF4A060FEF7BEFB2E
:103E1000FEE739B9036C2BB1884940F20450FEF734
:103E2000B5FBFEE701F01CF8054638B9019B33B13C
:103E3000834940F20950FEF7A9FBFEE70025DFF8B1
:103E40000882DFF800929EE0A36B019A013B2146B5
:103E50006020FFF72BF9013EA663236963B104F1EB
:103E6000100000F057FF38B1764B4FF080521A60C7
:103E7000BFF34F8FBFF36F8FFFF7F6F9012005B047
:103E8000BDE8F083A36B019A013B21466120E0E786
:103E9000019A21466220FFF7D9F8DCE7019BDBB9E4
:103EA000FFF7E2F9FEF74EFC674DFEF7E1FB2B88CA
:103EB000184200F0B3802046FEF7ECFB2B88184236
:103EC00000F0AC8094F84C30042B00F2A780DFE8BF
:103ED00003F09FACA7A7AC0015B902A800F068FFDB
:103EE000FFF7C2F900F014FDFFF79CF994F8443095
:103EF000FF2B04BF002384F8443094F84530FF2B97
:103F000004BF002384F84530FFF7AEF901A902A8E9
:103F100000F05AFF002870D12046FFF74AFB002826
:103F200065D0FEF70FFCFEF7A3FBB8F8003018428F
:103F300015D02046FEF7AEFBB8F8003018420ED080
:103F400094F84C30019A042B09D8DFE803F0034BB6
:103F500047474B00A36B21466620FFF7A7F801995E
:103F600004F1240000F0BEFE2046FFF777FB00F0CE
:103F700087FD38B94FF08053C9F80030BFF34F8F39
:103F8000BFF36F8F0125FFF74DF9A66B002E85D08B
:103F900039462046FFF74DFB2B4DFEF7D3FBFEF7CE
:103FA00067FB2B8818423FF456AF2046FEF772FBA2
:103FB0002B8818423FF44FAF94F84C30042B3FF657
:103FC0004AAF01A252F823F0493E0000913E0000A2
:103FD000853E0000853E0000913E0000A36B214617
:103FE0006720BAE721466820FFF730F8B7E7204698
:103FF000FFF734FB00F044FDC4E72046FFF72EFB3B
:1040000000F03EFD2046FFF7D4FA0028BAD049E779
:10401000A36B019A21466320FFF748F800202EE7A2
:10402000A36B019A21466420F6E7019A2146652098
:10403000FFF70CF8F2E700BF44C6000050C60000CE
:10404000EEC5000004ED00E00C0000102DE9F04387
:1040500085B00446019128B9AA4940F29150FEF773
:1040600095FAFEE7056C2DB1A74940F29550FEF791
:104070008DFAFEE700F0F4FE064638B9019B5BB10D
:10408000A24940F29A50FEF781FAFEE72E46DFF889
:104090008882DFF87C92C9E00546F8E7A36B019AB5
:1040A000013B21466020FFF701F82368013FA76329
:1040B00013B901F04FF8A060236963B104F1100057
:1040C00000F028FE38B1924B4FF080521A60BFF3D7
:1040D0004F8FBFF36F8FFFF7C7F80125284605B054
:1040E000BDE8F083A36B019A013B21466120DAE72A
:1040F000019A21466220FEF7A9FFD6E7019B002B1B
:1041000033D12DB1834940F2E150FEF73FFAFEE78B
:10411000FFF7AAF8804EFEF715FBFEF7A9FA3388E1
:10412000184201D10025D9E72046FEF7B3FA3388BB
:104130001842F7D094F84C30042BF3D8DFE803F0A2
:10414000030F0A0A0F00A36B019A21466320FEF7B2
:10415000ADFFC3E7A36B019A21466420F7E7019AFC
:1041600021466520FEF772FFB8E716B902A800F0F5
:104170001FFEFFF779F800F0CBFBFFF753F894F838
:104180004430FF2B04BF002384F8443094F84530BA
:10419000FF2B04BF002384F84530FFF765F801A921
:1041A00002A800F011FE002879D12046FFF701FA9D
:1041B00000286ED0FEF7C6FAFEF75AFAB8F80030BB
:1041C000184215D02046FEF765FAB8F800301842BC
:1041D0000ED094F84C30042B0AD8DFE803F00354D7
:1041E0004F4F5400A36B019A21466620FEF75EFFF5
:1041F00023683BB9FFF716F8A06800F041FE0546BA
:10420000FFF732F8019904F1240000F06BFD20461D
:10421000FFF724FA00F034FC38B94FF08053C9F8A6
:104220000030BFF34F8FBFF36F8F0126FEF7FAFF09
:10423000A76B002F3FF462AFFEF784FA364DFEF70E
:1042400017FA2B8818423FF430AF2046FEF722FAC7
:104250002B8818423FF429AF94F84C30042B3FF6DA
:1042600024AF01A252F823F09D400000F14000006D
:10427000E5400000E5400000F1400000A36B019A1A
:1042800021466720B2E7019A21466820FEF7DEFE4C
:10429000AEE72046FFF7E2F900F0F2FBC5E7204663
:1042A000FFF7DCF900F0ECFB2046FFF782F900286D
:1042B000BBD065B1FEF7B6FF616A19B1236B19680F
:1042C000C1F10A01A06800F0C7FEFEF7CDFFFEF7BE
:1042D00039FA114DFEF7CCF92B8818423FF422AF82
:1042E0002046FEF7D7F92B8818423FF41BAF94F80D
:1042F0004C30042B3FF616AFDFE803F0101C171705
:104300001C0000BF44C600000CC40000EEC5000045
:1043100004ED00E0EEC600000C000010A36B019A53
:1043200021466320FEF7C2FEFCE6A36B019A2146FC
:104330006420F7E7019A21466520FEF787FEF1E643
:104340002DE9F04789469046044628B93B4940F29A
:10435000FB60FEF71BF9FEE739B9036C2BB1384956
:1043600040F2FC60FEF712F9FEE7FFF771F8EFF399
:1043700011874FF0180383F31188BFF36F8FBFF3DA
:104380004F8FA56BDFF8BCA0002D3BD0204694F8E2
:104390004460FEF77FF9BAF80030184276B210D0C8
:1043A00094F84C303BB1023B012B0AD8A26B21465A
:1043B000013A6A2003E0A26B2146013A6920FEF728
:1043C00045FE49462046FFF734F9013D731CA563BD
:1043D00013D123690BB901200BE004F1100000F0A8
:1043E00099FC0028F7D0B8F1000FF4D00120C8F8EC
:1043F000000087F31188BDE8F087013676B284F8B3
:104400004460E8E72046FEF745F9BAF80030184066
:10441000EFD094F84C604EB1B01E012804D8A26BC6
:1044200021466D20FEF712FE2846E2E76C20A26BC3
:104430002146FEF70BFE3046DBE700BF4FC500000C
:10444000A3C600000C00001038B5044628B91B496B
:1044500040F2B770FEF79AF8FEE7FEF773F9184DD1
:10446000FEF706F92B88184213D02046FEF712F902
:104470002B8818420DD094F84C30042B09D8DFE873
:1044800003F0031317171300A26B21462120FEF738
:10449000DDFD2046FEF716FA94F8463063B9204653
:1044A000BDE83840FFF728B8A26B21462320EEE78D
:1044B000A26B21462220EAE738BD00BF4FC50000AD
:1044C0000C000010806C7047816470472DE9F0414A
:1044D0000446FEF7A7FE464B464D1A68464F01328A
:1044E0001A602E68002E78D12C601B68012B1CD11D
:1044F000B84640460136FFF71BF80A2E08F11408AB
:10450000F7D1DFF824813D4E4046FFF711F83046E1
:10451000FFF70EF83A48FFF70BF83A48FFF708F8AC
:10452000394BC3F80080394B1E60394A136804F1D7
:10453000340601332364314620461360FEF770F9D8
:10454000E16A2046FEF7F4F93246234603210120B2
:10455000FEF7CEFA2F4B304E19882046FEF78DF825
:10456000FEF7F0F8FEF784F8338818420AD02046A8
:10457000FEF77EF83388184204D0E26A2146102004
:10458000FEF764FD2046FEF773F83388184203D027
:1045900021463020FEF7D6FC2049E26A0868012354
:1045A0009340034314200B6000FB0270211DFEF7B3
:1045B000CDFFFEF759FE1A4B1B6863B12B68DA6A10
:1045C000E36A9A4207D2174B4FF080521A60BFF34A
:1045D0004F8FBFF36F8FBDE8F081114B1B68002B2D
:1045E000A3D12B68DA6AE36A9A4298BF2C609CE7F1
:1045F00058120010801100108C1100108012001051
:10460000A0120010B81200108411001088110010C0
:10461000641200100A0000100C0000106812001054
:10462000B412001004ED00E06C12001008B5074C45
:10463000074D4FF080562368012B04D92E60BFF33D
:104640004F8FBFF36F8FFDF799FFF4E78C110010C8
:1046500004ED00E0064A13681968064B19B94FF0DB
:10466000FF321A6070471268D268D2685268F8E761
:1046700084110010981200102DE9F047DDE909645B
:104680004FEA82094A4607460D46206BA521984607
:1046900001F080FE236BA9F10409994429F0070970
:1046A0009DB36B1E04F134020B3513F8011F02F8A1
:1046B000011B09B1AB42F8D1002384F83F30089DBB
:1046C000092D28BF09254FF0000AE562A564201DC9
:1046D000C4F84CA0FEF737FFC5F10A0504F1180035
:1046E000FEF731FFC4F854A02461A5616462C4F8E8
:1046F00050A084F858A0424639464846FEF76AFD65
:10470000206006B13460BDE8F08784F83450D6E705
:10471000F8B51B4B1B4E1C680546306804300F462D
:10472000FEF737FF334640B93168174EC96A326821
:104730000120884022EA000232606A1C07D137B1AA
:10474000196812480431BDE8F840FEF7FFBE1A6848
:104750006419546007D30E4A10681968BDE8F84020
:104760000431FEF7FFBE0B4A106819680431FEF7EA
:10477000F9FE094B1A68A24288BF1C60F8BD00BF51
:10478000CC1200108011001068120010B812001036
:1047900088110010841100109812001070B586B0B6
:1047A000DDE90B542DB9154940F24D20FDF7EEFE21
:1047B000FEE72CB9124940F24E20FDF7E7FEFEE776
:1047C0005C260596059E5C2E05D00E4940F25620CB
:1047D000FDF7DCFEFEE72563022584F8595004ADA1
:1047E00001950A9D02940095059EFFF745FF20461E
:1047F000FFF76CFE049806B070BD00BFD9C700007B
:10480000F0C7000005C800002DE9F043074685B059
:104810009000884616469946FEF746FE0546E8B1E2
:104820005C20FEF741FE0446A8B1002380F8593011
:104830000D9B056301930C9B0290009332464B46FF
:1048400041463846FFF718FF2046FFF73FFE01209C
:1048500005B0BDE8F0832846FEF74EFE4FF0FF306E
:10486000F6E7FFFF30B589B0002407AA06A905A81E
:10487000CDE90544FDF7AAFE059B0293069B079A26
:104880001A491B48CDE900432346FFF787FF194B20
:10489000186048B34FF0180383F31188BFF36F8F8C
:1048A000BFF34F8F144B4FF0FF321A60134A0123AE
:1048B0001360134A1460134C2360FDF743FFFDF7A8
:1048C000D7FE114B1B8818420AD0104D2868FDF7FF
:1048D0003BFF28B129682B683720DA6AFEF7B6FB60
:1048E00002232360FEF734FD09B030BD7FC700000E
:1048F0002D4600009412001098120010B4120010FF
:10490000CC1200106C1100100C000010801100106F
:10491000024A136801331360704700BF6012001031
:104920002DE9F84F484C2368012B02D0474B1B68F8
:104930001BB9474A13680133136023682BB9454BF1
:10494000196831200131FEF7FDFA2368002B75D17B
:10495000404B1D6801351D60A5B93F4B1A681268B0
:104960002AB13E4940F67F20FDF710FEFEE73C4AA3
:1049700019681068186011603A4A136801331360AF
:10498000FFF768FE384EDFF8F0803368AB424FF037
:10499000000411D9D8F80030DA6A14235343334A9B
:1049A000D358022B28BF0124314B1B68002B0CBFAE
:1049B00020460120BDE8F88FDFF89CB0DFF8BCA0EE
:1049C000DBF800301B681BB94FF0FF333360E1E7C1
:1049D000DBF80030DB68DF687A68954201D232602C
:1049E000D8E707F104094846FEF7D3FDBA6A1AB1C1
:1049F00007F11800FEF7CDFD3846FDF739FE1D4BD7
:104A00001A88104203D039463020FEF79BFAF86A24
:104A1000DAF80010154B012282400A43CAF8002040
:104A2000142202FB00304946FEF790FDD8F8001032
:104A3000FA6ACB6A9A4228BF0124C1E7034A136885
:104A4000013313600024AFE7601200105C12001005
:104A500070110010CC120010841100101EC800004C
:104A6000881100109C120010981200108C11001078
:104A7000D01200100C0000108011001068120010FD
:104A80002DE9F843354C23682BB9354940F68500AC
:104A9000FDF77CFDFEE7FEF7C5FB2368013B2360C5
:104AA00024682CB10024FEF7DFFB2046BDE8F88324
:104AB0002C4B1B68002BF5D02B4DDFF8C8902B4EEC
:104AC0002BE0EB68DC6804F1180004F10408FEF741
:104AD00060FD4046FEF75DFD2046FDF7C9FDB9F8D3
:104AE0000030184203D021463020FEF72BFAE26A4C
:104AF0003168012707FA02F30B4333601C4B142083
:104B000000FB02304146FEF721FD1A4BE26A1B68AA
:104B1000DB6A9A4201D3184B1F602B68002BD0D15F
:104B20000CB1FFF797FD154D2C6844B1124E0127CB
:104B3000FFF7F6FE00B13760013CF9D12C600E4B57
:104B40001B68002BAED00E4B4FF080521A60BFF3A3
:104B50004F8FBFF36F8F0124A5E700BF60120010D5
:104B600083C8000058120010A01200106812001034
:104B70008C11001080110010D01200105C12001077
:104B800004ED00E00C00001010B5044640B9144BD1
:104B90004FF080521A60BFF34F8FBFF36F8F10BD7D
:104BA000104B1B682BB1104940F23C50FDF7EEFC56
:104BB000FEE7FFF7ADFEFDF7C5FDFDF759FD0B4B19
:104BC0001B88184203D021467A20FEF7BBF900214A
:104BD0002046FFF79DFDFFF753FF0028D7D0DEE703
:104BE00004ED00E06012001039C700000C00001056
:104BF00038B5334B1A68334B12B101221A6038BDF5
:104C00001A60FDF7EFFC304A304C1568A84204D911
:104C100021680B6D5B1B03440B65236810601B6BE5
:104C20001A68B2F1A53F0BD15A68B2F1A53F07D17E
:104C30009A68B2F1A53F03D1DB68B3F1A53F04D078
:104C4000206821683431FDF783FC214B1B68B3FADF
:104C500083F3DBB2C3F11F0314221E495A438818A1
:104C60008D582DB91C4940F6B730FDF78FFCFEE793
:104C7000456808326D6845600A44954204BF6A6819
:104C80004260142202FB0313144D5B68DB6823604F
:104C900001232B60FDF756FDFDF7EAFC104B1B8846
:104CA000184209D02068FDF74FFD28B1216823681C
:104CB0003720DA6AFEF7CAF902232B609FE700BFAC
:104CC00060120010D0120010541200108011001059
:104CD000681200108C11001084C700006C110010C5
:104CE0000C00001010B50C4628B9084940F6CE302B
:104CF000FDF74CFCFEE7064B19681831FEF732FC55
:104D000020460121BDE81040FFF702BD53C7000057
:104D10008011001038B5C368DC682CB91C4940F616
:104D20002940FDF733FCFEE704F118052846FEF79D
:104D300030FC184B1B683BBB251D2846FEF729FCA1
:104D40002046FDF795FC144B1B88184203D02146E2
:104D50003020FEF7F7F81149E26A08680123934012
:104D600003430B600E4B1420294600FB0230FEF774
:104D7000EDFB0C4BE26A1B68DB6A9A4283BF0A4B6D
:104D800001201860002038BD29460848EFE700BF21
:104D900074C80000601200100C00001068120010AF
:104DA0008C11001080110010D0120010A012001001
:104DB000034B1B680360034B1B684360704700BFD5
:104DC0009C120010CC12001070B50C46054628B994
:104DD000164940F69440FDF7D9FBFEE729B914497E
:104DE00040F69540FDF7D2FBFEE7FEF71BFA114BAC
:104DF000196823685A1C10D00F482E6800686A682A
:104E0000864201D08A420FD9881A83420AD95B1A96
:104E1000134423602846FFF7CBFF0024FEF724FA53
:104E2000204670BD002323600124F7E775C700000A
:104E3000CBC70000CC1200109C120010014B0122C5
:104E40001A607047D012001000B1406C704700B17A
:104E500041647047014B1868704700BF8011001013
:104E6000054B1B6833B1054B1B68002B0CBF0220A0
:104E70000020704701207047B4120010601200102B
:104E80002DE9F0470446002850D0364AC36A11681D
:104E9000C96A8B4216465CD28269334D334F002A71
:104EA000A1BF3268D26AC2F10A0282614FF0140ACD
:104EB00042690AFB03539A423AD100F10408404682
:104EC000FEF767FBDFF8A89068B9E16A0AFB01FA10
:104ED00055F80A303BB9D9F8003001228A4023EA5C
:104EE0000203C9F800303368DB6AE3622046FDF74D
:104EF000BFFB3B88184203D021463020FEF722F842
:104F0000E26AD9F800100123934014200B4300FB00
:104F100002504146C9F80030FEF718FBFDF712FCBD
:104F2000FDF7A6FB3B88184206D10120BDE8F087BB
:104F30003368DB6AC362F1E72046FDF799FB3B88E3
:104F40001842F2D033682146DA6A0520FEF77EF86F
:104F5000EBE71368806CDC6AA0422CBF00200120C4
:104F6000E4E700BF801100108C1100100C0000104D
:104F7000681200102DE9F041044610B90020BDE888
:104F8000F0812F4B1B68834205D02E4940F6D1702B
:104F9000FDF7FCFAFEE7DB6C2BB92B4940F6D2702B
:104FA000FDF7F4FAFEE7C16A826C013B9142C364EB
:104FB000E4D0002BE2D100F104084046FEF7E9FA04
:104FC000224F234E50B9E06A142141437B582BB93C
:104FD00033680122824023EA02033360FDF7B2FB0B
:104FE0001C4DFDF745FB2B8818420AD02046FDF7E3
:104FF0003FFB2B88184204D0A26C21460620FEF706
:1050000025F8A36CE362C3F10A03A3612046FDF710
:105010002FFB2B88184203D021463020FDF792FF4A
:10502000E26A3168012404FA02F314200B4300FB06
:10503000027041463360FEF789FA20469FE700BFC1
:105040008011001049C800005FC800008C110010DA
:10505000681200100C0000102DE9F84304460028E7
:1050600069D0C36C2BB935494FF48150FDF78EFAE6
:10507000FEE7826C914238BF1146C26A8A420D46F1
:1050800059D0012B57D12E4B1B68834205D12D4996
:1050900041F23B00FDF77AFAFEE7FDF753FB2A4E9B
:1050A000FDF7E6FA338818420AD02046FDF7E0FA09
:1050B0003388184204D0A26C21460620FDF7C6FFB3
:1050C000A269E36AE562002AA4BFC5F10A05A561E9
:1050D0001E4D62694FF0140909FB03539A422AD10D
:1050E00004F104084046FEF754FA194F58B9E16A32
:1050F00009FB01F955F809302BB93B6801228A40B8
:1051000023EA02033B602046FDF7B2FA33881842D7
:1051100003D021463020FDF715FFE26A39680123EC
:1051200093400B4314203B60414600FB0250BDE816
:10513000F843FEF70BBABDE8F88300BF5FC8000074
:10514000801100105FC700000C0000108C110010CF
:1051500068120010044B1A681AB11968CA6C01323F
:10516000CA641868704700BF8011001010B5FDF7C1
:1051700039FA064B064A196829B1196814680B6D8B
:105180001B1B03440B65106010BD00BF8011001095
:105190005412001008B5FDF725FA014B186008BD40
:1051A0005412001038B501220221002000F0C3F88B
:1051B00001220321002000F0BEF80422002101207A
:1051C00000F0B9F801210422084600F0B4F80422E6
:1051D0001146012000F0AFF80821012000F01AF973
:1051E000284B4FF480729A610921012000F0EEF8FB
:1051F00002220A21002000F09EF802220B2105461F
:10520000002000F098F80446284600F0A9F820464F
:1052100000F0A6F80321022000F0FCF81A4B1B4D09
:1052200018701A21012000F0F5F8194B194C18706C
:105230001821012000F0EEF8174B12211870012000
:1052400000F0E8F8154B13211870012000F0BEF8AB
:105250000F212870012000F0B9F81E2120700020D5
:1052600000F0B4F80E4B1D211870002000F0AEF8CD
:105270000C4B1870287800F083F82078BDE838408F
:1052800000F07EB820800920D4120010D81200103F
:10529000D5120010D9120010D6120010D71200102B
:1052A000DA120010DB120010024B4FF48072DA6148
:1052B000704700BF20800920024B4FF480729A6132
:1052C000704700BF20800920034B586980F40070AC
:1052D000C0F34020704700BF20800920014B1878A0
:1052E000704700BFD4120010014B1878704700BF00
:1052F000D5120010014B1878704700BFD61200106D
:10530000014B1878704700BFD7120010C0F3C403D8
:1053100000F007029B0003EBC21303F1804303F587
:10532000303301F007011A6822F007021A601A6888
:1053300011431960704738B500F007054FF00000C1
:1053400001F01F0465F3020064F3C7001146FFF784
:10535000DDFF4FF0000065F3020064F3C70038BDC5
:10536000C0F3C40300F007029B0003EBC21303F178
:10537000804303F530331A6842F480621A60704744
:10538000C0F3C40300F007029B0003EBC21303F158
:10539000804303F530331A6822F018021A601A6845
:1053A00042F008021A60704700F00702064B53F8FB
:1053B0002210C0F3C4000B68012202FA00F023EAB5
:1053C00000030B60704700BF98C8000038B500F0BC
:1053D00007054FF0000001F01F0465F3020064F3BD
:1053E000C700FFF7E1FF4FF0000065F3020064F330
:1053F000C70038BD00F00702054B53F82220C0F368
:10540000C40311680120984008431060704700BF32
:1054100098C8000038B500F007054FF0000001F013
:105420001F0465F3020064F3C700FFF7E3FF4FF0CA
:10543000000065F3020064F3C70038BD00F0070206
:10544000064B53F82230C0F3C4005A69012303FA13
:1054500000F0104214BF18460020704798C80000A2
:1054600000F00702044BC0F3C40053F822200123CC
:1054700003FA00F09061704798C8000000F007023E
:10548000044BC0F3C40053F82220012303FA00F0B8
:10549000D061704798C8000008B50146FFF7CEFFFD
:1054A00020B10846BDE80840FFF7E8BF0846BDE860
:1054B0000840FFF7D5BFFFFF2DE9F8430F4F0C243D
:1054C00044433E19884635792846914600F01AFA39
:1054D0003C5900233F2263604946A360284622606E
:1054E0006361B268A361E3612362636200F02EFA34
:1054F0000123C4F80C806360BDE8F883B0C80000E5
:105500000C235843064B1B5830B501205C6901EB56
:105510004105A84020435861183343F8212030BD8D
:10552000B0C800000C235843034B1A58012303FA58
:1055300001F11160704700BFB0C800000C23584350
:10554000014B1B5898687047B0C800000C235843A3
:10555000014B1B5899607047B0C800002DE9F0411D
:10556000044617461E468846FFF77AFC002105468A
:10557000A068FEF76BFD00232374069BA361079BC5
:10558000E361236884F811802022022DA7746661EC
:105590001A600BD140F6B831A068FEF757FD18B17C
:1055A000207CB0FA80F04009BDE8F0810021A068BD
:1055B000FEF74CFD0028F9D0F2E7FFFF03685A68B8
:1055C000282A13B557D00AD8102A2CD0182A32D03E
:1055D000082A09D1417C01F0FE01996028E0402AA7
:1055E00063D00DD8382A77D05A68027420229A6185
:1055F00010221A6008229A611A68D206FCD426E0AA
:10560000502A5BD0582AEFD1426999681170002264
:10561000C26120229A6110221A6008229A611A68D7
:10562000D106FCD413E0427C42F001029A600822C9
:105630009A6102B010BDC469202199610822C4B9E1
:105640009961102119609A611A68D106FCD400236F
:1056500001A980680193FEF7CBFB019B002BE8D0EA
:105660001F4B4FF080521A60BFF34F8FBFF36F8F05
:10567000DFE7817CB1E7427CD20702D520221A60A5
:10568000D5E7C2694AB920229A6110221A6008221D
:105690009A611A68D406FCD4D9E78169013A11F8F5
:1056A000014B9C608161C261C1E720229A61C2699D
:1056B000012A4FF00402E2D89A61B8E7426999687A
:1056C0001170426901324261C269013A012AC26124
:1056D0004FF00402D3D1EFE75B680374B7E700BF74
:1056E00004ED00E00148FFF769BF00BF6000001053
:1056F0000148FFF763BF00BF400000100148FFF7FB
:105700005DBF00BF200000102DE9F043284B064686
:105710001546894693E8070085B004AB03E9070006
:1057200040F60A33ADF800300C238DF80230214AE0
:105730007301D718D45804AB33440322002101204D
:1057400013F8108CFEF784F8B8600120FEF713FA06
:105750001949F860FCF7F4FF404600F0D3F86C23D9
:10576000A361164A164B914588BF99462823B5FB7D
:10577000F9F25208C8215343B3FBF1F323613C23F0
:105780005A430023B2FBF1F26261A36263622362B7
:10579000E3604023236004AB03EB86067A6856F887
:1057A0000C1C404605B0BDE8F04300F0CFB800BF88
:1057B000F8C800002000001004C9000040420F009B
:1057C000A08601002DE9F3410F4690461D4623B9FE
:1057D0000025284602B0BDE8F0810E4C04EB4014D1
:1057E0004FF0FF31E068FEF731FC0028F0D00026D2
:1057F000089B019342462B4647F001010096204644
:10580000FFF7ACFE3346054632463146E068FEF708
:105810006BF8DEE7200000101FB500238DF80F3075
:10582000012300930DF10F03FFF7CCFF9DF80F004C
:1058300005B05DF804FBFFFFF7B50E4617461D46A1
:105840001BB90025284603B0F0BD0E4C04EB4014F4
:105850004FF0FF31E068FEF7F9FB0028F1D0089B1C
:105860003A46CDE9005306F0FE0100232046FFF73B
:1058700075FE002305461A461946E068FEF734F81F
:10588000E0E700BF200000101FB5002200920DF1DC
:105890000F038DF80F20FFF7CFFF05B05DF804FB75
:1058A0001FB58DF80F30012300930DF10F03FFF7A3
:1058B000C3FF05B05DF804FBFEE7FFFF10B5FFF77F
:1058C00055FC0C4B0C4A1B78103BDBB252F82340C2
:1058D0000A4A52F82300FDF78FFBA0470020FDF78E
:1058E0005DFB074B00221A601B68BDE81040FFF704
:1058F00051BC00BF04ED00E080000010DC1200107D
:1059000080130010592809D8054B064A185CD2F8B4
:10591000C410012383400B43C2F8C430704700BF5A
:105920001DC9000000C00F4059289FBF054B064A03
:10593000D3F8C430105C9ABF23FA00F000F00100E5
:105940000020704700C00F401DC9000010B50D4B6E
:10595000592814BF04461924104643F82410002186
:10596000FDF7F6F8084B43F8240063B2002B08DB80
:10597000012204F01F0402FA04F45B09034A42F80E
:10598000234010BD80000010DC12001000E100E098
:1059900073B54FF0FF33B1F5805F019336D21D4CE4
:1059A0002369DE0734D41C4B1D69ED0730D41B4D31
:1059B0000326AE602E611A4D1D6002B301AE5E601B
:1059C00041F00046DE6041F20F061E61DAB1206050
:1059D00041F0806140F68112E16065602261114A08
:1059E000516A41F003015162D868C0F30B000028EE
:1059F000FAD1536A23F00303536202B070BD5860BA
:105A000041F00846DEE701AA2260E3E70120F4E75F
:105A10000220F2E7000108202001082000000820F1
:105A200008C00A4000C00A4010B50446FAF7F8FB67
:105A30004FF47A73B0FBF3F00223B0FBF3F2A2420F
:105A400002D8034A136110BD0233DBB2F5E700BF91
:105A500000C00A4010B504462420FFF753FF0B4B4B
:105A600007221A6002225A602046FFF7DDFF1A2043
:105A7000FFF748FF064B01221A631A6BD207FCD5C9
:105A8000044A0023936042F8183C10BD00C00A404D
:105A90000000082020010820034B9860DA68D20635
:105AA000FCD49868C0B2704700C00A400122FFF7DA
:105AB0006FBF0022FFF76CBF02689368C3F3420315
:105AC000022B73B5064623D0062B21D0012B34D1EF
:105AD00000248DF803400194102501AA0DF1030163
