:1000000000000110E500000075010000590100002A
:100010007501000075010000750100007501000008
:10002000750100007501000075010000111C000041
:100030007501000075010000151C0000191C00006E
:100040007D4000007D4000007D4000007D400000BC
:100050007D4000007D4000007D4000007D400000AC
:100060007D4000007D4000007D4000007D4000009C
:100070007D4000007D4000007D4000007D4000008C
:100080007D4000007D4000007D4000007D4000007C
:100090007D4000007D4000007D4000007D4000006C
:1000A0007D4000007D4000007D4000007D4000005C
:1000B0007D4000007D4000007D4000007D4000004C
:1000C0007D4000007D4000007D4000007D4000003C
:1000D0007D4000007D4000007D4000007D4000002C
:1000E0007D40000008B500F057F900F073F900F00A
:1000F0007BF900F09BF800F095F801F0C5FA01F0EB
:10010000F5F900F0BFF840B141F28734002501F065
:10011000E7FA8D4208BF8442F9D200F082F918B99B
:100120000849094805F0D6FC0649084805F0D2FC04
:1001300001F002FB064B07481B68D96804F04EFC2F
:10014000FEE700BF40A700004CA7000079A7000011
:100150009C01001091A700001EF0040F0CBFEFF3EC
:100160000880EFF309808169004A1047D10100003F
:100170007047FFFF38B50F4C0F4B10481D782368B0
:10018000D96804F02BFC23680D49D8682A4604F08E
:100190006DFB0F2D236807D80A4A0B4952F825201A
:1001A000D86804F063FBFEE7D968084804F016FC41
:1001B000F9E700BF9C01001004ED00E0CCA70000AF
:1001C000E6A70000D8A8000020A800003EA8000074
:1001D00010B5044600F04AF8236883606368C36082
:1001E000A3680361E3684361236943626369013B78
:1001F000C361A3698361E3690362BFF34F8F05495C
:10020000054BCA6802F4E0621343CB60BFF34F8F23
:1002100000BFFDE700ED00E00400FA05004870476C
:1002200000D8B8050048704700D8B8050E4B072223
:10023000C3F88420AA210122C3F88020C3F88C10BF
:100240005521C3F88C10C3F8A821D3F88820520593
:10025000FBD51A6822F4704242F480421A6040F2E0
:100260000112C3F80421704700C00F400248034A3E
:10027000034BC0E90023704700000020EFBEADDE55
:100280001041522138B5224C224B22689A423DD16E
:100290006268214B9A4239D1204D21482B68D96898
:1002A00004F09CFB2B68A2691E49D86804F0DEFAB2
:1002B0002B68E2691C49D86804F0D8FA2B68226AD6
:1002C0001A49D86804F0D2FA2B68A2681849D8688D
:1002D00004F0CCFA2B68E2681649D86804F0C6FA34
:1002E0002B6822691449D86804F0C0FA2B68626947
:1002F0001249D86804F0BAFA2B681148D96804F09A
:100300006DFB01200023C4E9003338BD0020F9E76C
:1003100000000020EFBEADDE104152219C01001014
:1003200018A900006BA900007AA9000089A90000A3
:1003300098A90000A7A90000B6A90000C5A900005F
:10034000D4A900000E4A136810B50E4C1918A1422A
:10035000116002D30C4CA1420BD313600B4A0C4921
:1003600013681844884208D30A49884205D21060AD
:1003700001E0002BF2D0184610BD0023FBE700BFC0
:100380000000001028000020008000200400001061
:100390003014001000000110094A0A4B0A498B4230
:1003A00005D30A4B0A4A0021934205D3704712F83D
:1003B000010B03F8010BF2E703F8011BF4E700BFA0
:1003C0002CBD00000000001070030010700300102E
:1003D00030140010034AD2F8883043F47003C2F896
:1003E0008830704700ED00E0044800232021C21847
:1003F0000133292B82F80013F9D1704700E100E0A6
:1004000008B52A2219233821022003F011FE0D22FB
:100410003821022003F0DEFDA0F12A0358425841A2
:1004200008BDFFF7EDBF42884378007843EA022316
:1004300040EA0320704710B5024410F8013B11F860
:10044000014B9042A3EB040301D0002BF5D01846DA
:1004500010BD02684AB1134613F8011B1F290BD9BE
:100460003A29F9D1911C8B4202D04FF0FF307047EE
:100470001278302AF9D103600020704770B500F17E
:100480003806426B044601233146407800F05AFAA0
:10049000054688B9616BA36A226AE070CB1A934261
:1004A00008D2A378022B05D10A4401233146607893
:1004B00000F048FA284670BD0125FBE738B5436BCC
:1004C0008B4204460D4619D0C3788BB901232A46C6
:1004D00004F13801607800F021FA002818BF4FF0CD
:1004E000FF35034665630CBF03460123184638BD3C
:1004F000FFF7C4FF03460028F8D1E7E70023F5E73C
:1005000038B50023C3704FF0FF3343630546FFF750
:10051000D5FF044618BB95F8372295F8363243EAE2
:1005200002234AF6552293421BD195F83830EB2B23
:1005300003D01833DBB2012B15D803220B4905F188
:100540006E00FFF778FF40B10522094905F18A00E6
:10055000FFF771FF002818BF0224204638BD04248D
:10056000FBE70324F9E70224F7E700BFA8AA00008D
:10057000ACAA00002DE9F043002385B00B600F46C4
:100580001546FFF766FF061EC0F23981A44B53F8EB
:100590002640002C00F03581206900F09EF90028EB
:1005A00000F031813C60237805F0FE056BB1607886
:1005B00000F0AFF9C10708D41DB110F0040500D058
:1005C0000A25284605B0BDE8F0830023F0B2237069
:1005D000607000F090F9C20700F117810DB1430778
:1005E000EED400212046FFF78BFF022840F0EE807A
:1005F0006F4604F5FF7104F23E263D4611F8040CE7
:1006000010B10846FFF70FFF10318E4245F8040B7A
:10061000F4D1002557F8046B002E00F0CE8031464F
:100620002046FFF76DFF012800F2C88094F84420AF
:1006300094F8433043EA0223B3F5007F40F0CA80C8
:1006400094F84F3094F84E5055EA032504D104F144
:100650005C00FFF7E8FE054694F8481025624B1E43
:10066000012BA17000F2B68094F845901FFA89F32F
:100670006381002B00F0AE8009F1FF3313EA090F0C
:1006800040F0A88094F84A3094F8497047EA03276C
:100690003FB21FFA87F818F00F0FA4F8088040F057
:1006A000998094F84C3094F84B0050EA032003D121
:1006B00004F15800FFF7B7FE94F8472094F846304D
:1006C00053EA022300F0868005FB01FC03EB1812BD
:1006D000624490427ED3801A4845B0FBF9F179D349
:1006E0005048814276D84FF6F570814240F28F80B3
:1006F0004FF00309023133443244B9F1030FE16191
:100700006662A362226369D194F8632094F8623030
:1007100043EA02231F433FB2002F5BD104F1640080
:10072000FFF781FEE062890001F2FF11B5EB512F66
:1007300050D34FF0FF33C4E90533B9F1030F4FF045
:10074000800323712FD194F8692094F8683043EA2C
:100750000223012B27D1711C2046FFF7AFFE10BBEF
:1007600094F8372294F83632207143EA02234AF68D
:100770005522934217D104F13800FFF754FE2A4B5B
:10078000984210D104F50770FFF74DFE274B9842B1
:1007900009D104F50870FFF746FEA06104F5097061
:1007A000FFF741FE6061224A84F80090138801330C
:1007B0009BB21380E380002503E703200135042D5D
:1007C0007FF428AF042805D10125FAE60428FBD0E0
:1007D000012801D90D25F4E6002627E7B8F1000F1E
:1007E000F8D06344B9F1020FE3624FEA41031BBF43
:1007F0005B1801F00101194601EB530194E70B2549
:10080000DFE60C25DDE60F25DBE60325D9E640F61D
:10081000F57949458CBF4FF002094FF0010969E7AE
:1008200070030010F5FFFF0F525261417272416177
:100830007403001040B1A1F10B03012B04D90F295F
:1008400002D0006900F052B87047FFFFF0B585B0E4
:10085000CDE9001003A814460391FFF7FAFD051E29
:1008600028DB154F57F825604EB1306900F030F89D
:1008700018B90224204605B0F0BD00233370019959
:1008800079B9019B47F82530002CF3D001A900224B
:100890006846FFF76FFE044601460198FFF7CAFF5E
:1008A000E8E7002301F8103BE8B200F007F8002861
:1008B000E7D1DEE70B24DDE77003001010B501205F
:1008C0000C4601F0ACFD2060003018BF012010BDC7
:1008D00008B502F013F8012008BD08B540F6B8319C
:1008E00001F0FEFE431E5842584108BD00231A463F
:1008F000194601F0D1BC10B5044600F087FE34B9AA
:1009000000F0FAF8044600F09BFE204610BD0424D7
:10091000F9E708B900F08EB904207047F8B507462A
:100920000C4615461E4600F071FE4FB92046F2B245
:10093000294600F087F9044600F082FE2046F8BD03
:100940000424F9E7F8B507460C4615461E4600F0A4
:100950005DFE4FB92046F2B2294600F0B9F90446CF
:1009600000F06EFE2046F8BD0424F9E738B500F02B
:10097000B7FE00F5FA75FF2003F05AFCFF2003F0E4
:1009800057FCFF28044603D000F0AAFE8542F5D8A4
:10099000204638BD08B502F0E7FFFFF7E7FF02F099
:1009A000EBFF034A137843F00103137008BD00BF47
:1009B0000800001038B505460C46FFF7D7FFFF28A2
:1009C00021D1204603F034FCFD2C1ED0AC1C05F2D6
:1009D000022514F8020C03F02BFC023414F8030C6B
:1009E00003F026FCAC42F4D1FF2003F021FCFF20F1
:1009F00003F01EFCFF2003F01BFC00F01F00431F50
:100A00005842584138BD0020FCE70120FAE737B5CD
:100A1000020604460D4607D500217720FFF7F7FFB1
:100A2000012831D804F07F0402F0A6FF02F09CFFF9
:100A3000FFF79CFFFF282BD1402C27D0482C0CBF60
:100A4000872301232A0E8DF801202A0C8DF802201D
:100A500006212A0A68468DF800408DF803208DF89B
:100A600004508DF8053003F0EDFB4C2C02D1FF2033
:100A700003F0DEFB0A24FF2003F0DAFB030603D5B4
:100A8000013C14F0FF04F6D103B030BD9523D9E743
:100A9000FF20F9E770B5054600F022FE00F164067C
:100AA000FF2003F0C5FB044600F01AFE864201D386
:100AB000FF2CF5D0FE2C0CD14FF40071284603F02A
:100AC000C4FBFF2003F0B4FBFF2003F0B1FB0120C7
:100AD00070BD0020FCE7FFFF38B5064D2C78E4B26E
:100AE00002F052FF18B104F0FD042C7038BD44F040
:100AF0000304FAE7080000102DE9F341FFF7ECFFCB
:100B00004A4B1A7812F0020F1E4604D01878C0B271
:100B100002B0BDE8F081C82003F052FB0A25FF2097
:100B2000013D03F085FB15F0FF05F8D102F01CFF35
:100B300029464020FFF76BFF0128044671D100F0E1
:100B4000CFFD4FF4D57100F57A774820FFF75FFFAE
:100B5000012848D101ADA8460424FF2003F068FB1A
:100B6000013C14F0FF0408F8010BF6D19DF80630A3
:100B7000012B56D19DF80730AA2B52D100F0B0FDC1
:100B8000874206D94FF08041E920FFF740FF002857
:100B9000F4D100F0A5FD874243D900217A20FFF768
:100BA00036FF00283DD10424FF2003F041FB013C27
:100BB00014F0FF0405F8010BF6D19DF8043013F092
:100BC000400F14BF0C240424194B1C7002F0D4FEF7
:100BD0004CB3337845F6C05003F0FE03337003F096
:100BE000EFFA307893E72946E920FFF710FF022853
:100BF00036BFE9254125022400F072FD874205D960
:100C000000212846FFF703FF0028F5D100F068FD1A
:100C1000874206D84FF400715020FFF7F8FE0028F5
:100C2000D2D00024D0E7FFF7B5FEDAE708000010C5
:100C30007603001008B5FFF74FFF014B187808BD89
:100C40000800001070B5144605460E46FFF744FF35
:100C5000002C35D01C4B1B78DA0733D402F084FE0D
:100C60001A4B1B781B0758BF7602012C314611D155
:100C70005120FFF7CCFE38B94FF400712846FFF73A
:100C800009FFB0FA80F4640902F076FE201C18BF58
:100C9000012070BD5220FFF7BAFE0028F4D14FF4B6
:100CA00000712846FFF7F6FE28B1013C14F0FF045E
:100CB00005F50075F3D100214C20FFF7A8FEE3E70E
:100CC0000420E6E70320E4E70800001076030010A4
:100CD00070B5144605460E46FFF7FEFE002C41D0C7
:100CE000234B1A78D0073FD41B7859073ED402F023
:100CF0003BFE204B1B781A0758BF7602012C11D1FE
:100D000031465820FFF783FE50BBFE212846FFF7EF
:100D100051FEB0FA80F4640902F02EFE201C18BFC8
:100D2000012070BD13F0060F03D02146D720FFF736
:100D30006EFE31465920FFF76AFE0028ECD1FC21F7
:100D40002846FFF737FE28B1013C14F0FF0405F5F3
:100D50000075F4D1FD210020FFF72CFE0028DBD127
:100D60000124D9E70420DCE70320DAE70220D8E7F2
:100D7000080000107603001008B5064605F03FF89D
:100D800000240546A54200DCFEE7315D002003F0AB
:100D900047FB0134F6E7FFFF02280CD9074B1B681D
:100DA0005A68824207D09A68824204D0DB681B1AD4
:100DB0005842584170470120704700BF9C01001005
:100DC000F8B504460E461546FFF7E6FF48B3164B46
:100DD0001B68DB68A34210D0A31E5C425C4102F09A
:100DE000DBFB0746002003F0D9FA022F17D1B0B180
:100DF000ACB9A54203DC2846F8BD0124EFE7315D1C
:100E00004FF0FF32002003F06DFB0134F1E7315D5C
:100E1000002003F005FB0134A542F8DCEBE70024D9
:100E2000FAE70248FFF7A8FF9C010010E4AA0000BF
:100E300008B5FFF7B1FF18B1002003F029FB08BD8A
:100E40000148FFF799FF00BFB2AA00002DE9F84F53
:100E500006461446884610461B49DFF87C90DFF8AA
:100E60007CA0DFF87CB000F044FDB368214640462A
:100E7000984735680DB9BDE8F88F6F68384604F0BB
:100E8000BEFF32288CBF514649463B462A68204661
:100E900000F02FFD5946204600F056FE0B4907464C
:100EA000204600F051FE07B918B10949204600F06C
:100EB0008AFD0849204600F086FDB3682146404679
:100EC0009847ED68D6E700BF17AB00005EAB0000A7
:100ED00014AD00005DAB000073AB000060AB000020
:100EE0007FAB000030B504294FF0000538BF042166
:100EF0000560C0E90112C36030BD11B10368CB6069
:100F0000016070472DE9F041144605460F46104632
:100F1000424900F05DFE4249204600F09AFD00285B
:100F200033D03F49204600F076FD28B122463946AD
:100F30002846FFF78BFF68E02021204600F012FED4
:100F4000DFF8F0802E680EB92E6810E04246316856
:100F5000204600F095FD002838D1F668F3E76A686E
:100F60003168204600F061FD00282FD1F668002E80
:100F7000F5D131462B4A204600F0FBFCAB682146F8
:100F800038469847AB6825493DE02E68DFF8A480D5
:100F90000EB92E680EE042463168204600F070FD22
:100FA000B8B9F668F4E76A683168204600F03DFD9C
:100FB00078B9F668002EF6D131461B4A204600F07B
:100FC000D8FCAB68214638469847AFE7AB687168F4
:100FD000D6E72021204600F0C5FDB368AA68214667
:100FE0003846984788B1114A0021204600F0C1FCDC
:100FF000AB682146384698470D497268204600F094
:1010000078FCAB68214638469847E96821B1AB685F
:101010003846BDE8F0411847BDE8F0815DAB0000FF
:1010200081AB0000B4AB0000DDAB000086AB00007C
:1010300097AB0000E4BA000010B54C1E14F8010F85
:1010400000B910BD04F0A6FDF8E7FFFF70B5A0B031
:1010500006461B4A8021684600F080FC0446304664
:1010600022460021FFF74EFF204600F031FC2046CB
:1010700000F028FD0028F2D103F0B8FCC5B2082D1D
:1010800016D1204600F00FFC60B10121204600F08F
:101090004AFD284604F07EFD202004F07BFD284612
:1010A00004F078FD204600F004FC0028DFD0D6E7ED
:1010B000284604F06FFD2946204600F0A0FCF1E729
:1010C00081AB000030B589B004AD2846144B154AF9
:1010D000154C0421FFF706FF95E80F0084E80F0088
:1010E00020461249FFF709FF20461149FFF705FF87
:1010F00020461049FFF701FF20460F49FFF7FDFE8C
:101100000E4B02930E4B0193032300934FF4007296
:1011100023460C490C4801F093FD09B030BD00BFD7
:101120000EAC000039100000780300102C000010F5
:101130001C0000100C0000103C000010880B001078
:1011400088030010EEB000004D1000002DE9F043C0
:10115000E7B00DF198084FF4807281460E46404684
:10116000002103F091FC802106A800F079FB05AF77
:1011700001233B6005460024009704AB03AA2049E5
:101180004846CDE9034400F0C1FB012831D93B6852
:1011900000939DF810209DF80C104346022002F0A9
:1011A00007FF8146E8B1039A1649DFF864902846A4
:1011B00000F09FFB29462046B0473B68A34202D877
:1011C00067B0BDE8F083049A18F804300093224415
:1011D0004946284600F08DFB29460020B0470134DF
:1011E000EBE70949284600F0A2FB29464846B047EC
:1011F000E6E70649284600F09AFB29462046F6E72E
:10120000A4AD0000B1AD0000E2AD00000FAE0000E3
:10121000CBAD00002DE9F043E7B000240DF19808B4
:101220004FF4807281460F4640462146CDE9034483
:1012300003F02AFC802106A800F012FB04AB06464E
:1012400003AA2949484600F061FB022844D1202125
:10125000484600F087FC2021484600F083FC0594B6
:1012600005A9484600F08CFC0546D0B900944346D9
:101270009DF810209DF80C10022002F0BBFE814664
:1012800010B3039B1949DFF870902246304600F0F6
:1012900030FB31462846B847AC4207D167B0BDE8BD
:1012A000F083059B08F804300134D9E7049A18F854
:1012B000053000932A444946304600F01AFB314677
:1012C0000020B8470135E7E70949304600F02FFB19
:1012D00031464846B847E1E70649304600F027FB6B
:1012E00031462046F6E700BF4FAE000059AE000081
:1012F00090AE0000BEAE000079AE0000F8B50D461D
:1013000028460E49164600F0A4FB0D49044628461F
:1013100000F09FFB20210746284600F023FC2CB15B
:1013200031462846FFF712FF0020F8BD27B13146AD
:101330002846FFF76FFFF7E70120F6E799AD0000B9
:101340009EAD00000123024A1A600020704700BFD2
:10135000EFBEADDE2DE9F04F89B0084604AF0D4673
:10136000914600F0B3FA041E04DD02F029FA20468B
:1013700001F08CFEDAB00024FC6000F05DFA0DF1A3
:10138000100B786007F10C020A21584602F0B8F8F9
:10139000224A38602249284600F0ABFA2946204606
:1013A000C847A0465E464FF0000A20E073694345F7
:1013B0001AD1B269FB68144423B16421B3FBF1F381
:1013C000B2FBF3F3317BCDE90232338C9B00CDE9E4
:1013D0000083144B726853F821301349284600F0FB
:1013E00088FA29460020C8470AF1010A24363B68DA
:1013F0005345DBD108F10108B8F10A0FD2D17B685F
:101400000A491A1B284600F074FA29460020C847EA
:1014100000201437BD46BDE8F08F00BF68AF000064
:101420006DAF0000E8AF000098AF0000B5AF00005E
:1014300038B50C4620461649154600F00AFBA0B107
:101440002021204600F08EFB204601F043FE40B9EB
:101450000021104A204600F08CFA21460020A847BF
:1014600001E001F0D3FE002038BD0B49204600F01A
:10147000F0FA58B12021204600F074FB204601F01C
:1014800029FE0028E4D001F075FCECE70349E6E70B
:1014900010AF000018AF000039AF000040AF0000EF
:1014A000F8B504460D4600F005F9061941EB0507AD
:1014B00002F072F802280CD100234FF47A72AB428A
:1014C00008BFA24205D22046294603F049F801F0A0
:1014D000DDFD00F0EFF8B94208BFB042F9D3F8BD26
:1014E0004FF47A73A0FB0301FFF7DABF30B585B084
:1014F00002F0B8F902F052FA8DF80C0002F054FA3A
:101500008DF80D0002F056FA8DF80E0002F058FA30
:1015100000248DF80F0004AA04F0030313440134DF
:1015200013F8040C02F018FB3220FFF7D9FF202C2F
:10153000F1D1284B1868002319460222406804F0B4
:101540004DFBFEF76FFE002501464FF416420020CA
:1015500002F0E0FE0095204B204A0121204600F0D9
:101560002BFE1F4B009504461E4A0121802000F0EF
:1015700023FE22460146284602F01AFF45F6C050D7
:1015800002F034FE012218491848FFF75FF9184AA3
:10159000184B1949A84208BF1346184A1848194D54
:1015A00004F098FAFEF73EFE17490246022002F0C8
:1015B000A5FC0224E1B2022002F02EFD18B1214662
:1015C000284604F087FA0234B4F5807FF2D105B0E2
:1015D00030BD00BF9C010010040C0010E40B001093
:1015E0000C0F00108C0E00105FAB0000540C0010AC
:1015F0000DB000002BB0000052B00000FCAF0000A6
:10160000A3B00000C3B00000801A060010B50A4C59
:10161000236823B90949012000F0ECFE206001F0A5
:10162000BBFF022806D120684FF0FF31BDE8104013
:1016300001F056B810BD00BF5C0F0010600F001025
:1016400010B501F0A9FF022808D1054800231A4669
:1016500019460068BDE8104000F01EBE10BD00BF76
:101660005C0F0010074A08B51368002101330846D3
:10167000136002F0CBFA00210846BDE8084002F0F2
:10168000B1BA00BFB00F001008B5074A0749B0FB58
:10169000F1F10020013902F06FFA0021044A0846F6
:1016A000BDE8084002F08CBA6516000040420F0009
:1016B0000087930370B5084E002002F09FFA05469C
:1016C0000020346802F09AFA8542F5D8034B0021D5
:1016D000E3FB040170BD00BFB00F0010008793034F
:1016E00008B5FFF7E7FF4FF47A72002302F038FFE6
:1016F00008BD70B5054608460C4604F080FB261868
:10170000B44205D128460A21BDE8704002F088BEE7
:1017100014F8011B284602F083FEF1E7024B1B5C24
:101720000B700120704700BFB40F0010014B19541B
:1017300001207047B40F0010164B5A6842F48062C3
:1017400013B55A601A68002142F480621A60084694
:10175000032202F050F903220121002002F04BF98C
:101760000D4A4FF41651012002F0C8FB86210120DA
:1017700002F06AFC00240123CDE900344FF48072AA
:1017800023460649064801F091FA01F035FB204650
:1017900002B010BD00C0024000D8B805EAB0000099
:1017A000C51000000C460020044908B5FFF7A1FF52
:1017B00021460020FFF79DFFFEE700BF24B2000096
:1017C00008B502490020FFF794FFFEE7EAB10000E8
:1017D000024B0022C3F8C02030BF704700C00F404A
:1017E00008B50C4600200A49FFF783FF094900208D
:1017F000FFF77FFF08490020FFF77BFF0749002024
:10180000FFF777FF21460020FFF773FFFEE700BFD9
:10181000F2B0000044B1000087B10000BBB100008D
:10182000034B0360034B0B6064231360704700BFDE
:1018300050120010C010001008B5FFF73BFF024B1C
:101840001B68C01A08BD00BFB810001008B5FFF72C
:1018500031FF024BC3E9000108BD00BFB810001002
:1018600038B50D46044658B103290BD90A46002164
:1018700003F00AF923462A0A03F8022B65701C4676
:10188000204638BD0024FBE710F8023C10F8010C9C
:1018900040EA0320033880B2704708B5FFF7F4FF31
:1018A000013080B208BD08B510B104F0A8FA80B2CA
:1018B00008BD10B50446FFF7F6FF02462046FFF7C5
:1018C000E3FF824234BF0020012010BD02F0CABFF6
:1018D00000230370704710B50446FFF7DEFF134680
:1018E0000A460146204605F091F920EAE07080B2F0
:1018F00010BD0EB403B503AA52F8041B0192FFF702
:10190000EAFF02B05DF804EB03B070470EB403B514
:1019100003AA52F8041B019205F0AAF90028CCBFD3
:1019200080B2002002B05DF804EB03B0704738B518
:1019300005460C46084671B104F061FA0146284696
:10194000FFF7A2FF89B28142024605D82146284608
:1019500004F092FA012038BD0020FCE738B51546A6
:10196000FFF77EFF044610B12946FFF7E0FF20464F
:1019700038BD2DE9F04105460F4614460AB3FFF77E
:1019800092FFB84206461CD3204604F038FA3218BB
:101990008046284692B2FFF777FF824211D8C7F1FE
:1019A00001023D44324492B2294605EB080003F09F
:1019B00051F842462146284604F05EFA0120BDE86F
:1019C000F0810020FBE770B506460C46A9B1FFF791
:1019D0006AFF0546204604F012FA82B2A918304682
:1019E00089B2FFF751FF884207D3013292B22146F4
:1019F000701903F021F8012070BD0020FCE707B545
:101A000000238DF8041001A98DF80530FFF7DBFFE6
:101A100003B05DF804FB08B529B104F0C7F9B0FACA
:101A200080F0400908BD0846FCE770B5064615463B
:101A30000C4661B1FFF737FFA84208D32A4621467A
:101A4000304604F007FAB0FA80F0400970BD00207B
:101A5000FCE770B505460C4681B1FFF724FF06464A
:101A6000204604F0CCF98642024607D32146284698
:101A700004F0CEF9B0FA80F0400970BD0020FCE718
:101A80002DE9F041074614460D46C9B1C2B1FFF732
:101A90000AFF8046284604F0B2F9804506460FD377
:101AA00002462946384604F0D5F948B9B85D23788E
:101AB00083421ABFB0FA80F040090120BDE8F081EE
:101AC0000020FBE710B50446FFF7EDFE40B10138FA
:101AD00080B2205C0D2804D0A0F10A03584258417E
:101AE00010BD0120FCE770B50C4605461646FFF711
:101AF000DAFEA04211D9011BB142C4F101030A462A
:101B00001844A8BF3246801A14FA82F1294482B2DE
:101B1000281902F09FFF012070BD0020FCE70A4653
:101B20000021FFF7E0BF38B50C460546FFF7BBFEC6
:101B3000A04224BF001B81B22246284638BF0021A4
:101B4000BDE83840FFF7CFBF10B5044604F0A7F951
:101B5000031E1FBF1B1B9BB2002201200CBF0020D5
:101B6000E25410BD10B5044604F03CF938B1011B35
:101B70000131204689B2BDE81040FFF7D0BF10BD4B
:101B800070B50646054611480C462B4613F8011B56
:101B9000C9B10A5C520714D524B1284602F062FE8E
:101BA00020600124094A294615F8013B13B19B5CCA
:101BB0005B07F8D4891B89B23046FFF7B0FF204697
:101BC00070BD1D46E1E70C46ECE700BFD9B9000047
:101BD000F8B506460C46C9B1FFF765FE0546204636
:101BE00004F00DF96B1E33442044013E0021B34242
:101BF00002D02246824201D1012008E012F8015BA6
:101C00001F78AF42F6D103F80119F0E70846F8BD96
:101C100000F056B800F09CB800F0CCB80848006856
:101C2000006880F308884FF0000080F3148862B6E3
:101C300061B6BFF34F8FBFF36F8F00DF00BF0000AF
:101C400008ED00E0DFF80C00016841F4700101606C
:101C50007047000088ED00E007B5002301930B4BAF
:101C60001B68013304D00A49EF20FFF7B9FDFEE7F6
:101C70004FF0180383F31188BFF36F8FBFF34F8FBB
:101C8000019B002BFCD003B05DF804FBB4120010E4
:101C900041B200004FF0807340F8043C074B40F81D
:101CA0000C3C21F001016FF0020340F8081C40F8E1
:101CB000202C40F8243C4438704700BF591C0000D9
:101CC000074B19680868B0E8F04F80F30988BFF344
:101CD0006F8F4FF0000080F311887047AFF30080E2
:101CE000B812001008B54FF0180383F31188BFF342
:101CF0006F8FBFF34F8F094A13680133012B1360B5
:101D00000AD1074B1B6813F0FF0F05D0054940F2BD
:101D1000AB10FFF765FDFEE708BD00BFB412001071
:101D200004ED00E05BB20000074A08B513682BB968
:101D300006494FF4D970FFF753FDFEE7013B1360EE
:101D40000BB983F3118808BDB412001090B20000E3
:101D5000EFF30980BFF36F8F154B1A681EF0100F59
:101D600008BF20ED108A20E9F04F10602DE909002E
:101D70004FF0180080F31188BFF34F8FBFF36F8FC0
:101D800001F0E6F94FF0000080F3118809BC1968F2
:101D90000868B0E8F04F1EF0100F08BFB0EC108AD2
:101DA00080F30988BFF36F8F704700BFAFF30080E7
:101DB000B812001008B54FF0180383F31188BFF371
:101DC0006F8FBFF34F8F01F059F818B1034B4FF0ED
:101DD00080521A60002383F3118808BD04ED00E0EF
:101DE00010B5084A084C002323601360FEF716FA6A
:101DF0004FF47A73B0FBF3F0044B013818600723FB
:101E0000236010BD18E000E010E000E014E000E006
:101E1000334B344A13B51968914205D132494FF416
:101E20009A70FFF7DDFCFEE71A68304B9A4205D145
:101E30002F4940F23510FFF7D3FCFEE72D4B1A78FF
:101E4000D2B20192FF221A701B782B4ADBB28DF8B6
:101E500003309DF8033003F018031370274A07235B
:101E6000136000219DF80300000603F1FF3409D43C
:101E700011B1022B13600ED0214940F25D10FFF723
:101E8000AFFCFEE79DF803305B00DBB28DF803305A
:101E900001212346E6E74FF400731360019B154AC6
:101EA000DBB21370174B1A6842F478021A601A6892
:101EB00042F078421A60FFF793FF134B00241C6036
:101EC000FFF7C0FE114A136843F040431360FFF769
:101ED000A5FE01F03DF9FFF7BFFE204602B010BDA0
:101EE00000ED00E071C20F410EB3000070C20F415F
:101EF00031B3000000E400E0AC120010B01200109A
:101F000054B3000020ED00E0B412001034EF00E004
:101F100008B5EFF305830F2B0BD90D4A9B5C0D4AD7
:101F200012789A4205D90C4940F2FE20FFF758FC7E
:101F3000FEE70A4B0A4A1B68126803F4E063934207
:101F400005D9084940F20E30FFF74AFCFEE708BD0C
:101F5000F0E300E0AC120010A2B200000CED00E0D3
:101F6000B0120010CCB2000010B5044600F07EFFA5
:101F7000204602F051FD044601F012F80CB9FFF7BB
:101F80001FFC204610BD10B5044640B100F06EFFA6
:101F9000204602F049FDBDE8104001F001B810BD37
:101FA00000F108034FF0FF324360C0E902230361F0
:101FB00000230360704700230361704743684B6050
:101FC0009A688A609A685160996003680861013371
:101FD000036070470A68531C30B50AD103695A6818
:101FE0004A6091608B605960036808610133036047
:101FF00030BD00F108035C6825689542EFD82346A0
:10200000F9E7D0E9011203698A6051605968814299
:1020100008BF5A60002202611A68013A1A60186803
:10202000704710B50446FFF75DFEA46BFFF77CFE1A
:10203000B4FA84F0400910BDF8B51546026C866B01
:10204000044652B9076847BB806801F007FBA760E8
:1020500005460136A6632846F8BD65B9406802F01A
:10206000EBFC6368226C1344A26863609342F0D374
:1020700023686360EDE7C06802F0DEFC236CE26871
:1020800021685B421A448A42E2603EBFA2689B1804
:10209000E360022D01D116B1013E0025D9E7354696
:1020A000D7E7034610B41A6C084662B1D9689C6839
:1020B0001144A142D96024BF1968D960D9685DF87C
:1020C000044B02F0B9BC5DF8044B704770B5044690
:1020D000FFF708FE94F8455004F124066DB2002D78
:1020E00014DCFF2384F84530FFF71EFEFFF7FAFDEE
:1020F00094F8445004F110066DB2002D12DCFF2359
:1021000084F84430BDE87040FFF70EBE636A002BD0
:10211000E7D0304601F0FCF808B101F07FF9013D4D
:102120006DB2DCE72369002BE9D0304601F0F0F80E
:1021300008B101F073F9013D6DB2DEE738B50D4627
:10214000044628B91A4940F20310FFF749FBFEE79D
:10215000FFF7C8FDD4E90F30226862604343D1180D
:102160001B1A1344A160E3600021FF23A16384F8DC
:10217000443084F8453095B9236963B104F1100007
:1021800001F0C6F838B10B4B4FF080521A60BFF324
:102190004F8FBFF36F8FFFF7C7FD012038BD04F1EC
:1021A0001000FFF7FDFE04F12400FFF7F9FEF2E74F
:1021B0005AB4000004ED00E013B51C4628B91E49CE
:1021C0004FF49D70FFF70CFBFEE72BB91B494FF452
:1021D0009F70FFF705FBFEE732B161B918494FF474
:1021E000A170FFF7FDFAFEE729B1164940F243104E
:1021F000FFF7F6FAFEE750230193019B502B05D021
:10220000114940F24B10FFF7EBFAFEE7002908BF37
:102210002246019B22600123C4E90F0184F8463065
:1022200019462046FFF78AFF9DF8103084F84C309D
:10223000204602B010BD00BF97B30000B9B3000044
:10224000CFB3000007B400003FB40000F8B50D465E
:102250001746064628B90F494FF4BB70FFF7C0FA7E
:10226000FEE748435030FFF77FFE044670B100237D
:1022700080F8463065B100F150032360C4E90F6572
:1022800001212046FFF75AFF84F84C702046F8BD24
:102290000346F2E797B300002DE9FF478846019215
:1022A0001F46044628B94E4940F2F120FFF798FA3C
:1022B000FEE739B9036C2BB14A4940F2F220FFF72F
:1022C0008FFAFEE7022F08D1E36B012B05D04649B8
:1022D00040F2F320FFF784FAFEE701F05DF90646CD
:1022E00038B9019B33B1414940F2F620FFF778FA43
:1022F000FEE700264FF00009DFF8F4A037E0019D6B
:102300001DB9FFF711FD002050E016B902A801F039
:102310003FF8FFF709FD00F0A9FDFFF7E3FC94F893
:102320004430FF2B08BF84F8449094F84530FF2BCD
:1023300008BF84F84590FFF7F7FC01A902A801F057
:1023400033F8002846D1FFF7CDFCA26BE36B9A422D
:102350002FD1FFF7E9FC019904F1100000F0C0FF54
:102360002046FFF7B3FE00F01BFE50B30126FFF737
:10237000B9FCA26BE36B9A4201D3022FBFD13A465C
:1023800041462046FFF758FE636A1BB104F1240062
:1023900000F0BEFF38B1164B4FF080521A60BFF309
:1023A0004F8FBFF36F8FFFF7BFFC012004B0BDE874
:1023B000F087FFF7B9FC2046FFF788FE00F0F0FD3C
:1023C000D4E74FF08053CAF80030BFF34F8FBFF30C
:1023D0006F8FCBE72046FFF779FE00F0E1FD92E733
:1023E0005AB4000062B40000B2B40000F9B40000B6
:1023F00004ED00E013B5002200900B4601201146C9
:10240000FFF7DAFE044638B1002383600360C3603F
:102410001A461946FFF740FF204602B010BD10B51E
:10242000024600210120FFF711FF044638B10023C6
:1024300083600360C3601A461946FFF72DFF2046EC
:1024400010BDFFFF2DE9F843894690461F4604461C
:1024500028B9284940F2C330FFF7C2F9FEE739B97D
:10246000036C2BB124494FF47170FFF7B9F9FEE703
:10247000022F08D1E36B012B05D0204940F2C53073
:10248000FFF7AEF9FEE7FFF743FDEFF311864FF0DC
:10249000180383F31188BFF36F8FBFF34F8FA26BC5
:1024A000E36B9A4201D3022F22D194F845503A4669
:1024B0006DB249462046FFF7BFFD6B1C13D1636A1E
:1024C0000BB901200BE004F1240000F021FF0028EB
:1024D000F7D0B8F1000FF4D00120C8F8000086F35F
:1024E0001188BDE8F88301356DB284F84550E8E7FE
:1024F0000020F4E75AB4000062B40000B2B4000057
:1025000070B50D46044628B923494FF48C60FFF797
:1025100067F9FEE7036C2BB1204940F26440FFF7F6
:102520005FF9FEE703683BB983682BB11C4940F2B1
:102530006940FFF755F9FEE7FFF7EAFCEFF3118674
:102540004FF0180383F31188BFF36F8FBFF34F8FE2
:10255000A26BE36B93421CD994F8453001325BB215
:10256000A2635A1C10D1636A0BB9012009E004F17F
:10257000240000F0CDFE0028F7D0002DF5D001207A
:10258000286086F3118870BD01335BB284F8453052
:10259000EBE70020F5E700BF5AB400004FB500009C
:1025A00068B500002DE9F04385B00F46019204465E
:1025B00028B947494FF4A060FFF712F9FEE739B98F
:1025C000036C2BB1434940F20450FFF709F9FEE7D1
:1025D00000F0E2FF064638B9019B33B13E4940F2B4
:1025E0000950FFF7FDF8FEE700264FF00008DFF87E
:1025F000EC903BE0019D1DB9FFF796FB002052E0F7
:1026000016B902A800F0C4FEFFF78EFB00F02EFC06
:10261000FFF768FB94F84430FF2B08BF84F8448030
:1026200094F84530FF2B08BF84F84580FFF77CFB0A
:1026300001A902A800F0B8FE00283DD12046FFF70E
:10264000F0FC98B3019904F1240000F049FE204603
:10265000FFF73CFD00F0A4FC38B94FF08053C9F8F7
:102660000030BFF34F8FBFF36F8F0126FFF73AFBA8
:10267000A56B002DBED039462046013DFFF711FD68
:10268000A563236963B104F1100000F041FE38B185
:10269000124B4FF080521A60BFF34F8FBFF36F8F12
:1026A000FFF742FB012005B0BDE8F0832046FFF7AD
:1026B0000DFD00F075FCD8E72046FFF707FD00F0A0
:1026C0006FFC2046FFF7ADFC0028CED096E700BF98
:1026D000CFB50000DBB50000F9B4000004ED00E068
:1026E0002DE9FF410446019128B9584940F2915023
:1026F000FFF776F8FEE7056C2DB1554940F295508D
:10270000FFF76EF8FEE700F047FF064638B9019B79
:1027100053B1504940F29A50FFF762F8FEE72E4657
:102720000027DFF838814EE00546F9E7019B4BB9F9
:102730002DB1494940F2E150FFF752F8FEE7FFF7AB
:10274000F3FA5EE016B902A800F022FEFFF7ECFAF9
:1027500000F08CFBFFF7C6FA94F84430FF2B08BF5B
:1027600084F8447094F84530FF2B08BF84F8457016
:10277000FFF7DAFA01A902A800F016FE00284AD1F4
:102780002046FFF74EFC00283FD023683BB9FFF7F7
:10279000A9FAA06800F010FF0546FFF7C5FA0199F5
:1027A00004F1240000F09CFD2046FFF78FFC00F0B0
:1027B000F7FB38B94FF08053C8F80030BFF34F8FA4
:1027C000BFF36F8F0126FFF78DFAA36B002BADD0FF
:1027D000013BA363236813B900F0E6FFA0602369FF
:1027E00063B104F1100000F093FD38B11B4B4FF0C2
:1027F00080521A60BFF34F8FBFF36F8FFFF794FAC9
:102800000125284604B0BDE8F0812046FFF75EFCB4
:1028100000F0C6FBD6E72046FFF758FC00F0C0FBEF
:102820002046FFF7FEFB0028CCD0002DE9D0FFF7B3
:1028300059FA616A19B1236B1968C1F10A01A068DC
:1028400000F05AFF0025FFF76FFADAE7CFB5000076
:102850004FB50000F9B4000079B6000004ED00E0C7
:102860002DE9F84389469046054628B9214940F2AA
:10287000FB60FEF7B5FFFEE739B9036C2BB11E49CB
:1028800040F2FC60FEF7ACFFFEE7FFF741FBEFF321
:1028900011874FF0180383F31188BFF36F8FBFF3D5
:1028A0004F8FAC6B1CB395F84460494676B228460E
:1028B000FFF7F7FB013C731CAC6313D12B690BB919
:1028C00001200BE005F1100000F022FD0028F7D0F8
:1028D000B8F1000FF4D00120C8F8000087F3118888
:1028E000BDE8F883013676B285F84460E8E7204613
:1028F000F4E700BF5AB400002EB6000008B528B9AE
:10290000064940F2B770FEF76BFFFEE790F84630DD
:102910001BB9BDE80840FFF736BB08BD5AB400003C
:102920000268F0B503461AB342685068586003F174
:102930000802904204BFD86858605868C768586851
:1029400040685860824204BF506858605868C06848
:102950004D1E00F1340400F1400C14F801EB15F8A1
:10296000016F764502D126B16445F6D18742E6D1A2
:102970000020F0BD43685B68436000F108029342A9
:1029800004BFC3684360436830B5DC6800255B68FA
:102990009A4208BF5368D9688C420D65F7D14360ED
:1029A00030BDFFFF2DE9F0410446FFF79BF92D4BA9
:1029B0002D4D1A682D4F01321A602E68002E46D117
:1029C0002C601B68012B1CD1B84640460136FFF72E
:1029D000E7FA0A2E08F11408F7D1DFF8B880244E80
:1029E0004046FFF7DDFA3046FFF7DAFA2148FFF7F5
:1029F000D7FA2148FFF7D4FA204BC3F80080204BC8
:102A00001E60204A20491368086801331360E26A97
:102A1000236401239340034314200B6000FB0270E6
:102A2000211DFFF7CBFAFFF77FF9184B1B6863B145
:102A30002B68DA6AE36A9A4207D2154B4FF080524C
:102A40001A60BFF34F8FBFF36F8FBDE8F0810F4B5C
:102A50001B68002BD5D12B68DA6AE36A9A4298BFCB
:102A60002C60CEE790130010B8120010C4120010B2
:102A7000B8130010D8130010F0130010BC1200108F
:102A8000C01200109C130010A0130010EC130010D3
:102A900004ED00E0A413001008B5074C074D4FF0FB
:102AA00080562368012B04D92E60BFF34F8FBFF3EC
:102AB0006F8FFEF78DFEF4E7C412001004ED00E006
:102AC000064A13681968064B19B94FF0FF321A60AD
:102AD00070471268D268D2685268F8E7BC120010DA
:102AE000D013001008B528B9094940F20E70FEF75E
:102AF00077FEFEE74269074B9A4207D1806A064B90
:102B0000984203D0B0FA80F0400908BD0020FCE7ED
:102B10009FB60000F0130010D81300102DE9F04705
:102B2000DDE909644FEA82094A4607460D46206BF3
:102B3000A521984601F0A8FF236BA9F10409994447
:102B400029F007099DB36B1E04F134020B3513F80D
:102B5000011F02F8011B09B1AB42F8D1002384F830
:102B60003F30089D092D28BF09254FF0000AE56276
:102B7000A564201DC4F84CA0FFF71DFAC5F10A0595
:102B800004F11800FFF717FAC4F854A02461A561F6
:102B90006462C4F850A084F858A0424639464846BA
:102BA000FFF778F8206006B13460BDE8F08784F85C
:102BB0003450D6E7F8B51B4B1B4E1C6805463068F1
:102BC00004300F46FFF71DFA334640B93168174EFF
:102BD000C96A32680120884022EA000232606A1C19
:102BE00007D137B1196812480431BDE8F840FFF742
:102BF000E5B91A686419546007D30E4A1068196859
:102C0000BDE8F8400431FFF7E5B90B4A10681968D0
:102C10000431FFF7DFF9094B1A68A24288BF1C6034
:102C2000F8BD00BF04140010B8120010A01300106B
:102C3000F0130010C0120010BC120010D0130010CE
:102C400070B586B0DDE90B542DB9154940F24D2021
:102C5000FEF7C6FDFEE72CB9124940F24E20FEF702
:102C6000BFFDFEE75C260596059E5C2E05D00E494D
:102C700040F25620FEF7B4FDFEE72563022584F8F6
:102C8000595004AD01950A9D02940095059EFFF7E9
:102C900045FF2046FFF786FE049806B070BD00BFD2
:102CA0007EB7000095B70000AAB700002DE9F043F9
:102CB000074685B09000884616469946FFF754F9B6
:102CC0000546E8B15C20FFF74FF90446A8B10023A0
:102CD00080F859300D9B056301930C9B0290009383
:102CE00032464B4641463846FFF718FF2046FFF76D
:102CF00059FE012005B0BDE8F0832846FFF743F9EF
:102D00004FF0FF30F6E7FFFFF8B5044628B9144945
:102D10004FF4AD60FEF764FDFEE7124B1B68834283
:102D200018D0FEF7DFFF104B65691F680F4B1E6858
:102D3000FEF7FAFFBD4211D0B5420FD00C4B9D42B9
:102D40000AD1A36A53B994F85830012B0CBF022062
:102D50000320F8BD0020FCE70120FAE70220F8E795
:102D600099B60000B8120010BC120010C01200107A
:102D7000F013001070B5044628B91A494FF4E76003
:102D8000FEF72EFDFEE7184D2B68834228D0FEF794
:102D9000A9FF2046FFF7A6FEF0B1261D3046FFF73B
:102DA00030F91249E26A08680123934003430B603B
:102DB0000F4B142000FB02303146FFF7FFF82B6861
:102DC000E26ADB6A9A4207D30A4B4FF080521A60DC
:102DD000BFF34F8FBFF36F8FBDE87040FEF7A4BF06
:102DE00070BD00BF0CB70000B8120010A013001097
:102DF000C412001004ED00E010B588B0002407AA4A
:102E000006A905A8CDE90544FEF70AFD059B029336
:102E1000069B079A0F491048CDE900432346FFF768
:102E20000FFF0E4B186090B14FF0180383F3118819
:102E3000BFF36F8FBFF34F8F094B4FF0FF321A6014
:102E4000084B01221A60084B1C60FEF7E1FF08B036
:102E500010BD00BF24B70000992A0000CC13001059
:102E6000D0130010EC13001004140010024A136871
:102E700001331360704700BF981300102DE9F84F1D
:102E80003B4B1B68002B6BD13A4B1C6801341C6018
:102E9000A4B9394B1A6812682AB1384940F67F2024
:102EA000FEF79EFCFEE7364A19681068186011604C
:102EB000344A136801331360FFF702FE324D334F7B
:102EC0002B68A3424FF0000B11D93A68304BD16AFE
:102ED00014224A439A58022A28BF4FF0010B2D4A68
:102EE0001268002A0CBF58460120BDE8F88FDFF8B1
:102EF00088A0DFF8A890DAF8002012681AB94FF01D
:102F0000FF322A60E1E7DAF80020D268D6687168FB
:102F10008C4201D22960D8E706F104084046FFF749
:102F200070F8B16A19B106F11800FFF76AF8F06A93
:102F3000D9F80030012202FA00F11943144BC9F804
:102F400000104FF0140C41460CFB0030FFF736F830
:102F50003868F16AC26A914228BF4FF0010BCAE794
:102F60000D4A1368013313604FF0000BB7E700BF41
:102F70009813001004140010BC120010F5B70000E4
:102F8000C0120010D4130010D0130010B81200109B
:102F9000C41200100814001094130010A0130010A5
:102FA0002DE9F8432F4C23682BB92F4940F68500B3
:102FB000FEF716FCFEE7FEF795FE2368013B236053
:102FC00024682CB10024FEF7AFFE2046BDE8F8834C
:102FD000264B1B68002BF5D0254D264EDFF8A88028
:102FE0001FE0EB68DC6804F1040904F11800FFF746
:102FF00008F84846FFF705F8E26A3168012707FA42
:1030000002F314200B4300FB028049463360FEF7B5
:10301000D5FF194BE26A1B68DB6A9A4201D3174B52
:103020001F602B68002BDCD10CB1FFF749FD144D5C
:103030002C6844B1114E0127FFF720FF00B1376023
:10304000013CF9D12C600D4B1B68002BBAD00D4B05
:103050004FF080521A60BFF34F8FBFF36F8F012480
:10306000B1E700BF981300105AB800009013001089
:10307000D8130010A0130010B8120010081400108C
:103080009413001004ED00E0C412001008B540B91C
:103090000D4B4FF080521A60BFF34F8FBFF36F8F0D
:1030A00008BD0A4B196829B1094940F23C50FEF7A6
:1030B00097FBFEE7FFF7DAFEFFF77CFDFFF770FFF7
:1030C0000028E5D0ECE700BF04ED00E09813001005
:1030D000D0B600002DE9F041054602F090FE0B2825
:1030E00005D9164940F67A10FEF77AFBFEE7FFF79E
:1030F000BDFEDFF858800A261427013E294607FB4B
:103100000680FFF70DFC044690B9002EF5D10C4B5C
:103110001868FFF705FC044650B90A4B29461868A1
:10312000FFF7FEFB044618B90748FFF7F9FB044612
:10313000FFF736FF2046BDE8F08100BFC3B70000AF
:10314000BC120010C0120010F0130010C4120010C6
:1031500038B5274B1A68274B12B101221A6038BDC7
:103160001A60FEF769FB244A244C1568A84204D96A
:1031700021680B6D5B1B03440B65236810601B6BA0
:103180001A68B2F1A53F0BD15A68B2F1A53F07D139
:103190009A68B2F1A53F03D1DB68B3F1A53F04D033
:1031A000206821683431FEF7FDFA154B1B68B3FA2D
:1031B00083F3DBB2C3F11F03142212495A43881868
:1031C0008D582DB9104940F6B730FEF709FBFEE7E0
:1031D000456808326D6845600A44954204BF6A68D4
:1031E0004260142202FB03135B68DB682360B6E7CE
:1031F00098130010081400108C130010B81200105F
:10320000A0130010C412001029B7000070B50446C6
:103210002A4EFEF767FD04B93468251D2846FEF7DF
:10322000F0FE60B9E06A264B142141435B5833B984
:10323000244901220B68824023EA02030B60A36A3F
:103240001BB104F11800FEF7DCFE29461E481F4D95
:10325000FEF7B4FE94F85830012B04BF002384F825
:103260005830FEF761FD2A682AB1FEF73BFDFFF7F3
:1032700027FCFEF759FD3368A34212D12B688BB1AE
:10328000134B1B682BB1134940F2E460FEF7A8FA18
:10329000FEE7114B4FF080521A60BFF34F8FBFF320
:1032A0006F8F70BD084A11680C4A1268914201D1B3
:1032B0003360F6E7BDE87040FFF74ABFB812001070
:1032C000C4120010A0130010F0130010EC13001033
:1032D00098130010D0B6000004ED00E09013001029
:1032E00010B50C4628B9084940F6CE30FEF778FAFA
:1032F000FEE7064B19681831FEF76CFE20460121E7
:10330000BDE81040FFF756BCEAB60000B812001046
:1033100038B5C368DC682CB9164940F62940FEF779
:103320005FFAFEE704F118052846FEF76AFE124B25
:103330001B68E3B9251D2846FEF763FE0F49E26AC4
:1033400008680123934003430B600D4B142029466A
:1033500000FB0230FEF732FE0A4BE26A1B68DB6AB2
:103360009A4283BF084B01201860002038BD2946CF
:103370000648EFE74BB8000098130010A0130010A8
:10338000C4120010B812001008140010D813001056
:10339000034B1B680360034B1B684360704700BF0F
:1033A000D41300100414001070B50C46054628B95B
:1033B000164940F69440FEF713FAFEE729B914497E
:1033C00040F69540FEF70CFAFEE7FEF78BFC114B3A
:1033D000196823685A1C10D00F482E6800686A6864
:1033E000864201D08A420FD9881A83420AD95B1AD1
:1033F000134423602846FFF7CBFF0024FEF794FC1C
:10340000204670BD002323600124F7E71AB70000AF
:1034100070B7000004140010D4130010014B0122F7
:103420001A6070470814001070B50C461646054621
:1034300008B91B4A1568256005F134026260EA6A22
:1034400022612A6BE2612A6CA260AA6C6261052B80
:103450002A6DA2611AD0124A1268AA420AD1002328
:103460002373D6B1296B0023CA5CA52A13D09B080D
:10347000238470BD032B2373F3D1FFF7F7FCAB6AF2
:103480000BB102232373FFF78BFDEAE72846FFF712
:103490003BFC2073E5E70133E6E72684E9E700BF5C
:1034A000B81200102DE9F84F0D6881460C4693467E
:1034B00015B34B685B684B6001F10806B34204BF6B
:1034C000CB684B604B68D3F80C8000254FF0240A82
:1034D00063685B6863609E4204BF7368636063688F
:1034E000DF680AFB05915B4601223846FFF79CFF27
:1034F000B84505F10105EBD12846BDE8F88FFFFF7F
:103500002DE9F04705469046FFF7B0FC1D4B1B68C0
:103510008B4234D8DFF87C900A2700244FF0140A3D
:103520002426013F06FB045001220AFB0791FFF706
:10353000B9FF0444002FF4D1134B0222196806FB93
:103540000450FFF7AFFF114B04441968022206FB39
:103550000450FFF7A7FF044406FB045003220C4964
:10356000FFF7A0FF0444B8F1000F03D0FEF764F9A1
:10357000C8F80000FFF714FD2046BDE8F0870024DE
:10358000F8E700BF90130010BC120010C01200102A
:10359000F0130010C4120010054B1B6833B1054B2B
:1035A0001B68002B0CBF02200020704701207047D1
:1035B000EC130010981300102DE9F0410446002888
:1035C00035D0234AC36A1168C96A8B42174636D27E
:1035D0008269204D002AA1BF3A68D26AC2F10A026C
:1035E00082611426426906FB03539A4221D100F1FD
:1035F00004084046FEF705FD174B48B9E06A46430C
:10360000AA592AB91A680121814022EA01021A60E6
:103610003A681968D26AE262012404FA02F00843A7
:1036200018601420414600FB0250FEF7C7FC2046FC
:1036300003E03B68DB6AC3620120BDE8F0811368E8
:10364000806CDC6AA0422CBF00200120F5E700BF9F
:10365000B8120010C4120010A0130010F8B50446F0
:1036600008B90020F8BD1F4B1B68834205D01E49D6
:1036700040F6D170FEF7B4F8FEE7DB6C2BB91B49BE
:1036800040F6D270FEF7ACF8FEE7C16A826C013BEF
:103690009142C364E5D0002BE3D1051D2846FEF717
:1036A000B0FC134E134A50B9E76A1421794373589A
:1036B0002BB913680120B84023EA00031360A36C00
:1036C000E362C3F10A01A1611168012404FA03F065
:1036D00008431060142000FB03602946FEF76EFCCF
:1036E0002046BFE7B812001020B8000036B800002E
:1036F000C4120010A0130010F8B50446002847D0EB
:10370000C26C2AB923494FF48150FEF769F8FEE7ED
:10371000836C994238BF1946C36A8B4238D0012A5C
:1037200036D11D4A1268824205D11C4941F23B0044
:10373000FEF756F8FEE78269194DC162002A4FF084
:1037400014064269A8BFC1F10A0106FB0353A8BFD2
:1037500081619A421CD1071D3846FEF752FCE26A8D
:10376000104C40B95643AB592BB923680121914005
:1037700023EA010323602168012393400B431420B3
:103780002360394600FB0250BDE8F840FEF716BC46
:10379000F8BD00BF36B80000B8120010F6B6000041
:1037A000C4120010A0130010044B1A681AB1196853
:1037B000CA6C0132CA641868704700BFB8120010A2
:1037C00070B5FFF753FB144D0A241426013C06FB89
:1037D00004F3E818EB580BB1FFF7CCF8002CF5D147
:1037E0000E4B1A68126812B11868FFF7C3F80C4B39
:1037F0001A68126812B11868FFF7BCF80948036824
:103800000BB1FFF7B7F8084B00221A60FEF71EF85D
:10381000BDE87040FFF7C4BBC4120010BC1200101A
:10382000C0120010F01300108C13001010B5FEF73A
:1038300003F8064B064A196829B1196814680B6D1C
:103840001B1B03440B65106010BD00BFB8120010B5
:103850008C13001008B5FDF7EFFF014B186008BD91
:103860008C13001038B501220221002000F0C3F8AB
:1038700001220321002000F0BEF8042200210120D3
:1038800000F0B9F801210422084600F0B4F804223F
:103890001146012000F0AFF80821012000F01AF9CC
:1038A000284B4FF480729A610921012000F0EEF854
:1038B00002220A21002000F09EF802220B21054678
:1038C000002000F098F80446284600F0A9F82046A9
:1038D00000F0A6F80321022000F0FCF81A4B1B4D63
:1038E00018701A21012000F0F5F8194B194C1870C6
:1038F0001821012000F0EEF8174B1221187001205A
:1039000000F0E8F8154B13211870012000F0BEF804
:103910000F212870012000F0B9F81E21207000202E
:1039200000F0B4F80E4B1D211870002000F0AEF826
:103930000C4B1870287800F083F82078BDE83840E8
:1039400000F07EB8208009200C1400101014001024
:103950000D140010111400100E1400100F1400109C
:103960001214001013140010024B4FF48072DA612D
:10397000704700BF20800920024B4FF480729A618B
:10398000704700BF20800920034B586980F4007005
:10399000C0F34020704700BF20800920014B1878F9
:1039A000704700BF0C140010014B1878704700BF1F
:1039B0000D140010014B1878704700BF0E14001052
:1039C000014B1878704700BF0F140010C0F3C403F8
:1039D00000F007029B0003EBC21303F1804303F5E1
:1039E000303301F007011A6822F007021A601A68E2
:1039F00011431960704738B500F007054FF000001B
:103A000001F01F0465F3020064F3C7001146FFF7DD
:103A1000DDFF4FF0000065F3020064F3C70038BD1E
:103A2000C0F3C40300F007029B0003EBC21303F1D1
:103A3000804303F530331A6842F480621A6070479D
:103A4000C0F3C40300F007029B0003EBC21303F1B1
:103A5000804303F530331A6822F018021A601A689E
:103A600042F008021A60704700F00702064B53F854
:103A70002210C0F3C4000B68012202FA00F023EA0E
:103A800000030B60704700BF70B8000038B500F04D
:103A900007054FF0000001F01F0465F3020064F316
:103AA000C700FFF7E1FF4FF0000065F3020064F389
:103AB000C70038BD00F00702054B53F82220C0F3C1
:103AC000C40311680120984008431060704700BF8C
:103AD00070B8000038B500F007054FF0000001F0A5
:103AE0001F0465F3020064F3C700FFF7E3FF4FF024
:103AF000000065F3020064F3C70038BD00F0070260
:103B0000064B53F82230C0F3C4005A69012303FA6C
:103B100000F0104214BF18460020704770B8000033
:103B200000F00702044BC0F3C40053F82220012325
:103B300003FA00F09061704770B8000000F00702CF
:103B4000044BC0F3C40053F82220012303FA00F011
:103B5000D061704770B8000008B50146FFF7CEFF8E
:103B600020B10846BDE80840FFF7E8BF0846BDE8B9
:103B70000840FFF7D5BFFFFF2DE9F8430F4F0C2496
:103B800044433E19884635792846914600F090FA1C
:103B90003C5900233F2263604946A36028462260C7
:103BA0006361B268A361E3612362636200F0A4FA17
:103BB0000123C4F80C806360BDE8F88388B8000076
:103BC0000C235843064B1B5830B501205C6901EBB0
:103BD0004105A84020435861183343F8212030BDE7
:103BE00088B800000C235843034B1A58012303FAEA
:103BF00001F11160704700BF88B800000C235843E2
:103C0000014B1B589868704788B800000C23584334
:103C1000014B1B589960704788B800002DE9F047A8
:103C2000089F344E92461A1C18BF012298463B1C2E
:103C300018BF01239A4205460C4613D1002433686D
:103C40002D48D96800F0CAFE33682A7C2B49D86811
:103C500000F00CFE33680A20D96800F051FE2046BF
:103C6000BDE8F0874FF0FF31C068FEF739FD00284E
:103C7000E4D0FFF791FC00218146A868FEF730FDF3
:103C800000232B74099BEB6133686C7485F812A0D8
:103C9000D9681948C5E9058700F0A0FE33681849BE
:103CA000D868224600F0E2FD33680A20D96800F0A7
:103CB00027FE2B682022B9F1020F1A6010D140F6BE
:103CC000B831A868FEF70CFD88B12C7CB4FA84F4F6
:103CD000640900231A461946E868FEF7DDFAAEE7E4
:103CE0000021A868FEF7FCFC0028F9D0EDE70446A7
:103CF000EFE700BF9C010010EFB8000022B9000000
:103D0000F4B80000F7B5704F04683B686668D9687E
:103D100005466E4800F062FE3B686D49D868324641
:103D200000F0A4FD3B680A20D96800F0E9FD582E98
:103D300000F0AE801BD8282E7AD00CD8102E4FD091
:103D4000182E53D0082E40F0B2806B7C03F0FE0397
:103D5000A360A6611CE0402E00F08380502E00F08E
:103D60008980382E40F0A38063682B744AE0A82E27
:103D700017D00FD8802E1ED0A02E25D0602E40F058
:103D80009680042323600823A361012385F8213052
:103D900003B0F0BDC02E17D0C82E15D0B82E40F0FD
:103DA000868095F82000431C85F8203004F1080136
:103DB000FDF7B4FC08E095F8213043B1A36885F81D
:103DC0002030002385F82130042323600CE095F88F
:103DD0002000431C85F82030A168FDF7A7FCF3E71D
:103DE0006B7C43F00103A36008231FE0E9692022F4
:103DF000A2610823C1B9A26110222260A3612368D5
:103E0000DE06FCD4002301A9A8680193FEF778FB25
:103E1000019B002BBCD02F4B4FF080521A60BFF398
:103E20004F8FBFF36F8FB3E7AA7CA260A361AFE7A8
:103E30006B7CD80701D52023C7E7EB694BB920235A
:103E4000A361102323600823A3612368D906FCD44F
:103E5000D8E7AA69013B12F8011BA160AA61EB61D6
:103E6000C2E72023A361EB69012B4FF00403ACD818
:103E7000A361B9E76B69A2681A706B6901336B6162
:103E8000EB69013B012BEB614FF004039DD1EFE7A0
:103E90006B69A2681A700023EB612023A3611023D1
:103EA00023600823A3612368DA06FCD4AAE76368C9
:103EB0002B742023A361102323600823A3612368AC
:103EC000DB06FCD49EE700BF9C010010EFB80000A9
:103ED000DCB8000004ED00E00148FFF713BF00BFAD
:103EE000940000100148FFF70DBF00BF70000010E4
:103EF0000148FFF707BF00BF4C0000102DE9F04359
:103F0000274B06461546894693E8070085B004AB63
:103F100003E9070040F60A33ADF800300C238DF8B2
:103F20000230242373431F4AD458D71804AB3344B8
:103F300003220021012013F8108CFEF787F9B860E6
:103F40000120FEF76CFAF860404600F0B1F86C23EF
:103F5000A361154A154B914588BF99462823B5FBA7
:103F6000F9F25208C8215343B3FBF1F323613C2318
:103F70005A430023B2FBF1F26261A36263622362DF
:103F8000E3604023236004AB03EB86067A6856F8AF
:103F90000C1C404605B0BDE8F04300F0ADB800BFD2
:103FA000D0B800004C00001040420F00A086010075
:103FB00037B5069C019400240094054C242541F05B
:103FC000010105FB0040FFF729FE03B030BD00BF33
:103FD0004C0000101FB500238DF80F300123009313
:103FE0000DF10F03FFF7E4FF9DF80F0005B05DF83A
:103FF00004FBFFFF37B5069CCDE90034054C2425B2
:10400000002301F0FE0105FB0040FFF707FE03B0AF
:1040100030BD00BF4C0000101FB5002200920DF112
:104020000F038DF80F20FFF7E5FF05B05DF804FBE7
:104030001FB58DF80F30012300930DF10F03FFF72B
:10404000D9FF05B05DF804FB022804D1074B4422D8
:1040500059621A60704701280ABF054B054B196267
:104060004FF0440218BFD960F3E700BF00000A40D8
:1040700000C0054000C00140FEE7FFFF08B5FFF7A4
:10408000D5FB084B084A1B78103BDBB252F82330B3
:104090009847064B00221A601B68BDE80840FFF7EE
:1040A000D9BB00BF04ED00E0B800001014140010EC
:1040B000592809D8054B064A185CD2F8C4100123C8
:1040C00083400B43C2F8C430704700BF4FB90000B3
:1040D00000C00F4059289FBF054B064AD3F8C43093
:1040E000105C9ABF23FA00F000F001000020704736
:1040F00000C00F404FB90000592808BF1920084BD5
:1041000043F8201043B2002B08DB012200F01F000F
:1041100002FA00F05B09034A42F82300704700BF2F
:10412000B800001000E100E073B54FF0FF33B1F5C7
:10413000805F019336D21D4C2369DE0734D41C4BBB
:104140001D69ED0730D41B4D0326AE602E611A4D5C
:104150001D6002B301AE5E6041F00046DE6041F2D8
:104160000F061E61DAB1206041F0806140F68112D5
:10417000E16065602261114A516A41F003015162B8
:10418000D868C0F30B000028FAD1536A23F0030368
:10419000536202B070BD586041F00846DEE701AAE4
:1041A0002260E3E70120F4E70220F2E700010820A3
:1041B000200108200000082008C00A4000C00A4072
:1041C00010B50446FCF72AF84FF47A73B0FBF3F00D
:1041D0000223B0FBF3F2A24202D8034A136110BDDE
:1041E0000233DBB2F5E700BF00C00A4010B5044659
:1041F0002420FFF75DFF0B4B07221A6002225A6052
:104200002046FFF7DDFF1A20FFF752FF064B012281
:104210001A631A6BD207FCD5044A0023936042F854
:10422000183C10BD00C00A400000082020010820F2
:10423000034BDA68D206FCD49868C0B2704700BF5E
:1042400000C00A400122FFF76FBF0022FFF76CBFDA
:1042500002689368C3F34203022B73B5064623D06A
:10426000062B21D0012B34D100248DF8034001947A
:10427000102501AA0DF10301B068FEF7F1FA48B16B
:1042800033689DF803201A70019B002B18BF01248E
:10429000013DEED10CB3124B4FF080521A60BFF3C8
:1042A0004F8FBFF36F8F18E00024019433681A7D9D
:1042B000D207EFD51B788DF8033001AA00230DF14A
:1042C0000301F068FEF7BEF8019B002B18BF012424
:1042D000ECE7137DDBB20193019B02B070BD00BF20
:1042E00004ED00E00148FFF7B3BF00BF8C010010F0
:1042F0000148FFF7ADBF00BF7C0100100148FFF788
:10430000A7BF00BF6C0100100148FFF7A1BF00BFAD
:104310005C010010154B70B516460546185C0C463E
:104320003601FFF7C5FEB4FBF6F307EE903AF8EE60
:10433000677AB6EE007A77EE877A2D01FCEEE77A9F
:104340000B4A17EE903A52599BB280211173190A09
:10435000DBB211711370102382F82830012313721D
:10436000812313720323137370BD00BFD4B90000FF
:104370005C010010074B10B50446185CFFF7AAFE5D
:1043800030B12401044B1B59187B003018BF0120A9
:1043900010BD00BFD4B900005C010010034B03EB5B
:1043A00000108068003018BF012070475C010010C9
:1043B0002DE9F843074689469046FFF7DBFF06469E
:1043C00018B900263046BDE8F883124C3D01631948
:1043D000DA6822B9B9F1000F01D0C3F80C90631963
:1043E0009A6822B9B8F1000F01D0C3F808806319A8
:1043F000DA68002AE5D09A68002AE2D05A68064BAB
:1044000053F82710054BD85DFFF776FE6359072256
:104410005A60D7E75C010010C4B90000D4B90000AD
:1044200038B5074A03010D46D458FFF7A3FF30B152
:10443000237D9A06FCD52570237D9B06FCD538BDCF
:104440005C01001070B504460E461546FFF7A4F84F
:104450000E4B03EB0413DC68B4B1022814D16B1CBF
:1044600009D04FF47A70A5FB00014FF47A72002353
:1044700000F076F805462A4631462046FEF792F8C7
:10448000003018BF012070BD0020FCE75C01001067
:104490002DE9F84305460E46114CFFF77DF82F0134
:1044A000E31981462846D3F80C80FFF763FF98B1E3
:1044B000B9F1020F0AD1B8F1000F07D031462846F2
:1044C0004FF0FF32BDE8F843FFF7BCBFE3591A7D58
:1044D000D207FCD51B7833700020BDE8F88300BFFD
:1044E0005C010010F7B505461C4E8DF807102D0134
:1044F0001746FFF751F873199C6854B302282BD163
:10450000791C09D04FF47A70A7FB00014FF47A723E
:10451000002300F025F8074600233A460DF1070175
:104520002046FDF7B9FE041C18BF0124FDF7DAFB95
:10453000731975592A7D520609D500220DF107011C
:104540009868FEF78DF910B19DF807302B70FDF7D4
:10455000EBFB204603B0F0BD0024FAE75C0100103D
:1045600053B94AB9002908BF00281CBF4FF0FF31DA
:104570004FF0FF3000F074B9ADF1080C6DE904CED6
:1045800000F006F8DDF804E0DDE9022304B070472E
:104590002DE9F047089E04468846002B40F08580B0
:1045A0008A42154648D9B2FA82F24AB1C2F12007CE
:1045B00001FA02F320FA07F7954047EA030894400E
:1045C0004FEA154E230CB8FBFEF71FFA85FC0EFBD5
:1045D000178843EA084307FB0CF1994209D9EB1805
:1045E00007F1FF3080F0E380994240F2E080023F23
:1045F0002B445B1AA4B2B3FBFEF00EFB103344EA6B
:10460000034400FB0CFCA44509D92C1900F1FF332D
:1046100080F0CB80A44540F2C88002382C4440EAA8
:104620000740A4EB0C0400271EB1D4400023C6E9C8
:1046300000433946BDE8F087002A53D0B2FA82F22F
:10464000002A40F0B680491B4FEA154E1FFA85F844
:104650000127B1FBFEFC230C0EFB1C1143EA0143B6
:1046600008FB0CF1994207D9EB180CF1FF3002D28C
:10467000994200F2EC808446591AA3B2B1FBFEF0D5
:104680000EFB101443EA044408FB00F8A04507D9C8
:104690002C1900F1FF3302D2A04500F2DC8018464D
:1046A000A4EB080440EA0C40BEE78B4208D9002E78
:1046B00078D00027C6E9000138463946BDE8F087C2
:1046C000B3FA83F77FB98B4202D3824200F2BD80F6
:1046D000841A61EB030301209846002EA9D0C6E995
:1046E0000048A6E7FFDEC7F12005BB4022FA05FC23
:1046F0004CEA030C01FA07F420FA05F821FA05F355
:104700004FEA1C4E48EA0404B3FBFEF9210C0EFBF1
:1047100019331FFA8CF841EA034309FB08FA9A455A
:1047200002FA07F200FA07F10BD91CEB030309F1B7
:10473000FF3080F088809A4540F28580A9F1020917
:104740006344A3EB0A03A4B2B3FBFEF00EFB1033E9
:1047500044EA034400FB08F8A04508D91CEB040414
:1047600000F1FF336BD2A04569D90238644440EAB6
:104770000940A4EB0804A0FB02894C45C6464B4601
:1047800054D351D0002E69D0B1EB0E0264EB030478
:1047900004FA05F522FA07F3FC401D43C6E900546C
:1047A000002746E73746304643E7184637E70746CF
:1047B0001FE7C2F1200320FA03F7954001FA02F047
:1047C00021FA03F34FEA154E3843010CB3FBFEF711
:1047D0001FFA85F80EFB173341EA034107FB08F384
:1047E0008B4204FA02F407D9691807F1FF3C28D27A
:1047F0008B4226D9023F2944CB1A81B2B3FBFEF08B
:104800000EFB103341EA034100FB08F38B4207D94A
:10481000691800F1FF3C10D28B420ED902382944AE
:10482000C91A40EA074714E74145ABD2B8EB020E7C
:1048300069EB0C0201381346A4E76046F0E718461E
:1048400095E76746D8E781467BE7384645E7ACF110
:10485000020C2B4410E702382C4421E73746E8E6E7
:10486000704700BF0A22002102F09AB90EB403B5C6
:10487000014603AB054853F8042B0068019300F090
:10488000DDF902B05DF804EB03B070479C01001045
:1048900070B50E461446054618B183690BB903F08E
:1048A00021FA144B9C421AD16C68636ED80705D468
:1048B000A389990502D4A06D00F0ABF822462846E2
:1048C000314601F01FF9636EDA07054605D4A38966
:1048D0009B0502D4A06D00F09DF8284670BD064BE4
:1048E0009C4201D1AC68E0E7044B9C4208BFEC68F5
:1048F000DBE700BFA8BB0000C8BB000088BB00000E
:10490000024B0A4601461868FFF7C2BF9C0100101F
:1049100070B50E461446054618B183690BB903F00D
:10492000E1F92B4B9C421ED16C68636EDA0705D40B
:10493000A3899B0502D4A06D00F06BF8A38918072A
:104940001BD52369CBB1013E16F8011F39BB656E3B
:1049500015F0010539D1A389990502D4A06D00F0A5
:1049600059F8284670BD1B4B9C4201D1AC68DCE76E
:10497000194B9C4208BFEC68D7E72146284602F055
:10498000D3F90028DFD0636EDA0705D4A3899B052D
:1049900002D4A06D00F03EF84FF0FF35E1E7A368C8
:1049A000013B002BA36004DAA269934206DB0A29CB
:1049B00004D023685A1C22601970C5E72246284695
:1049C00002F060F90130BFD1DDE70D46C9E700BF55
:1049D000A8BB0000C8BB000088BB0000024B0A4611
:1049E00001461868FFF794BF9C010010074B10B5F3
:1049F0001C6824B1A36913B9204603F073F96168F8
:104A00002046BDE8104003F04FBD00BF9C010010E0
:104A1000704770477047FFFF024B0146186800F06F
:104A200089B800BF9C010010024B0146186800F0D5
:104A300033B800BF9C0100100A44914200F1FF33DB
:104A400000D1704710B511F8014B03F8014F9142A6
:104A5000F9D110BD884210B501EB020302D983429F
:104A60001C4607D8421E994208D011F8014B02F8A3
:104A7000014FF8E783189A1A9A4200D110BD14F832
:104A8000011D03F8011DF7E702440346934200D1DC
:104A9000704703F8011BF9E738B50546002945D0F2
:104AA00051F8043C0C1F002BB8BFE41803F008FEBB
:104AB0001F4A1368104633B9636014602846BDE886
:104AC000384003F003BEA3420CD921686218934218
:104AD00004BF1A685B68636004BF521822600460F8
:104AE000ECE713465A680AB1A242FAD91968581875
:104AF000A0420BD120680144581882421960DDD1D0
:104B0000106852685A6001441960D7E702D90C2333
:104B10002B60D3E7206821188A4204BF11685268CD
:104B2000626004BF091821605C60C7E738BD00BF40
:104B300018140010F8B5CD1C25F0030508350C2D10
:104B400038BF0C25002D064601DBA94203D90C23F2
:104B500033600020F8BD03F0B3FD21490A68144614
:104B60009CB9204F3B6823B92146304601F026F816
:104B700038602946304601F021F8431C23D10C232C
:104B80003360304603F0A2FDE3E723685B1B17D4D4
:104B90000B2B03D923601C44256004E06368A24208
:104BA0000CBF0B605360304603F090FD04F10B0026
:104BB000231D20F00700C21ACCD01B1AA350C9E74E
:104BC00022466468CCE7C41C24F00304A042E3D06E
:104BD000211A304600F0F2FF0130DDD1CFE700BFEF
:104BE000181400101C1400109368013B002B10B423
:104BF000936008DA9469A34201DB0A2903D15DF8C6
:104C0000044B02F03FB81368581C10601970084636
:104C10005DF8044B7047F8B506460F461446D518A4
:104C2000AC4201D1002007E03A4614F8011B30469F
:104C3000FFF7DAFF431CF3D1F8BDFFFF2DE9F04F7A
:104C40000D469DB014461E46074618B183690BB940
:104C500003F048F8854B9D421BD17D686B6ED907E8
:104C600005D4AB899A0502D4A86DFFF7D2FEAB89B3
:104C70001B0701D52B69EBB92946384602F054F8D9
:104C8000C0B16B6ED8070ED54FF0FF301DB0BDE838
:104C9000F08F774B9D4201D1BD68DFE7754B9D4298
:104CA00008BFFD68DAE7AB899905EDD4A86DFFF779
:104CB000B1FEE9E70023099320238DF82930DFF8BE
:104CC000B891039630238DF82A304FF0010A23461D
:104CD0001E4613F8012B0AB1252AF9D1B6EB040BB5
:104CE0000BD05B46224629463846FFF794FF013039
:104CF00000F0A380099B5B4409933378002B00F0FC
:104D00009C8000234FF0FF32CDE905230136049348
:104D100007938DF853301A933446052214F8011B7B
:104D2000554803F07DFC049BC0B9DA0644BF20223D
:104D30008DF85320180744BF2B228DF8532032786A
:104D40002A2A13D0079A344600200A26214611F851
:104D5000013B303B092B4BD970B914E0A0EB0900A3
:104D60000AFA00F0184304902646D5E7039A111D6D
:104D700012680391002A01DB079204E0524243F0DB
:104D800002030792049323782E2B0CD163782A2BED
:104D900033D1039B1A1D1B680392002BB8BF4FF041
:104DA000FF3302340593354E21780322304603F059
:104DB00037FC38B14023801B03FA00F0049B034307
:104DC0000134049314F8011B2D488DF82810062295
:104DD00003F026FC00283FD02A4B13BB039B07336C
:104DE00023F0070308330393099B434409936EE7B9
:104DF00006FB023201200C46A8E70023013405938C
:104E000019460A26204610F8012B303A092A03D900
:104E1000002BC8D00591C6E706FB012101230446FB
:104E2000F0E703AB00932A46174B04A9384600F07D
:104E3000BDF8B0F1FF3F8046D6D16B6ED90705D4DF
:104E4000AB899A0502D4A86DFFF7E4FDAB895B0638
:104E50003FF51AAF099819E703AB00932A460A4BAE
:104E600004A9384600F042FBE3E700BFA8BB0000FE
:104E7000C8BB000088BB0000E0BA0000E6BA000032
:104E8000EABA0000AD4F0000174C00002DE9FF47C3
:104E900055EC104B002D0E4691461946DDF830A01A
:104EA0004FF0000203DA05F100431D462D220D9F4D
:104EB0000A7027F02007462F04D0452F00D1013675
:104EC000022100E0032103AB019302AB00933246C1
:104ED000534645EC104B02F01FF8472F804602D195
:104EE00019F0010F22D0462F08EB060911D198F8CE
:104EF0000030302B0AD1002200232046294605F03D
:104F0000F1FA18B9C6F10106CAF80060DAF8003003
:104F10009944002200232046294605F0E3FA08B10F
:104F2000CDF80C903022039B4B4508D3039B0E9A7F
:104F3000A3EB08034046136004B0BDE8F087591C9A
:104F400003911A70EFE7F7B50029BABF49422D2344
:104F50002B2309290270437021DD0DF107031F4641
:104F60000A2691FBF6F206FB12143034632903F192
:104F7000FF3503F8014C0ADC303205F8012C023B06
:104F8000821CBB42144605D3201A03B0F0BD2B4649
:104F90001146E6E713F8011B02F8011BF1E7302385
:104FA00019448370041DC170EEE7FFFF2DE9F04F37
:104FB0008DB00C46DDF8588016461F46054603F0B6
:104FC000B3FA03680693184600F019FF00230A930A
:104FD000D8F800300790073323F0070303F10802E5
:104FE00094F818A0D4F800B0C8F80020D3E9002342
:104FF000C4E9122394ED127B8DED047BDDE904837B
:1050000023F000494FF0FF32A64B4046494605F0D9
:105010009BFA70BB4FF0FF32A24B4046494605F069
:1050200075FA30BB00220023DDE9040105F064FAC3
:1050300010B12D2384F843309B4A9C4BBAF1470FA3
:1050400094BF9046984603232BF00402236122600C
:105050004FF00009009733460BAA2146284600F07E
:10506000CFF9013040F08C804FF0FF300DB0BDE83B
:10507000F08FDDE904231046194605F065FA40B1CA
:10508000059B8B4A002BBCBF2D2384F84330894BF2
:10509000D4E763685A1C0AF0DF093ED10623636037
:1050A000002303930AAB4BF48062CDE901A309AB63
:1050B0000093616822600DF123039DED040B2846E7
:1050C000FFF7E4FEB9F1470F8046099908D1C81CE3
:1050D00002DB6368994241DDAAF1020A5FFA8AFAAB
:1050E000BAF1650F20D80139524604F150000991F8
:1050F000FFF729FF0A9A1318012A8146236102DC6F
:105100002268D20701D5013323619DF82330002B9B
:10511000A0D02D2384F843309CE7B9F1470FBFD1CD
:10512000002BBDD10123BAE7BAF1660F18D10029CF
:1051300063680BDD216113B92268D00702D5013302
:105140000B442361A1654FF00009DEE713B9226823
:10515000D20701D50233F4E70123F2E74FF0670AE3
:105160000A9B994205DB23682161D807EAD54B1CCD
:10517000E7E70029D4BFC1F1020201221344E0E7AE
:1051800023685A0507D42369424631462846B84762
:1051900001302BD168E7BAF1650F40F2DC800022C4
:1051A0000023D4E9120105F09DF9002833D0012332
:1051B000414A31462846B84701303FF455AFDDE952
:1051C00009239A4202DB2368D8070FD5DDE90623BD
:1051D00031462846B84701303FF446AF4FF000084B
:1051E00004F11A090A9B013B434509DC23689B072C
:1051F00000F10181E0680B9B9842B8BF184635E783
:1052000001234A4631462846B84701303FF42CAFC7
:1052100008F10108E6E7099B002B2BDC0123264A55
:1052200031462846B84701303FF41EAFDDE9092377
:10523000134302D12368D907D8D5DDE906233146C7
:105240002846B84701303FF40FAF4FF0000904F192
:105250001A0A099B5B424B4501DC0A9B94E7012338
:10526000524631462846B84701303FF4FDAE09F1B9
:105270000109EEE70A9AA36D9A42A8BF1A46002ACE
:10528000914607DD1346314642462846B84701306D
:105290003FF4EAAE04F11A034FF0000B29EAE97972
:1052A000049315E0FFFFEF7FF1BA0000F5BA0000AC
:1052B000F9BA0000FDBA0000B7B300000123049A58
:1052C00031462846B84701303FF4CEAE0BF1010B12
:1052D000D4F858A0AAEB09035B45EFDCDDE909230C
:1052E0009A421BDB2368DA0718D4DDE909239245CB
:1052F0001CDBA3EB0A09B9F1000F08DD4B4608EBF4
:105300000A0231462846B84701303FF4ADAE4FF0AF
:10531000000829EAE97904F11A0A14E0DDE9062314
:1053200031462846B8470130DFD19DE6A3EB02099C
:10533000E1E70123524631462846B84701303FF4A1
:1053400093AE08F10108DDE909239B1AA3EB0903D9
:105350004345EEDC4AE70A9A012A01DCDB0737D530
:105360000123424631462846B84701303FF47CAE1F
:10537000DDE9062331462846B84701303FF474AED4
:1053800000220023D4E9120105F0ACF8D8B90A9B39
:1053900008F10102013B31462846B84701300ED1E1
:1053A00062E60123524631462846B84701303FF4B1
:1053B0005BAE08F101080A9B013B4345F1DC4B461B
:1053C00004F15002E1E64FF0000804F11A0AF2E796
:1053D00001234246DFE701234A4631462846B847C3
:1053E00001303FF441AE08F10108E3680B9A9B1AC3
:1053F0004345F0DCFEE64FF0000804F11909F4E73C
:105400002DE9F04791461F468A680B69DDF8208038
:105410009342B8BF1346C9F8003091F843200646BE
:105420000C4612B10133C9F800302368990642BF17
:10543000D9F800300233C9F80030256815F00605A8
:1054400007D104F1190AE368D9F800209B1AAB428E
:1054500028DC94F843302268003318BF01239206F9
:105460002DD404F1430239463046C047013020D0E4
:105470002368E568D9F8002003F00603042B08BF71
:10548000AD1AA36822690CBF25EAE5750025934291
:10549000C4BF9B1AED184FF000091A344D451AD1BC
:1054A000002008E00123524639463046C04701300B
:1054B00003D14FF0FF30BDE8F0870135C3E7E118B5
:1054C0005A1C302081F84300224494F8451082F899
:1054D00043100233C5E70123224639463046C04710
:1054E0000130E6D009F10109D8E7FFFF2DE9F043CB
:1054F00006460C4601F14300097E85B06E299846A8
:1055000017460C9B00F0BA8024D8632939D00AD8FA
:10551000002900F0C380582900F0918004F1420571
:1055200084F8421035E0642901D06929F6D1256854
:105530001A6815F0800F02F104012CD0126819606E
:10554000002A03DA2D23524284F84330DFF8BCC12D
:105550000A233FE0732900F0A58008D86F2921D0E5
:105560007029DBD1226842F02002226003E0752915
:1055700018D07829D2D1782284F84520DFF890C15C
:1055800061E01A68111D1960136884F8423004F153
:105590004205012393E01268196015F0400F18BF0F
:1055A00012B2CDE7D4F800C01A681CF0800F02F1E7
:1055B00004051D6001D0126803E01CF0400FFAD012
:1055C0001288DFF848C16F290CBF08230A23002185
:1055D00084F843106568A560002DA2BF216821F002
:1055E000040121600AB9002D46D00546B2FBF3F153
:1055F00003FB112E93421CF80EE005F801ED39D99A
:10560000082B0BD12368DA0708D5236962689A4210
:10561000DEBF302305F8013C05F1FF35401B20615A
:10562000CDF800803B4603AA21463046FFF7E8FE4E
:10563000013049D14FF0FF3005B0BDE8F083DFF80D
:10564000CCC084F845101D68216855F8042B1D60F6
:105650000D060BD5CD0744BF41F0200121601AB9DA
:10566000236823F0200323601023B0E74B0648BFD4
:1056700092B2EFE70A46B9E70546C1E71A68D4F8DF
:1056800000C06169151D1D601CF0800F136801D0FA
:10569000196003E01CF0400FFAD019800023236149
:1056A0000546BDE71A68111D19601568626800217A
:1056B000284602F0B5FF08B1401B606063682361B3
:1056C000002384F84330ABE723692A463946304645
:1056D000C0470130AED023689B0713D4E068039B1A
:1056E0009842B8BF1846A7E701234A4639463046D4
:1056F000C04701309ED00135E368039A9B1AAB4244
:10570000F2DCEBE7002504F11909F5E701BB000025
:1057100012BB00002DE9F04F87B0174603938B684A
:105720005A1EB2F5AE7F83BF6FF4AE755B1902935C
:10573000002386BF40F25D138B6002930B688B469B
:10574000002543F4F0634BF81C3BCDE9045581463A
:105750000C465E46AA46A8460195A26882B13B68FF
:105760001B78492B75D04FD8392B41D8312B80F07D
:1057700087802D2B00F08F8017D82B2B00F08B808B
:10578000B8F1000F03D0236823F4807323600AF17B
:10579000FF3ABAF1010F00F2DD805E4500F2CF80E2
:1057A0000125284607B0BDE8F08F2E2B00F093802E
:1057B000302BE5D12168C80562D5029B21F080011C
:1057C000216008F101081BB1013B01320293A26084
:1057D000A368013BA3602369013323617B68013B1C
:1057E000002B7B6040F3A2803B6801333B60B4E751
:1057F000452B7AD0462B64D0412BC1D1BAF1010F91
:10580000BED14FF0020A43E0652B6ED01AD8542B5C
:105810005CD013D84E2BB3D1BAF1000F42D1B8F1FE
:10582000000F42D1226802F4E061B1F5E06F3CD193
:1058300022F4F06222604FF0010A29E0592B1BD0BC
:10584000612BDAE76E2BE7D012D8662B39D0692BA3
:1058500096D195BBB8F1000F95D1226802F4E061B2
:10586000B1F5E06F93D122F4F062226001250FE0E0
:10587000742B2BD0792B83D1072D81D1082507E0FC
:105880001AEB050F7FF47CAF226822F4C07222600D
:1058900006F8013B9CE7226810067FF571AF22F005
:1058A0008002F4E7BAF1020F3DD0012D02D0042DA1
:1058B0007FF466AF0135EDB2EAE7032DFAD0052D8E
:1058C000F6E7022D7FF45CAF0325E1E7062D7FF4B8
:1058D00057AF0725DCE7226891057FF551AF22F429
:1058E00020722260CDF80480D2E7226802F4A06121
:1058F000B1F5806F06D050057FF542AFB8F1000FCB
:105900003FF445AF910558BF019922F4F06258BFAA
:10591000A8EB010142F4C07258BFCDE90416226021
:105920004FF00008B4E74FF0030AB1E7D4F8803134
:1059300039464846984700283FF40FAF20E7D4F88F
:105940007C3116F8011D3A46484698472369013BC9
:10595000236122E76B1E062B25D8022D36D85E4523
:105960007FF61EAFD4F87C3116F8011D3A46484642
:1059700098472369013B2361F1E70298D4F87C3111
:1059800010F8011D02903A46484698472369013BAA
:1059900023610AF1FF3A5FFA8AFABAF1020FECD1F9
:1059A000033DEDB2761B2368DA052FD55B0510D5D4
:1059B0005E457FF6F5AED4F87C3116F8011D3A4607
:1059C000484698472369013B2361F1E7AA460296BE
:1059D000DFE716F8011C2369652903F1FF3306F19F
:1059E000FF3523610CD045290AD0D4F87C313A46E2
:1059F00048469847236916F8021C013BB51E2361EF
:105A0000D4F87C313A46484698472E46256815F02A
:105A1000100558D13570236803F4C063B3F5806F67
:105A20001CD1019B4345A3EB080224D10022594617
:105A3000484601F035F8039B21681B6811F0020FFE
:105A400057EC106B03F1040220D003990A601B6825
:105A5000C3E90067E3680133E360A2E6049B002B1F
:105A6000E4D005990A232A460131484601F096F808
:105A7000049B059EC21A04F26F139E4228BF04F5D0
:105A8000B7761249304600F071F9CFE711F0040FF4
:105A900003990A60DBD1D3F8008010EE102A3B4650
:105AA00010EE100A394604F04FFD28B1084800F006
:105AB00057F988ED000ACDE73046394604F0A2FDDB
:105AC000C8F80000C6E700256BE600BF23BB000056
:105AD0005FAB00000FB40A4B13B51C6824B1A36977
