:1000000000000110E500000075010000590100002A
:100010007501000075010000750100007501000008
:1000200075010000750100007501000059360000DF
:1000300075010000750100005D36000061360000AA
:10004000255E0000255E0000255E0000255E0000A4
:10005000255E0000255E0000255E0000255E000094
:10006000255E0000255E0000255E0000255E000084
:10007000255E0000255E0000255E0000255E000074
:10008000255E0000255E0000255E0000255E000064
:10009000255E0000255E0000255E0000255E000054
:1000A000255E0000255E0000255E0000255E000044
:1000B000255E0000255E0000255E0000255E000034
:1000C000255E0000255E0000255E0000255E000024
:1000D000255E0000255E0000255E0000255E000014
:1000E000255E000008B500F057F900F073F900F044
:1000F0007BF900F09BF800F095F802F03FFE02F06B
:100100006FFD00F0BFF840B141F28734002502F0E6
:1001100061FE8D4208BF8442F9D200F082F918B91D
:100120000849094807F0F6FC0649084807F0F2FCC0
:1001300002F0FCFF064B07481B68D96806F06EFC0E
:10014000FEE700BF70C800007CC80000A9C800001E
:10015000A0010010C1C800001EF0040F0CBFEFF397
:100160000880EFF309808169004A1047D10100003F
:100170007047FFFF38B50F4C0F4B10481D782368B0
:10018000D96806F04BFC23680D49D8682A4606F06A
:10019000CDFB0F2D236807D80A4A0B4952F82520BA
:1001A000D86806F0C3FBFEE7D968084806F036FCBD
:1001B000F9E700BFA001001004ED00E0FCC800005A
:1001C00016C9000008CA000050C900006EC900002E
:1001D00010B5044600F04AF8236883606368C36082
:1001E000A3680361E3684361236943626369013B78
:1001F000C361A3698361E3690362BFF34F8F05495C
:10020000054BCA6802F4E0621343CB60BFF34F8F23
:1002100000BFFDE700ED00E00400FA05004870476C
:1002200000D8B8050048704700D8B8050E4B072223
:10023000C3F88420AA210122C3F88020C3F88C10BF
:100240005521C3F88C10C3F8A821D3F88820520593
:10025000FBD51A6822F4704242F480421A6040F2E0
:100260000112C3F80421704700C00F400248034A3E
:10027000034BC0E90023704700000020EFBEADDE55
:100280001041522138B5224C224B22689A423DD16E
:100290006268214B9A4239D1204D21482B68D96898
:1002A00006F0BCFB2B68A2691E49D86806F03EFB2D
:1002B0002B68E2691C49D86806F038FB2B68226A73
:1002C0001A49D86806F032FB2B68A2681849D8682A
:1002D00006F02CFB2B68E2681649D86806F026FB6E
:1002E0002B6822691449D86806F020FB2B686269E4
:1002F0001249D86806F01AFB2B681148D96806F035
:100300008DFB01200023C4E9003338BD0020F9E74C
:1003100000000020EFBEADDE10415221A001001010
:1003200048CA00009BCA0000AACA0000B9CA00005F
:10033000C8CA0000D7CA0000E6CA0000F5CA00001B
:1003400004CB00000E4A136810B50E4C1918A142D8
:10035000116002D30C4CA1420BD313600B4A0C4921
:1003600013681844884208D30A49884205D21060AD
:1003700001E0002BF2D0184610BD0023FBE700BFC0
:100380000000001028000020008000200400001061
:100390006424001000000110094A0A4B0A498B42EC
:1003A00005D30A4B0A4A0021934205D3704712F83D
:1003B000010B03F8010BF2E703F8011BF4E700BFA0
:1003C0007CE30000000000107403001078030010AC
:1003D00064240010034AD2F8883043F47003C2F852
:1003E0008830704700ED00E0044800232021C21847
:1003F0000133292B82F80013F9D1704700E100E0A6
:1004000008B52A2219233821022005F01BFB0D22F2
:100410003821022005F0D2FAA0F12A0358425841AF
:1004200008BDFFF7EDBF42884378007843EA022316
:1004300040EA032070470B0A017043700B0C090E51
:100440008370C170704710B5024410F8013B11F879
:10045000014B9042A3EB040301D0002BF5D01846CA
:1004600010BDC3690239023B8B4283BF4389006BD5
:1004700001FB030000207047024600F10B01002041
:10048000C30143EA500312F8010B50FA83F38A4286
:10049000D8B2F5D1704702684AB1134613F8011B70
:1004A0001F290BD93A29F9D1911C8B4202D04FF068
:1004B000FF3070471278302AF9D10360002070476E
:1004C00001380A4411F8013B00F8013F9142F9D18B
:1004D0007047CA7E8B7E032843EA022301BF487D12
:1004E0000A7D42EA002243EA024318467047C2F3FB
:1004F00007238A76CB760378032B01BF120C0A758B
:10050000120A4A75704770B500F13806426B04460E
:1005100001233146407801F074FC054688B9616BCF
:10052000A36A226AE070CB1A934208D2A378022B06
:1005300005D10A4401233146607801F062FC284667
:1005400070BD0125FBE738B5436B8B4204460D4671
:1005500019D0C3788BB901232A4604F13801607899
:1005600001F03BFC002818BF4FF0FF3503466563E0
:100570000CBF03460123184638BDFFF7C4FF0346EE
:100580000028F8D1E7E70023F5E7FFFF38B500239F
:10059000C3704FF0FF3343630546FFF7D4FF0446B3
:1005A00018BB95F8372295F8363243EA02234AF60B
:1005B000552293421BD195F83830EB2B03D01833DA
:1005C000DBB2012B15D803220B4905F16E00FFF7B2
:1005D0003AFF40B10522094905F18A00FFF733FFD0
:1005E000002818BF0224204638BD0424FBE703245A
:1005F000F9E70224F7E700BF65CC000069CC0000F2
:100600002DE9F043002385B00B600F461546FFF738
:1006100042FF061EC0F23981A44B53F82640002C3D
:1006200000F03581206901F03CFB002800F03181A9
:100630003C60237805F0FE056BB1607801F0C8FBE3
:10064000C10708D41DB110F0040500D00A252846C2
:1006500005B0BDE8F0830023F0B22370607001F0B4
:10066000A9FBC20700F117810DB14307EED40021A9
:100670002046FFF78BFF022840F0EE806F4604F51E
:10068000FF7104F23E263D4611F8040C10B10846F5
:10069000FFF7C9FE10318E4245F8040BF4D1002556
:1006A00057F8046B002E00F0CE8031462046FFF74D
:1006B0006DFF012800F2C88094F8442094F843307C
:1006C00043EA0223B3F5007F40F0CA8094F84F302C
:1006D00094F84E5055EA032504D104F15C00FFF76D
:1006E000A2FE054694F8481025624B1E012BA1700E
:1006F00000F2B68094F845901FFA89F36381002BCD
:1007000000F0AE8009F1FF3313EA090F40F0A88032
:1007100094F84A3094F8497047EA03273FB21FFA29
:1007200087F818F00F0FA4F8088040F0998094F82B
:100730004C3094F84B0050EA032003D104F15800E8
:10074000FFF771FE94F8472094F8463053EA0223ED
:1007500000F0868005FB01FC03EB18126244904216
:100760007ED3801A4845B0FBF9F179D350488142D5
:1007700076D84FF6F570814240F28F804FF0030932
:10078000023133443244B9F1030FE1616662A3627E
:10079000226369D194F8632094F8623043EA02231B
:1007A0001F433FB2002F5BD104F16400FFF73BFE13
:1007B000E062890001F2FF11B5EB512F50D34FF0E9
:1007C000FF33C4E90533B9F1030F4FF08003237100
:1007D0002FD194F8692094F8683043EA0223012B62
:1007E00027D1711C2046FFF7AEFE10BB94F83722CC
:1007F00094F83632207143EA02234AF65522934296
:1008000017D104F13800FFF70EFE2A4B984210D1A1
:1008100004F50770FFF707FE274B984209D104F54E
:100820000870FFF700FEA06104F50970FFF7FBFDFB
:100830006061224A84F80090138801339BB21380D0
:10084000E380002503E703200135042D7FF428AF62
:10085000042805D10125FAE60428FBD0012801D996
:100860000D25F4E6002627E7B8F1000FF8D0634421
:10087000B9F1020FE3624FEA41031BBF5B1801F0BD
:100880000101194601EB530194E70B25DFE60C2526
:10089000DDE60F25DBE60325D9E640F6F579494587
:1008A0008CBF4FF002094FF0010969E7780300108F
:1008B000F5FFFF0F52526141727241617C030010DB
:1008C00001292DE9F04705460C46174672D9C36940
:1008D0008B426FD90378022B3FD0032B50D0012BD2
:1008E00068D101EB5108816A01EB5821FFF72BFE1B
:1008F000064638BB05F1380908F1010AC8F30808B3
:1009000014F001041FBF19F8083003F00F023B0177
:1009100003F0F00314BF1343FBB209F80830A96ACF
:100920000123EB7001EB5A212846FFF70CFE064627
:1009300040B9CAF3080A44B1C7F3071709F80A70A7
:100940000123EB703046BDE8F08719F80A30C7F391
:10095000032723F00F031F43F0E7816A01EB142103
:10096000FFF7F1FD06460028ECD1640005F13803DD
:1009700004F4FF741A191F55C7F307275770DFE7F0
:10098000816A01EBD411FFF7DEFD06460028D9D1BC
:10099000A40005F1380304F4FE741C442046FFF75C
:1009A00042FD27F0704700F0704139432046FFF7C1
:1009B00042FDC5E70226C5E70129F8B505460C4604
:1009C00052D9C36999424FD20378022B29D0032B05
:1009D00038D0012B48D101EB5106816A01EB562139
:1009E000FFF7B1FD10B14FF0FF30F8BD771CA96AD9
:1009F000C6F308062E4401EB5721284696F83860C6
:100A0000FFF7A1FD0028EED1C7F308073D44E30737
:100A100095F8380046EA00204CBF0009C0F30B00EF
:100A2000E3E7816A01EB1421FFF78DFD0028DAD19D
:100A30006400383504F4FF742B19285D5B7840EAB4
:100A40000320D2E7816A01EBD411FFF77CFD002877
:100A5000C9D1A40005F1380004F4FE742044FFF766
:100A6000E2FC20F07040C0E70120BEE7B1F5001FB6
:100A7000F8B506460D4601D30220F8BDCA06FBD1E3
:100A8000826804683161CAB92378022B01D9E36A0C
:100A90009BB92389B3EB551FEED9E36AB361B36900
:100AA0007261002BE8D003EB55233834C5F30805F9
:100AB0002C44B361F4610020DFE71A4667897F02A6
:100AC000BD42114604D22046FFF7CBFCB061E6E7F9
:100AD0003068FFF771FF431C024606D00128CBD9CE
:100AE000E3698342C8D9ED1BEAE70120C5E72DE998
:100AF000F041804605680F4649B96E69C6B1EB6999
:100B0000B34298BF0126AB69A3B9002406E028468A
:100B1000FFF752FF0128044603D801242046BDE810
:100B2000F081421C51D0EB698342F7D83E46EAE798
:100B30000126E8E7BE4215D1EB69D8F80000741C25
:100B4000A34298BF02242146FFF736FF0128E4D0D4
:100B5000431C3AD0D8B16B69012B03D9EA6993429F
:100B600038BF1E463446EB690134A34202D8012E39
:100B7000CBD902242146D8F80000FFF71DFF40B171
:100B80000128CAD0013020D0B442ECD1BDE7002CFE
:100B9000E8D04FF0FF3221462846FFF791FE90B98A
:100BA00057B9D5E90632023A93426C6110D92B79D4
:100BB00043F001032B71B1E7224639462846FFF77F
:100BC0007FFE0028EDD00128A7D14FF0FF34A5E724
:100BD000013BAB61EBE7F8B50D46012D0746114629
:100BE00004682BD9E369AB4228D92AB14FF0FF3210
:100BF0002046FFF765FE30B929463868FFF7DCFE6E
:100C0000064608B90020F8BD012817D0431C17D0AC
:100C1000002229462046FFF753FE0028F3D1D4E9ED
:100C20000632911E8B4205D20133A361237943F032
:100C300001032371B2423546DED8E3E70220E2E742
:100C40000120E0E740B1A1F10B03012B04D90F29EA
:100C500002D0006901F02EB8704738B50D46044641
:100C6000F0B10368DBB11A78B2B18188DA889142B9
:100C700012D1186901F015F8034698B12368587825
:100C800001F0A6F810F0010002D124682C6038BDF4
:100C900000212068FFF7D6FF09200024F6E71C4654
:100CA0000920F3E70F201C46F0E72DE9F047002666
:100CB000D0F800A08E75836980460C46002B00F0AA
:100CC0009080C36A01336BD1D8F81C1000224D1EEE
:100CD00010462E2615F8013F202B00F101000CD004
:100CE000052B08BFE523092804D10B2A9EBFA718AE
:100CF00001327E72A71801327B720B28EAD1A31849
:100D000000205872A37D002B5AD1002A4FD004F145
:100D1000090010F8012B002A4CD092B2A2F1410533
:100D2000192D07D8082B0E7B8CBF102508252E42C5
:100D300018BF203202730133EBE7B9F1000F05D180
:100D400000F520539BB2B3F5006F12D340F2B511FA
:100D500040EA094000F0B4FFFF28C7F1800518D928
:100D6000012D20D9E319020A9A75D87502231F4470
:100D7000002002368146DAF80C30985B0028DCD17E
:100D80003D46B9F1000F18BF002525440023AB757F
:100D90009AE750B1002DF4D0E31998750123E6E7E6
:100DA000B1463746E7E70025EBE70546E9E73F238D
:100DB000A3750123234400229A750B7B03B9637248
:100DC000CB7A237201F11C00FFF72DFB2060CA7D56
:100DD0008B7D43EA0223E3804A7E0B7E43EA0223B3
:100DE000A380BDE8F087F8B5C37804460D46C3B9C3
:100DF00029462046FFF735FB04F1380607466063B5
:100E000004F50E723346002103F8011B9342FBD117
:100E1000002563899D420AD36089401B18BF0120C9
:100E2000F8BDFFF770FB0028E2D00120F8E70123AE
:100E30007A193146607800F0E4FF0028ECD10135E2
:100E4000E7E72DE9F843076905682037B7F5001F84
:100E500024BF0023836183690446894673B1C7F3C5
:100E60000808B8F1000F39D141690133836139B9FC
:100E70002B89B3EB571F31D80023A36104200BE06B
:100E80006B89013B13EA572328D12846FFF794FDCD
:100E90000128064602D80220BDE8F883421C01D191
:100EA0000120F9E7EB69834212D8B9F1000FE3D0D2
:100EB00061692046FFF71BFE0646A8B10128EAD06B
:100EC000431CEDD001462846FFF78DFF0028E7D1EF
:100ED000666131462846FFF7C4FAA06138354544BB
:100EE0002761E5610020D7E70720D5E72DE9F04F1E
:100EF000002185B00446D0F80080FFF7B7FD814699
:100F0000002840F08C804FF0FF334FF0FF0AE3627F
:100F100057460093A1694046FFF715FB814600281C
:100F20007DD1E5692E78002E7DD0EA7AE52E02F09B
:100F30003F03A37103D0100704D50F2B04D0009BEF
:100F4000E36252E00F2B57D194F82B30590642D46C
:100F5000720648D5236995F80DA0E36206F0BF0636
:100F60006B7B534541D1EA7EAB7E53EA02233CD1F1
:100F70002F78D8F80CB007F03F077B1E0D275F4392
:100F80002A4B012113F8012BA81815F8029040787C
:100F900049EA002959B37F2F039326D8484600F029
:100FA000C3FE7A1C02903BF81700019200F0BCFED1
:100FB0000299814219D1019A039B494617461C4A5E
:100FC0009A42DFD12B785B0603D511B13BF817307D
:100FD0005BB9013EF7B200212046FFF732FF8146A0
:100FE000002897D01BE0B742BAD0FF27F3E74FF6AF
:100FF000FF729145E3D0F8E727B92846FFF73CFA9E
:1010000050450CD094F82B9019F0010997D10B2280
:1010100004F120012846FFF716FA00288FD1484630
:1010200005B0BDE8F08F4FF00409F8E758CC000098
:1010300065CC00002DE9F84FFF26076805463446C9
:101040004FF004094FF6FF78A96919B9B9F1000FFB
:101050006FD05FE03846FFF776FA8146002859D115
:10106000E8690378002B6DD0C27AE52B02F03F02CD
:10107000AA7154D02E2B52D022F0200108294ED034
:101080000F2A51D15A0648D503F0BF042B69467B7D
:10109000EB62437BB34242D1C27E837E43EA0223AA
:1010A0001BB2002B3BD10278F968DFF8A0E022F0F8
:1010B0004002013A4FF00D0C0CFB02FC4FF001090D
:1010C0001EF801AB00EB0A0292F801B010F80A20FA
:1010D00042EA0B22B9F1000F23D0BCF17F0F1ED8DA
:1010E00021F81C2091460CF1010C01330D2BE7D1A6
:1010F00003785B0605D5BCF17F0F10D8002321F8DB
:101100001C30013CE4B200212846FFF79AFE8146DC
:10111000002899D00023AB610DE0A342B9D0FF2491
:10112000F1E74245E1D0FAE744B9FFF7A5F9B0424B
:1011300004D14FF000094846BDE8F88F4FF0FF3367
:10114000EB62F8E74FF00409E4E700BF58CC000079
:101150002DE9F04F85B00368019306468A4611F8E1
:10116000013B2F2BFAD05C2BF8D00021B1609AF80C
:1011700000301F2B00F2CD808023304686F82B30C4
:1011800005B0BDE8F04FFFF771BC7F2807D8924A41
:1011900012F8013B1BB19842FAD106204EE0802D97
:1011A000FBD02BF815000135B7E033F8022D202ACB
:1011B00002D02E2A40F0D480013DCEE00246D7E096
:1011C000C84505D2AB4249D1B9F10B0F3ED102E07F
:1011D000B9F10B0F35D144F003044FF00B0996F829
:1011E0002030E52B04BF052386F82030B9F1080F25
:1011F00004BFBF00FFB207F00C030C2B03D007F0B5
:101200000303032B01D144F00204A50707D4F80718
:1012100048BF44F01004790748BF44F0080486F83A
:101220002B403046FFF762FE96F82B3000285FD047
:10123000042803D113F0040F08BF052005B0BDE852
:10124000F08FAB4202D044F00304C8D8BF00FFB215
:101250002B464FF00B094FF00808B9E07F2812D950
:1012600044F0020240F2B5110393029200F028FD0F
:1012700010F0800FDDE902230FD000F07F00574906
:10128000085C144628B1564911F8012BF2B182428C
:10129000FAD144F003045F2011E0FF28F1D909F1ED
:1012A000FF31884503D344F00304C84690E006EBC1
:1012B0000801040A81F8204008F10108144606EBF1
:1012C000080208F1010882F8200081E0A0F1410243
:1012D00092B2192A02D847F00207F0E7A0F16102A2
:1012E00092B2192A9EBF203847F0010780B2E6E784
:1012F0005A07A3D4B379DB066CD5019B03F13801FF
:101300003369C3F308031944019B1878FFF7E1F828
:10131000B0603368D3F80CB000251AF8010B68B13F
:1013200040F2B51100F0ECFC00283FF436AF1F2866
:1013300004D92F2802D05C287FF427AF52461378B7
:101340002F2B924602F10102F9D05C2BF7D0202816
:1013500034BF042400240BEB4503002D7FF425AF9C
:1013600000220BEB45032BF81520002D3FF415AFA1
:101370003BF81210202902F101003FF41FAF0AB917
:101380002E2901D144F0030433F8021D2E2901D087
:10139000013DF9D106F1200306F12B01202003F8CD
:1013A000010B9942FBD14FF000084FF00809474666
:1013B0003BF81200531C00283FF411AF202805D041
:1013C0002E287FF4FDAEAB423FF4FEAE44F00304A2
:1013D0001A46EDE7052031E76FCC0000D8CB0000BE
:1013E00078CC000070B5C3780446002B45D1237833
:1013F000032B39D12379012B36D104F1380604F5BA
:101400000E723346002503F8015B9342FBD155234E
:1014100084F83632AA2384F83732522341227221CB
:1014200084F8383084F83930612384F83A3084F80D
:101430003B2084F81E2284F81F3284F81C1284F8A2
:101440001D1204F50870A169FEF7F5FF616904F546
:101450000970FEF7F0FF626A60780132626301236F
:10146000314600F0CEFC257100221146607800F074
:10147000DCFC003018BF012003E0FFF744F800282F
:10148000B5D070BD2DE9F04F90F82B4014F0A004BA
:1014900089B0054640F08F800668F26832F8143053
:1014A000002B66D105F120070C22394605A8FFF76D
:1014B00007F89DF81F30DB0740F186804023DFF8F6
:1014C000448285F82B304FF0010A0B2205A93846DB
:1014D000D6F80C90FEF7F4FFBAF1050F5AD9A9F12E
:1014E0000201534631F8022F002A44D10DF11300B6
:1014F000072203F00F0C0CF13001392988BF0CF1E1
:1015000037010F2B00F8011902F1FF324FEA1311D6
:1015100042D808AB13447E2103F8141C05F11F01C7
:1015200008460023934206D010F801CFBCF1200FEB
:1015300003F1010E32D1072A9CBF08A8801803F1DD
:10154000010396BF10F8140C20200132072BC85459
:10155000F1D92846FFF7CAFC814678BB0AF1010A97
:10156000BAF1640FB1D14FF00709484609B0BDE8A0
:10157000F08F013492E7102002F0010C0CEB4303D2
:1015800013F4803F18BF83EA080301384FEA520280
:10159000F2D1A7E75346A9E70B46AAE77346C1E78E
:1015A000804601212846FFF74CFC814610B3B9F173
:1015B000040FD8D0D9E74FF00609D6E70428D4D1D4
:1015C0009DF81F3085F82B309DF81F30D5F800A00E
:1015D0009B0748BF0C344FF00001284649BF0D233C
:1015E0000124B4FBF3F40134FFF740FA81460028EC
:1015F000DDD18046A9695046FEF7A5FF8146002847
:10160000D5D1EB691B78E52B01D0002BC8D108F1AF
:1016100001084445C5D1013C55D029692846A1EBB4
:101620004411FFF723FA814600289ED13846FEF781
:1016300023FF4FF6FF780190A9693046FEF783FF3C
:101640008146002891D1EB69019AD6F80CE05A73D3
:10165000E1B24FF00F024FF00D0CDA72DFF8A8A0E4
:1016600018734A1E0CFB02F29876D87684464045E1
:101670001AF8019B18BF3EF8120003F8090003EBAB
:10168000090B0CF1010C18BF01324FEA1029002898
:1016900008BF4046BCF10D0F8BF80190E7D14045E3
:1016A00002D03EF812200AB941F04001197001231E
:1016B000F37000212846FFF7C4FB814600287FF421
:1016C00054AF013CB8D1A9693046FEF73CFF8146D2
:1016D00000287FF44AAFEB69014603F1200203F8CA
:1016E000011B9342FBD10B223946E869FEF7E8FE65
:1016F00095F82B30EA6903F0180313730123F37094
:1017000033E700BF2110010058CC0000F0B585B0D0
:10171000CDE9001003A814460391FEF7BCFE051E98
:1017200028DB154F57F825604EB1306900F0B4FA48
:1017300018B90224204605B0F0BD0023337001998A
:1017400079B9019B47F82530002CF3D001A900227C
:101750006846FEF755FF044601460198FFF772FA06
:10176000E8E7002301F8103BE8B200F08BFA00280C
:10177000E7D1DEE70B24DDE7780300102DE9F04127
:10178000D0B0174601910446002800F0DB8002F03B
:101790003F052A4602A901A8FEF732FF06460028A7
:1017A0004BD1029B019903930FAADA6003A8FFF7BC
:1017B000CFFC20B99DF93730002BB8BF062017F0B9
:1017C0001C0F00F09F80002842D0042835D103A8C8
:1017D000FFF758FE88BB45F00805029BDDF828801E
:1017E00018784146FEF775FE074600F030FB0146CB
:1017F00008F10E00FEF71FFE0A9B02982022DA7203
:101800000A990022FEF773FE0A9B00221A775A7784
:101810009A77DA77029B0121D97017B3394603A86A
:10182000D3F83480FFF7D7F938B941460298FEF76C
:101830008AFE029B013F5F6198B100232360064648
:1018400031460298FFF7FEF9304650B0BDE8F0810E
:101850009DF8123013F0110F5ED178076CD4390760
:10186000BBD4DDF808800A9FD8F834302362676261
:1018700098F800002907394648BF45F04005FEF7B3
:1018800028FEA06007F11C00FEF7CDFDB8F8063079
:10189000A38004F128070023E060C4F800802574C9
:1018A0006374E361636104F50A713A4602F8013B2F
:1018B0009142FBD1AA06C3D5E568002DC0D0B8F887
:1018C0000A80A16865614FEA4828A84526D3002010
:1018D000A1610028B1D1C5F30803002BB0D0DDF819
:1018E00008804046FEF7BDFD50B300EB5522E26193
:1018F0000123394698F8010000F06FFA00289FD0C4
:1019000001209AE7002898D19DF81230DA0615D404
:10191000BF07A6D5D807A4D507208EE72068FFF714
:101920004BF801280146A5EB080503D9431CCCD18F
:101930000120CDE70220CBE708207EE704207CE7EA
:1019400002207AE709267FE72DE9F04F9B4685B014
:1019500000238946CBF8003003A904461646FFF75A
:101960007CF9054608B9657C25B129460398FFF73F
:1019700069F908E0257C15F0010508D107210398D5
:10198000FFF760F90725284605B0BDE8F08FE3684A
:101990006769DF1BB74204F1280328BF374600936D
:1019A0002FB939460398FFF74DF93D46EBE76269D9
:1019B000C2F30803002B76D1039B5B89013B13EA3A
:1019C000522313D12AB9A068012809D802256574C9
:1019D000CBE7A16920680193FEF7EEFF019BF3E7D7
:1019E000421C02D101216174C0E7A061DDF80CA0A6
:1019F000A16901935046FEF734FD019B20B90225F1
:101A0000657429465046B2E7B7F5007F03EB00083E
:101A10002BD37E0ABAF80A209AF80100991991424C
:101A200088BFD61A33464246494600F0D6F9002808
:101A3000D8D194F91030002B0BDAE069A0EB080044
:101A4000B04206D24FF40072009909EB4020FEF735
:101A500037FD7602DBF800303344CBF800306369A1
:101A6000BF1BB1441E4466619AE7E269424518D043
:101A700094F91030002B0BDA012300999AF8010039
:101A800000F0BFF90028ADD1237C03F07F0323745D
:101A90000398009940780123424600F09EF90028FF
:101AA000A0D1C4F81C806169009BC1F30801C1F595
:101AB0000076BE4228BF3E46324619444846FEF7ED
:101AC000FFFCC7E7F7B501A90446FFF7C6F80546CE
:101AD000002843D1237C13F040053FD01B0614D5CA
:101AE0000198E2694078012304F1280100F089F9A6
:101AF00038B101210198FFF7A5F80125284603B068
:101B0000F0BD237C03F07F03237400F0A0F9216A69
:101B100007460198FEF717FD0546F8B9666AF37A9D
:101B200043F02003F372A26820683146FEF7DFFC21
:101B3000E16806F11C00FEF77EFC394606F116004E
:101B4000FEF779FC0198B5740123F574C370FFF7B3
:101B500049FC237C23F04003054623742946019861
:101B6000FFF770F8CAE737B50546FFF7ABFF044645
:101B700050B901A92846FFF770F8044620B928603B
:101B800001460198FFF75EF8204603B030BD30B53E
:101B9000C5B005460191002833D0002202A901A852
:101BA000FEF72EFD044690B9029B2B6003AADA6073
:101BB00001992846FFF7CCFA044620BB95F92B3053
:101BC000029C002B0BDBAB79DB0603D4052400233E
:101BD0002B600FE02078E969FEF77BFCA860E388C2
:101BE000AB8000212846FEF741FF04280446EDD0D3
:101BF0000028ECD121460298FFF724F8204645B092
:101C000030BD0924FAE70428E0D0E0E737B501A9A0
:101C10000546FFF722F8044620B9286001460198DE
:101C2000FFF710F8204603B030BDF0B5C3B00E4644
:101C300069460546FFF711F8044628B95EB9014622
:101C40002846FEF713FF044600982146FEF7FAFFE8
:101C5000204643B0F0BD009B01AADA602846FFF79A
:101C6000E9F910F0FB070446EED131462846FFF7AC
:101C70001CF839462846FFF7E4F8042814BF044648
:101C80000024E1E710B501200C4602F0F0F82060D6
:101C9000003018BF012010BD08B502F057FB01202D
:101CA00008BD08B540F6B83102F042FA431E58426A
:101CB000584108BD00231A46194602F015B8FFFF27
:101CC0007F2810B501D880B210BDB0F5803F13D287
:101CD00040F2B51399420FD10849002231F8024B66
:101CE000844293B203D103F18000C0B2ECE7013229
:101CF000802AF3D11346F6E70020E5E72ECF000057
:101D00007F280DD940F2B513994208D1FF2806D893
:101D100000F10040034B803833F81000704700207A
:101D2000704700BF2ECF0000B0F5803FF0B521D244
:101D30001E4A1F4983B2B0F5805F28BF0A46141DB2
:101D400034F8042C2146A2B1934212D334F8025C39
:101D50002E0AEDB2AF18B84222DA082E09D8DFE811
:101D600006F0050A10121416181A1C00801A34F80E
:101D700010301846F0BD981A00F001001B1A9BB2F3
:101D8000F7E7103BFBE7203BF9E7303BF7E71A3B6F
:101D9000F5E70833F3E7503BF1E7A3F5E353EEE74C
:101DA0000434002ECCD101EB4502C8E780CC000002
:101DB00072CE000010B5044600F0A2FF34B900F066
:101DC0000FF9044600F0B6FF204610BD0424F9E7E1
:101DD00008B900F0A3B904207047F8B507460C46CF
:101DE00015461E4600F08CFF4FB92046F2B2294638
:101DF00000F09CF9044600F09DFF2046F8BD042445
:101E0000F9E7F8B507460C4615461E4600F078FF80
:101E10004FB92046F2B2294600F0CEF9044600F050
:101E200089FF2046F8BD0424F9E770B506460C4644
:101E3000154600F065FF46B92046294600F010FA25
:101E4000044600F077FF204670BD0424F9E7002027
:101E5000704738B500F0BEFF00F5FA75FF2004F0BA
:101E600047FAFF2004F044FAFF28044603D000F0AC
:101E7000B1FF8542F5D8204638BDFFFF08B503F015
:101E80009BFAFFF7E6FF03F09FFA034A137843F04B
:101E90000103137008BD00BF0800001038B50546E7
:101EA0000C46FFF7D6FFFF2821D1204604F020FA88
:101EB000FD2C1ED0AC1C05F2022514F8020C04F017
:101EC00017FA023414F8030C04F012FAAC42F4D1FD
:101ED000FF2004F00DFAFF2004F00AFAFF2004F0BE
:101EE00007FA00F01F00431F5842584138BD002038
:101EF000FCE70120FAE737B5020604460D4607D590
:101F000000217720FFF7F7FF012831D804F07F0484
:101F100003F05AFA03F050FAFFF79BFFFF282BD18A
:101F2000402C27D0482C0CBF872301232A0E8DF884
:101F300001202A0C8DF8022006212A0A68468DF815
:101F400000408DF803208DF804508DF8053004F022
:101F5000D9F94C2C02D1FF2004F0CAF90A24FF2041
:101F600004F0C6F9030603D5013C14F0FF04F6D1D2
:101F700003B030BD9523D9E7FF20F9E770B50546DA
:101F800000F028FF00F16406FF2004F0B1F90446D8
:101F900000F020FF864201D3FF2CF5D0FE2C0CD19F
:101FA0004FF40071284604F0B0F9FF2004F0A0F9C6
:101FB000FF2004F09DF9012070BD0020FCE7FFFF29
:101FC00038B5064D2C78E4B203F006FA18B104F0E7
:101FD000FD042C7038BD44F00304FAE7080000103B
:101FE0002DE9F341FFF7ECFF4A4B1A7812F0020F8C
:101FF0001E4604D01878C0B202B0BDE8F081C820F7
:1020000004F03EF90A25FF20013D04F071F915F0B6
:10201000FF05F8D103F0D0F929464020FFF76BFF08
:102020000128044671D100F0D5FE4FF4D57100F5BA
:102030007A774820FFF75FFF012848D101ADA84615
:102040000424FF2004F054F9013C14F0FF0408F8C4
:10205000010BF6D19DF80630012B56D19DF80730C3
:10206000AA2B52D100F0B6FE874206D94FF080412C
:10207000E920FFF740FF0028F4D100F0ABFE8742D3
:1020800043D900217A20FFF736FF00283DD10424F0
:10209000FF2004F02DF9013C14F0FF0405F8010BBA
:1020A000F6D19DF8043013F0400F14BF0C24042423
:1020B000194B1C7003F088F94CB3337845F6C050C7
:1020C00003F0FE03337004F0DBF8307893E7294621
:1020D000E920FFF710FF022836BFE9254125022439
:1020E00000F078FE874205D900212846FFF703FF5C
:1020F0000028F5D100F06EFE874206D84FF400713B
:102100005020FFF7F8FE0028D2D00024D0E7FFF7D8
:10211000B5FEDAE7080000107E03001008B5FFF7EF
:102120004FFF014B187808BD0800001070B5144629
:1021300005460E46FFF744FF002C35D01C4B1B789C
:10214000DA0733D403F038F91A4B1B781B0758BF52
:102150007602012C314611D15120FFF7CCFE38B95F
:102160004FF400712846FFF709FFB0FA80F46409C4
:1021700003F02AF9201C18BF012070BD5220FFF780
:10218000BAFE0028F4D14FF400712846FFF7F6FE9E
:1021900028B1013C14F0FF0405F50075F3D10021CE
:1021A0004C20FFF7A8FEE3E70420E6E70320E4E77E
:1021B000080000107E03001070B5144605460E4658
:1021C000FFF7FEFE002C41D0234B1A78D0073FD4F6
:1021D0001B7859073ED403F0EFF8204B1B781A0701
:1021E00058BF7602012C11D131465820FFF783FEEB
:1021F00050BBFE212846FFF751FEB0FA80F4640977
:1022000003F0E2F8201C18BF012070BD13F0060F88
:1022100003D02146D720FFF76EFE31465920FFF745
:102220006AFE0028ECD1FC212846FFF737FE28B1D2
:10223000013C14F0FF0405F50075F4D1FD210020E8
:10224000FFF72CFE0028DBD10124D9E70420DCE7CE
:102250000320DAE70220D8E7080000107E03001010
:102260007FB506460D46FFF7ABFE052E15D12C783F
:10227000012C10D02CB1022C0AD00424204604B02A
:1022800070BD03F0A9F80028F8D0FFF7F7FDF5E7D7
:1022900003F0A2F868700024F0E76F4B1C7814F08C
:1022A000010440F0D7800E2E00F2D280DFE806F065
:1022B00008134E52D0D0D0D0D0D09DA1B0B3C4001E
:1022C00003F07AF8FFF7C5FDB0F1FF0418BF012451
:1022D00003F07AF8D2E700214920FFF70CFE04460C
:1022E00008B10124F4E710216846FFF747FE0028F3
:1022F000F7D09DF800309DF808109B09012B9DF840
:10230000093006D15A1C02EB012292B292022A60D5
:10231000DEE79DF807209DF80A00920002EB91127B
:102320009DF80610890201F4406101320A449DF8CB
:1023300005105B0001F00F0101EBD01103F0060363
:102340000B44073B02FA03F32B60C1E74FF4007321
:102350002B80BDE7414E317811F004011CD00021E3
:10236000CD20FFF7C8FD0028BBD1FF2003F0C0FF40
:1023700010216846FFF702FE0028B2D03024FF206B
:10238000013C03F0B5FF14F0FF04F8D19DF80A30CA
:102390001A0910239340D7E74920FFF7ACFD044604
:1023A00000289ED110216846FFF7E8FD002898D04C
:1023B00032789DF80A309DF80B1092070AD55B0021
:1023C0009DF80D2003F07E0303EBD1139209013336
:1023D000013ADFE7CA0002F01802C3F3840302EBFC
:1023E0005112013302FB0333AEE71C4B1B782B70F9
:1023F0006EE700214920FFF77EFD00287FF471AFD2
:1024000010212846FFF7BAFDB0FA80F464095FE7AF
:1024100000214A20EFE700217A20FFF76CFD0446F7
:1024200000287FF45EAF2E1DFF2003F061FF05F84A
:10243000010BAE42F8D14BE70021CD20FFF75BFD49
:1024400000287FF44EAFFF2003F052FF4021D8E771
:1024500004243DE7032411E7080000107E03001068
:1024600008B5064605F019FD00240546A54200DC26
:10247000FEE7315D002004F033F80134F6E7FFFF9A
:1024800002280CD9074B1B685A68824207D09A6809
:10249000824204D0DB681B1A584258417047012021
:1024A000704700BFA0010010F8B504460E4615465F
:1024B000FFF7E6FF48B3164B1B68DB68A34210D05A
:1024C000A31E5C425C4102F08FFD0746002003F032
:1024D000C5FF022F17D1B0B1ACB9A54203DC284625
:1024E000F8BD0124EFE7315D4FF0FF32002004F02A
:1024F00059F80134F1E7315D002003F0F1FF0134B8
:10250000A542F8DCEBE70024FAE70248FFF7A8FF52
:10251000A001001060D0000008B5FFF7B1FF18B1AE
:10252000002004F015F808BD0148FFF799FF00BF2F
:102530002ED000002DE9F84F064614468846104676
:102540001B49DFF87C90DFF87CA0DFF87CB000F05E
:10255000F4FEB36821464046984735680DB9BDE89A
:10256000F88F6F68384605F098FC32288CBF5146CA
:1025700049463B462A68204600F0DFFE5946204681
:1025800001F006F80B490746204601F001F807B9AB
:1025900018B10949204600F03AFF0849204600F0EA
:1025A00036FFB368214640469847ED68D6E700BF3E
:1025B00093D00000DAD00000B1D20000D9D00000E2
:1025C000EFD00000DCD00000FBD0000030B50429C3
:1025D0004FF0000538BF04210560C0E90112C36057
:1025E00030BD11B10368CB60016070472DE9F04147
:1025F000144605460F461046424901F00DF842497F
:10260000204600F04AFF002833D03F49204600F022
:1026100026FF28B1224639462846FFF78BFF68E09F
:102620002021204600F0C2FFDFF8F0802E680EB9AE
:102630002E6810E042463168204600F045FF002831
:1026400038D1F668F3E76A683168204600F011FF78
:1026500000282FD1F668002EF5D131462B4A2046AE
:1026600000F0ABFEAB68214638469847AB68254979
:102670003DE02E68DFF8A4800EB92E680EE04246D9
:102680003168204600F020FFB8B9F668F4E76A68C0
:102690003168204600F0EDFE78B9F668002EF6D1DC
:1026A00031461B4A204600F088FEAB68214638467A
:1026B0009847AFE7AB687168D6E72021204600F065
:1026C00075FFB368AA6821463846984788B1114A11
:1026D0000021204600F071FEAB682146384698473D
:1026E0000D497268204600F028FEAB682146384646
:1026F0009847E96821B1AB683846BDE8F041184712
:10270000BDE8F081D9D00000FDD0000030D100003C
:1027100059D1000002D1000013D1000030E10000C7
:1027200010B54C1E14F8010F00B910BD05F00AFADF
:10273000F8E7FFFF70B5A0B006461B4A8021684647
:1027400000F030FE0446304622460021FFF74EFFDF
:10275000204600F0E1FD204600F0D8FE0028F2D12E
:1027600004F064F9C5B2082D16D1204600F0BFFD73
:1027700060B10121204600F0FAFE284605F0E2F99A
:10278000202005F0DFF9284605F0DCF9204600F0AE
:10279000B4FD0028DFD0D6E7284605F0D3F9294656
:1027A000204600F050FEF1E7FDD0000030B589B0C2
:1027B00004AD2846164B174A174C0421FFF706FFB5
:1027C00095E80F0084E80F0020461449FFF709FF41
:1027D00020461349FFF705FF20461249FFF701FF86
:1027E00020461149FFF7FDFE20461049FFF7F9FE8C
:1027F0000F4B02930F4B0193032300934FF400728E
:1028000023460D490D4801F043FF09B030BD00BF1C
:102810008AD1000021270000800300103C00001036
:102820001C0000100C0000104C0000102C000010C8
:10283000900B001090030010DDD100003527000040
:102840002DE9F043E7B00DF198084FF4807281460E
:102850000E464046002104F037F9802106A800F01A
:1028600023FD05AF01233B6005460024009704AB20
:1028700003AA20494846CDE9034400F06BFD012836
:1028800031D93B6800939DF810209DF80C10434609
:10289000022003F069F88146E8B1039A1649DFF88F
:1028A0006490284600F049FD29462046B0473B6821
:1028B000A34202D867B0BDE8F083049A18F8043048
:1028C000009322444946284600F037FD294600205F
:1028D000B0470134EBE70949284600F04CFD294692
:1028E0004846B047E6E70649284600F044FD294639
:1028F0002046F6E741D300004ED300007FD300000E
:10290000ACD3000068D300002DE9F043E7B0002409
:102910000DF198084FF4807281460F4640462146DB
:10292000CDE9034404F0D0F8802106A800F0BCFCF7
:1029300004AB064603AA2949484600F00BFD0228CD
:1029400044D12021484600F031FE2021484600F0C5
:102950002DFE059405A9484600F036FE0546D0B97F
:10296000009443469DF810209DF80C10022003F0BF
:1029700035F8814610B3039B1949DFF87090224661
:10298000304600F0DAFC31462846B847AC4207D161
:1029900067B0BDE8F083059B08F804300134D9E73F
:1029A000049A18F8053000932A444946304600F04E
:1029B000C4FC31460020B8470135E7E709493046F5
:1029C00000F0D9FC31464846B847E1E706493046B1
:1029D00000F0D1FC31462046F6E700BFECD3000002
:1029E000F6D300002DD400005BD4000016D4000004
:1029F000F8B50D4628460E49164600F04EFD0D4925
:102A00000446284600F049FD20210746284600F0EC
:102A1000CDFD2CB131462846FFF712FF0020F8BD4E
:102A200027B131462846FFF76FFFF7E70120F6E7A9
:102A300036D300003BD300000123024A1A60002075
:102A4000704700BFEFBEADDE2DE9F04F89B00846FC
:102A500004AF0D46914600F05DFC041E04DD02F05B
:102A6000D7FB204602F03AF8DAB00024FC6000F010
:102A700007FC0DF1100B786007F10C020A21584693
:102A800002F066FA224A38602249284600F055FCD6
:102A900029462046C847A0465E464FF0000A20E07F
:102AA000736943451AD1B269FB68144423B16421A8
:102AB000B3FBF1F3B2FBF3F3317BCDE90232338C9C
:102AC0009B00CDE90083144B726853F82130134901
:102AD000284600F032FC29460020C8470AF1010AC6
:102AE00024363B685345DBD108F10108B8F10A0FE1
:102AF000D2D17B680A491A1B284600F01EFC2946E1
:102B00000020C84700201437BD46BDE8F08F00BF45
:102B100005D500000AD5000084D5000035D5000099
:102B200052D5000038B50C4620461649154600F02F
:102B3000B4FCA0B12021204600F038FD204601F071
:102B4000F1FF40B90021104A204600F036FC214632
:102B50000020A84701E002F081F8002038BD0B49B1
:102B6000204600F09AFC58B12021204600F01EFDBE
:102B7000204601F0D7FF0028E4D001F023FEECE767
:102B80000349E6E7ADD40000B5D40000D6D4000078
:102B9000DDD40000F8B504460D4600F005F906192D
:102BA00041EB050702F020FA02280CD100234FF474
:102BB0007A72AB4208BFA24205D22046294603F0F2
:102BC0002FFD01F08BFF00F0EFF8B94208BFB042D3
:102BD000F9D3F8BD4FF47A73A0FB0301FFF7DABF16
:102BE00030B585B002F066FB02F000FC8DF80C00F9
:102BF00002F002FC8DF80D0002F004FC8DF80E00CE
:102C000002F006FC00248DF80F0004AA04F0030370
:102C10001344013413F8040C02F0C6FC3220FFF711
:102C2000D9FF202CF1D1284B186800231946022225
:102C3000406805F021F8FDF7F5FA002501464FF44C
:102C40001642002003F0C6FB0095204B204A0121CC
:102C5000204600F0D9FF1F4B009504461E4A012173
:102C6000802000F0D1FF22460146284603F000FCF8
:102C700045F6C05003F01AFB012218491848FEF728
:102C800045FD184A184B1949A84208BF1346184A6F
:102C90001848194D04F03EFFFDF7C4FA17490246E3
:102CA000022002F009FE0224E1B2022002F0BEFE80
:102CB00018B12146284604F02DFF0234B4F5807F78
:102CC000F2D105B030BD00BFA00100100C0C001007
:102CD000EC0B0010140F0010940E0010DBD000005D
:102CE0005C0C0010A9D50000C7D50000EED500008F
:102CF00098D500003FD600005FD60000801A06007D
:102D000010B50A4C236823B90949012001F09AF84B
:102D1000206002F069F9022806D120684FF0FF31E7
:102D2000BDE8104001F004BA10BD00BF640F0010F0
:102D3000680F001010B502F057F9022808D10548B5
:102D400000231A4619460068BDE8104000F0CCBFC9
:102D500010BD00BF640F0010074A08B513680021BA
:102D600001330846136002F0C9FC00210846BDE8A3
:102D7000084002F0AFBC00BFB80F001008B5074A0A
:102D80000749B0FBF1F10020013902F06DFC002190
:102D9000044A0846BDE8084002F08ABC592D0000EC
:102DA00040420F000087930370B5084E002002F0E8
:102DB0009DFC05460020346802F098FC8542F5D859
:102DC000034B0021E3FB040170BD00BFB80F0010EE
:102DD0000087930308B5FFF7E7FF4FF47A720023EB
:102DE00003F01EFC08BD70B5054608460C4605F00C
:102DF00054F82618B44205D128460A21BDE870408F
:102E000003F06EBB14F8011B284603F069FBF1E7E1
:102E100070B5A0B080220021684603F055FE0B4E2D
:102E200030684FF0FF32694601F0E4F80028F7D02F
:102E30006D46002403F0DCF80028FBD015F8010BE8
:102E4000013403F079F9802CF4D1E9E7BC0F0010CC
:102E500010B5094A094C12682378D1682BB108488B
:102E600003F0DCFD0023237010BD0123237005480F
:102E7000BDE8104003F0D2BDA0010010C00F00104B
:102E800011D7000025D7000010B502F0E5FE01289B
:102E90004FF00001094C09D1084602F06FFF23688A
:102EA0000748D968BDE8104003F0B8BD012002F022
:102EB00065FF23680348D968F4E700BFA00100104C
:102EC000C7D60000CED6000070B5ADF52C7D044607
:102ED0008022002102A803F0F7FD0122214622A84A
:102EE000FEF74CFC10BB01AB802202A922A8FEF722
:102EF0002BFD124C124D019A2AB922A8FEF733FE7F
:102F00000DF52C7D70BD237803F0FF06002BF3D167
:102F100001AB02A9802222A8FEF716FD33464FF02E
:102F2000FF3202A9286800F0DFFEE4E7054B0649FE
:102F30001B682246D86803F0F9FCE1E7C00F0010D7
:102F4000BC0F0010A0010010F6D6000000B589B03B
:102F500020220021684603F0B7FD0A4E0A4D0B4CB3
:102F600030684FF0FF32694601F044F80028F7D08E
:102F70002B686A462146D86803F0D8FC6846FFF7FC
:102F8000A3FFEDE740240010A0010010E4D60000EC
:102F900038B50C4620460C49154600F07EFA80B143
:102FA0002021204600F002FB084800231A46214653
:102FB000006800F099FE10B9054804F045FE0020B5
:102FC00038BD0449A847FAE78ED600004024001017
:102FD00093D60000B3D600002DE9F04102F03CFE8C
:102FE0000D4D0E4C78B903F0EFF82B680646D96802
:102FF0000B4803F013FD0023314620681A46BDE854
:10300000F04100F047BF002003F0DEF82B680646D1
:10301000D9680448EDE700BFA0010010402400106B
:1030200038D7000046D7000008B5FFF7D5FF044B9E
:1030300004481B68D968BDE8084003F0EFBC00BF36
:10304000A00100105BD7000070B503F07FF80B4DB6
:10305000002403F0B3F8A04200D870BD204603F06E
:10306000B3F800210646204602F088FE304602F002
:1030700061FE284602F05EFE0134EAE730E100001E
:10308000084A08B5136823F0804313600021064AFC
:103090001E2002F099FA054A05492620BDE808409D
:1030A00002F0FEBE00800920892E000086D60000B6
:1030B0003D560000084A08B5136823F0005313601A
:1030C0000021064A1D2002F07FFA054A0549262004
:1030D000BDE8084002F0E4BE00800920512E000047
:1030E0008AD600003D560000002208B5192110467E
:1030F00002F0A9F9084B187002F0DEF9074A002126
:10310000192002F061FA064A0649262002F0C8FE9C
:10311000054B40225A6008BD3C24001029300000B5
:1031200054D700003D56000000E100E013B5254BE8
:1031300040225A60FFF7A4FFFFF7BCFFFFF7D4FF60
:1031400002F0A0FF204B1868002319460222806875
:1031500004F092FD00228021022000F09FFD1B4B15
:10316000002218608021012000F098FD184B0322F6
:1031700018600021012000F091FD164B16491860DF
:10318000164B0193032300934FF40072002314485D
:1031900001F0B4FA002402234FF4005211491248FE
:1031A000CDE90034234601F0A9FAFFF7FFFA02F057
:1031B000FBFD02F0F6FDFFF747FF01F045FB20465F
:1031C00002B010BD00E100E0A0010010BC0F001033
:1031D0004024001038240010D6D6000034240010FB
:1031E0004D2F0000DDD60000112E00000C460020FF
:1031F000044908B5FFF7F7FD21460020FFF7F3FD6E
:10320000FEE700BF99D8000008B502490020FFF78B
:10321000EAFDFEE75FD80000024B0022C3F8C020A1
:1032200030BF704700C00F4008B50C4600200A4967
:10323000FFF7D9FD09490020FFF7D5FD0849002017
:10324000FFF7D1FD07490020FFF7CDFD2146002003
:10325000FFF7C9FDFEE700BF67D70000B9D7000040
:10326000FCD7000030D80000034B0360034B0B6019
:1032700064231360704700BF60110010D00F00106E
:1032800008B5FFF791FD024B1B68C01A08BD00BFCF
:10329000C80F001008B5FFF787FD024BC3E9000116
:1032A00008BD00BFC80F001038B50D46044658B120
:1032B00003290BD90A46002103F006FC23462A0AFB
:1032C00003F8022B65701C46204638BD0024FBE73E
:1032D00010F8023C10F8010C40EA0320033880B2D9
:1032E000704708B5FFF7F4FF013080B208BD08B59C
:1032F00010B104F0D2FD80B208BD10B50446FFF74E
:10330000F6FF02462046FFF7E3FF824234BF00206B
:10331000012010BD03F006BB00230370704710B5F9
:103320000446FFF7DEFF13460A460146204605F035
:10333000B9FC20EAE07080B210BD0EB403B503AA58
:1033400052F8041B0192FFF7EAFF02B05DF804EBAC
:1033500003B070470EB403B503AA52F8041B0192E0
:1033600005F0D2FC0028CCBF80B2002002B05DF88E
:1033700004EB03B0704738B505460C46084671B1FA
:1033800004F08BFD01462846FFF7A2FF89B2814277
:10339000024605D82146284604F0BCFD012038BD70
:1033A0000020FCE738B51546FFF77EFF044610B154
:1033B0002946FFF7E0FF204638BD2DE9F0410546DC
:1033C0000F4614460AB3FFF792FFB84206461CD3D5
:1033D000204604F062FD32188046284692B2FFF77C
:1033E00077FF824211D8C7F101023D44324492B2C4
:1033F000294605EB080003F04DFB424621462846CE
:1034000004F088FD0120BDE8F0810020FBE770B5E5
:1034100006460C46A9B1FFF76AFF0546204604F0B0
:103420003CFD82B2A918304689B2FFF751FF8842AD
:1034300007D3013292B22146701903F01DFB01201F
:1034400070BD0020FCE707B500238DF8041001A92A
:103450008DF80530FFF7DBFF03B05DF804FB08B51E
:1034600029B104F0F1FCB0FA80F0400908BD08462B
:10347000FCE770B5064615460C4661B1FFF737FF0D
:10348000A84208D32A462146304604F031FDB0FA5E
:1034900080F0400970BD0020FCE770B505460C4681
:1034A00081B1FFF724FF0646204604F0F6FC864271
:1034B000024607D32146284604F0F8FCB0FA80F013
:1034C000400970BD0020FCE72DE9F0410746144695
:1034D0000D46C9B1C2B1FFF70AFF8046284604F085
:1034E000DCFC804506460FD302462946384604F0E8
:1034F000FFFC48B9B85D237883421ABFB0FA80F068
:1035000040090120BDE8F0810020FBE710B504462A
:10351000FFF7EDFE40B1013880B2205C0D2804D0E9
:10352000A0F10A035842584110BD0120FCE770B5D4
:103530000C4605461646FFF7DAFEA04211D9011BDC
:10354000B142C4F101030A461844A8BF3246801AAA
:1035500014FA82F1294482B2281903F09BFA01205F
:1035600070BD0020FCE70A460021FFF7E0BF38B538
:103570000C460546FFF7BBFEA04224BF001B81B2EC
:103580002246284638BF0021BDE83840FFF7CFBFAC
:1035900010B5044604F0D1FC031E1FBF1B1B9BB2D9
:1035A000002201200CBF0020E25410BD10B50446DB
:1035B00004F066FC38B1011B0131204689B2BDE838
:1035C0001040FFF7D0BF10BD70B506460546114844
:1035D0000C462B4613F8011BC9B10A5C520714D5DF
:1035E00024B1284603F09EF920600124094A2946A7
:1035F00015F8013B13B19B5C5B07F8D4891B89B2BA
:103600003046FFF7B0FF204670BD1D46E1E70C468F
:10361000ECE700BF25E00000F8B506460C46C9B14E
:10362000FFF765FE0546204604F037FC6B1E334469
:103630002044013E0021B34202D02246824201D101
:10364000012008E012F8015B1F78AF42F6D103F8C1
:103650000119F0E70846F8BD00F05AB800F0A0B82C
:1036600000F0D0B808480068006880F308884FF080
:10367000000080F3148862B661B6BFF34F8FBFF3CA
:103680006F8F00DF00BF000008ED00E0DFF80C00E6
:10369000016841F4700101607047000088ED00E0AE
:1036A00007B5002301930B4B1B68013304D00A4973
:1036B000EF20FFF7B9FDFEE74FF0180383F3118801
:1036C000BFF36F8FBFF34F8F019B002BFCD003B074
:1036D0005DF804FBC4110010B6D800004FF08073F1
:1036E00040F8043C074B40F80C3C21F001016FF01E
:1036F000020340F8081C40F8202C40F8243C4438D1
:10370000704700BFA1360000FFFFFFFFFFFFFFFF74
:10371000074B19680868B0E8F04F80F30988BFF3D9
:103720006F8F4FF0000080F311887047AFF3008077
:10373000C811001008B54FF0180383F31188BFF3C8
:103740006F8FBFF34F8F094A13680133012B13604A
:103750000AD1074B1B6813F0FF0F05D0054940F253
:10376000AB10FFF761FDFEE708BD00BFC4110010FC
:1037700004ED00E0D0D80000074A08B513682BB963
:1037800006494FF4D970FFF74FFDFEE7013B136088
:103790000BB983F3118808BDC411001005D90000CE
:1037A000EFF30980BFF36F8F154B1A681EF0100FEF
:1037B00008BF20ED108A20E9F04F10602DE90900C4
:1037C0004FF0180080F31188BFF34F8FBFF36F8F56
:1037D00001F0E6F94FF0000080F3118809BC196888
:1037E0000868B0E8F04F1EF0100F08BFB0EC108A68
:1037F00080F30988BFF36F8F704700BFAFF300807D
:10380000C811001008B54FF0180383F31188BFF3F7
:103810006F8FBFF34F8F01F059F818B1034B4FF082
:1038200080521A60002383F3118808BD04ED00E084
:1038300010B5084A084C002323601360FCF7EEFC27
:103840004FF47A73B0FBF3F0044B01381860072390
:10385000236010BD18E000E010E000E014E000E09C
:10386000334B344A13B51968914205D132494FF4AC
:103870009A70FFF7D9FCFEE71A68304B9A4205D1DF
:103880002F4940F23510FFF7CFFCFEE72D4B1A7899
:10389000D2B20192FF221A701B782B4ADBB28DF84C
:1038A00003309DF8033003F018031370274A0723F1
:1038B000136000219DF80300000603F1FF3409D4D2
:1038C00011B1022B13600ED0214940F25D10FFF7B9
:1038D000ABFCFEE79DF803305B00DBB28DF80330F4
:1038E00001212346E6E74FF400731360019B154A5C
:1038F000DBB21370174B1A6842F478021A601A6828
:1039000042F078421A60FFF793FF134B00241C60CB
:10391000FFF7BCFE114A136843F040431360FFF702
:10392000A1FE01F03DF9FFF7BBFE204602B010BD3D
:1039300000ED00E071C20F4183D9000070C20F4159
:10394000A6D9000000E400E0BC110010C011001076
:10395000C9D9000020ED00E0C411001034EF00E0F0
:1039600008B5EFF305830F2B0BD90D4A9B5C0D4A6D
:1039700012789A4205D90C4940F2FE20FFF754FC18
:10398000FEE70A4B0A4A1B68126803F4E06393429D
:1039900005D9084940F20E30FFF746FCFEE708BDA6
:1039A000F0E300E0BC11001017D900000CED00E0BE
:1039B000C011001041D9000010B5044600F07EFF90
:1039C000204603F049F8044601F012F80CB9FFF75D
:1039D0001BFC204610BD10B5044640B100F06EFF40
:1039E000204603F041F8BDE8104001F001B810BDD9
:1039F00000F108034FF0FF324360C0E90223036186
:103A000000230360704700230361704743684B60E5
:103A10009A688A609A685160996003680861013306
:103A2000036070470A68531C30B50AD103695A68AD
:103A30004A6091608B6059600368086101330360DC
:103A400030BD00F108035C6825689542EFD8234635
:103A5000F9E7D0E9011203698A605160596881422F
:103A600008BF5A60002202611A68013A1A60186899
:103A7000704710B50446FFF75DFEA46BFFF77CFEB0
:103A8000B4FA84F0400910BDF8B51546026C866B97
:103A9000044652B9076847BB806801F007FBA7607E
:103AA00005460136A6632846F8BD65B9406802F0B0
:103AB000E3FF6368226C1344A26863609342F0D30F
:103AC00023686360EDE7C06802F0D6FF236CE2680C
:103AD00021685B421A448A42E2603EBFA2689B189A
:103AE000E360022D01D116B1013E0025D9E735462C
:103AF000D7E7034610B41A6C084662B1D9689C68CF
:103B00001144A142D96024BF1968D960D9685DF811
:103B1000044B02F0B1BF5DF8044B704770B504462A
:103B2000FFF708FE94F8455004F124066DB2002D0D
:103B300014DCFF2384F84530FFF71EFEFFF7FAFD83
:103B400094F8445004F110066DB2002D12DCFF23EE
:103B500084F84430BDE87040FFF70EBE636A002B66
:103B6000E7D0304601F0FCF808B101F07FF9013DE3
:103B70006DB2DCE72369002BE9D0304601F0F0F8A4
:103B800008B101F073F9013D6DB2DEE738B50D46BD
:103B9000044628B91A4940F20310FFF745FBFEE737
:103BA000FFF7C8FDD4E90F30226862604343D118A3
:103BB0001B1A1344A160E3600021FF23A16384F872
:103BC000443084F8453095B9236963B104F110009D
:103BD00001F0C6F838B10B4B4FF080521A60BFF3BA
:103BE0004F8FBFF36F8FFFF7C7FD012038BD04F182
:103BF0001000FFF7FDFE04F12400FFF7F9FEF2E7E5
:103C0000CFDA000004ED00E013B51C4628B91E49C8
:103C10004FF49D70FFF708FBFEE72BB91B494FF4EB
:103C20009F70FFF701FBFEE732B161B918494FF40D
:103C3000A170FFF7F9FAFEE729B1164940F24310E7
:103C4000FFF7F2FAFEE750230193019B502B05D0BA
:103C5000114940F24B10FFF7E7FAFEE7002908BFD1
:103C60002246019B22600123C4E90F0184F84630FB
:103C700019462046FFF78AFF9DF8103084F84C3033
:103C8000204602B010BD00BF0CDA00002EDA0000A2
:103C900044DA00007CDA0000B4DA0000F8B50D4622
:103CA0001746064628B90F494FF4BB70FFF7BCFA18
:103CB000FEE748435030FFF77FFE044670B1002313
:103CC00080F8463065B100F150032360C4E90F6508
:103CD00001212046FFF75AFF84F84C702046F8BDBA
:103CE0000346F2E70CDA00002DE9FF47884601920F
:103CF0001F46044628B94E4940F2F120FFF794FAD6
:103D0000FEE739B9036C2BB14A4940F2F220FFF7C4
:103D10008BFAFEE7022F08D1E36B012B05D0464951
:103D200040F2F320FFF780FAFEE701F05DF9064666
:103D300038B9019B33B1414940F2F620FFF774FADC
:103D4000FEE700264FF00009DFF8F4A037E0019D00
:103D50001DB9FFF711FD002050E016B902A801F0CF
:103D60003FF8FFF709FD00F0A9FDFFF7E3FC94F829
:103D70004430FF2B08BF84F8449094F84530FF2B63
:103D800008BF84F84590FFF7F7FC01A902A801F0ED
:103D900033F8002846D1FFF7CDFCA26BE36B9A42C3
:103DA0002FD1FFF7E9FC019904F1100000F0C0FFEA
:103DB0002046FFF7B3FE00F01BFE50B30126FFF7CD
:103DC000B9FCA26BE36B9A4201D3022FBFD13A46F2
:103DD00041462046FFF758FE636A1BB104F12400F8
:103DE00000F0BEFF38B1164B4FF080521A60BFF39F
:103DF0004F8FBFF36F8FFFF7BFFC012004B0BDE80A
:103E0000F087FFF7B9FC2046FFF788FE00F0F0FDD1
:103E1000D4E74FF08053CAF80030BFF34F8FBFF3A1
:103E20006F8FCBE72046FFF779FE00F0E1FD92E7C8
:103E3000CFDA0000D7DA000027DB00006EDB0000DD
:103E400004ED00E013B5002200900B46012011465E
:103E5000FFF7DAFE044638B1002383600360C360D5
:103E60001A461946FFF740FF204602B010BD10B5B4
:103E7000024600210120FFF711FF044638B100235C
:103E800083600360C3601A461946FFF72DFF204682
:103E900010BDFFFF2DE9F843894690461F460446B2
:103EA00028B9284940F2C330FFF7BEF9FEE739B917
:103EB000036C2BB124494FF47170FFF7B5F9FEE79D
:103EC000022F08D1E36B012B05D0204940F2C53009
:103ED000FFF7AAF9FEE7FFF743FDEFF311864FF076
:103EE000180383F31188BFF36F8FBFF34F8FA26B5B
:103EF000E36B9A4201D3022F22D194F845503A46FF
:103F00006DB249462046FFF7BFFD6B1C13D1636AB3
:103F10000BB901200BE004F1240000F021FF002880
:103F2000F7D0B8F1000FF4D00120C8F8000086F3F4
:103F30001188BDE8F88301356DB284F84550E8E793
:103F40000020F4E7CFDA0000D7DA000027DB00001A
:103F500070B50D46044628B923494FF48C60FFF72D
:103F600063F9FEE7036C2BB1204940F26440FFF790
:103F70005BF9FEE703683BB983682BB11C4940F24B
:103F80006940FFF751F9FEE7FFF7EAFCEFF311860E
:103F90004FF0180383F31188BFF36F8FBFF34F8F78
:103FA000A26BE36B93421CD994F8453001325BB2AB
:103FB000A2635A1C10D1636A0BB9012009E004F115
:103FC000240000F0CDFE0028F7D0002DF5D0012010
:103FD000286086F3118870BD01335BB284F84530E8
:103FE000EBE70020F5E700BFCFDA0000C4DB0000FC
:103FF000DDDB00002DE9F04385B00F460192044659
:1040000028B947494FF4A060FFF70EF9FEE739B928
:10401000036C2BB1434940F20450FFF705F9FEE76A
:1040200000F0E2FF064638B9019B33B13E4940F249
:104030000950FFF7F9F8FEE700264FF00008DFF817
:10404000EC903BE0019D1DB9FFF796FB002052E08C
:1040500016B902A800F0C4FEFFF78EFB00F02EFC9C
:10406000FFF768FB94F84430FF2B08BF84F84480C6
:1040700094F84530FF2B08BF84F84580FFF77CFBA0
:1040800001A902A800F0B8FE00283DD12046FFF7A4
:10409000F0FC98B3019904F1240000F049FE204699
:1040A000FFF73CFD00F0A4FC38B94FF08053C9F88D
:1040B0000030BFF34F8FBFF36F8F0126FFF73AFB3E
:1040C000A56B002DBED039462046013DFFF711FDFE
:1040D000A563236963B104F1100000F041FE38B11B
:1040E000124B4FF080521A60BFF34F8FBFF36F8FA8
:1040F000FFF742FB012005B0BDE8F0832046FFF743
:104100000DFD00F075FCD8E72046FFF707FD00F035
:104110006FFC2046FFF7ADFC0028CED096E700BF2D
:1041200044DC000050DC00006EDB000004ED00E029
:104130002DE9FF410446019128B9584940F29150B8
:10414000FFF772F8FEE7056C2DB1554940F2955026
:10415000FFF76AF8FEE700F047FF064638B9019B13
:1041600053B1504940F29A50FFF75EF8FEE72E46F1
:104170000027DFF838814EE00546F9E7019B4BB98F
:104180002DB1494940F2E150FFF74EF8FEE7FFF745
:10419000F3FA5EE016B902A800F022FEFFF7ECFA8F
:1041A00000F08CFBFFF7C6FA94F84430FF2B08BFF1
:1041B00084F8447094F84530FF2B08BF84F84570AC
:1041C000FFF7DAFA01A902A800F016FE00284AD18A
:1041D0002046FFF74EFC00283FD023683BB9FFF78D
:1041E000A9FAA06800F010FF0546FFF7C5FA01998B
:1041F00004F1240000F09CFD2046FFF78FFC00F046
:10420000F7FB38B94FF08053C8F80030BFF34F8F39
:10421000BFF36F8F0126FFF78DFAA36B002BADD094
:10422000013BA363236813B900F0E6FFA060236994
:1042300063B104F1100000F093FD38B11B4B4FF057
:1042400080521A60BFF34F8FBFF36F8FFFF794FA5E
:104250000125284604B0BDE8F0812046FFF75EFC4A
:1042600000F0C6FBD6E72046FFF758FC00F0C0FB85
:104270002046FFF7FEFB0028CCD0002DE9D0FFF749
:1042800059FA616A19B1236B1968C1F10A01A06872
:1042900000F05AFF0025FFF76FFADAE744DC000070
:1042A000C4DB00006EDB0000EEDC000004ED00E08B
:1042B0002DE9F84389469046054628B9214940F240
:1042C000FB60FEF7B1FFFEE739B9036C2BB11E4965
:1042D00040F2FC60FEF7A8FFFEE7FFF741FBEFF3BB
:1042E00011874FF0180383F31188BFF36F8FBFF36B
:1042F0004F8FAC6B1CB395F84460494676B22846A4
:10430000FFF7F7FB013C731CAC6313D12B690BB9AE
:1043100001200BE005F1100000F022FD0028F7D08D
:10432000B8F1000FF4D00120C8F8000087F311881D
:10433000BDE8F883013676B285F84460E8E72046A8
:10434000F4E700BFCFDA0000A3DC000008B528B90D
:10435000064940F2B770FEF767FFFEE790F8463077
:104360001BB9BDE80840FFF736BB08BDCFDA000037
:104370000268F0B503461AB342685068586003F10A
:104380000802904204BFD86858605868C7685868E7
:1043900040685860824204BF506858605868C068DE
:1043A0004D1E00F1340400F1400C14F801EB15F837
:1043B000016F764502D126B16445F6D18742E6D138
:1043C0000020F0BD43685B68436000F1080293423F
:1043D00004BFC3684360436830B5DC6800255B6890
:1043E0009A4208BF5368D9688C420D65F7D1436083
:1043F00030BDFFFF2DE9F0410446FFF79BF92D4B3F
:104400002D4D1A682D4F01321A602E68002E46D1AC
:104410002C601B68012B1CD1B84640460136FFF7C3
:10442000E7FA0A2E08F11408F7D1DFF8B880244E15
:104430004046FFF7DDFA3046FFF7DAFA2148FFF78A
:10444000D7FA2148FFF7D4FA204BC3F80080204B5D
:104450001E60204A20491368086801331360E26A2D
:10446000236401239340034314200B6000FB02707C
:10447000211DFFF7CBFAFFF77FF9184B1B6863B1DB
:104480002B68DA6AE36A9A4207D2154B4FF08052E2
:104490001A60BFF34F8FBFF36F8FBDE8F0810F4BF2
:1044A0001B68002BD5D12B68DA6AE36A9A4298BF61
:1044B0002C60CEE7A0120010C8110010D41100101B
:1044C000C8120010E812001000130010CC110010E8
:1044D000D0110010AC120010B0120010FC1200102D
:1044E00004ED00E0B412001008B5074C074D4FF082
:1044F00080562368012B04D92E60BFF34F8FBFF382
:104500006F8FFEF789FEF4E7D411001004ED00E090
:10451000064A13681968064B19B94FF0FF321A6042
:1045200070471268D268D2685268F8E7CC11001060
:10453000E012001008B528B9094940F20E70FEF7E4
:1045400073FEFEE74269074B9A4207D1806A064B29
:10455000984203D0B0FA80F0400908BD0020FCE783
:1045600014DD000000130010E81200102DE9F047E0
:10457000DDE909644FEA82094A4607460D46206B89
:10458000A521984602F0A0FA236BA9F104099944E9
:1045900029F007099DB36B1E04F134020B3513F8A3
:1045A000011F02F8011B09B1AB42F8D1002384F8C6
:1045B0003F30089D092D28BF09254FF0000AE5620C
:1045C000A564201DC4F84CA0FFF71DFAC5F10A052B
:1045D00004F11800FFF717FAC4F854A02461A5618C
:1045E0006462C4F850A084F858A042463946484650
:1045F000FFF774F8206006B13460BDE8F08784F8F6
:104600003450D6E7F8B51B4B1B4E1C680546306886
:1046100004300F46FFF71DFA334640B93168174E94
:10462000C96A32680120884022EA000232606A1CAE
:1046300007D137B1196812480431BDE8F840FFF7D7
:10464000E5B91A686419546007D30E4A10681968EE
:10465000BDE8F8400431FFF7E5B90B4A1068196866
:104660000431FFF7DFF9094B1A68A24288BF1C60CA
:10467000F8BD00BF14130010C8110010B0120010D4
:1046800000130010D0110010CC110010E012001027
:1046900070B586B0DDE90B542DB9154940F24D20B7
:1046A000FEF7C2FDFEE72CB9124940F24E20FEF79C
:1046B000BBFDFEE75C260596059E5C2E05D00E49E7
:1046C00040F25620FEF7B0FDFEE72563022584F890
:1046D000595004AD01950A9D02940095059EFFF77F
:1046E00045FF2046FFF786FE049806B070BD00BF68
:1046F000F3DD00000ADE00001FDE00002DE9F043BC
:10470000074685B09000884616469946FFF754F94B
:104710000546E8B15C20FFF74FF90446A8B1002335
:1047200080F859300D9B056301930C9B0290009318
:1047300032464B4641463846FFF718FF2046FFF702
:1047400059FE012005B0BDE8F0832846FFF743F984
:104750004FF0FF30F6E7FFFFF8B5044628B91449DB
:104760004FF4AD60FEF760FDFEE7124B1B6883421D
:1047700018D0FEF7DFFF104B65691F680F4B1E68EE
:10478000FEF7FAFFBD4211D0B5420FD00C4B9D424F
:104790000AD1A36A53B994F85830012B0CBF0220F8
:1047A0000320F8BD0020FCE70120FAE70220F8E72B
:1047B0000EDD0000C8110010CC110010D011001047
:1047C0000013001070B5044628B91A494FF4E76089
:1047D000FEF72AFDFEE7184D2B68834228D0FEF72E
:1047E000A9FF2046FFF7A6FEF0B1261D3046FFF7D1
:1047F00030F91249E26A08680123934003430B60D1
:104800000F4B142000FB02303146FFF7FFF82B68F6
:10481000E26ADB6A9A4207D30A4B4FF080521A6071
:10482000BFF34F8FBFF36F8FBDE87040FEF7A4BF9B
:1048300070BD00BF81DD0000C8110010B012001073
:10484000D411001004ED00E010B588B0002407AAD0
:1048500006A905A8CDE90544FEF706FD059B0293D0
:10486000069B079A0F491048CDE900432346FFF7FE
:104870000FFF0E4B186090B14FF0180383F31188AF
:10488000BFF36F8FBFF34F8F094B4FF0FF321A60AA
:10489000084B01221A60084B1C60FEF7E1FF08B0CC
:1048A00010BD00BF99DD0000E9440000DC120010DB
:1048B000E0120010FC12001014130010024A1368DA
:1048C00001331360704700BFA81200102DE9F84FA4
:1048D0003B4B1B68002B6BD13A4B1C6801341C60AE
:1048E000A4B9394B1A6812682AB1384940F67F20BA
:1048F000FEF79AFCFEE7364A1968106818601160E6
:10490000344A136801331360FFF702FE324D334F10
:104910002B68A3424FF0000B11D93A68304BD16A93
:1049200014224A439A58022A28BF4FF0010B2D4AFD
:104930001268002A0CBF58460120BDE8F88FDFF846
:1049400088A0DFF8A890DAF8002012681AB94FF0B2
:10495000FF322A60E1E7DAF80020D268D668716891
:104960008C4201D22960D8E706F104084046FFF7DF
:1049700070F8B16A19B106F11800FFF76AF8F06A29
:10498000D9F80030012202FA00F11943144BC9F89A
:1049900000104FF0140C41460CFB0030FFF736F8C6
:1049A0003868F16AC26A914228BF4FF0010BCAE72A
:1049B0000D4A1368013313604FF0000BB7E700BFD7
:1049C000A812001014130010CC1100106ADE0000B1
:1049D000D0110010E4120010E0120010C8110010F5
:1049E000D411001018130010A4120010B0120010FF
:1049F0002DE9F8432F4C23682BB92F4940F6850049
:104A0000FEF712FCFEE7FEF795FE2368013B2360EC
:104A100024682CB10024FEF7AFFE2046BDE8F883E1
:104A2000264B1B68002BF5D0254D264EDFF8A880BD
:104A30001FE0EB68DC6804F1040904F11800FFF7DB
:104A400008F84846FFF705F8E26A3168012707FAD7
:104A500002F314200B4300FB028049463360FEF74B
:104A6000D5FF194BE26A1B68DB6A9A4201D3174BE8
:104A70001F602B68002BDCD10CB1FFF749FD144DF2
:104A80002C6844B1114E0127FFF720FF00B13760B9
:104A9000013CF9D12C600D4B1B68002BBAD00D4B9B
:104AA0004FF080521A60BFF34F8FBFF36F8F012416
:104AB000B1E700BFA8120010CFDE0000A012001066
:104AC000E8120010B0120010C811001018130010E6
:104AD000A412001004ED00E0D411001008B540B994
:104AE0000D4B4FF080521A60BFF34F8FBFF36F8FA3
:104AF00008BD0A4B196829B1094940F23C50FEF73C
:104B000093FBFEE7FFF7DAFEFFF77CFDFFF770FF90
:104B10000028E5D0ECE700BF04ED00E0A81200108B
:104B200045DD00002DE9F041054603F0B6F90B28FC
:104B300005D9164940F67A10FEF776FBFEE7FFF737
:104B4000BDFEDFF858800A261427013E294607FBE0
:104B50000680FFF70DFC044690B9002EF5D10C4BF2
:104B60001868FFF705FC044650B90A4B2946186837
:104B7000FFF7FEFB044618B90748FFF7F9FB0446A8
:104B8000FFF736FF2046BDE8F08100BF38DE0000A9
:104B9000CC110010D011001000130010D41100101F
:104BA00038B5274B1A68274B12B101221A6038BD5D
:104BB0001A60FEF765FB244A244C1568A84204D904
:104BC00021680B6D5B1B03440B65236810601B6B36
:104BD0001A68B2F1A53F0BD15A68B2F1A53F07D1CF
:104BE0009A68B2F1A53F03D1DB68B3F1A53F04D0C9
:104BF000206821683431FEF7F9FA154B1B68B3FAC7
:104C000083F3DBB2C3F11F03142212495A438818FD
:104C10008D582DB9104940F6B730FEF705FBFEE779
:104C2000456808326D6845600A44954204BF6A6869
:104C30004260142202FB03135B68DB682360B6E763
:104C4000A8120010181300109C120010C8110010B8
:104C5000B0120010D41100109EDD000070B50446A3
:104C60002A4EFEF767FD04B93468251D2846FEF775
:104C7000F0FE60B9E06A264B142141435B5833B91A
:104C8000244901220B68824023EA02030B60A36AD5
:104C90001BB104F11800FEF7DCFE29461E481F4D2B
:104CA000FEF7B4FE94F85830012B04BF002384F8BB
:104CB0005830FEF761FD2A682AB1FEF73BFDFFF789
:104CC00027FCFEF759FD3368A34212D12B688BB144
:104CD000134B1B682BB1134940F2E460FEF7A4FAB2
:104CE000FEE7114B4FF080521A60BFF34F8FBFF3B6
:104CF0006F8F70BD084A11680C4A1268914201D149
:104D00003360F6E7BDE87040FFF74ABFC8110010F6
:104D1000D4110010B012001000130010FC1200108B
:104D2000A812001045DD000004ED00E0A012001004
:104D300010B50C4628B9084940F6CE30FEF774FA93
:104D4000FEE7064B19681831FEF76CFE204601217C
:104D5000BDE81040FFF756BC5FDD0000C811001031
:104D600038B5C368DC682CB9164940F62940FEF70F
:104D70005BFAFEE704F118052846FEF76AFE124BBF
:104D80001B68E3B9251D2846FEF763FE0F49E26A5A
:104D900008680123934003430B600D4B1420294600
:104DA00000FB0230FEF732FE0A4BE26A1B68DB6A48
:104DB0009A4283BF084B01201860002038BD294665
:104DC0000648EFE7C0DE0000A8120010B012001085
:104DD000D4110010C811001018130010E8120010B0
:104DE000034B1B680360034B1B684360704700BFA5
:104DF000E41200101413001070B50C46054628B9D3
:104E0000164940F69440FEF70FFAFEE729B9144917
:104E100040F69540FEF708FAFEE7FEF78BFC114BD3
:104E2000196823685A1C10D00F482E6800686A68F9
:104E3000864201D08A420FD9881A83420AD95B1A66
:104E4000134423602846FFF7CBFF0024FEF794FCB1
:104E5000204670BD002323600124F7E78FDD0000AA
:104E6000E5DD000014130010E4120010014B0122D4
:104E70001A6070471813001070B50C4616460546A8
:104E800008B91B4A1568256005F134026260EA6AB8
:104E900022612A6BE2612A6CA260AA6C6261052B16
:104EA0002A6DA2611AD0124A1268AA420AD10023BE
:104EB0002373D6B1296B0023CA5CA52A13D09B08A3
:104EC000238470BD032B2373F3D1FFF7F7FCAB6A88
:104ED0000BB102232373FFF78BFDEAE72846FFF7A8
:104EE0003BFC2073E5E70133E6E72684E9E700BFF2
:104EF000C81100102DE9F84F0D6881460C46934605
:104F000015B34B685B684B6001F10806B34204BF00
:104F1000CB684B604B68D3F80C8000254FF0240A17
:104F200063685B6863609E4204BF73686360636824
:104F3000DF680AFB05915B4601223846FFF79CFFBC
:104F4000B84505F10105EBD12846BDE8F88FFFFF14
:104F50002DE9F04705469046FFF7B0FC1D4B1B6856
:104F60008B4234D8DFF87C900A2700244FF0140AD3
:104F70002426013F06FB045001220AFB0791FFF79C
:104F8000B9FF0444002FF4D1134B0222196806FB29
:104F90000450FFF7AFFF114B04441968022206FBCF
:104FA0000450FFF7A7FF044406FB045003220C49FA
:104FB000FFF7A0FF0444B8F1000F03D0FEF760F93B
:104FC000C8F80000FFF714FD2046BDE8F087002474
:104FD000F8E700BFA0120010CC110010D011001093
:104FE00000130010D4110010054B1B6833B1054BA2
:104FF0001B68002B0CBF0220002070470120704767
:10500000FC120010A81200102DE9F04104460028FF
:1050100035D0234AC36A1168C96A8B42174636D213
:105020008269204D002AA1BF3A68D26AC2F10A0201
:1050300082611426426906FB03539A4221D100F192
:1050400004084046FEF705FD174B48B9E06A4643A1
:10505000AA592AB91A680121814022EA01021A607C
:105060003A681968D26AE262012404FA02F008433D
:1050700018601420414600FB0250FEF7C7FC204692
:1050800003E03B68DB6AC3620120BDE8F08113687E
:10509000806CDC6AA0422CBF00200120F5E700BF35
:1050A000C8110010D4110010B0120010F8B5044659
:1050B00008B90020F8BD1F4B1B68834205D01E496C
:1050C00040F6D170FEF7B0F8FEE7DB6C2BB91B4958
:1050D00040F6D270FEF7A8F8FEE7C16A826C013B89
:1050E0009142C364E5D0002BE3D1051D2846FEF7AD
:1050F000B0FC134E134A50B9E76A14217943735830
:105100002BB913680120B84023EA00031360A36C95
:10511000E362C3F10A01A1611168012404FA03F0FA
:1051200008431060142000FB03602946FEF76EFC64
:105130002046BFE7C811001095DE0000ABDE00007E
:10514000D4110010B0120010F8B50446002847D062
:10515000C26C2AB923494FF48150FEF765F8FEE787
:10516000836C994238BF1946C36A8B4238D0012AF2
:1051700036D11D4A1268824205D11C4941F23B00DA
:10518000FEF752F8FEE78269194DC162002A4FF01E
:1051900014064269A8BFC1F10A0106FB0353A8BF68
:1051A00081619A421CD1071D3846FEF752FCE26A23
:1051B000104C40B95643AB592BB92368012191409B
:1051C00023EA010323602168012393400B43142049
:1051D0002360394600FB0250BDE8F840FEF716BCDC
:1051E000F8BD00BFABDE0000C81100106BDD000091
:1051F000D4110010B0120010044B1A681AB11968CB
:10520000CA6C0132CA641868704700BFC811001028
:1052100070B5FFF753FB144D0A241426013C06FB1E
:1052200004F3E818EB580BB1FFF7CCF8002CF5D1DC
:105230000E4B1A68126812B11868FFF7C3F80C4BCE
:105240001A68126812B11868FFF7BCF809480368B9
:105250000BB1FFF7B7F8084B00221A60FEF71AF8F7
:10526000BDE87040FFF7C4BBD4110010CC11001092
:10527000D0110010001300109C12001010B5FDF7A3
:10528000FFFF064B064A196829B1196814680B6DAF
:105290001B1B03440B65106010BD00BFC81100103C
:1052A0009C12001008B5FDF7EBFF014B186008BD1C
:1052B0009C12001038B501220221002000F0C3F832
:1052C00001220321002000F0BEF804220021012069
:1052D00000F0B9F801210422084600F0B4F80422D5
:1052E0001146012000F0AFF80821012000F01AF962
:1052F000284B4FF480729A610921012000F0EEF8EA
:1053000002220A21002000F09EF802220B2105460D
:10531000002000F098F80446284600F0A9F820463E
:1053200000F0A6F80321022000F0FCF81A4B1B4DF8
:1053300018701A21012000F0F5F8194B194C18705B
:105340001821012000F0EEF8174B122118700120EF
:1053500000F0E8F8154B13211870012000F0BEF89A
:105360000F212870012000F0B9F81E2120700020C4
:1053700000F0B4F80E4B1D211870002000F0AEF8BC
:105380000C4B1870287800F083F82078BDE838407E
:1053900000F07EB8208009201C130010201300109C
:1053A0001D130010211300101E1300101F130010F6
:1053B0002213001023130010024B4FF48072DA61A5
:1053C000704700BF20800920024B4FF480729A6121
:1053D000704700BF20800920034B586980F400709B
:1053E000C0F34020704700BF20800920014B18788F
:1053F000704700BF1C130010014B1878704700BFA6
:105400001D130010014B1878704700BF1E130010C9
:10541000014B1878704700BF1F130010C0F3C4037E
:1054200000F007029B0003EBC21303F1804303F576
:10543000303301F007011A6822F007021A601A6877
:1054400011431960704738B500F007054FF00000B0
:1054500001F01F0465F3020064F3C7001146FFF773
:10546000DDFF4FF0000065F3020064F3C70038BDB4
:10547000C0F3C40300F007029B0003EBC21303F167
:10548000804303F530331A6842F480621A60704733
:10549000C0F3C40300F007029B0003EBC21303F147
:1054A000804303F530331A6822F018021A601A6834
:1054B00042F008021A60704700F00702064B53F8EA
:1054C0002210C0F3C4000B68012202FA00F023EAA4
:1054D00000030B60704700BFE4DE000038B500F049
:1054E00007054FF0000001F01F0465F3020064F3AC
:1054F000C700FFF7E1FF4FF0000065F3020064F31F
:10550000C70038BD00F00702054B53F82220C0F356
:10551000C40311680120984008431060704700BF21
:10552000E4DE000038B500F007054FF0000001F0A0
:105530001F0465F3020064F3C700FFF7E3FF4FF0B9
:10554000000065F3020064F3C70038BD00F00702F5
:10555000064B53F82230C0F3C4005A69012303FA02
:1055600000F0104214BF184600207047E4DE00002F
:1055700000F00702044BC0F3C40053F822200123BB
:1055800003FA00F090617047E4DE000000F00702CB
:10559000044BC0F3C40053F82220012303FA00F0A7
:1055A000D0617047E4DE000008B50146FFF7CEFF8A
:1055B00020B10846BDE80840FFF7E8BF0846BDE84F
:1055C0000840FFF7D5BFFFFF10B501294FF00104D8
:1055D00004FA00F4074B06D1074941F820201A6964
:1055E00014431C6110BD054941F820205A69144339
:1055F0005C61F7E78080024024130010A4130010C0
:1056000010B5084B002001219C6801FA00F21442F9
:1056100007D15C68224204D101302028F4D14FF038
:10562000FF3010BD80800240034A0123D16803FA95
:1056300000F00843D06070478080024010B5FFF74B
:10564000DFFF074B53F82030044613B9054B53F8DE
:10565000203098472046BDE81040FFF7E5BF00BF67
:1056600024130010A41300102DE9F8430F4F0C244D
:1056700044433E19884635792846914600F0ECFBB4
:105680003C5900233F2263604946A36028462260BC
:105690006361B268A361E3612362636200F000FCAE
:1056A0000123C4F80C806360BDE8F883FCDE0000D1
:1056B0000C235843064B1B5830B501205C6901EBA5
:1056C0004105A84020435861183343F8212030BDDC
:1056D000FCDE00000C235843034B1A58012303FA45
:1056E00001F11160704700BFFCDE00000C2358433D
:1056F000014B1B5898687047FCDE00000C23584390
:10570000014B1B5899607047FCDE00002DE9F04109
:10571000044617461E468846FFF766FC00210546EC
:10572000A068FEF705FD00232374069BA361079B79
:10573000E361236884F811802022022DA77466613A
:105740001A600BD140F6B831A068FEF7F1FC18B131
:10575000207CB0FA80F04009BDE8F0810021A0680B
:10576000FEF7E6FC0028F9D0F2E7FFFF03685A686D
:10577000282A13B557D00AD8102A2CD0182A32D08C
:10578000082A09D1417C01F0FE01996028E0402AF5
:1057900063D00DD8382A77D05A68027420229A61D3
:1057A00010221A6008229A611A68D206FCD426E0F8
:1057B000502A5BD0582AEFD14269996811700022B3
:1057C000C26120229A6110221A6008229A611A6826
:1057D000D106FCD413E0427C42F001029A60082218
:1057E0009A6102B010BDC469202199610822C4B930
:1057F0009961102119609A611A68D106FCD40023BE
:1058000001A980680193FEF7A3FB019B002BE8D060
:105810001F4B4FF080521A60BFF34F8FBFF36F8F53
:10582000DFE7817CB1E7427CD20702D520221A60F3
:10583000D5E7C2694AB920229A6110221A6008226B
:105840009A611A68D406FCD4D9E78169013A11F843
:10585000014B9C608161C261C1E720229A61C269EB
:10586000012A4FF00402E2D89A61B8E742699968C8
:105870001170426901324261C269013A012AC26172
:105880004FF00402D3D1EFE75B680374B7E700BFC2
:1058900004ED00E00148FFF769BF00BF9C00001065
:1058A0000148FFF763BF00BF7C0000100148FFF70D
:1058B0005DBF00BF5C0000102DE9F043264B06469B
:1058C0001546894693E8070085B004AB03E9070055
:1058D00040F60A33ADF800300C238DF802301F4A31
:1058E0007301D718D45804AB33440322002101209C
:1058F00013F8108CFEF7D2F9B8600120FEF7B7FA62
:10590000F860404600F0A8FA6C23A361144A154BD6
:10591000914588BF99462823B5FBF9F25208C82162
:105920005343B3FBF1F323613C235A430023B2FBFF
:10593000F1F26261A36263622362E3604023236049
:1059400004AB03EB86067A6856F80C1C404605B09B
:10595000BDE8F04300F0A4BA44DF00005C00001092
:1059600040420F00A08601002DE9F3410F4690460A
:105970001D4623B90025284602B0BDE8F0810E4C33
:1059800004EB40144FF0FF31E068FEF7D1FB002834
:10599000F0D00026089B019342462B4647F00101B8
:1059A00000962046FFF7B2FE3346054632463146A2
:1059B000E068FEF799F9DEE75C0000101FB50023F0
:1059C0008DF80F30012300930DF10F03FFF7CCFF8B
:1059D0009DF80F0005B05DF804FBFFFFF7B50E461C
:1059E00017461D461BB90025284603B0F0BD0E4CD6
:1059F00004EB40144FF0FF31E068FEF799FB0028FC
:105A0000F1D0089B3A46CDE9005306F0FE01002391
:105A10002046FFF77BFE002305461A461946E0683C
:105A2000FEF762F9E0E700BF5C0000101FB500223E
:105A300000920DF10F038DF80F20FFF7CFFF05B097
:105A40005DF804FB1FB58DF80F30012300930DF1B5
:105A50000F03FFF7C3FF05B05DF804FB08B506218F
:105A60000020FFF75FFD3B4B002218700621104617
:105A7000FFF7E9FC0E210120FFF754FD364B002211
:105A800018700E210120FFF7DEFC01210220FFF734
:105A900049FD324B0022187001210220FFF7D3FC90
:105AA000002210460721FFF7CEFC07210020FFF758
:105AB00039FD2B4B0022187009211046FFF7C3FC5B
:105AC00009210020FFF72EFD264B0221187000222D
:105AD0000846FFF7B8FC02210846FFF723FD224BDA
