:1000000000000110E500000075010000590100002A
:100010007501000075010000750100007501000008
:10002000750100007501000075010000D911000084
:100030007501000075010000DD110000E1110000F4
:100040007532000075320000753200007532000014
:100050007532000075320000753200007532000004
:1000600075320000753200007532000075320000F4
:1000700075320000753200007532000075320000E4
:1000800075320000753200007532000075320000D4
:1000900075320000753200007532000075320000C4
:1000A00075320000753200007532000075320000B4
:1000B00075320000753200007532000075320000A4
:1000C0007532000075320000753200007532000094
:1000D0007532000075320000753200007532000084
:1000E0007532000008B500F057F900F073F900F020
:1000F0007BF900F09BF800F095F800F09BFF00F012
:10010000CBFE00F0BFF840B141F28734002500F08B
:10011000BDFF8D4208BF8442F9D200F082F918B9C0
:100120000849094804F07CFD0649084804F078FDB8
:1001300000F0CAFF064B07481B68D96803F006FDAC
:10014000FEE700BFDC8C0000E88C0000158D00008D
:10015000500100102D8D00001EF0040F0CBFEFF3B6
:100160000880EFF309808169004A1047D10100003F
:100170007047FFFF38B50F4C0F4B10481D782368B0
:10018000D96803F0E3FC23680D49D8682A4603F0D8
:1001900065FC0F2D236807D80A4A0B4952F8252021
:1001A000D86803F05BFCFEE7D968084803F0CEFC92
:1001B000F9E700BF5001001004ED00E0688D000079
:1001C000828D0000748E0000BC8D0000DA8D00006E
:1001D00010B5044600F04AF8236883606368C36082
:1001E000A3680361E3684361236943626369013B78
:1001F000C361A3698361E3690362BFF34F8F05495C
:10020000054BCA6802F4E0621343CB60BFF34F8F23
:1002100000BFFDE700ED00E00400FA05004870476C
:1002200000D8B8050048704700D8B8050E4B072223
:10023000C3F88420AA210122C3F88020C3F88C10BF
:100240005521C3F88C10C3F8A821D3F88820520593
:10025000FBD51A6822F4704242F480421A6040F2E0
:100260000112C3F80421704700C00F400248034A3E
:10027000034BC0E90023704700000020EFBEADDE55
:100280001041522138B5224C224B22689A423DD16E
:100290006268214B9A4239D1204D21482B68D96898
:1002A00003F054FC2B68A2691E49D86803F0D6FB02
:1002B0002B68E2691C49D86803F0D0FB2B68226ADE
:1002C0001A49D86803F0CAFB2B68A2681849D86895
:1002D00003F0C4FB2B68E2681649D86803F0BEFB44
:1002E0002B6822691449D86803F0B8FB2B6862694F
:1002F0001249D86803F0B2FB2B681148D96803F0A3
:1003000025FC01200023C4E9003338BD0020F9E7B3
:1003100000000020EFBEADDE104152215001001060
:10032000B48E0000078F0000168F0000258F00009C
:10033000348F0000438F0000528F0000618F000057
:10034000708F00000E4A136810B50E4C1918A142A8
:10035000116002D30C4CA1420BD313600B4A0C4921
:1003600013681844884208D30A49884205D21060AD
:1003700001E0002BF2D0184610BD0023FBE700BFC0
:100380000000001028000020008000200400001061
:100390008C0A001000000110094A0A4B0A498B42DE
:1003A00005D30A4B0A4A0021934205D3704712F83D
:1003B000010B03F8010BF2E703F8011BF4E700BFA0
:1003C0002C9D0000000000102403001028030010E2
:1003D0008C0A0010034AD2F8883043F47003C2F844
:1003E0008830704700ED00E0044800232021C21847
:1003F0000133292B82F80013F9D1704700E100E0A6
:1004000008B52A2219233821022002F0F1FD0D221D
:100410003821022002F0A8FDA0F12A0358425841D9
:1004200008BDFFF7EDBF42884378007843EA022316
:1004300040EA0320704710B5024410F8013B11F860
:10044000014B9042A3EB040301D0002BF5D01846DA
:1004500010BD02684AB1134613F8011B1F290BD9BE
:100460003A29F9D1911C8B4202D04FF0FF307047EE
:100470001278302AF9D103600020704770B500F17E
:100480003806426B044601233146407800F05AFAA0
:10049000054688B9616BA36A226AE070CB1A934261
:1004A00008D2A378022B05D10A4401233146607893
:1004B00000F048FA284670BD0125FBE738B5436BCC
:1004C0008B4204460D4619D0C3788BB901232A46C6
:1004D00004F13801607800F021FA002818BF4FF0CD
:1004E000FF35034665630CBF03460123184638BD3C
:1004F000FFF7C4FF03460028F8D1E7E70023F5E73C
:1005000038B50023C3704FF0FF3343630546FFF750
:10051000D5FF044618BB95F8372295F8363243EAE2
:1005200002234AF6552293421BD195F83830EB2B23
:1005300003D01833DBB2012B15D803220B4905F188
:100540006E00FFF778FF40B10522094905F18A00E6
:10055000FFF771FF002818BF0224204638BD04248D
:10056000FBE70324F9E70224F7E700BF449000000B
:10057000489000002DE9F043002385B00B600F4642
:100580001546FFF766FF061EC0F23981A44B53F8EB
:100590002640002C00F03581206900F09EF90028EB
:1005A00000F031813C60237805F0FE056BB1607886
:1005B00000F0AFF9C10708D41DB110F0040500D058
:1005C0000A25284605B0BDE8F0830023F0B2237069
:1005D000607000F090F9C20700F117810DB1430778
:1005E000EED400212046FFF78BFF022840F0EE807A
:1005F0006F4604F5FF7104F23E263D4611F8040CE7
:1006000010B10846FFF70FFF10318E4245F8040B7A
:10061000F4D1002557F8046B002E00F0CE8031464F
:100620002046FFF76DFF012800F2C88094F84420AF
:1006300094F8433043EA0223B3F5007F40F0CA80C8
:1006400094F84F3094F84E5055EA032504D104F144
:100650005C00FFF7E8FE054694F8481025624B1E43
:10066000012BA17000F2B68094F845901FFA89F32F
:100670006381002B00F0AE8009F1FF3313EA090F0C
:1006800040F0A88094F84A3094F8497047EA03276C
:100690003FB21FFA87F818F00F0FA4F8088040F057
:1006A000998094F84C3094F84B0050EA032003D121
:1006B00004F15800FFF7B7FE94F8472094F846304D
:1006C00053EA022300F0868005FB01FC03EB1812BD
:1006D000624490427ED3801A4845B0FBF9F179D349
:1006E0005048814276D84FF6F570814240F28F80B3
:1006F0004FF00309023133443244B9F1030FE16191
:100700006662A362226369D194F8632094F8623030
:1007100043EA02231F433FB2002F5BD104F1640080
:10072000FFF781FEE062890001F2FF11B5EB512F66
:1007300050D34FF0FF33C4E90533B9F1030F4FF045
:10074000800323712FD194F8692094F8683043EA2C
:100750000223012B27D1711C2046FFF7AFFE10BBEF
:1007600094F8372294F83632207143EA02234AF68D
:100770005522934217D104F13800FFF754FE2A4B5B
:10078000984210D104F50770FFF74DFE274B9842B1
:1007900009D104F50870FFF746FEA06104F5097061
:1007A000FFF741FE6061224A84F80090138801330C
:1007B0009BB21380E380002503E703200135042D5D
:1007C0007FF428AF042805D10125FAE60428FBD0E0
:1007D000012801D90D25F4E6002627E7B8F1000F1E
:1007E000F8D06344B9F1020FE3624FEA41031BBF43
:1007F0005B1801F00101194601EB530194E70B2549
:10080000DFE60C25DDE60F25DBE60325D9E640F61D
:10081000F57949458CBF4FF002094FF0010969E7AE
:1008200028030010F5FFFF0F5252614172724161BF
:100830002C03001040B1A1F10B03012B04D90F29A7
:1008400002D0006900F052B87047FFFFF0B585B0E4
:10085000CDE9001003A814460391FFF7FAFD051E29
:1008600028DB154F57F825604EB1306900F030F89D
:1008700018B90224204605B0F0BD00233370019959
:1008800079B9019B47F82530002CF3D001A900224B
:100890006846FFF76FFE044601460198FFF7CAFF5E
:1008A000E8E7002301F8103BE8B200F007F8002861
:1008B000E7D1DEE70B24DDE72803001010B50120A7
:1008C0000C4601F094F82060003018BF012010BDE4
:1008D00008B501F0FBFA012008BD08B540F6B831B3
:1008E00001F0E6F9431E5842584108BD00231A465C
:1008F000194600F0B9BF10B5044600F05DFB34B9ED
:1009000000F0FAF8044600F071FB204610BD042404
:10091000F9E708B900F08EB904207047F8B507462A
:100920000C4615461E4600F047FB4FB92046F2B272
:10093000294600F087F9044600F058FB2046F8BD30
:100940000424F9E7F8B507460C4615461E4600F0A4
:1009500033FB4FB92046F2B2294600F0B9F90446FC
:1009600000F044FB2046F8BD0424F9E738B500F058
:100970008DFB00F5FA75FF2002F056FDFF2002F016
:1009800053FDFF28044603D000F080FB8542F5D8D4
:10099000204638BD08B502F035F8FFF7E7FF02F052
:1009A00039F8034A137843F00103137008BD00BF00
:1009B0000800001038B505460C46FFF7D7FFFF28A2
:1009C00021D1204602F030FDFD2C1ED0AC1C05F2DA
:1009D000022514F8020C02F027FD023414F8030C6F
:1009E00002F022FDAC42F4D1FF2002F01DFDFF20F9
:1009F00002F01AFDFF2002F017FD00F01F00431F58
:100A00005842584138BD0020FCE70120FAE737B5CD
:100A1000020604460D4607D500217720FFF7F7FFB1
:100A2000012831D804F07F0401F0F4FF01F0EAFF5F
:100A3000FFF79CFFFF282BD1402C27D0482C0CBF60
:100A4000872301232A0E8DF801202A0C8DF802201D
:100A500006212A0A68468DF800408DF803208DF89B
:100A600004508DF8053002F0E9FC4C2C02D1FF2037
:100A700002F0DAFC0A24FF2002F0D6FC030603D5BC
:100A8000013C14F0FF04F6D103B030BD9523D9E743
:100A9000FF20F9E770B5054600F0F8FA00F16406AA
:100AA000FF2002F0C1FC044600F0F0FA864201D3B8
:100AB000FF2CF5D0FE2C0CD14FF40071284602F02B
:100AC000C0FCFF2002F0B0FCFF2002F0ADFC0120D2
:100AD00070BD0020FCE7FFFF38B5064D2C78E4B26E
:100AE00001F0A0FF18B104F0FD042C7038BD44F0F3
:100AF0000304FAE7080000102DE9F341FFF7ECFFCB
:100B00004A4B1A7812F0020F1E4604D01878C0B271
:100B100002B0BDE8F081C82002F04EFC0A25FF209B
:100B2000013D02F081FC15F0FF05F8D101F06AFFEC
:100B300029464020FFF76BFF0128044671D100F0E1
:100B4000A5FA4FF4D57100F57A774820FFF75FFFDB
:100B5000012848D101ADA8460424FF2002F064FC1E
:100B6000013C14F0FF0408F8010BF6D19DF80630A3
:100B7000012B56D19DF80730AA2B52D100F086FAEE
:100B8000874206D94FF08041E920FFF740FF002857
:100B9000F4D100F07BFA874243D900217A20FFF795
:100BA00036FF00283DD10424FF2002F03DFC013C2B
:100BB00014F0FF0405F8010BF6D19DF8043013F092
:100BC000400F14BF0C240424194B1C7001F022FFA9
:100BD0004CB3337845F6C05003F0FE03337002F097
:100BE000EBFB307893E72946E920FFF710FF022856
:100BF00036BFE9254125022400F048FA874205D98D
:100C000000212846FFF703FF0028F5D100F03EFA47
:100C1000874206D84FF400715020FFF7F8FE0028F5
:100C2000D2D00024D0E7FFF7B5FEDAE708000010C5
:100C30002E03001008B5FFF74FFF014B187808BDD1
:100C40000800001070B5144605460E46FFF744FF35
:100C5000002C35D01C4B1B78DA0733D401F0D2FEC0
:100C60001A4B1B781B0758BF7602012C314611D155
:100C70005120FFF7CCFE38B94FF400712846FFF73A
:100C800009FFB0FA80F4640901F0C4FE201C18BF0B
:100C9000012070BD5220FFF7BAFE0028F4D14FF4B6
:100CA00000712846FFF7F6FE28B1013C14F0FF045E
:100CB00005F50075F3D100214C20FFF7A8FEE3E70E
:100CC0000420E6E70320E4E7080000102E030010EC
:100CD00070B5144605460E46FFF7FEFE002C41D0C7
:100CE000234B1A78D0073FD41B7859073ED401F024
:100CF00089FE204B1B781A0758BF7602012C11D1B0
:100D000031465820FFF783FE50BBFE212846FFF7EF
:100D100051FEB0FA80F4640901F07CFE201C18BF7B
:100D2000012070BD13F0060F03D02146D720FFF736
:100D30006EFE31465920FFF76AFE0028ECD1FC21F7
:100D40002846FFF737FE28B1013C14F0FF0405F5F3
:100D50000075F4D1FD210020FFF72CFE0028DBD127
:100D60000124D9E70420DCE70320DAE70220D8E7F2
:100D7000080000102E03001008B5064604F0D6F84F
:100D800000240546A54200DCFEE7315D002002F0AC
:100D900043FC0134F6E7FFFF02280CD9074B1B6820
:100DA0005A68824207D09A68824204D0DB681B1AD4
:100DB0005842584170470120704700BF5001001051
:100DC000F8B504460E461546FFF7E6FF48B3164B46
:100DD0001B68DB68A34210D0A31E5C425C4101F09B
:100DE0005FFC0746002002F0D5FB022F17D1B0B1FF
:100DF000ACB9A54203DC2846F8BD0124EFE7315D1C
:100E00004FF0FF32002002F069FC0134F1E7315D60
:100E1000002002F001FC0134A542F8DCEBE70024DD
:100E2000FAE70248FFF7A8FF500100108090000089
:100E300008B5FFF7B1FF18B1002002F025FC08BD8E
:100E40000148FFF799FF00BF4E900000F8B5044637
:100E50000D4600F005F9061941EB050701F020FCED
:100E600002280CD100234FF47A72AB4208BFA24291
:100E700005D22046294602F06FFC01F0EBFA00F0A3
:100E8000EFF8B94208BFB042F9D3F8BD4FF47A7316
:100E9000A0FB0301FFF7DABF30B585B001F030FDEC
:100EA00001F0CAFD8DF80C0001F0CCFD8DF80D00AD
:100EB00001F0CEFD8DF80E0001F0D0FD00248DF87C
:100EC0000F0004AA04F003031344013413F8040CC4
:100ED00001F090FE3220FFF7D9FF202CF1D1284BF2
:100EE0001868002319460222406803F037FFFFF715
:100EF00099F9002501464FF41642002002F006FB46
:100F00000095204B204A0121204600F03DFC1F4B5C
:100F1000009504461E4A0121802000F035FC22463F
:100F20000146284602F040FB45F6C05002F05AFA4E
:100F3000012218491848FFF789FC184A184B19492B
:100F4000A84208BF1346184A1848194D03F068FE16
:100F5000FFF768F917490246022001F083FF0224D7
:100F6000E1B2022002F038F818B12146284603F019
:100F700057FE0234B4F5807FF2D105B030BD00BF1A
:100F800050010010500300102F03001058060010ED
:100F9000D8050010D98D0000A0030010C4900000F7
:100FA000E290000009910000B39000005A91000007
:100FB0007A910000801A060010B50A4C236823B904
:100FC0000949012000F0FEFC206001F069FB0228C5
:100FD00006D120684FF0FF31BDE8104000F068BE38
:100FE00010BD00BFA8060010AC06001010B501F03F
:100FF00057FB022808D1054800231A461946006805
:10100000BDE8104000F030BC10BD00BFA8060010C5
:10101000074A08B51368002101330846136001F040
:1010200043FE00210846BDE8084001F029BE00BF8C
:10103000FC06001008B5074A0749B0FBF1F1002093
:10104000013901F0E7FD0021044A0846BDE80840E7
:1010500001F004BE1110000040420F00008793030E
:1010600070B5084E002001F017FE054600203468D8
:1010700001F012FE8542F5D8034B0021E3FB040189
:1010800070BD00BFFC0600100087930308B5FFF792
:10109000E7FF4FF47A72002302F05EFB08BD70B5E3
:1010A000054608460C4603F041FF2618B44205D118
:1010B00028460A21BDE8704002F0AEBA14F8011BC0
:1010C000284602F0A9FAF1E708B5134803F02EFE0E
:1010D00002F014F81148C0B202F0C8F8104B1868BA
:1010E000002319460222806803F038FE0022802186
:1010F000022000F093FB0B4B00228021186001209E
:1011000000F08CFB084B1860084803F00FFE01F05C
:1011100057F8002008BD00BFA1910000A891000071
:101120005001001000070010700A0010AA91000082
:101130000C460020044908B5FFF7B1FF2146002006
:10114000FFF7ADFFFEE700BFEA92000008B50249D5
:101150000020FFF7A4FFFEE7B0920000024B002240
:10116000C3F8C02030BF704700C00F4008B50C4620
:1011700000200A49FFF793FF09490020FFF78FFF7E
:1011800008490020FFF78BFF07490020FFF787FF82
:1011900021460020FFF783FFFEE700BFB891000063
:1011A0000A9200004D92000081920000034B036000
:1011B000034B0B6064231360704700BFA00800104E
:1011C0001007001008B5FFF74BFF024B1B68C01A51
:1011D00008BD00BF0807001000F05AB800F0A0B822
:1011E00000F0D0B808480068006880F308884FF025
:1011F000000080F3148862B661B6BFF34F8FBFF36F
:101200006F8F00DF00BF000008ED00E0DFF80C008A
:10121000016841F4700101607047000088ED00E052
:1012200007B5002301930B4B1B68013304D00A4917
:10123000EF20FFF79BFFFEE74FF0180383F31188C1
:10124000BFF36F8FBFF34F8F019B002BFCD003B018
:101250005DF804FB04090010079300004FF0807351
:1012600040F8043C074B40F80C3C21F001016FF0C2
:10127000020340F8081C40F8202C40F8243C443875
:10128000704700BF21120000FFFFFFFFFFFFFFFFBD
:10129000074B19680868B0E8F04F80F30988BFF37E
:1012A0006F8F4FF0000080F311887047AFF300801C
:1012B0000809001008B54FF0180383F31188BFF335
:1012C0006F8FBFF34F8F094A13680133012B1360EF
:1012D0000AD1074B1B6813F0FF0F05D0054940F2F8
:1012E000AB10FFF743FFFEE708BD00BF0409001085
:1012F00004ED00E021930000074A08B513682BB9FC
:1013000006494FF4D970FFF731FFFEE7013B136048
:101310000BB983F3118808BD04090010569300002F
:10132000EFF30980BFF36F8F154B1A681EF0100F93
:1013300008BF20ED108A20E9F04F10602DE9090068
:101340004FF0180080F31188BFF34F8FBFF36F8FFA
:1013500001F0A4F84FF0000080F3118809BC19686F
:101360000868B0E8F04F1EF0100F08BFB0EC108A0C
:1013700080F30988BFF36F8F704700BFAFF3008021
:101380000809001008B54FF0180383F31188BFF364
:101390006F8FBFF34F8F00F055FF18B1034B4FF025
:1013A00080521A60002383F3118808BD04ED00E029
:1013B00010B5084A084C002323601360FEF72EFF87
:1013C0004FF47A73B0FBF3F0044B01381860072335
:1013D000236010BD18E000E010E000E014E000E041
:1013E000334B344A13B51968914205D132494FF451
:1013F0009A70FFF7BBFEFEE71A68304B9A4205D1A0
:101400002F4940F23510FFF7B1FEFEE72D4B1A7859
:10141000D2B20192FF221A701B782B4ADBB28DF8F0
:1014200003309DF8033003F018031370274A072395
:10143000136000219DF80300000603F1FF3409D476
:1014400011B1022B13600ED0214940F25D10FFF75D
:101450008DFEFEE79DF803305B00DBB28DF80330B4
:1014600001212346E6E74FF400731360019B154A00
:10147000DBB21370174B1A6842F478021A601A68CC
:1014800042F078421A60FFF793FF134B00241C6070
:10149000FFF7BCFE114A136843F040431360FFF7A7
:1014A000A1FE00F0FBFFFFF7BBFE204602B010BD1F
:1014B00000ED00E071C20F41D493000070C20F41F3
:1014C000F793000000E400E0FC08001000090010A1
:1014D0001A94000020ED00E00409001034EF00E051
:1014E00008B5EFF305830F2B0BD90D4A9B5C0D4A12
:1014F00012789A4205D90C4940F2FE20FFF736FED9
:10150000FEE70A4B0A4A1B68126803F4E063934241
:1015100005D9084940F20E30FFF728FEFEE708BD66
:10152000F0E300E0FC080010689300000CED00E020
:10153000000900109293000010B5044600F07AFEF6
:10154000204602F00FFB044600F00EFF0CB9FFF737
:10155000FDFD204610BD10B5044640B100F06AFE06
:10156000204602F007FBBDE8104000F0FDBE10BDB4
:1015700000F108034FF0FF324360C0E9022303612A
:1015800000230360704700230361704743684B608A
:101590009A688A609A6851609960036808610133AB
:1015A000036070470A68531C30B50AD103695A6852
:1015B0004A6091608B605960036808610133036081
:1015C00030BD00F108035C6825689542EFD82346DA
:1015D000F9E7D0E9011203698A60516059688142D4
:1015E00008BF5A60002202611A68013A1A6018683E
:1015F000704710B50446FFF75DFEA46BFFF77CFE55
:10160000B4FA84F0400910BDF8B51546026C866B3B
:10161000044652B9076847BB806801F0A3F8A76089
:1016200005460136A6632846F8BD65B9406802F054
:10163000A9FA6368226C1344A26863609342F0D3F2
:1016400023686360EDE7C06802F09CFA236CE268EF
:1016500021685B421A448A42E2603EBFA2689B183E
:10166000E360022D01D116B1013E0025D9E73546D0
:10167000D7E7034610B41A6C084662B1D9689C6873
:101680001144A142D96024BF1968D960D9685DF8B6
:10169000044B02F077BA5DF8044B704770B504460E
:1016A000FFF708FE94F8455004F124066DB2002DB2
:1016B00014DCFF2384F84530FFF71EFEFFF7FAFD28
:1016C00094F8445004F110066DB2002D12DCFF2393
:1016D00084F84430BDE87040FFF70EBE636A002B0B
:1016E000E7D0304600F050FF08B100F0D3FF013DD5
:1016F0006DB2DCE72369002BE9D0304600F044FFEF
:1017000008B100F0C7FF013D6DB2DEE738B50D4608
:10171000044628B91A4940F20310FFF727FDFEE7F7
:10172000FFF7C8FDD4E90F30226862604343D11847
:101730001B1A1344A160E3600021FF23A16384F816
:10174000443084F8453095B9236963B104F1100041
:1017500000F01AFF38B10B4B4FF080521A60BFF304
:101760004F8FBFF36F8FFFF7C7FD012038BD04F126
:101770001000FFF7FDFE04F12400FFF7F9FEF2E789
:101780002095000004ED00E013B51C4628B91E4961
:101790004FF49D70FFF7EAFCFEE72BB91B494FF4AD
:1017A0009F70FFF7E3FCFEE732B161B918494FF4CF
:1017B000A170FFF7DBFCFEE729B1164940F24310A8
:1017C000FFF7D4FCFEE750230193019B502B05D07B
:1017D000114940F24B10FFF7C9FCFEE7002908BF92
:1017E0002246019B22600123C4E90F0184F84630A0
:1017F00019462046FFF78AFF9DF8103084F84C30D8
:10180000204602B010BD00BF5D9400007F94000030
:1018100095940000CD94000005950000F8B50D46A4
:101820001746064628B90F494FF4BB70FFF79EFCD8
:10183000FEE748435030FFF77FFE044670B10023B7
:1018400080F8463065B100F150032360C4E90F65AC
:1018500001212046FFF75AFF84F84C702046F8BD5E
:101860000346F2E75D9400002DE9FF4788460192A8
:101870001F46044628B94E4940F2F120FFF776FC96
:10188000FEE739B9036C2BB14A4940F2F220FFF769
:101890006DFCFEE7022F08D1E36B012B05D0464912
:1018A00040F2F320FFF762FCFEE700F0F9FE064687
:1018B00038B9019B33B1414940F2F620FFF756FC9D
:1018C000FEE700264FF00009DFF8F4A037E0019DA5
:1018D0001DB9FFF711FD002050E016B902A800F075
:1018E00093FEFFF709FD00F0A5FCFFF7E3FC94F879
:1018F0004430FF2B08BF84F8449094F84530FF2B08
:1019000008BF84F84590FFF7F7FC01A902A800F092
:1019100087FE002846D1FFF7CDFCA26BE36B9A420D
:101920002FD1FFF7E9FC019904F1100000F014FE3B
:101930002046FFF7B3FE00F017FD50B30126FFF776
:10194000B9FCA26BE36B9A4201D3022FBFD13A4696
:1019500041462046FFF758FE636A1BB104F124009C
:1019600000F012FE38B1164B4FF080521A60BFF3F0
:101970004F8FBFF36F8FFFF7BFFC012004B0BDE8AE
:10198000F087FFF7B9FC2046FFF788FE00F0ECFC7B
:10199000D4E74FF08053CAF80030BFF34F8FBFF346
:1019A0006F8FCBE72046FFF779FE00F0DDFC92E772
:1019B000209500002895000078950000BF95000054
:1019C00004ED00E013B5002200900B460120114603
:1019D000FFF7DAFE044638B1002383600360C3607A
:1019E0001A461946FFF740FF204602B010BD10B559
:1019F000024600210120FFF711FF044638B1002301
:101A000083600360C3601A461946FFF72DFF204626
:101A100010BDFFFF2DE9F843894690461F46044656
:101A200028B9284940F2C330FFF7A0FBFEE739B9D7
:101A3000036C2BB124494FF47170FFF797FBFEE75D
:101A4000022F08D1E36B012B05D0204940F2C530AD
:101A5000FFF78CFBFEE7FFF743FDEFF311864FF036
:101A6000180383F31188BFF36F8FBFF34F8FA26BFF
:101A7000E36B9A4201D3022F22D194F845503A46A3
:101A80006DB249462046FFF7BFFD6B1C13D1636A58
:101A90000BB901200BE004F1240000F075FD0028D3
:101AA000F7D0B8F1000FF4D00120C8F8000086F399
:101AB0001188BDE8F88301356DB284F84550E8E738
:101AC0000020F4E72095000028950000789500009C
:101AD00070B50D46044628B923494FF48C60FFF7D2
:101AE00045FBFEE7036C2BB1204940F26440FFF751
:101AF0003DFBFEE703683BB983682BB11C4940F20C
:101B00006940FFF733FBFEE7FFF7EAFCEFF31186CE
:101B10004FF0180383F31188BFF36F8FBFF34F8F1C
:101B2000A26BE36B93421CD994F8453001325BB24F
:101B3000A2635A1C10D1636A0BB9012009E004F1B9
:101B4000240000F021FD0028F7D0002DF5D0012061
:101B5000286086F3118870BD01335BB284F845308C
:101B6000EBE70020F5E700BF209500001596000088
:101B70002E9600002DE9F04385B00F4601920446F1
:101B800028B947494FF4A060FFF7F0FAFEE739B9EA
:101B9000036C2BB1434940F20450FFF7E7FAFEE72C
:101BA00000F07EFD064638B9019B33B13E4940F254
:101BB0000950FFF7DBFAFEE700264FF00008DFF8D8
:101BC000EC903BE0019D1DB9FFF796FB002052E031
:101BD00016B902A800F018FDFFF78EFB00F02AFBF3
:101BE000FFF768FB94F84430FF2B08BF84F844806B
:101BF00094F84530FF2B08BF84F84580FFF77CFB45
:101C000001A902A800F00CFD00283DD12046FFF7F5
:101C1000F0FC98B3019904F1240000F09DFC2046EB
:101C2000FFF73CFD00F0A0FB38B94FF08053C9F836
:101C30000030BFF34F8FBFF36F8F0126FFF73AFBE2
:101C4000A56B002DBED039462046013DFFF711FDA2
:101C5000A563236963B104F1100000F095FC38B16D
:101C6000124B4FF080521A60BFF34F8FBFF36F8F4C
:101C7000FFF742FB012005B0BDE8F0832046FFF7E7
:101C80000DFD00F071FBD8E72046FFF707FD00F0DF
:101C90006BFB2046FFF7ADFC0028CED096E700BFD7
:101CA00095960000A1960000BF95000004ED00E0AD
:101CB0002DE9FF410446019128B9584940F291505D
:101CC000FFF754FAFEE7056C2DB1554940F29550E7
:101CD000FFF74CFAFEE700F0E3FC064638B9019B3B
:101CE00053B1504940F29A50FFF740FAFEE72E46B2
:101CF0000027DFF838814EE00546F9E7019B4BB934
:101D00002DB1494940F2E150FFF730FAFEE7FFF705
:101D1000F3FA5EE016B902A800F076FCFFF7ECFAE1
:101D200000F088FAFFF7C6FA94F84430FF2B08BF9A
:101D300084F8447094F84530FF2B08BF84F8457050
:101D4000FFF7DAFA01A902A800F06AFC00284AD1DC
:101D50002046FFF74EFC00283FD023683BB9FFF731
:101D6000A9FAA06800F0ACFC0546FFF7C5FA019996
:101D700004F1240000F0F0FB2046FFF78FFC00F098
:101D8000F3FA38B94FF08053C8F80030BFF34F8FE3
:101D9000BFF36F8F0126FFF78DFAA36B002BADD039
:101DA000013BA363236813B900F082FDA06023699F
:101DB00063B104F1100000F0E7FB38B11B4B4FF0AA
:101DC00080521A60BFF34F8FBFF36F8FFFF794FA03
:101DD0000125284604B0BDE8F0812046FFF75EFCEF
:101DE00000F0C2FAD6E72046FFF758FC00F0BCFA34
:101DF0002046FFF7FEFB0028CCD0002DE9D0FFF7EE
:101E000059FA616A19B1236B1968C1F10A01A06816
:101E100000F0F6FC0025FFF76FFADAE79596000070
:101E200015960000BF9500003F97000004ED00E00C
:101E30002DE9F84389469046054628B9214940F2E4
:101E4000FB60FFF793F9FEE739B9036C2BB11E492C
:101E500040F2FC60FFF78AF9FEE7FFF741FBEFF382
:101E600011874FF0180383F31188BFF36F8FBFF30F
:101E70004F8FAC6B1CB395F84460494676B2284648
:101E8000FFF7F7FB013C731CAC6313D12B690BB953
:101E900001200BE005F1100000F076FB0028F7D0E0
:101EA000B8F1000FF4D00120C8F8000087F31188C2
:101EB000BDE8F883013676B285F84460E8E720464D
:101EC000F4E700BF20950000F496000008B528B99B
:101ED000064940F2B770FFF749F9FEE790F846303F
:101EE0001BB9BDE80840FFF736BB08BD20950000D0
:101EF0002DE9F0410446FFF7DDF92D4B2D4D1A6811
:101F00002D4F01321A602E68002E46D12C601B68BE
:101F1000012B1CD1B84640460136FFF729FB0A2E9B
:101F200008F11408F7D1DFF8B880244E4046FFF7D7
:101F30001FFB3046FFF71CFB2148FFF719FB214828
:101F4000FFF716FB204BC3F80080204B1E60204A91
:101F500020491368086801331360E26A236401238F
:101F60009340034314200B6000FB0270211DFFF718
:101F70000DFBFFF7C1F9184B1B6863B12B68DA6AD8
:101F8000E36A9A4207D2154B4FF080521A60BFF3B2
:101F90004F8FBFF36F8FBDE8F0810F4B1B68002B95
:101FA000D5D12B68DA6AE36A9A4298BF2C60CEE7F3
:101FB000E00900100809001014090010080A0010B8
:101FC000280A0010400A00100C0900101009001027
:101FD000EC090010F00900103C0A001004ED00E0CC
:101FE000F409001008B5074C074D4FF080562368E0
:101FF000012B04D92E60BFF34F8FBFF36F8FFFF714
:10200000ADF8F4E71409001004ED00E0064A136887
:102010001968064B19B94FF0FF321A607047126801
:10202000D268D2685268F8E70C090010200A001044
:102030002DE9F047DDE909644FEA82094A4607467F
:102040000D46206BA521984601F0C4FD236BA9F134
:102050000409994429F007099DB36B1E04F1340269
:102060000B3513F8011F02F8011B09B1AB42F8D17F
:10207000002384F83F30089D092D28BF09254FF023
:10208000000AE562A564201DC4F84CA0FFF77BFAA6
:10209000C5F10A0504F11800FFF775FAC4F854A059
:1020A0002461A5616462C4F850A084F858A0424637
:1020B00039464846FFF7D2F8206006B13460BDE8E3
:1020C000F08784F83450D6E7F8B51B4B1B4E1C68DC
:1020D0000546306804300F46FFF77BFA334640B9B7
:1020E0003168174EC96A32680120884022EA00022E
:1020F00032606A1C07D137B1196812480431BDE853
:10210000F840FFF743BA1A686419546007D30E4ABF
:1021100010681968BDE8F8400431FFF743BA0B4A6C
:10212000106819680431FFF73DFA094B1A68A2429A
:1021300088BF1C60F8BD00BF540A001008090010D9
:10214000F0090010400A0010100900100C090010DE
:10215000200A001070B586B0DDE90B542DB9154981
:1021600040F24D20FFF702F8FEE72CB9124940F289
:102170004E20FEF7FBFFFEE75C260596059E5C2ED3
:1021800005D00E4940F25620FEF7F0FFFEE725632A
:10219000022584F8595004AD01950A9D02940095DA
:1021A000059EFFF745FF2046FFF7A2FE049806B004
:1021B00070BD00BF2A9800004198000056980000AA
:1021C00010B588B0002407AA06A905A8CDE90544E2
:1021D000FEF7ECFF059B0293069B079A0F491048F8
:1021E000CDE900432346FFF7B5FF0E4B186090B1D1
:1021F0004FF0180383F31188BFF36F8FBFF34F8F36
:10220000094B4FF0FF321A60084B01221A60084B4D
:102210001C60FFF7E5F808B010BD00BFD0970000C4
:10222000E51F00001C0A0010200A00103C0A0010E4
:10223000540A0010024A136801331360704700BF4C
:10224000E80900102DE9F84F3B4B1B68002B6BD1C0
:102250003A4B1C6801341C60A4B9394B1A681268E7
:102260002AB1384940F67F20FEF780FFFEE7364A64
:102270001968106818601160344A136801331360DC
:10228000FFF7C4FE324D334F2B68A3424FF0000BD3
:1022900011D93A68304BD16A14224A439A58022A1B
:1022A00028BF4FF0010B2D4A1268002A0CBF584678
:1022B0000120BDE8F88FDFF888A0DFF8A890DAF8F1
:1022C000002012681AB94FF0FF322A60E1E7DAF80D
:1022D0000020D268D66871688C4201D22960D8E7A4
:1022E00006F104084046FFF774F9B16A19B106F126
:1022F0001800FFF76EF9F06AD9F80030012202FAEF
:1023000000F11943144BC9F800104FF0140C41466A
:102310000CFB0030FFF73AF93868F16AC26A914263
:1023200028BF4FF0010BCAE70D4A13680133136051
:102330004FF0000BB7E700BFE8090010540A001087
:102340000C0900106F98000010090010240A0010FA
:10235000200A00100809001014090010580A001083
:10236000E4090010F00900102DE9F8432F4C236810
:102370002BB92F4940F68500FEF7F8FEFEE7FEF781
:1023800099FF2368013B236024682CB10024FEF7E9
:10239000B3FF2046BDE8F883264B1B68002BF5D021
:1023A000254D264EDFF8A8801FE0EB68DC6804F1BD
:1023B000040904F11800FFF70CF94846FFF709F982
:1023C000E26A3168012707FA02F314200B4300FB8D
:1023D000028049463360FFF7D9F8194BE26A1B685F
:1023E000DB6A9A4201D3174B1F602B68002BDCD1AC
:1023F0000CB1FFF70BFE144D2C6844B1114E0127B0
:10240000FFF720FF00B13760013CF9D12C600D4B84
:102410001B68002BBAD00D4B4FF080521A60BFF3EF
:102420004F8FBFF36F8F0124B1E700BFE8090010A1
:10243000D4980000E0090010280A0010F0090010EC
:1024400008090010580A0010E409001004ED00E02B
:102450001409001008B540B90D4B4FF080521A60B6
:10246000BFF34F8FBFF36F8F08BD0A4B196829B1B7
:10247000094940F23C50FEF779FEFEE7FFF7DAFE2D
:10248000FFF722FEFFF770FF0028E5D0ECE700BF62
:1024900004ED00E0E80900108A97000038B5274BEA
:1024A0001A68274B12B101221A6038BD1A60FEF774
:1024B00089FE244A244C1568A84204D921680B6D72
:1024C0005B1B03440B65236810601B6B1A68B2F139
:1024D000A53F0BD15A68B2F1A53F07D19A68B2F176
:1024E000A53F03D1DB68B3F1A53F04D02068216884
:1024F0003431FEF71DFE154B1B68B3FA83F3DBB2D4
:10250000C3F11F03142212495A4388188D582DB95C
:10251000104940F6B730FEF729FEFEE7456808325D
:102520006D6845600A44954204BF6A68426014229F
:1025300002FB03135B68DB682360B6E7E809001061
:10254000580A0010DC09001008090010F0090010FA
:1025500014090010D597000010B50C4628B9084999
:1025600040F6CE30FEF702FEFEE7064B1968183142
:10257000FFF718F820460121BDE81040FFF7A4BD81
:10258000A49700000809001038B5C368DC682CB9AE
:10259000164940F62940FEF7E9FDFEE704F118056B
:1025A0002846FFF716F8124B1B68E3B9251D28468D
:1025B000FFF70FF80F49E26A0868012393400343CD
:1025C0000B600D4B1420294600FB0230FEF7DEFFA6
:1025D0000A4BE26A1B68DB6A9A4283BF084B012000
:1025E0001860002038BD29460648EFE7C59800006E
:1025F000E8090010F0090010140900100809001083
:10260000580A0010280A0010034B1B680360034B94
:102610001B684360704700BF240A0010540A001072
:1026200070B50C46054628B9164940F69440FEF7A9
:102630009DFDFEE729B9144940F69540FEF796FD49
:10264000FEE7FEF737FE114B196823685A1C10D0BD
:102650000F482E6800686A68864201D08A420FD906
:10266000881A83420AD95B1A134423602846FFF76D
:10267000CBFF0024FEF740FE204670BD0023236000
:102680000124F7E7C69700001C980000540A0010C8
:10269000240A0010014B01221A607047580A0010EA
:1026A000054B1B6833B1054B1B68002B0CBF022088
:1026B00000207047012070473C0A0010E809001014
:1026C0002DE9F0410446002835D0234AC36A116839
:1026D000C96A8B42174636D28269204D002AA1BFB3
:1026E0003A68D26AC2F10A0282611426426906FB84
:1026F00003539A4221D100F104084046FEF769FFD6
:10270000174B48B9E06A4643AA592AB91A68012109
:10271000814022EA01021A603A681968D26AE262CC
:10272000012404FA02F0084318601420414600FB1B
:102730000250FEF72BFF204603E03B68DB6AC362D2
:102740000120BDE8F0811368806CDC6AA0422CBFD8
:1027500000200120F5E700BF08090010140900104F
:10276000F0090010F8B5044608B90020F8BD1F4B69
:102770001B68834205D01E4940F6D170FEF7F6FC77
:10278000FEE7DB6C2BB91B4940F6D270FEF7EEFC7E
:10279000FEE7C16A826C013B9142C364E5D0002B25
:1027A000E3D1051D2846FEF714FF134E134A50B916
:1027B000E76A1421794373582BB913680120B84094
:1027C00023EA00031360A36CE362C3F10A01A16171
:1027D0001168012404FA03F008431060142000FB80
:1027E00003602946FEF7D2FE2046BFE70809001025
:1027F0009A980000B098000014090010F009001029
:10280000F8B50446002847D0C26C2AB923494FF4D2
:102810008150FEF7ABFCFEE7836C994238BF194646
:10282000C36A8B4238D0012A36D11D4A12688242CF
:1028300005D11C4941F23B00FEF798FCFEE7826996
:10284000194DC162002A4FF014064269A8BFC1F1B8
:102850000A0106FB0353A8BF81619A421CD1071DE0
:102860003846FEF7B6FEE26A104C40B95643AB5903
:102870002BB923680121914023EA010323602168D9
:10288000012393400B4314202360394600FB025080
:10289000BDE8F840FEF77ABEF8BD00BFB098000072
:1028A00008090010B097000014090010F00900108A
:1028B000044B1A681AB11968CA6C0132CA641868E4
:1028C000704700BF0809001010B5FEF77BFC064BEF
:1028D000064A196829B1196814680B6D1B1B03445B
:1028E0000B65106010BD00BF08090010DC09001066
:1028F00008B5FEF767FC014B186008BDDC09001045
:1029000038B501220221002000F0C3F80122032182
:10291000002000F0BEF804220021012000F0B9F8E8
:1029200001210422084600F0B4F8042211460120D7
:1029300000F0AFF80821012000F01AF9284B4FF4FD
:1029400080729A610921012000F0EEF802220A212A
:10295000002000F09EF802220B210546002000F026
:1029600098F80446284600F0A9F8204600F0A6F89A
:102970000321022000F0FCF81A4B1B4D18701A219D
:10298000012000F0F5F8194B194C1870182101209E
:1029900000F0EEF8174B12211870012000F0E8F853
:1029A000154B13211870012000F0BEF80F2128707C
:1029B000012000F0B9F81E212070002000F0B4F8CA
:1029C0000E4B1D211870002000F0AEF80C4B187053
:1029D000287800F083F82078BDE8384000F07EB811
:1029E000208009205C0A0010600A00105D0A0010B7
:1029F000610A00105E0A00105F0A0010620A0010EF
:102A0000630A0010024B4FF48072DA61704700BF16
:102A100020800920024B4FF480729A61704700BFFA
:102A200020800920034B586980F40070C0F34020D7
:102A3000704700BF20800920014B1878704700BF05
:102A40005C0A0010014B1878704700BF5D0A001047
:102A5000014B1878704700BF5E0A0010014B1878D0
:102A6000704700BF5F0A0010C0F3C40300F0070204
:102A70009B0003EBC21303F1804303F5303301F0F5
:102A800007011A6822F007021A601A6811431960D8
:102A9000704738B500F007054FF0000001F01F0443
:102AA00065F3020064F3C7001146FFF7DDFF4FF046
:102AB000000065F3020064F3C70038BDC0F3C4032F
:102AC00000F007029B0003EBC21303F1804303F500
:102AD00030331A6842F480621A607047C0F3C4034E
:102AE00000F007029B0003EBC21303F1804303F5E0
:102AF00030331A6822F018021A601A6842F008028D
:102B00001A60704700F00702064B53F82210C0F31A
:102B1000C4000B68012202FA00F023EA00030B60F4
:102B2000704700BFEC98000038B500F007054FF083
:102B3000000001F01F0465F3020064F3C700FFF713
:102B4000E1FF4FF0000065F3020064F3C70038BDF9
:102B500000F00702054B53F82220C0F3C4031168AC
:102B60000120984008431060704700BFEC980000B7
:102B700038B500F007054FF0000001F01F0465F3C1
:102B8000020064F3C700FFF7E3FF4FF0000065F3B6
:102B9000020064F3C70038BD00F00702064B53F88B
:102BA0002230C0F3C4005A69012303FA00F0104236
:102BB00014BF184600207047EC98000000F0070290
:102BC000044BC0F3C40053F82220012303FA00F0A1
:102BD00090617047EC98000000F00702044BC0F3CE
:102BE000C40053F82220012303FA00F0D06170479B
:102BF000EC98000008B50146FFF7CEFF20B108466B
:102C0000BDE80840FFF7E8BF0846BDE80840FFF709
:102C1000D5BFFFFF2DE9F8430F4F0C2444433E1965
:102C2000884635792846914600F03EFB3C59002302
:102C30003F2263604946A360284622606361B26810
:102C4000A361E3612362636200F052FB0123C4F8D5
:102C50000C806360BDE8F883049900000C2358439E
:102C6000064B1B5830B501205C6901EB4105A840BB
:102C700020435861183343F8212030BD04990000E7
:102C80000C235843034B1A58012303FA01F1116036
:102C9000704700BF049900000C235843014B1B5898
:102CA00098687047049900000C235843014B1B5847
:102CB00099607047049900002DE9F04104461746D9
:102CC0001E468846FFF7ECFC00210546A068FEF78B
:102CD000EFFF00232374069BA361079BE361236836
:102CE00084F811802022022DA77466611A600BD12E
:102CF00040F6B831A068FEF7DBFF18B1207CB0FACF
:102D000080F04009BDE8F0810021A068FEF7D0FF07
:102D10000028F9D0F2E7FFFF03685A68282A13B5A4
:102D200057D00AD8102A2CD0182A32D0082A09D114
:102D3000417C01F0FE01996028E0402A63D00DD863
:102D4000382A77D05A68027420229A6110221A60B9
:102D500008229A611A68D206FCD426E0502A5BD079
:102D6000582AEFD14269996811700022C26120226D
:102D70009A6110221A6008229A611A68D106FCD45E
:102D800013E0427C42F001029A6008229A6102B08C
:102D900010BDC469202199610822C4B9996110212C
:102DA00019609A611A68D106FCD4002301A98068D1
:102DB0000193FEF78DFE019B002BE8D01F4B4FF0D7
:102DC00080521A60BFF34F8FBFF36F8FDFE7817CB4
:102DD000B1E7427CD20702D520221A60D5E7C2694A
:102DE0004AB920229A6110221A6008229A611A6850
:102DF000D406FCD4D9E78169013A11F8014B9C60F3
:102E00008161C261C1E720229A61C269012A4FF043
:102E10000402E2D89A61B8E7426999681170426980
:102E200001324261C269013A012AC2614FF00402D3
:102E3000D3D1EFE75B680374B7E700BF04ED00E0B0
:102E40000148FFF769BF00BF4C0000100148FFF7C1
:102E500063BF00BF2C0000100148FFF75DBF00BF3B
:102E60000C0000102DE9F043264B06461546894616
:102E700093E8070085B004AB03E9070040F60A3386
:102E8000ADF800300C238DF802301F4A7301D718BB
:102E9000D45804AB334403220021012013F8108CD2
:102EA000FEF7BCFCB8600120FEF7A1FDF8604046CB
:102EB00000F0FAF96C23A361144A154B914588BFC1
:102EC00099462823B5FBF9F25208C8215343B3FBB6
:102ED000F1F323613C235A430023B2FBF1F2626118
:102EE000A36263622362E3604023236004AB03EBCD
:102EF00086067A6856F80C1C404605B0BDE8F043DB
:102F000000F0F6B94C9900000C00001040420F0090
:102F1000A08601002DE9F3410F4690461D4623B9D6
:102F20000025284602B0BDE8F0810E4C04EB4014A9
:102F30004FF0FF31E068FEF7BBFE0028F0D000261E
:102F4000089B019342462B4647F00101009620461C
:102F5000FFF7B2FE3346054632463146E068FEF7DB
:102F600083FCDEE70C0000101FB500238DF80F3046
:102F7000012300930DF10F03FFF7CCFF9DF80F0025
:102F800005B05DF804FBFFFFF7B50E4617461D467A
:102F90001BB90025284603B0F0BD0E4C04EB4014CD
:102FA0004FF0FF31E068FEF783FE0028F1D0089B68
:102FB0003A46CDE9005306F0FE0100232046FFF714
:102FC0007BFE002305461A461946E068FEF74CFCD6
:102FD000E0E700BF0C0000101FB5002200920DF1C9
:102FE0000F038DF80F20FFF7CFFF05B05DF804FB4E
:102FF0001FB58DF80F30012300930DF10F03FFF77C
:10300000C3FF05B05DF804FB38B5314B04461878B2
:103010000D46FFF7E1FD2F4B1878002D3DD0FFF74F
:10302000CDFD2D4B14F0010F187839D0FFF7C6FDF8
:103030002A4B14F0020F187835D0FFF7BFFD284B4C
:1030400014F0040F187831D0FFF7B8FD254B14F0B9
:10305000080F18782DD0FFF7B1FD234B14F0100F97
:10306000187829D0FFF7AAFD204B14F0200F18780C
:1030700025D0FFF7A3FD1E4B14F0400F187821D088
:10308000FFF79CFDE3091B4B18781ED0FFF796FD58
:103090001948BDE8384001F049BEFFF79DFDC0E783
:1030A000FFF79AFDC4E7FFF797FDC8E7FFF794FD28
:1030B000CCE7FFF791FDD0E7FFF78EFDD4E7FFF7F0
:1030C0008BFDD8E7FFF788FDDCE7FFF785FDDFE73D
:1030D0007C0A0010790A0010740A00107A0A0010A5
:1030E0007E0A0010780A0010750A00107B0A001092
:1030F0007D0A0010770A00107099000008B50621BB
:103100000020FFF735FD4D4B0022187006211046B8
:10311000FFF7BFFC04210120FFF72AFD484B0022E6
:10312000187004210120FFF7B4FC1C210420FFF7D4
:103130001FFD444B002218701C210420FFF7A9FC3E
:1031400001210846FFF714FD3F4B002118700120B4
:10315000FFF70EFD3D4B022118700846FFF708FDF2
:103160003B4B042118700220FFF702FD394B14215C
:1031700018700120FFF7FCFC374B17211870012055
:10318000FFF7F6FC354B1C2118700120FFF7F0FC0F
:10319000334B1D2118700120FFF7EAFC314B012150
:1031A000187000220846FFF774FC00221146012027
:1031B000FFF76FFC022100220846FFF76AFC00229D
:1031C00004210220FFF765FC002214210120FFF7F3
:1031D00060FC002217210120FFF75BFC00221C216C
:1031E0000120FFF756FC00221D210120FFF751FCB2
:1031F00000213020FFF708FF00213020FFF704FFF7
:1032000000213020FFF700FF00213820FFF7FCFEEF
:1032100000210820FFF7F8FE00210120FFF7F4FE4F
:1032200000210620FFF7F0FE00210C20FFF7ECFE46
:103230000D48BDE8084001F079BD00BF760A0010D6
:10324000790A00107C0A0010740A00107A0A001033
:103250007E0A0010780A0010750A00107B0A001020
:103260007D0A0010770A0010679900000121FFF71E
:10327000CBBEFEE708B5FFF727FB084B084A1B78D3
:10328000103BDBB252F823309847064B00221A60FD
:103290001B68BDE80840FFF72BBB00BF04ED00E052
:1032A0006C000010640A0010592809D8054B064A22
:1032B000185CD2F8C410012383400B43C2F8C43019
:1032C000704700BF7899000000C00F4059289FBF89
:1032D000054B064AD3F8C430105C9ABF23FA00F0BD
:1032E00000F001000020704700C00F4078990000F6
:1032F000592808BF1920084B43F8201043B2002B6F
:1033000008DB012200F01F0002FA00F05B09034A0B
:1033100042F82300704700BF6C00001000E100E09D
:1033200073B54FF0FF33B1F5805F019336D21D4C7A
:103330002369DE0734D41C4B1D69ED0730D41B4DC7
:103340000326AE602E611A4D1D6002B301AE5E60B1
:1033500041F00046DE6041F20F061E61DAB12060E6
:1033600041F0806140F68112E16065602261114A9E
:10337000516A41F003015162D868C0F30B00002884
:10338000FAD1536A23F00303536202B070BD586050
:1033900041F00846DEE701AA2260E3E70120F4E7F6
:1033A0000220F2E700010820200108200000082088
:1033B00008C00A4000C00A4010B50446FCF72EFFC2
:1033C0004FF47A73B0FBF3F00223B0FBF3F2A242A6
:1033D00002D8034A136110BD0233DBB2F5E700BF28
:1033E00000C00A4010B504462420FFF75DFF0B4BD8
:1033F00007221A6002225A602046FFF7DDFF1A20DA
:10340000FFF752FF064B01221A631A6BD207FCD555
:10341000044A0023936042F8183C10BD00C00A40E3
:103420000000082020010820034BDA68D206FCD4F3
:103430009868C0B2704700BF00C00A400122FFF781
:103440006FBF0022FFF76CBF02689368C3F34203AB
:10345000022B73B5064623D0062B21D0012B34D185
:1034600000248DF803400194102501AA0DF10301F9
:10347000B068FEF7DDFC48B133689DF803201A7090
:10348000019B002B18BF0124013DEED10CB3124B60
:103490004FF080521A60BFF34F8FBFF36F8F18E069
:1034A0000024019433681A7DD207EFD51B788DF87C
:1034B000033001AA00230DF10301F068FEF7AAFA18
:1034C000019B002B18BF0124ECE7137DDBB20193B5
:1034D000019B02B070BD00BF04ED00E00148FFF7A2
:1034E000B3BF00BF400100100148FFF7ADBF00BFF0
:1034F000300100100148FFF7A7BF00BF20010010F6
:103500000148FFF7A1BF00BF10010010154B70B5B7
:1035100016460546185C0C463601FFF7C5FEB4FB9F
:10352000F6F307EE903AF8EE677AB6EE007A77EEA9
:10353000877A2D01FCEEE77A0B4A17EE903A525942
:103540009BB280211173190ADBB211711370102321
:1035500082F828300123137281231372032313731B
:1035600070BD00BFFC99000010010010074B10B5A2
:103570000446185CFFF7AAFE30B12401044B1B5926
:10358000187B003018BF012010BD00BFFC9900005F
:1035900010010010034B03EB00108068003018BFCF
:1035A00001207047100100102DE9F84307468946B5
:1035B0009046FFF7DBFF064618B900263046BDE807
:1035C000F883124C3D016319DA6822B9B9F1000F92
:1035D00001D0C3F80C9063199A6822B9B8F1000FB2
:1035E00001D0C3F808806319DA68002AE5D09A6828
:1035F000002AE2D05A68064B53F82710054BD85DD5
:10360000FFF776FE635907225A60D7E710010010D2
:10361000EC990000FC99000038B5074A03010D46FB
:10362000D458FFF7A3FF30B1237D9A06FCD525704F
:10363000237D9B06FCD538BD1001001070B50446F3
:103640000E461546FFF72CF80E4B03EB0413DC680F
:10365000B4B1022814D16B1C09D04FF47A70A5FBC9
:1036600000014FF47A72002300F076F805462A46EE
:1036700031462046FEF77EFA003018BF012070BDAB
:103680000020FCE7100100102DE9F84305460E4626
:10369000114CFFF705F82F01E31981462846D3F8AE
:1036A0000C80FFF763FF98B1B9F1020F0AD1B8F1AE
:1036B000000F07D0314628464FF0FF32BDE8F843EF
:1036C000FFF7BCBFE3591A7DD207FCD51B783370D6
:1036D0000020BDE8F88300BF10010010F7B50546D3
:1036E0001C4E8DF807102D011746FEF7D9FF7319F0
:1036F0009C6854B302282BD1791C09D04FF47A70FE
:10370000A7FB00014FF47A72002300F025F807466A
:1037100000233A460DF107012046FEF7A5F8041CE8
:1037200018BF0124FDF7C6FD731975592A7D52068D
:1037300009D500220DF107019868FEF779FB10B159
:103740009DF807302B70FDF7D7FD204603B0F0BD84
:103750000024FAE71001001053B94AB9002908BF44
:1037600000281CBF4FF0FF314FF0FF3000F074B95C
:10377000ADF1080C6DE904CE00F006F8DDF804E0C8
:10378000DDE9022304B070472DE9F047089E0446A6
:103790008846002B40F085808A42154648D9B2FA07
:1037A00082F24AB1C2F1200701FA02F320FA07F7C8
:1037B000954047EA030894404FEA154E230CB8FBA6
:1037C000FEF71FFA85FC0EFB178843EA084307FB48
:1037D0000CF1994209D9EB1807F1FF3080F0E38032
:1037E000994240F2E080023F2B445B1AA4B2B3FB43
:1037F000FEF00EFB103344EA034400FB0CFCA4452E
:1038000009D92C1900F1FF3380F0CB80A44540F298
:10381000C88002382C4440EA0740A4EB0C0400277F
:103820001EB1D4400023C6E900433946BDE8F08705
:10383000002A53D0B2FA82F2002A40F0B680491B27
:103840004FEA154E1FFA85F80127B1FBFEFC230C49
:103850000EFB1C1143EA014308FB0CF1994207D906
:10386000EB180CF1FF3002D2994200F2EC80844652
:10387000591AA3B2B1FBFEF00EFB101443EA044444
:1038800008FB00F8A04507D92C1900F1FF3302D23C
:10389000A04500F2DC801846A4EB080440EA0C4086
:1038A000BEE78B4208D9002E78D00027C6E9000178
:1038B00038463946BDE8F087B3FA83F77FB98B42C3
:1038C00002D3824200F2BD80841A61EB030301201F
:1038D0009846002EA9D0C6E90048A6E7FFDEC7F14A
:1038E0002005BB4022FA05FC4CEA030C01FA07F460
:1038F00020FA05F821FA05F34FEA1C4E48EA0404C1
:10390000B3FBFEF9210C0EFB19331FFA8CF841EAC8
:10391000034309FB08FA9A4502FA07F200FA07F195
:103920000BD91CEB030309F1FF3080F088809A4526
:1039300040F28580A9F102096344A3EB0A03A4B213
:10394000B3FBFEF00EFB103344EA034400FB08F81F
:10395000A04508D91CEB040400F1FF336BD2A0454D
:1039600069D90238644440EA0940A4EB0804A0FB8A
:1039700002894C45C6464B4654D351D0002E69D0DF
:10398000B1EB0E0264EB030404FA05F522FA07F327
:10399000FC401D43C6E90054002746E73746304641
:1039A00043E7184637E707461FE7C2F1200320FA2E
:1039B00003F7954001FA02F021FA03F34FEA154E9E
:1039C0003843010CB3FBFEF71FFA85F80EFB1733E3
:1039D00041EA034107FB08F38B4204FA02F407D9DA
:1039E000691807F1FF3C28D28B4226D9023F2944AF
:1039F000CB1A81B2B3FBFEF00EFB103341EA034158
:103A000000FB08F38B4207D9691800F1FF3C10D284
:103A10008B420ED902382944C91A40EA074714E7F5
:103A20004145ABD2B8EB020E69EB0C0201381346EC
:103A3000A4E76046F0E7184695E76746D8E7814671
:103A40007BE7384645E7ACF1020C2B4410E702381F
:103A50002C4421E73746E8E6704700BF0EB403B5B3
:103A6000014603AB054853F8042B0068019300F0AE
:103A70008BF902B05DF804EB03B070475001001001
:103A800070B50E461446054618B183690BB903F0AC
:103A9000EFF82B4B9C421ED16C68636EDA0705D49D
:103AA000A3899B0502D4A06D00F059F8A3891807DB
:103AB0001BD52369CBB1013E16F8011F39BB656EDA
:103AC00015F0010539D1A389990502D4A06D00F044
:103AD00047F8284670BD1B4B9C4201D1AC68DCE71F
:103AE000194B9C4208BFEC68D7E72146284602F0F4
:103AF000F1F80028DFD0636EDA0705D4A3899B05AF
:103B000002D4A06D00F02CF84FF0FF35E1E7A36878
:103B1000013B002BA36004DAA269934206DB0A2969
:103B200004D023685A1C22601970C5E72246284633
:103B300002F07EF80130BFD1DDE70D46C9E700BFD6
:103B4000D09B0000F09B0000B09B0000024B0A4697
:103B500001461868FFF794BF500100107047704786
:103B60007047FFFF024B0146186800F089B800BF9C
:103B700050010010024B0146186800F033B800BF36
:103B8000500100100A44914200F1FF3300D1704708
:103B900010B511F8014B03F8014F9142F9D110BD56
:103BA000884210B501EB020302D983421C4607D8B4
:103BB000421E994208D011F8014B02F8014FF8E774
:103BC00083189A1A9A4200D110BD14F8011D03F807
:103BD000011DF7E702440346934200D1704703F802
:103BE000011BF9E738B50546002945D051F8043CDA
:103BF0000C1F002BB8BFE41803F0CAFC1F4A13685F
:103C0000104633B9636014602846BDE8384003F0BD
:103C1000C5BCA3420CD921686218934204BF1A683C
:103C20005B68636004BF521822600460ECE71346CF
:103C30005A680AB1A242FAD919685818A0420BD1A1
:103C400020680144581882421960DDD1106852681A
:103C50005A6001441960D7E702D90C232B60D3E7DF
:103C6000206821188A4204BF11685268626004BF4C
:103C7000091821605C60C7E738BD00BF680A001002
:103C8000F8B5CD1C25F0030508350C2D38BF0C25E3
:103C9000002D064601DBA94203D90C233360002026
:103CA000F8BD03F075FC21490A6814469CB9204F01
:103CB0003B6823B92146304601F040F83860294678
:103CC000304601F03BF8431C23D10C2333603046CF
:103CD00003F064FCE3E723685B1B17D40B2B03D9C9
:103CE00023601C44256004E06368A2420CBF0B60A3
:103CF0005360304603F052FC04F10B00231D20F00A
:103D00000700C21ACCD01B1AA350C9E72246646828
:103D1000CCE7C41C24F00304A042E3D0211A3046AF
:103D200001F00CF80130DDD1CFE700BF680A0010C8
:103D30006C0A00109368013B002B10B4936008DA02
:103D40009469A34201DB0A2903D15DF8044B01F019
:103D50006FBF1368581C1060197008465DF8044B5B
:103D60007047F8B506460F461446D518AC4201D147
:103D7000002007E03A4614F8011B3046FFF7DAFF4F
:103D8000431CF3D1F8BDFFFF2DE9F04F0D469DB068
:103D900014461E46074618B183690BB902F068FF46
:103DA000854B9D421BD17D686B6ED90705D4AB89CD
:103DB0009A0502D4A86DFFF7D2FEAB891B0701D587
:103DC0002B69EBB92946384601F084FFC0B16B6E10
:103DD000D8070ED54FF0FF301DB0BDE8F08F774B00
:103DE0009D4201D1BD68DFE7754B9D4208BFFD686C
:103DF000DAE7AB899905EDD4A86DFFF7B1FEE9E7E5
:103E00000023099320238DF82930DFF8B891039619
:103E100030238DF82A304FF0010A23461E4613F84E
:103E2000012B0AB1252AF9D1B6EB040B0BD05B4666
:103E3000224629463846FFF794FF013000F0A38060
:103E4000099B5B4409933378002B00F09C8000238E
:103E50004FF0FF32CDE905230136049307938DF827
:103E600053301A933446052214F8011B554803F0C9
:103E70003FFB049BC0B9DA0644BF20228DF85320D3
:103E8000180744BF2B228DF8532032782A2A13D0EA
:103E9000079A344600200A26214611F8013B303BA0
:103EA000092B4BD970B914E0A0EB09000AFA00F015
:103EB000184304902646D5E7039A111D1268039112
:103EC000002A01DB079204E0524243F0020307920A
:103ED000049323782E2B0CD163782A2B33D1039BA8
:103EE0001A1D1B680392002BB8BF4FF0FF3302343A
:103EF0000593354E21780322304603F0F9FA38B1A4
:103F00004023801B03FA00F0049B03430134049315
:103F100014F8011B2D488DF82810062203F0E8FA4A
:103F200000283FD02A4B13BB039B073323F0070322
:103F300008330393099B434409936EE706FB02325F
:103F400001200C46A8E700230134059319460A26F0
:103F5000204610F8012B303A092A03D9002BC8D08B
:103F60000591C6E706FB012101230446F0E703ABF8
:103F700000932A46174B04A9384600F0BDF8B0F16B
:103F8000FF3F8046D6D16B6ED90705D4AB899A0521
:103F900002D4A86DFFF7E4FDAB895B063FF51AAFCD
:103FA000099819E703AB00932A460A4B04A938463F
:103FB00000F042FBE3E700BFD09B0000F09B000055
:103FC000B09B0000089B00000E9B0000129B0000AD
:103FD000F9400000633D00002DE9FF4755EC104B10
:103FE000002D0E4691461946DDF830A04FF0000234
:103FF00003DA05F100431D462D220D9F0A7027F0BC
:104000002007462F04D0452F00D10136022100E0C1
:10401000032103AB019302AB00933246534645ECB8
:10402000104B01F051FF472F804602D119F0010FCC
:1040300022D0462F08EB060911D198F80030302B1A
:104040000AD1002200232046294604F019FD18B9A0
:10405000C6F10106CAF80060DAF80030994400227F
:1040600000232046294604F00BFD08B1CDF80C9042
:104070003022039B4B4508D3039B0E9AA3EB080306
:104080004046136004B0BDE8F087591C03911A70D4
:10409000EFE7F7B50029BABF49422D232B230929A1
:1040A0000270437021DD0DF107031F460A2691FBC4
:1040B000F6F206FB12143034632903F1FF3503F8DE
:1040C000014C0ADC303205F8012C023B821CBB4259
:1040D000144605D3201A03B0F0BD2B461146E6E77F
:1040E00013F8011B02F8011BF1E730231944837018
:1040F000041DC170EEE7FFFF2DE9F04F8DB00C46B7
:10410000DDF8588016461F46054603F077F9036828
:104110000693184600F00AFF00230A93D8F80030EF
:104120000790073323F0070303F1080294F818A05F
:10413000D4F800B0C8F80020D3E90023C4E9122362
:1041400094ED127B8DED047BDDE9048323F00049BF
:104150004FF0FF32A64B4046494604F0C3FC70BB0B
:104160004FF0FF32A24B4046494604F09DFC30BB65
:1041700000220023DDE9040104F08CFC10B12D23A2
:1041800084F843309B4A9C4BBAF1470F94BF90464A
:10419000984603232BF00402236122604FF00009AC
:1041A000009733460BAA2146284600F0CFF901308C
:1041B00040F08C804FF0FF300DB0BDE8F08FDDE9AE
:1041C00004231046194604F08DFC40B1059B8B4A30
:1041D000002BBCBF2D2384F84330894BD4E76368A0
:1041E0005A1C0AF0DF093ED10623636000230393C3
:1041F0000AAB4BF48062CDE901A309AB009361687F
:1042000022600DF123039DED040B2846FFF7E4FE29
:10421000B9F1470F8046099908D1C81C02DB6368D1
:10422000994241DDAAF1020A5FFA8AFABAF1650FF2
:1042300020D80139524604F150000991FFF729FFB7
:104240000A9A1318012A8146236102DC2268D207E8
:1042500001D5013323619DF82330002BA0D02D23FD
:1042600084F843309CE7B9F1470FBFD1002BBDD193
:104270000123BAE7BAF1660F18D1002963680BDD94
:10428000216113B92268D00702D501330B442361A1
:10429000A1654FF00009DEE713B92268D20701D506
:1042A0000233F4E70123F2E74FF0670A0A9B9942D1
:1042B00005DB23682161D807EAD54B1CE7E7002915
:1042C000D4BFC1F1020201221344E0E723685A057A
:1042D00007D42369424631462846B84701302BD1DE
:1042E00068E7BAF1650F40F2DC8000220023D4E9D0
:1042F000120104F0C5FB002833D00123414A3146A6
:104300002846B84701303FF455AFDDE909239A420A
:1043100002DB2368D8070FD5DDE90623314628469E
:10432000B84701303FF446AF4FF0000804F11A09D6
:104330000A9B013B434509DC23689B0700F101818F
:10434000E0680B9B9842B8BF184635E701234A4600
:1043500031462846B84701303FF42CAF08F1010838
:10436000E6E7099B002B2BDC0123264A3146284631
:10437000B84701303FF41EAFDDE90923134302D1F2
:104380002368D907D8D5DDE9062331462846B84742
:1043900001303FF40FAF4FF0000904F11A0A099BF6
:1043A0005B424B4501DC0A9B94E7012352463146B0
:1043B0002846B84701303FF4FDAE09F10109EEE7A8
:1043C0000A9AA36D9A42A8BF1A46002A914607DDB1
:1043D0001346314642462846B84701303FF4EAAE1C
:1043E00004F11A034FF0000B29EAE979049315E070
:1043F000FFFFEF7F199B00001D9B0000219B000029
:10440000259B00007D9400000123049A3146284634
:10441000B84701303FF4CEAE0BF1010BD4F858A0F1
:10442000AAEB09035B45EFDCDDE909239A421BDBBC
:104430002368DA0718D4DDE9092392451CDBA3EBD6
:104440000A09B9F1000F08DD4B4608EB0A023146B4
:104450002846B84701303FF4ADAE4FF0000829EAD6
:10446000E97904F11A0A14E0DDE906233146284609
:10447000B8470130DFD19DE6A3EB0209E1E7012354
:10448000524631462846B84701303FF493AE08F112
:104490000108DDE909239B1AA3EB09034345EEDC80
:1044A0004AE70A9A012A01DCDB0737D50123424695
:1044B00031462846B84701303FF47CAEDDE906239B
:1044C00031462846B84701303FF474AE002200233D
:1044D000D4E9120104F0D4FAD8B90A9B08F1010218
:1044E000013B31462846B84701300ED162E6012330
:1044F000524631462846B84701303FF45BAE08F1DA
:1045000001080A9B013B4345F1DC4B4604F1500294
:10451000E1E64FF0000804F11A0AF2E701234246EF
:10452000DFE701234A4631462846B84701303FF4C9
:1045300041AE08F10108E3680B9A9B1A4345F0DC91
:10454000FEE64FF0000804F11909F4E72DE9F04701
:1045500091461F468A680B69DDF820809342B8BFF8
:104560001346C9F8003091F8432006460C4612B1B4
:104570000133C9F800302368990642BFD9F80030EA
:104580000233C9F80030256815F0060507D104F19B
:10459000190AE368D9F800209B1AAB4228DC94F88A
:1045A00043302268003318BF012392062DD404F152
:1045B000430239463046C047013020D02368E568C1
:1045C000D9F8002003F00603042B08BFAD1AA36836
:1045D00022690CBF25EAE57500259342C4BF9B1AEA
:1045E000ED184FF000091A344D451AD1002008E0AB
:1045F0000123524639463046C047013003D14FF0BF
:10460000FF30BDE8F0870135C3E7E1185A1C3020C0
:1046100081F84300224494F8451082F84310023395
:10462000C5E70123224639463046C0470130E6D06F
:1046300009F10109D8E7FFFF2DE9F04306460C46D2
:1046400001F14300097E85B06E29984617460C9B00
:1046500000F0BA8024D8632939D00AD8002900F0A4
:10466000C380582900F0918004F1420584F842107B
:1046700035E0642901D06929F6D125681A6815F05A
:10468000800F02F104012CD012681960002A03DAAD
:104690002D23524284F84330DFF8BCC10A233FE0A7
:1046A000732900F0A58008D86F2921D07029DBD1AB
:1046B000226842F02002226003E0752918D0782990
:1046C000D2D1782284F84520DFF890C161E01A68E1
:1046D000111D1960136884F8423004F1420501236A
:1046E00093E01268196015F0400F18BF12B2CDE7C1
:1046F000D4F800C01A681CF0800F02F104051D6098
:1047000001D0126803E01CF0400FFAD01288DFF8E5
:1047100048C16F290CBF08230A23002184F84310E5
:104720006568A560002DA2BF216821F00401216009
:104730000AB9002D46D00546B2FBF3F103FB112E5A
:1047400093421CF80EE005F801ED39D9082B0BD186
:104750002368DA0708D5236962689A42DEBF3023EE
:1047600005F8013C05F1FF35401B2061CDF80080C4
:104770003B4603AA21463046FFF7E8FE013049D107
:104780004FF0FF3005B0BDE8F083DFF8CCC084F80F
:1047900045101D68216855F8042B1D600D060BD5CA
:1047A000CD0744BF41F0200121601AB9236823F0EE
:1047B000200323601023B0E74B0648BF92B2EFE717
:1047C0000A46B9E70546C1E71A68D4F800C061692E
:1047D000151D1D601CF0800F136801D0196003E0E7
:1047E0001CF0400FFAD01980002323610546BDE775
:1047F0001A68111D1960156862680021284602F0C8
:1048000077FE08B1401B606063682361002384F871
:104810004330ABE723692A4639463046C04701306A
:10482000AED023689B0713D4E068039B9842B8BFBF
:104830001846A7E701234A4639463046C0470130AB
:104840009ED00135E368039A9B1AAB42F2DCEBE79A
:10485000002504F11909F5E7299B00003A9B0000A7
:104860002DE9F04F87B0174603938B685A1EB2F5B7
:10487000AE7F83BF6FF4AE755B190293002386BFD2
:1048800040F25D138B6002930B688B46002543F466
:10489000F0634BF81C3BCDE9045581460C465E465F
:1048A000AA46A8460195A26882B13B681B78492BAD
:1048B00075D04FD8392B41D8312B80F087802D2BE4
:1048C00000F08F8017D82B2B00F08B80B8F1000FF1
:1048D00003D0236823F4807323600AF1FF3ABAF10E
:1048E000010F00F2DD805E4500F2CF8001252846F1
:1048F00007B0BDE8F08F2E2B00F09380302BE5D170
:104900002168C80562D5029B21F08001216008F171
:1049100001081BB1013B01320293A260A368013B75
:10492000A3602369013323617B68013B002B7B601B
:1049300040F3A2803B6801333B60B4E7452B7AD05B
:10494000462B64D0412BC1D1BAF1010FBED14FF03B
:10495000020A43E0652B6ED01AD8542B5CD013D8D2
:104960004E2BB3D1BAF1000F42D1B8F1000F42D1B2
:10497000226802F4E061B1F5E06F3CD122F4F0620C
:1049800022604FF0010A29E0592B1BD0612BDAE796
:104990006E2BE7D012D8662B39D0692B96D195BBF8
:1049A000B8F1000F95D1226802F4E061B1F5E06F33
:1049B00093D122F4F062226001250FE0742B2BD0FA
:1049C000792B83D1072D81D1082507E01AEB050F3C
:1049D0007FF47CAF226822F4C072226006F8013BAB
:1049E0009CE7226810067FF571AF22F08002F4E7A1
:1049F000BAF1020F3DD0012D02D0042D7FF466AF35
:104A00000135EDB2EAE7032DFAD0052DF6E7022DC8
:104A10007FF45CAF0325E1E7062D7FF457AF072550
:104A2000DCE7226891057FF551AF22F42072226005
:104A3000CDF80480D2E7226802F4A061B1F5806F5E
:104A400006D050057FF542AFB8F1000F3FF445AFF7
:104A5000910558BF019922F4F06258BFA8EB0101FB
:104A600042F4C07258BFCDE9041622604FF000082E
:104A7000B4E74FF0030AB1E7D4F88031394648462D
:104A8000984700283FF40FAF20E7D4F87C3116F8A0
:104A9000011D3A46484698472369013B236122E7B6
:104AA0006B1E062B25D8022D36D85E457FF61EAF2D
:104AB000D4F87C3116F8011D3A46484698472369D8
:104AC000013B2361F1E70298D4F87C3110F8011D15
:104AD00002903A46484698472369013B23610AF110
:104AE000FF3A5FFA8AFABAF1020FECD1033DEDB258
:104AF000761B2368DA052FD55B0510D55E457FF65A
:104B0000F5AED4F87C3116F8011D3A464846984770
:104B10002369013B2361F1E7AA460296DFE716F815
:104B2000011C2369652903F1FF3306F1FF35236179
:104B30000CD045290AD0D4F87C313A4648469847EB
:104B4000236916F8021C013BB51E2361D4F87C31A1
:104B50003A46484698472E46256815F0100558D124
:104B60003570236803F4C063B3F5806F1CD1019BDB
:104B70004345A3EB080224D100225946484600F0E1
:104B8000D7FF039B21681B6811F0020F57EC106BD5
:104B900003F1040220D003990A601B68C3E900678F
:104BA000E3680133E360A2E6049B002BE4D005999F
:104BB0000A232A460131484601F038F8049B059E35
:104BC000C21A04F26F139E4228BF04F5B776124949
:104BD000304600F08BF9CFE711F0040F03990A601B
:104BE000DBD1D3F8008010EE102A3B4610EE100AFD
:104BF000394603F077FF28B1084800F071F988EDD5
:104C0000000ACDE73046394603F0CAFFC8F8000075
:104C1000C6E700256BE600BF4B9B0000D98D000066
:104C20000FB40A4B13B51C6824B1A36913B920460D
:104C300002F01EF805AB049AA16801932046FFF725
:104C4000A3F802B0BDE8104004B070475001001056
:104C500070B50E46054618B183690BB902F008F825
:104C6000AB69AC6813B9284602F002F82C4B9C42A1
:104C700020D16C68636EDB0705D4A389980502D444
:104C8000A06DFEF76CFFA38919071DD52369DBB161
:104C9000013EA36816F8011F013BA36039BB002B3E
:104CA00038DA22460A21284600F0C2FF013011D02E
:104CB0000A2511E01B4B9C4201D1AC68DAE71A4B84
:104CC0009C4208BFEC68D5E72146284601F002F86F
:104CD0000028DDD04FF0FF35636EDA0705D4A389D5
:104CE0009B0502D4A06DFEF73BFF284670BD002B4C
:104CF00004DAA2699A4206DC0A2904D023685A1C05
:104D000022601970C5E72246284600F091FF013065
:104D1000BFD1DFE723680A255A1C22601D70DBE73C
:104D2000D09B0000F09B0000B09B0000024B0146AE
:104D30001868FFF78DBF00BF5001001038B5064C52
:104D40000023054608462360FBF7FCFA431C02D10A
:104D5000236803B12B6038BD880A00102DE9F743A2
:104D60001E465B4B1D6804460F46904625B1AB6955
:104D700013B9284601F07CFF564B9C4266D16C6803
:104D8000B8F1020F06D0B8F1010F00F29D80002E9D
:104D9000C0F29A80636EDA0705D4A3899B0502D41A
:104DA000A06DFEF7DCFE2146284601F0CDFE616BCA
:104DB00041B104F14403994202D02846FEF712FFA4
:104DC000002363630023A3616360A389180603D5EE
:104DD00021692846FEF706FFA38923F44A6323F0DE
:104DE0000303B8F1020FA3816AD001AB6A462146E2
:104DF000284602F007FBA3891843A081002E2FD17B
:104E0000009E3046FEF7AEFE0746002853D1DDF87F
:104E10000090B14548D14FF0FF350022A26004F167
:104E20004702226022610122B4F90C306261626E95
:104E300043F00203D107A38104D49B0502D4A06DE3
:104E4000FEF78EFE284603B0BDE8F083224B9C425D
:104E500001D1AC6894E7214B9C4208BFEC688FE716
:104E6000002FCED0AB6913B9284601F001FFB8F18D
:104E7000010F08BFA389276004BF43F00103A3818A
:104E8000A38913F00802C4E904761BD0DA0741BFF6
:104E900000227642A260A66158BFA660656E15F03A
:104EA0000105CAD00025CDE74846FEF75BFE074660
:104EB0000028B0D04E46A38943F08003A381D1E7F8
:104EC0000025AAE7A260E9E74FF0FF35BAE700BF87
:104ED00050010010D09B0000F09B0000B09B000030
:104EE0009FED010A704700BF0000C07F0EB400B5FF
:104EF0009CB01DAB029006906FF0004109480791ED
:104F00000491094953F8042B05910068019302A903
:104F100002F0D2FF029B00221A701CB05DF804EB75
:104F200003B07047500100100802FFFF034613F85A
:104F3000012B002AFBD1181A0138704710B56AB14D
:104F40000139841810F8013B11F8012F934203D165
:104F5000A04201D0002BF5D1981A10BD1046FCE7F5
:104F600070B504460D4645EC104B164602F0E2FDC6
:104F700051EC100B7EB1C5F30A53C3F16B03002B48
:104F800009DD1B0503F17F55002405F54015224678
:104F90002B4603F00DFB70BD2DE9F04FA1B01F466D
:104FA00000231C939B4B04901B68179218460E46D7
:104FB0000593FFF7BBFF4FF0000A04464FF0000BCC
:104FC0001B961B9A13780D2B32D8092B36D2002B47
:104FD0003ED000230C931B9D2B78302B40F0A980F2
:104FE0006B78582B01D0782B67D10C9B01931CABAD
:104FF000009302971DAB884A04981BA901F024FF77
:1050000010F00704064605D0062C2BD101350023ED
:105010001B950C93179B002B40F076850C9BE3B1FE
:1050200052460BF1004343EC102B21B0BDE8F08F4A
:105030002B2B06D02D2B13D0202BCAD101321B9243
:10504000BFE700230C93531C1B935378002BC2D152
:10505000179B1B96002B40F0558552465B46E2E7B6
:105060000123EFE71C9A3AB135211EA802F059FE40
:105070001C99049802F0CCFA013C042C06D8DFE815
:1050800004F00A0314170A00DDE91EAB3107C1D58D
:105090004BF0004BBEE7DDE91EA31D9A23F48013FD
:1050A00002F2334243EA025BF0E7DFF870B1EDE76A
:1050B0006FF0004B4FF0FF3AE8E71B9B5A1C1B9226
:1050C0005B78302BF9D0002BA4D001234FF00009DE
:1050D00006931B9B0993CDF81C90C8460A221B9887
:1050E0000578A5F13003D9B2092924D922460599BA
:1050F000FFF724FF78B300202B4644460590024674
:10510000652B01D0452B12D11CB9069B03439FD0C0
:1051100000241B9E731C1B9373782B2B72D02D2B9A
:1051200075D00027A3F1300109297DD91B960025F0
:105130009AE00023CAE7B8F1080FD8BF079900F139
:105140000100DABF02FB0133079302FB093908F1C2
:1051500001081B90C3E71B9B1A191B921B5DB8F13A
:10516000000F36D005904446A3F13002092A12D927
:105170000122C5E71B9B5A1C1B925B780130302B28
:10518000F8D0A3F13102082A00F2C3841B9A0590DB
:10519000002009920446303B00F1010213D005992A
:1051A00011440591224605190A21AA4213D1221859
:1051B000082A04F1010404441ADC07990A2202FBBC
:1051C0000133079300221B9B591C1B915B781046EF
:1051D000CAE74046D3E7082A04DC079F4F430797F6
:1051E0000132E2E7571C102FD8BF01FB09F9F7E79E
:1051F000102CDCBF0A2202FB0939E3E700230593E8
:10520000012282E70027B31C1B93B3788AE70127AA
:10521000F9E700BF109C0000509B00000000F07FE9
:105220001B9B591C1B915B78302BF9D0A3F13101EA
:1052300008293FF67CAFA3F1300C1B9B08934FF07D
:105240000A0E1B9B591C1B915B78A3F13005092D9D
:105250002ED9089D491B082944F61F6502DC6545C7
:10526000A8BF654607B16D42002C4BD1069901439A
:105270007FF4D0AE002A7FF4EBAE4E2B22D01CDCA4
:10528000492B7FF4E5AE9A491BA802F013F80028D9
:105290003FF4DEAE1B9B9749013B1BA81B9302F01A
:1052A00009F810B91B9B01331B93DFF860B2B1E61C
:1052B0000EFB0C3CACF1300CC3E7692BE3D06E2B3A
:1052C0007FF4C6AE8C491BA801F0F4FF00283FF420
:1052D000BFAE1B9B1B78282B0ED11EAA87491BA88B
:1052E00001F0FCFF052807D11F9BDDF878A043F0F3
:1052F000FF4B4BF4E00B8DE6814802F0D5FE5BECF2
:1053000010AB87E6059B0798EB1AB8F1000F08BFB2
:10531000A046102C08932646A8BF102603F0CEF80E
:10532000092C82468B4613DD764B03EBC60353E90B
:10533000122303F03DF9824648468B4603F0BEF83F
:1053400002460B465046594602F07CFF82468B4689
:105350000F2C38DC089B002B3FF45CAE24DD162BB1
:105360000BDC684C04EBC304D4E9000152465B46F5
:1053700003F01EF982468B464CE6089AC4F12503D9
:10538000934220DB5F4DC4F10F0405EBC40152468C
:105390005B46D1E9000103F00BF9089B1C1B05EBF0
:1053A000C405D5E90023E3E7089B16330BDB059B17
:1053B000544A5D1B02EBC505D5E90023504659460A
:1053C00003F020FAD6E7089BA61B1E44002E6EDDD4
:1053D00016F00F030AD04B4901EBC30152465B465E
:1053E000D1E9000103F0E4F882468B4636F00F065F
:1053F0004ED0B6F59A7F23DD0024059409940794D6
:10540000049ADFF808B1222313604FF0000A099BC9
:10541000002B3FF4FFAD1C99049802F0F9F80799AE
:10542000049802F0F5F8DDE9040102F0F1F80999B9
:10543000049802F0EDF82146049802F0E9F8E9E555
:105440000023DFF8C4903611504659461F46012EFE
:1054500021DC0BB182468B462B4BABF1547B03EB2B
:10546000C70752465B46D7E9000103F0A1F8274B76
:105470000A460B4026498B428246BDD8A1F58011D1
:105480008B4286BFDFF88CB04FF0FF3A02F1547BBD
:105490000023069379E0F20706D509EBC703D3E9A9
:1054A000002303F085F8012301377610CFE7EFD012
:1054B000764216F00F020AD0124B03EBC20350469D
:1054C0005946D3E9002303F09DF982468B463611F5
:1054D000DED01F2E20DD0024059409940794049A41
:1054E00022234FF0000A4FF0000B13608FE700BF3C
:1054F0001E9B0000A39B0000269B0000649B0000F5
:10550000D98D0000509C0000289C00000000F07F16
:105510000000A07CFFFFEF7F16F0100318BF6A2386
:10552000AE4F0693504659460023F20704D5D7E9FB
:10553000002303F03DF80123761007F10807F4D1AA
:105540000BB182468B46069BBBB1CBF30A53C3F12A
:105550006B03002B594610DD1F2B40F32981342BA0
:10556000DEBF203B4FF0FF3202FA03F34FF0000A98
:10557000CCBF4FF05C7B03EA010B002200235046B6
:10558000594603F07DFA0028A5D1079B00934246B7
:1055900023460999049802F08DF8099000283FF4F9
:1055A0002BAF059B5D1B089B002BB4BF2B46002334
:1055B0000E93089B002423EAE37316930594099B3A
:1055C0000498596801F0F0FF079000283FF418AFE5
:1055D000099B1A69023203F10C0192000C30FEF7AC
:1055E000D1FA1EAA1DA94BEC10AB0498CDE90AAB69
:1055F00002F016FB1C9000283FF402AF0121049832
:1056000002F0E6F80590034600283FF4F9AE1D9E2F
:105610001E9A002EABBF0E9B169B169D0E9FACBF15
:10562000F7189D1B069BF61A16446D4B013E9E42D1
:10563000C2F1360280F2C3809B1B1F2BC2BFC6F192
:105640007F4606F57F0606F57B464FF00108C8BF8A
:10565000E236A2EB0302DABF08FA03F8002608FAE2
:1056600006F607EB0209069B4F4515441D443B46D1
:10567000A8BF4B46AB42A8BF2B46002BC2BFA9EB2D
:105680000309ED1AFF1A0E9B002B17DD1A46DDE900
:10569000040102F037F9059000283FF4B1AE01464D
:1056A0001C9A049802F09DF80D9000283FF4A8AED3
:1056B0001C99049801F0ACFF0D9B1C93B9F1000FED
:1056C00000F38180089B002B08DD169A0799049847
:1056D00002F018F9079000283FF492AE002D08DD83
:1056E0002A460799049802F05BF9079000283FF4D6
:1056F00087AE002F08DD3A46DDE9040102F050F9DB
:10570000059000283FF47CAE079A1C99049802F09B
:10571000B4F9044600283FF473AEC3680D93002328
:10572000C360059902F08FF900285FDA0D9B53EAF8
:105730000A0340F08180CBF31303002B7CD12BF0C4
:1057400000431B0D1B05B3F1D66F75D9636913B9FF
:105750002369012B70DD21460122049802F020F913
:105760000599044602F06FF9002865DD06991D4A87
:105770005B4600297FD002EA0B01B1F1D66F7ADCDB
:10578000B1F15C7F7FF7ABAE174A0023CDE914324D
:105790005046DDE91423594602F00AFF0B46034345
:1057A00004BF049A222382468B4608BF136032E668
:1057B0004FF0FF3202FA03F303EA0A0ADDE600269D
:1057C0004FF001084DE74A461C99049802F0E8F8AA
:1057D0001C9000287FF476AF12E600BF789B000093
:1057E00002FCFFFF0000F07F000050395D4660D1F1
:1057F0000D9ACBF3130342B3B74A934228D1069BC9
:105800005046EBB1B54A2A40B2F1D46F4FF0FF31A8
:1058100019D8120DC2F16B0301FA03F3984217D1A4
:10582000AF4B9D4202D101303FF4EAADAB4B2B4070
:1058300003F5801B4FF0000A069B002BA4D1EAE57C
:105840004FF0FF33EAE70B46E8E753EA0A038DD04F
:10585000DEB12E42F0D00D9B069A50465946BBB1A0
:10586000FFF77EFB02460B46DDE90A0102F0EAFC87
:1058700082468B46E0E71340A3F580136FEA135B83
:105880006FEA0B5B4FF0FF3AD6E718EA0A0FE1E741
:10589000FFF766FB02460B46DDE90A0102F0D0FC89
:1058A0000022002382468B4603F0EAF80028C3D08A
:1058B00015E60599204602F001FA57EC106B00221C
:1058C0004FF0804310EE100A394603F0EDF800283F
:1058D00073D00D9B002B46D0DFF808924FF00008E4
:1058E000804F00267D4B2B400F930F9A7E4B9A42A0
:1058F00040F0AB80DDE90A23A5F1547B4BEC10AB03
:10590000CDE9142302F016F9404653EC102B49461A
:1059100002F04EFE52465B4602F094FC0B466F4985
:10592000724A1940914282465BD90B9B02F1547234
:10593000934203D10A9B01333FF462ADDFF8A0B17B
:105940004FF0FF3A1C99049801F062FE0799049801
:1059500001F05EFEDDE9040101F05AFE21460498E3
:1059600001F056FE2BE6BAF1000F18D1CBF313036A
:10597000DBB900225B4B3046394603F08BF8C8B9DF
:105980003046394600225A4B02F012FE06460F46B8
:1059900007F1004318961993DDE91889A2E7BAF1D7
:1059A000010F02D1002D3FF49AAD4FF00008DFF84F
:1059B000449195E700264E4FEAE74D4B3046394675
:1059C000002202F0F5FD0D9B06460F4633B901F1AA
:1059D000004310901193DDE9108983E7CDE910674A
:1059E000F9E703F1547B069B002BABD12BF000436E
:1059F0001B0D0F9A1B059A42A4D13046394603F07D
:105A00001FF902F0A7FD02460B463046394602F068
:105A100017FCCBF313030D9A43EA0A03134306461C
:105A20000F4669D026A3D3E9002303F033F80028FA
:105A30007FF4F1AC24A3D3E900233046394603F0C8
:105A400047F800283FF47EAFE5E4069B1BB30F9BAD
:105A5000B3F1D46F1FD81EA3D3E9002330463946D3
:105A600003F022F890B13946304603F079F8002867
:105A700008BF012002F022FD0D9B06460F46DBB950
:105A800001F1004312901393DDE912890F9A09F195
:105A9000D663A3EB02099DED0A0B02F04BF84046DA
:105AA00053EC102B494602F083FDDDE90A2302F096
:105AB000C9FB82468B4696E7CDE91267E4E700BF53
:105AC0009535A094FFFFDF3F35E5AF350000E03F9F
:105AD0000000C0FFFFFFDF41FFFF0F000000F07F6D
